:020000040800F2
:100000000050002089010008D10100080000000014
:10001000D1010008D1010008D10100080000000052
:10002000000000000000000000000000D1010008F6
:10003000D101000800000000D1010008D101000832
:10004000D1010008D1010008D1010008D101000848
:10005000D1010008D1010008D1010008D101000838
:10006000D1010008D1010008D1010008D101000828
:10007000D1010008D1010008D1010008D101000818
:10008000D1010008D1010008D1010008D101000808
:10009000D1010008D1010008D1010008D1010008F8
:1000A000D1010008D1010008D1010008D1010008E8
:1000B000D1010008D1010008D1010008D1010008D8
:1000C000D1010008D1010008D1010008D1010008C8
:1000D000D1010008D1010008D1010008D1010008B8
:1000E000D1010008D1010008D1010008D1010008A8
:1000F000D1010008D1010008D1010008D101000898
:10010000D1010008D1010008D1010008D101000887
:10011000D1010008D1010008D1010008D101000877
:10012000D1010008D1010008D1010008D101000867
:10013000D1010008D1010008D1010008D101000857
:10014000D1010008D1010008D1010008C116000842
:10015000D1010008D1010008D1010008D101000837
:10016000D1010008D1010008D1010008D101000827
:10017000D1010008D1010008D1010008D101000817
:10018000D1010008D1010008684620F007018D4622
:1001900001B50A4A0A4B0B4903E052F8040B43F835
:1001A000040B8B42F9D3084B0849002201E043F8C5
:1001B000042B8B42FBD300F00DF8FEE7A03A0008B9
:1001C000000000203800002038000020381C0020EB
:1001D000FEE70000F7B5002000F0A0FF002001F0CE
:1001E0001DF9012001F0A0F8684601F0B8FECD48E5
:1001F00001238DF8043000251F33CB4E8DF80550B8
:100200008DF8065069460383009301F061FE4FF4B8
:100210000053338330466946009301F059FE0823AA
:10022000338330466946009301F052FEBF4E731986
:1002300070599B88694603830835009301F048FE96
:10024000302DF4D1B74F8026B74D7E8338466946AE
:10025000009601F03DFE48F2000169834FF400432F
:1002600028466946009301F033FE20236B8328461D
:100270006946009301F02CFEAA4B20225A834FF4CA
:10028000005708226F8301206A8301F0E7F8A5492F
:1002900020230B8308232F8301202B8301F0DEF81A
:1002A00016F1FF36A04CE7D1A14D04214FF40062B6
:1002B0004FF4805361836A834FF480616383994B69
:1002C000698348F200024FF480715A8301206183F0
:1002D00001F0C4F804224FF400634FF480512283EC
:1002E0002B834FF4806221838E492A8348F20003D6
:1002F0004FF480720B830120228301F0AFF80123B9
:100300008DF8073002AD1F3345F8083D8548694632
:100310008DF8046001F0DCFD20466946009701F08D
:10032000D7FD082100912046694601F0D1FD7F4CA0
:10033000A3199B88A05969460836009301F0C8FDAF
:10034000302EF5D1774C802320466946009301F08A
:10035000BFFD4FF4004374486946009301F0B8FDB7
:10036000202369467048009301F0B2FD642001F03B
:1003700015F8266901F0B8F9C5B206F001061DB9F5
:10038000236913F0010F0BD03EB18020012101F051
:100390004FFE8020002101F04BFE002001F0AAF961
:1003A000002000F04FFB002000F026F965B95D4BFE
:1003B0001B6913F0010F40F0AE80A7E05D4B1B7886
:1003C000002B00F0A8803EE0102000F0E9FAA2E047
:1003D00001F016F86422B0FBF5F3B3FBF2F102FB77
:1003E0001133B0FBF7F207FB120241F288315B08D0
:1003F0008A42B0FBF5F105FB110188BFC3F132035E
:100400000446994294BF00210121012000F0AEFF73
:100410000A23B4FBF3F203FB12440CB900F034FEE0
:10042000002000F043FD00F0EBFF44F61F62904215
:10043000CED900F0EBF80028CAD126B139490B69B2
:1004400013F0010FC4D101F0B5FC0120002100F030
:100450008DFF394BDB78082B41D16FF0070001216C
:1004600001F0D8FD6FF08000012101F0E1FD4FF0B7
:10047000FF30012101F0EAFD4FF0FF30012101F0D2
:10048000F3FD4FF0FF30002101F0C4FD4FF0FF30CD
:10049000002101F0CDFD4FF0FF30002101F0D6FD2D
:1004A0004FF0FF30002101F0DFFD46B18020012137
:1004B00001F0BEFD8020002101F0BAFD08E001F04E
:1004C00013F928B11D48D0F8E0350BB102F0F5FA68
:1004D0001B4B1B6883F30888174B1B68984740F237
:1004E000F31400F083FF0120014600F03FFF00F00D
:1004F00087FFA042FBD900F079FF0120002100F026
:1005000035FF00F07DFFA042FBD9EAE70D4B1B78D9
:10051000422B3FF453AF00F069FF322542F21077CF
:1005200056E700BF000002400004024064380008A3
:10053000000C0240D33F000804400008E0150020F2
:1005400000400008D23F0008134B1A78032A0CD849
:10055000124900F07F00D1F800C04FEACC1C4CEAF1
:100560000010086013D1042212E0072A88BF4FF060
:10057000FF300FD80A4900F07F00D1F800C04FEAE1
:10058000CC1C4CEA0010086001D1082200E00132C6
:100590001A700020704700BFFC04002038000020C3
:1005A0004800002070B5134B16461A7888B08DF8B5
:1005B00000205A780D468DF801209A7804468DF86F
:1005C0000220DA781B798DF803208DF8043000F0D2
:1005D0009FFDF7238DF805006946204609228DF816
:1005E00006508DF807608DF8083000F0A1FA08B0C9
:1005F00070BD00BF9439000810B9034B187001E0BA
:100600004FF0FF30704700BFFD040020014B187809
:10061000704700BFFD040020F7B51E460D46174683
:10062000044600F06BFD00F0E1FE012E06D0022E24
:1006300018BF4FF0FF3040F08B8189E01DB1012DD4
:10064000C84B0BD105E0C74B1D70C74B1D60C74B96
:1006500091E01B78072B00F27A8197E01B78082B3A
:1006600040F0E680C04BC24D1F68C04B1E68C14BB6
:100670001A782A705A786A709A78AA70DA781B7990
:10068000EA702B7100F044FD4FEA566C6871780EE9
:100690000223E871C7F386416044AB712972C7F346
:1006A000C6234118C7F30612C9186B728918C6F31E
:1006B00086432B73C918C6F3C623C9186B73C6F3D8
:1006C0000613AB73CB1803F0FF010023AA7285F861
:1006D0000BC01A460F351846019422E010F807E0C7
:1006E0004FF0000C01334FEADE14DBB244EA420261
:1006F0004FEA4E0E062BD2B25FFA8EFE09D9C3F135
:1007000007039A40D2B25118002305F8012BC9B251
:100710001A460CF1010C5FFA8CFCBCF1080FE1D118
:100720000130B042DAD1019C1BB1891805F8012BC8
:10073000C9B249422A4601F07F0102F8011B8C49E7
:10074000F72301326B70521A204600F0F1F9FEE0F7
:1007500015B1012D5CD111E0824B1D70824B1D60E3
:10076000824B1D60844B1D70844B1D70844B1D603B
:10077000844B1D60844B1D602846E9E0794B187856
:10078000072807D87C4B1A78BA181A703846FFF732
:10079000DBFEDCE0082832D1774B1A78BA181A70E1
:1007A000774B1B68B3F5806F80F0D1806F4A704E35
:1007B0001468754A4FF0000C1168724A2546126899
:1007C0000132C7F380147F00072A44EA4101FFB2D7
:1007D00005D9F1540133AB4228BF092000220CF1A6
:1007E000010CBCF1070FEBD1DFF89CC1CCF8001075
:1007F00064490A60624A13605A4B1870A7E00928DE
:1008000004BF5E4B1F7000F0A2800C221A709EE0A5
:10081000564B1B6801935A4B019A1B68934203D2B3
:1008200020460E21012213E04E4B1B780C2B03D1E6
:1008300020460E2132460BE0504B1A784E4B1B7867
:100840005B4203F07F039A4205D020460E2103222B
:10085000FFF7A8FE7BE04D4B01221A70424B019A34
:100860001D6845EA020313F0030F63D1484B9D4214
:1008700063D900F0E7FC00F100600138854249D8F7
:1008800001F08AFA002243491346885885421BD159
:10089000414A954202D1414A00211160012098400D
:1008A0003E4A116808420CD140EA01011160394A00
:1008B0000C2101FB03230221586801F0D3FA082818
:1008C00017D12B4E002720E001330C320C2BDCD14A
:1008D000F7E7B1787378264A090441EA0321D35D2A
:1008E0001943F378043641EA036101F09DFA0828C0
:1008F00006D04FF0FF3001F065FA6FF003021EE002
:1009000001F042FA01F038FA0437019B78199F424E
:10091000DFD31EE0B5F1005F0FD300F09BFC00F1C8
:1009200000500138854208D828461149019A02F042
:100930008DFF0EE06FF0080201E06FF007025242F7
:10094000D2B220460E21FFF72DFE00F09DFB0020C5
:10095000FEBD094B20461A780F21524202F07F0259
:10096000F1E700BFFC040020380000204800002010
:100970005000002094390008400000204C00002066
:10098000F80400200005002044000020FD040020A1
:10099000FF3F000894380008004000083C00002099
:1009A00010B5114B88B01A7804468DF800205A789B
:1009B0008DF801209A788DF80220DA781B798DF86D
:1009C00003208DF8043000F0A3FB01238DF805000F
:1009D0008DF806302046F633694608228DF8073038
:1009E00000F0A6F808B010BD9439000808B5202022
:1009F000FFF7D6FF1020FFF7D3FF024B002018703F
:100A000008BD00BFFD04002008B50A4A137803F0B2
:100A10000803DBB23BB1084B1B78834203D10023B0
:100A20001370064A1370064B1B6803B198470020E9
:100A300008BD00BF2805002014050020090500207E
:100A40001805002010B504464FF0FF30002C2AD1C5
:100A5000154A10231370154A20461370144B1C605E
:100A6000144B1C60144B1C60144B1C60144B1C601A
:100A7000144B1C6000F04AFF134B144A1C70144BBB
:100A8000C00F1C70134B1C701278422A05D1124AF9
:100A9000127812F0800F08BF1A70104A00231380DA
:100AA0000F4A4042136010BD0000002001000020EA
:100AB0000C05002004050020240500201805002056
:100AC0001C0500201005002014050020D03F000860
:100AD0002805002015050020D13F0008160500203C
:100AE0002005002010F0F00F38B504460D4604D163
:100AF00001280CBF0B4B0C4B1C780C4B64F30715F7
:100B00001B681BB120462946984748B904F0F004F9
:100B1000102C18BF4FF0FF3002D1284600F06AFFBA
:100B200038BD00BF010000200000002004050020A7
:100B3000F0B585B0174603900D4600260623072220
:100B40004FF0040C40E0B91B022914D003291FD038
:100B50000129A95D18BF6CF3030406F1010618BF53
:100B600061F30F241AD1052060F3030461F30F240D
:100B70006FF3174409E0A95D63F30304013661F3E1
:100B80000F24A95D013661F317446FF31F640DE074
:100B9000A95D62F3030461F30F240136A95D0136F8
:100BA00061F31744A95D013661F31F640398214680
:100BB00001920293CDF800C0FFF794FF0028019A3C
:100BC000029BDDF800C002DBBE42BCD3002005B0B2
:100BD000F0BD000010B5F023A0B08DF80030002368
:100BE0008DF801308DF802307E338DF803303223DA
:100BF0008DF804300E4B0DF16B0C1B788DF8053021
:100C00000F238DF806306B46DA1D03E002F8014B26
:100C1000624503D011F8014B002CF7D1F72102F8FF
:100C2000011BD21A6946FFF783FF20B010BD00BF39
:100C30001505002000B5F02389B08DF800300023A1
:100C40008DF801308DF802307E338DF80330322379
:100C50008DF80430084B8DF806101B788DF80720AE
:100C60008DF805306946F72309228DF80830FFF723
:100C70005FFF09B000BD00BF15050020F0B5494E6B
:100C80008BB0337804460D461746FFF7C5FC0028A5
:100C900080F2858031780D2964D001D829B174E0C3
:100CA0000E297CD00F2970D162E01DB1012D3E4B81
:100CB00005D102E03C4B1D7071E01F706FE01B78A6
:100CC000052B28D00AD8022B18D002D8012B45D1E9
:100CD00011E0032B15D0042B40D115E0082B32D0A6
:100CE00004D8062B21D0072B38D129E0092B2DD091
:100CF0007F2B33D12FE020462C4929E020462C4978
:100D000026E020462B4923E000F096FA6D46024685
:100D1000294968460FE0684600F0A0FA00286D46B1
:100D2000BCBF2046254908DA12E000F08BFA2449BE
:100D300002466D46684600F0F3FF2046694607E02C
:100D400000F088FAF3E720461E4901E01E492046DC
:100D5000FFF740FF23E0FFF749FE20E020460E2189
:100D60000D220FE0022D1AD120460E21102209E09B
:100D7000164B15B1012D154B01D15D600FE05A687E
:100D80006AB92046FFF756FF09E00E210A462046C1
:100D9000FFF750FF0D4A00231370024A1370002022
:100DA0000BB0F0BD0905002008050020343900080B
:100DB0003B3900084C390008563900085B390008F7
:100DC0005D390008603900087239000828050020E4
:100DD000F72910B50A465CD82F4B1C7804F008039D
:100DE000DBB21BB12D49097881424FD1A0F111012D
:100DF000C9B206294AD9294908700BBB264B1B7872
:100E000003F00703042B03D82549C95C914223D181
:100E100004F00704052C03D12249097891421BD123
:100E2000013303F007021C4B052A197862F3020113
:100E300084BFCAB242F00802197088BF1A7028E055
:100E400012F0800F0ED0F72A06D104F01004E4B29D
:100E500014B10221FFF712FF0F4B00201870124B44
:100E6000187017E004F01004E4B25CB90A4B19786A
:100E700041F0100119700C4B21461A70FFF7FEFE6D
:100E8000204607E00121FFF7F9FE02E04FF0FF30B6
:100E900000E0002010BD00BF280500201405002040
:100EA000943900081505002009050020F0B501213E
:100EB00087B000250646029101952F4600E0039F6A
:100EC0007B1CDBB2039317B10C2F0BD8A2E005A853
:100ED00000F0AAFD0599C1F30314103410F10A0FB4
:100EE00013D10DE0019A2B1E18BF0123092A8CBFD4
:100EF000002303F00103002B40F0BE80029389E041
:100F00002046FFF781FD029784E00028C0F282802E
:100F1000019A67F30711531CDBB2019301F00F0331
:100F200003F1080202F00F020135062AEDB2059125
:100F300002D8204686B96DE09A1E0D2A6AD8DFE8ED
:100F400002F007070D444848696969696969690DD4
:100F5000002E5FD005992046B0475BE09DF8151044
:100F6000F729F5D8F0291CD1454A1368CBB904F00C
:100F7000F002102A02D0302A13D109E0414A13802E
:100F8000012204F00F0312FA03F33D4A138008E034
:100F90003C4A1380012204F00F0312FA03F3384A8B
:100FA00053802046FFF714FF9DF8143003F00F0321
:100FB0000F2B2FD09DF816102046FFF709FF9DF844
:100FC00017102046FFF704FF24E09DF81520F72AAC
:100FD000BED8043BDBB2EBB19DF815702046394614
:100FE0000093FFF7F5FE009B012B0ED09DF81670C5
:100FF00020463946FFF7ECFE009B022B05D09DF8FA
:10100000177020463946FFF7E3FEF72F02D11C4B3D
:10101000002119601A4B1A683AB31A490A88B2F5C6
:101020007A7F22D9198861B1002251FA02F313F0B4
:10103000010303D10132102AF7D11A461032D0B27F
:101040000DE0588858B10B4650FA03F212F0010235
:1010500003D10133102BF7D113463033D8B2FFF749
:10106000D3FC074B00221A6003E0029A002A7FF4A7
:1010700026AF002007B0F0BD00250395CAE700BFEA
:10108000200500201605002008B500F0F9FC044BEF
:101090004FF6FF711A888A4201D001321A8008BDCA
:1010A00016050020F0B5134E85B034680746ECB144
:1010B000C1F307638DF80E300F4BC1F30742C1F344
:1010C0000720002401F00F018DF80D208DF80C0091
:1010D0005A5C254608E003AB595D384601923368F7
:1010E0009847019A044301359542F4DB204605B048
:1010F000F0BD00BF0C05002024390008012817BFEF
:10110000024B4FF0FF3018700020704701000020A4
:10111000014B1878704700BF1505002013B5044631
:101120004FF0FF30002C79D11F20012100F03AFF51
:101130003B4B01949A6802F00C02082A02D1012369
:1011400001935DE01A6842F001021A609C601A681F
:1011500022F0847222F480321A60324A5A601A688D
:1011600022F480221A60DC6000941A6842F4803213
:101170001A601A6802F400320192009A0132009259
:10118000019A1AB9009AB2F5A06FF2D1244B1B68EC
:1011900013F4003318BF01230193019B012B2FD1BE
:1011A0001F4B1A6C42F080521A641F4A116841F4B6
:1011B000804111609A689A609A6842F400429A608D
:1011C0009A6842F4A0529A60184A5A601A6842F02B
:1011D00080721A601968124A11F0007FFAD0144B1D
:1011E00040F205611960936823F0030393609368EC
:1011F00043F002039360936803F00C03082BFAD1C9
:101200000C48002100F0A6FD4FF4407000F098FD5E
:101210000198012814BF4FF0FF3000201CBD00BF13
:10122000003802401030002400700040085440078D
:10123000003C024000000008014B1868704700BFE6
:10124000002004E0024B188880B28002704700BF83
:10125000227AFF1F4FF440307047000000230B4AF2
:1012600059108A18127813F0010F08BF120902F002
:101270000F02092A94BF302137218A18C254013342
:10128000182BECD10023037618467047107AFF1F05
:10129000084B1B681BB9EFF31082074B1A604FF025
:1012A000010080F31088034B00201A6801321A6095
:1012B000704700BF3405002030050020064A4FF07B
:1012C000FF3013683BB1013B13601BB9034B1B6834
:1012D00083F310880020704734050020300500207B
:1012E0000F2988BF4FF0FF3018D80D4B42B2DB6892
:1012F0005209DB43C3F30223C3F104039940094BB2
:101300000901C318C9B283F8001300F01F000123BC
:1013100013FA00F0034B43F822000020704700BF8F
:1013200000ED00E000E100E037B50446684600F05B
:1013300016FE01238DF80430013B8DF80630023390
:1013400014F0010F6D468DF8053006D04FF4805330
:1013500005486946009300F0BBFD34F00F040CBF54
:1013600020466FF001003EBD000C024010F0010F5E
:101370000BD011F0010F15BF074B074B4FF48052F4
:101380004FF4805214BF1A835A8330F00F0018BFF5
:101390006FF00100704700BF000C024030B5012122
:1013A00085B00446102000F019FE4FF6FF7302933B
:1013B00054235C430C4D013CADF804402846002406
:1013C00001A9ADF80C40ADF8064000F05BFE01212C
:1013D0000A46284600F0BFFE2846012100F0AEFE76
:1013E000204605B030BD00BF001000400348012179
:1013F00008B5416200F0C6FE002008BD00100040A4
:10140000054810B50121446A00F0B0FE002818BF5D
:101410004FF0FF34204610BD001000401FB50446B9
:101420004FF0FF30B4B90120014600F0E5FD4FF662
:10143000FF7302930848A72301A9ADF80430ADF863
:101440000C40ADF8064000F01DFE0348012100F0FD
:1014500075FE204604B010BD00000140044B5A6ADE
:1014600092B2596A891A89B28142FAD9002070472A
:101470000000014012230B8000487047E839000843
:1014800004230B8000487047E439000810B586B08B
:101490001F49122201A802F0D9F91E490122002396
:1014A00006E0203AD2B25F2A8CBF0022012201332B
:1014B0001F2BCCBF002002F0010020B111F8012F3A
:1014C000002AEED10132002B0CBF002302F00103F1
:1014D00001A903B11049114A02234FF0000C04E0A6
:1014E00002F8020C02F801CC023311F8010B0232AF
:1014F000041E18BF0124632BCCBF002404F0010498
:10150000002CEDD1064803700323437006B010BDD4
:1015100060390008DF3F0008E03F0008D21B0020D0
:10152000D01B002008B5FFF7B1FF08BD08B5FFF7D5
:10153000ADFF08BD70477047704770477047002087
:10154000704700207047000065230B8000487047FB
:10155000283A000870B58CB00BAD03220C4601AEE2
:101560000849284602F072F93046FFF777FE002856
:10157000ACBF304628460449224601F053F90248E0
:101580000CB070BD183A0008D01B00207FB5084C85
:1015900001AD0E460C222846064902F057F92846AE
:1015A0002146324601F03EF9204604B070BD00BF2E
:1015B000D01B00201B3A0008022908B503D10846B9
:1015C000002100F06FFA002008BD012908B503D101
:1015D0000846013900F05CFA002008BD10B5022170
:1015E000044601F0F4FD2046812101F0F0FD0020C9
:1015F00010BD08B5002000F08FF908BD08B5012026
:1016000000F08AF908BD0000022110B5402204460E
:101610000B4601F0B3FD812140220223204601F058
:10162000ADFD0221034A4023034801F0EFFD0020F5
:1016300010BD00BFA0150020E015002013B501204B
:10164000014600F0AFFC4FF4D853194C009303232C
:101650008DF80530013B8DF80430204600236946A3
:101660008DF806308DF8073000F032FC2046082156
:101670000A2200F07DFC204609210A2200F078FCB5
:1016800020460B210A2200F073FC0A2220460C217E
:1016900000F06EFC01214FF4804000F0ADFC802092
:1016A000012100F08DFC012000F060FB1CBD00BF9B
:1016B0000000024008B543200821FFF711FE08BDD5
:1016C00008B5024801F048FE08BD00BFE015002043
:1016D00008B580B2FFF7C2FE08BD08B54FF47A73B3
:1016E0005843FFF7F5FF08BD4FF0A0431868C0F35B
:1016F000C0407047022837B5054688BF4FF0FF301D
:101700003ED8FFF776FF4DBBFFF7EEFF30B31D4C21
:101710002046FFF793FF1C4B0121C4F8E0351B4B1B
:101720002046C4F8E4351A4BC4F8E83501F0E6F871
:10173000204601F0BBF9204601F02AFA2046FFF7C7
:10174000B9FF01210323204684F8101184F81231D7
:10175000FFF75AFFFFF752FF284611E00B4B01211C
:101760000B4A00930748084B00F0FFFD054801F0C5
:10177000E9FD3220FFF7B1FF024801F0D9FD00205A
:101780003EBD00BFE0150020B8390008FC39000854
:101790009C390008F0B52B4C85B0D4F8E035002B0F
:1017A0004DD0FFF775FD284B1B78002B45D0D4F8A2
:1017B000D853C5F38F05002D3FD0244B29B21A888A
:1017C00092B2C2F50072914237DA013D204F214CAE
:1017D000214AADB240F2FF1C57F8046B0392C6F3E6
:1017E0000310103031460193CDF808C0FFF75AFCC2
:1017F000039A019BDDF808C080B9218889B242F8BC
:1018000021602188013189B22180218889B2614516
:1018100088BF20801988013189B21980013DADB29D
:10182000691C09B20029D7DC074B00221A70054851
:101830000221074A402301F0E9FCFFF73FFD05B014
:10184000F0BD00BFE01500208015002078050020C5
:10185000A015002082150020800D0020244B10B51B
:10186000D3F8E035002B42D0FFF712FD214B1B7857
:10187000002B3AD1204B1A8892B2002A35D01F4A49
:101880001278002A31D01A881D4892B2102A98BFC7
:101890001B88184A94BF9BB2102301211170164A6D
:1018A000DFF860E0118840F2FF1CC91A89B211808C
:1018B0001BB20021144A10E01488A4B25EF8244040
:1018C00040F8044B14880134A4B214801488A4B2E4
:1018D000644501D90024148001319942ECDB9B005E
:1018E00003488121064A01F0B9FCFFF7E7FC10BD6F
:1018F000E01500207C0D0020841500208A150020B2
:10190000380500207C05002086150020002814BF23
:101910004FF0FF3000207047104A002313801188D9
:101920000F4A89B2118011880E4A89B211800E4A7D
:1019300013700E4A138011880D4A89B211801188E4
:101940000C4A89B211800C490C4A10B10120087070
:1019500001E00B7001231370002070477805002010
:10196000821500207A0500208015002084150020B3
:101970008C150020861500208A1500207C0D002083
:1019800038B5184D04462B784FF0FF304BB3164B4B
:101990001B889BB2B3F5FF7F09D9FFF75FFF2B7858
:1019A000002B14BF6FF001004FF0FF3019E0FFF77C
:1019B0006FFC0E4B0E491A8892B241F82240013258
:1019C00092B21A801A8892B2B2F5007F01D3002237
:1019D0001A80054B1A88013292B21A80FFF76EFC0A
:1019E000002038BD8A150020841500208C150020A9
:1019F0007C05002070B506460A4C42F20F7504E0E3
:101A00002388AB420CD8013323803046FFF7B8FF60
:101A100010F1020FF4D0002802DB024B00221A80E2
:101A200070BD00BF88150020124B10B51B880446FE
:101A30009BB24FF0FF30E3B1FFF72AFC0E4B0F4A89
:101A4000198889B252F8212022601A88013292B294
:101A50001A801A8892B2B2F5007F01D300221A8050
:101A6000044C2388013B9BB22380FFF727FC20888E
:101A700080B210BD780500207A050020800D00207E
:101A800008B5FFF787FEFFF7E9FE002008BD00005C
:101A900008B5034B00221A70FFF7E0FE08BD00BF37
:101AA0007C0D002008B5034B01221A70FFF772FE6F
:101AB00008BD00BF80150020002A30B5C8BF4FF018
:101AC000000C044602DC12E00CF1010C11F80C00D1
:101AD0000028F9D19445B4BFCCEB0202024613F0C2
:101AE000020F0CBF4FF0200C4FF0300C01E04FF014
:101AF000200C13F001000CD108E02CB1236883F80E
:101B000000C02368013323600130013A002AF4DC6D
:101B100008E0002006E024B125682B70236801331B
:101B20002360013011F8013B002BF4D108E02CB107
:101B3000236883F800C02368013323600130013A31
:101B4000002AF4DC30BD7FB594461C46089A099BF8
:101B50000D4649B94FF0300C8DF8051001A98DF8EC
:101B600004C0FFF7A9FF46E0BCF10A0F14BF002133
:101B70000121002C0CBF002401F001042CB1002D28
:101B800002DA6D42012400E000240A9E0DF1100EDD
:101B900000210EF8011D3A3E0BE0B5FBFCF10CFBF9
:101BA00011510929C8BF891930310EF8011DB5FB43
:101BB000FCF57146002DF0D1D4B192B113F0020FB3
:101BC0000FD058B1D0F800C04FF02D0E8CF800E0C7
:101BD000D0F800C00CF1010CC0F800C0013A01249B
:101BE00006E04FF02D0C0EF1FF310EF801CC002471
:101BF000FFF762FF001904B070BD0000F0B589B0B6
:101C000005460E46059200247DE0252B72D116F87C
:101C1000013F002B7BD0252B6CD02D2B02D1013620
:101C2000012303E0002301E043F00203374616F8E6
:101C3000012B302AF8D0002202E00A2000FB02C269
:101C400039783E46A1F1300C5FFA8CF00137092853
:101C5000F3D9732909D10599081D059009682F4802
:101C6000002908BF0146284641E064290ED10599A4
:101C70000193612300920293081D096805900A22CE
:101C800028460123FFF75FFF24183BE0782906D19F
:101C900005990193081D05900092612307E05829DA
:101CA0000AD105990193081D0590009241230293E2
:101CB0002846096810220BE075290BD1059901937C
:101CC000612300920293081D096805900A222846A4
:101CD0000023D7E7632915D10599081D09680590E8
:101CE0008DF81C1000218DF81D10284607A9FFF75C
:101CF000E3FEC9E7327825B12B681A702B680133EF
:101D00002B60013401363378002B7FF47EAF15B1A0
:101D10002B6800221A70204609B0F0BD903A0008E6
:101D20000EB40FB505AA52F8041B019001A8039246
:101D3000FFF764FF04B05DF804EB03B070470000E8
:101D400040F0BE60024B40F42020D860704700BFD6
:101D500000ED00E021F0604121F07F01024B41EAFB
:101D600000009860704700BF00ED00E0014B586133
:101D7000704700BF003C0140024B1A6842F4006209
:101D80001A607047003C0240024B1A6842F48052CD
:101D90001A607047003C0240044B1A69002ABFBF1A
:101DA000034A5A6002F188325A607047003C024090
:101DB00023016745024B1A6942F000421A617047DD
:101DC000003C0240014BD860704700BF003C02401D
:101DD0000C4BDA6812F4803F0ED1DA6812F0100F63
:101DE0000CD1DA6812F0EF0F0AD1DB6813F0020FA2
:101DF0000CBF0820072004E0012002E0052000E0DD
:101E000006207047003C024007B508238DF80730D4
:101E1000FFF7DEFF8DF807009DF80730012BF7D0A4
:101E20009DF807000EBD000070B504460E46FFF792
:101E3000EBFF082813D10A4D2B6923F440732B6163
:101E40002B6943F400732B612B6943F001032B6171
:101E50002660FFF7D9FF2B6923F001032B6170BDCA
:101E6000003C024070B504460E4651B1012908BF3E
:101E70004FF4807605D0022914BF4FF440764FF41A
:101E80000076FFF7C1FF08281FD1104D2B6923F4FE
:101E900040732B612B691E432E612B6923F0F803DD
:101EA0002B612B6943F0020343EA04042C612B6984
:101EB00043F480332B61FFF7A7FF2B6923F0020364
:101EC0002B612B6923F0F8032B6170BD003C0240AD
:101ED000F7B50B68019300231A46012404FA02FCAB
:101EE000019D0CEA0504644534D1032606FA03FC7F
:101EF00005686FEA0C0C0CEA050505600D790768AA
:101F000015FA03F6013DEDB23E43012D066013D8EC
:101F10004E7985689E400CEA05058560856846EA2D
:101F200005058560456825EA040444608C794568A8
:101F30009440A4B22C434460C4680CEA040CC0F87A
:101F40000CC091F807C0C4680CFA03FC4CEA040CFE
:101F5000C0F80CC001320233102ABED1FEBD4FF6CC
:101F6000FF7303600023037143718371C371704772
:101F700001F007039B004FF00F0C0CFA03FC12FA60
:101F800003F3C908083110B550F8214024EA0C0CBD
:101F900040F821C050F821C043EA0C0340F821303A
:101FA00010BD000019B1054B1A6B104303E0034B41
:101FB0001A6B22EA00001863704700BF0038024025
:101FC00019B1054B5A6B104303E0034B5A6B22EADD
:101FD00000005863704700BF0038024019B1054B3C
:101FE0001A6C104303E0034B1A6C22EA00001864D9
:101FF000704700BF0038024019B1054B5A6C1043BE
:1020000003E0034B5A6C22EA00005864704700BF9B
:102010000038024019B1054B1A69104303E0034B25
:102020001A6922EA00001861704700BF00380240B8
:1020300019B1054B5A69104303E0034B5A6922EA70
:1020400000005861704700BF0038024019B1054BCD
:102050001A6A104303E0034B1A6A22EA000018626E
:10206000704700BF0038024019B1054B5A6A10434F
:1020700003E0034B5A6A22EA00005862704700BF2F
:1020800000380240264ADFF89CC00388904214BF03
:1020900000220122604508BF42F0010210B59BB248
:1020A000CAB9214CB0F1804F14BF4FF0000C4FF073
:1020B000010CA04214BF64464CF001045CB91B4CF7
:1020C000DFF86CC0A04214BF00240124604508BFA3
:1020D00044F001042CB1B1F802C023F0700343EACC
:1020E0000C03144CDFF850C0041B18BF01246045DA
:1020F0000CBF002404F0010434B123F44073B1F8A0
:1021000008C09BB243EA0C0303804B68C3620B8890
:1021100003850AB18B7A03860123838210BD00BF39
:10212000000001400004014000040040000800409D
:10213000000C0040001000400014004021B1038852
:102140009BB243F0010304E0038823F001031B0466
:102150001B0C038070471AB183899BB2194303E0BB
:1021600083899BB223EA010181817047038A8289B6
:1021700011420CBF0020012019420CBF002000F0CA
:1021800001007047C94389B201827047D0F8E43535
:1021900010B51B6904469847032384F812310020C8
:1021A00010BD08B5042380F81231D0F8E435DB689F
:1021B0009847002008BD08B5D0F8E035DB6903B1C9
:1021C0009847002008BD08B5D0F8E0351B6A98474D
:1021D000002008BD08B5D0F8E0355B6A98470020BC
:1021E00008BD002110B5402204460B4600F0C6FF92
:1021F000802140220023204600F0C0FF012384F804
:102200001231D4F8E435A0785B689847002010BDFF
:1022100037B56946044600F015F99DF800106D4683
:1022200001F01F03012B07D0022B0AD073B92046FF
:10223000694600F0C7F90FE02046694600F0A8F9AA
:102240000AE02046694600F031F905E021F07F01FF
:10225000C9B2204601F024F800203EBD38B504463E
:1022600000293DD190F81131022B42D1D0F8342110
:10227000D0F820319A4211D9C178D21A0129C0F878
:10228000342104D1D0F82411CB18C0F8243192B2F3
:102290002046D4F8241100F0A5F82AE0D0F838211F
:1022A000B2FBF3F503FB152565B99A420AD3D0F8C2
:1022B0003C319A4206D229462A4600F093F8C4F8E7
:1022C0003C5116E0D4F8E035DB682BB194F81221CC
:1022D000032A01D120469847204600F0A4F808E0E0
:1022E000D0F8E0355B6923B190F81221032A00D1C0
:1022F0009847002038BD10B5044659BB90F81131FD
:10230000032B30D1D0F88C23D0F878339A4214D9EB
:10231000C178D21A0129C0F88C2304D1D0F87C13DB
:10232000C918C0F87C139A4228BF1A4692B22046B8
:10233000D4F87C1300F05FF815E0D0F8E0351B69A5
:1023400023B190F81221032A00D19847204600F0CB
:102350005BF808E0D0F8E0359B6923B190F81221D2
:10236000032A00D19847002010BDF8B50446164650
:102370001F460D46FFF762F9069B2046C4F8E43578
:102380002946C4F8E075C4F8E86500F0ABFED4F85F
:10239000E4351B6898472046FFF78CF9F8BDD0F864
:1023A000E03510B51B6804469847D4F8E4359B68BF
:1023B0009847002010BD08B5D0F8E0355B68984715
:1023C000002008BD08B58C461346C0F83821C0F877
:1023D0003421022280F811210021624600F03EFFE4
:1023E000002008BD8C4608B500211346624600F067
:1023F00035FF002008BD8C4608B500211346624613
:1024000000F004FF002008BD0021042310B50A4697
:10241000044680F811310B4600F020FF204600F002
:1024200041FE002010BD0021052310B50A460446D8
:1024300080F811310B4600F0E9FE204600F032FE34
:10244000002010BD90F8C8350B7090F8C9354B705E
:1024500090F8CB2590F8CA3503EB02234B8090F817
:10246000CD2590F8CC3503EB02238B8090F8CF2557
:1024700090F8CE3503EB02239BB2CB80C0F83C3101
:10248000012380F81131704710B591F900300446EE
:10249000002B01DBCB8813B92046802100E000210E
:1024A00000F0FEFE204600F0FDFD10BD38B50D46E3
:1024B0006B780446012B097916D033D3032B63D1F3
:1024C00090F81231022B34D0032B59D16B88FBB911
:1024D0000B1E18BF012380290CBF002303F001034A
:1024E000B3B100F0DDFE13E090F81231022B20D0E2
:1024F000032B45D16B88002B46D10B1E18BF01233F
:1025000080290CBF002303F001033BB100F0E9FE7A
:10251000D4F8E03520469B68294698472046FFF7C7
:1025200073FF31E090F81231022B02D0032B27D138
:102530000CE00B1E18BF012380290CBF002303F001
:1025400001030BB3204600F0ABFE1DE011F0800F3D
:1025500007D001F07F01282303FB010191F81A2124
:1025600004E0282303FB010191F87223074B02B119
:1025700001221A60204605490222FFF723FF03E0EB
:1025800020462946FFF780FF002038BD981500201F
:1025900038B590F812310446032B0D460CD10B7957
:1025A000012B09D8D0F8E0359B689847EB883BB9F8
:1025B0002046FFF729FF03E020462946FFF764FF86
:1025C000002038BD73B54B7804460D46092B00F248
:1025D0001C81DFE813F0D30010011A01E3001A0197
:1025E00072000A001A01C00092004B881A0A013AD0
:1025F000062A00F20A81DFE812F007001A0027001D
:102600000801080108010801D4F8E8350DF10601B8
:102610001B68A0789847EB880146402B03D094F8BC
:102620001231012B3AD10822ADF8062036E0D4F859
:10263000E0350DF106019B6AA078984702234370AC
:102640000146C4F8EC0529E0DBB2052B00F2DD8081
:10265000DFE803F003080D12171CD4F8E835A07862
:102660005B6817E0D4F8E835A0789B6812E0D4F8EE
:10267000E835A078DB680DE0D4F8E835A0781B6970
:1026800008E0D4F8E835A0785B6903E0D4F8E835D1
:10269000A0789B690DF1060198470146BDF8063008
:1026A000002B00F0B680EA88002A00F0B2809A423F
:1026B00028BF1A46ADF806205EE08B88002B40F05C
:1026C000A480CB88002B40F0A08094F812214B8886
:1026D000032A00F09A8003F07F05204684F8135106
:1026E000294600F01DFE2046FFF78EFE0DB10223A5
:1026F00000E0012384F812318BE08978464E0129ED
:10270000317000F2828094F81231022B02D0032B38
:102710007BD108E000294CD00121032384F810115B
:1027200084F8123113E041B9022384F8123184F89D
:1027300010112046FFF73FFE3BE094F810110129ED
:1027400037D02046FFF737FE317884F81011204645
:10275000FFF725FE2DE0CA88012A56D194F81231E0
:10276000022B02D0032B50D104E02C492046FFF766
:1027700029FE4EE004F588712046F8E794F81231FE
:10278000023B012B41D8D4F814312549002B0CBF52
:10279000012303230B6020460122E8E74B88012B2D
:1027A0000BD1C4F81431D4F8E03520469B68294693
:1027B00098472046FFF728FE2BE0022B29D18B8873
:1027C00013F0FF0F25D121691B0A013B4A68042B36
:1027D0000FD8DFE803F0030507090B00012306E02B
:1027E000022304E0032302E0042300E0052363F353
:1027F00006124A60DDE794F81231023B012B04D83F
:102800004B88012B05D1013BCBE720462946FFF73A
:102810003BFE00207CBD00BF941500209C150020CD
:102820009015002010B5D0B18446002300E0DBB243
:102830001CF8014B0133002CF9D15B009BB21380D3
:102840000B7003234B70013B05E0CA545A1CD2B2F3
:1028500002338C54DBB210F8012B002AF5D110BDE5
:1028600073B50024114D064601940320FEF730FF96
:10287000336801341A69AC42019215D0019A002ADA
:10288000F3DA019A42F001020192019A1A61074AB1
:10289000196912F1FF32019103D0019911F0010F72
:1028A000F6D10320FEF714FF00207CBD410D03008C
:1028B00010B5C47874B900EB820003339B10D0F8D4
:1028C000D000224604E051F804CB0132C0F800C029
:1028D0009A42F8D3002010BD0332D0F8D0C010B512
:1028E00092100846002304E0DCF80040013340F871
:1028F000044B9342F8D301EB820010BD012270B566
:102900000023827040220129C37082800CD10833D9
:102910000370042343704FF4A073C3800223037237
:10292000C1724FF0A04309E041B90C2303700623A4
:1029300043704FF4A062224BC172C280457803F508
:10294000006201350261C36001466D01002203F59A
:102950000E6403F52E6C04E0A6184E610CEB020623
:102960000E6520320431AA42F6D1014611F88CCB13
:1029700003F58062426103EB4C1403F58862C0F8F2
:10298000CC2004F5A06403F5A06202E041F8042F16
:102990002032A242FAD103EB0C3C00F1CC010CF541
:1029A000805C1A4601E041F8042F02F5805262452E
:1029B000F9D103F56063C0F80C31002070BD00BF91
:1029C0000000044038B5037A0025012B0446C26894
:1029D00026D1936B417A65F3104309B143F4801318
:1029E0009363D36804F10C006FF386136FF396536F
:1029F00043F010036FF3C3036FF3C7136FF3514337
:102A00006FF3D343D360FFF72BFFE378012B40D163
:102A1000043363F34405E36845F020059D6038E026
:102A2000D36800F10C0043F04003D360FFF718FFB8
:102A3000237A627A032B14BF4FF434134FF43C1300
:102A40000AB143F48013E26814209363FEF745FE55
:102A5000E268217AD368032908BF43F48033D36046
:102A6000237A032B15D1156B012363F39B656FF359
:102A7000D7552C3345F0805563F316451563C820B0
:102A8000FEF72BFEE36845F400051D63C820FEF742
:102A900024FEE378012B07D1E36805229D6862F3E9
:102AA000440545F020059D60002038BDC368002026
:102AB0009A6842F001029A607047C36800209A68E1
:102AC00022F001029A60704707B500230193019A32
:102AD00042F020020192019A61F38A120192019957
:102AE000C26811610749106901338B42019003D01C
:102AF000019810F0200FF6D10320FEF7E9FD002029
:102B00000EBD00BF410D030007B500230193019ADC
:102B100042F0100201920199C268116107491069DF
:102B200001338B42019003D0019810F0100FF6D1C1
:102B30000320FEF7CDFD00200EBD00BF410D0300B8
:102B4000C26808B5D36801296FF35D736FF39E7394
:102B500008BF43F0005302D009B943F0804332204C
:102B6000D360FEF7BAFD002008BDC3685B6913F0AF
:102B7000010F14BF002001207047C3685A6998698B
:102B80001040704703691A6861F301021A607047C8
:102B9000C26800239361013B5361536053610B4B47
:102BA0009361C3789169002B14BF4FF400634FF415
:102BB000016343F4701343F4405343F0080321EAE4
:102BC000030141EA0303936100207047000800807D
:102BD00038B5D0F80C3100221A60036915461A681E
:102BE000044665F3CC221A60C37A012B1AD1032163
:102BF000FFF7C8FFE36880214FF4800261F30F0202
:102C000059629A62C02262F30F0561F31F455218A0
:102C1000C3F8045162F30F056FF31F45C3F8085161
:102C2000C3F80C5110212046FFF74EFF2046FFF756
:102C30006BFF226900234FF0FF31136104F1140090
:102C400053619E4691614FF0FF0CD36112E050F842
:102C5000042F01331168C1F3076101F08001C9B28B
:102C6000002914BF4FF0904100211160C2F810E01C
:102C7000C2F808C062789342E9D3002304F15000FF
:102C80009E464FF0FF0C12E050F8042F01331168FC
:102C9000C1F3076101F08001C9B2002914BF4FF0F0
:102CA000904100211160C2F810E0C2F808C06278BB
:102CB0009342E9D32269136943F480731361E37883
:102CC000012B08D14021023361F38A0343F480339E
:102CD00061F3594313632046FFF75AFF002038BDC4
:102CE00003699B68C3F341035A1E022A04D8034AAE
:102CF000D31813F8010C00E003207047983A00083D
:102D000003698169D3F808C00A68CCF3410002283E
:102D100018BF6FF30A0202D1032060F30A020A60AF
:102D20005A68002042F480725A60704710B54C789F
:102D30000022012C0B7808D100EB830C14FA03F36A
:102D4000DCF818C063F30F0208E0012400EB830CE9
:102D500014FA03F3DCF854C063F31F42DCF80030CC
:102D6000C3F3072404F08004E4B274B98C6864F3FC
:102D70000A03CC78C98864F3934361F3995343F011
:102D8000805343F40043CCF8003003690020D96934
:102D90000A43DA6110BD10B54C784FF0000C012CDD
:102DA00062460B7807D100EB830114FA03F38969BB
:102DB00063F30F0207E0012400EB830114FA03F32D
:102DC000496D63F31F4203696FF3CF3CC1F800C044
:102DD000D969002021EA0202DA6110BD38B54D78C8
:102DE0000B78012D4C6955D100EB8303D3F818C043
:102DF000DCF80030DCF8102024B964F3120265F32B
:102E0000DC420DE08D6864F312026419013CB4FBEE
:102E1000F5F5CC7865F3DC42012C08BF64F35E72F3
:102E2000CCF81020C278012A08D10A78D1F810C055
:102E300000EB82029269C2F814C00FE0CA78012A3E
:102E40000CD04A6952B191F800C0012505FA0CFC7A
:102E50000269546B4CEA040CC2F834C0CA78012AE7
:102E600008D10269926812F4807F0CBF43F00053CE
:102E700043F080530A7843F0044300EB82029269E6
:102E80001360CB78012B3ED10A788B8AC968FFF793
:102E90000FFD38E000EB83035D6DD1F808C02B68AF
:102EA0002A6934B96CF312024FF0010C6CF3DC4266
:102EB0000BE06444013CB4FBFCF4A405A40D0CFB42
:102EC00004FC64F3DC426CF312022A61C278012A2A
:102ED00001BF0A78D1F810C000EB8202526D08BF22
:102EE000C2F814C0CA78012A06D14A7912B143F057
:102EF000005301E043F080530A7843F0044300EBB1
:102F00008200426D1360002038BD73B54D784C6966
:102F1000012D45D1D0F818C0DCF80030DCF81020C5
:102F2000009254B99DF8002064F306028DF8002049
:102F30009DF8022065F3C40210E08D689DF8002022
:102F4000AC4286BF4D6165F3060264F306028DF85C
:102F500000209DF80220012464F3C4028DF80220B1
:102F6000009A43F00443CCF81020C278012A01BF34
:102F70000A780C6900EB8202926908BF5461CCF8B0
:102F80000030C378002B45D14B69002B42D00A7822
:102F9000012111FA02F20369586B02435A6339E0C6
:102FA0000B7800EB8303D3F854C0DCF80030DCF876
:102FB00010500095EAB2C5F307468D684CB965F329
:102FC00006028DF80020012262F3C4068DF802602B
:102FD0000AE065F306024D618DF8002035460122B6
:102FE00062F3C4058DF80250009A43F00443CCF814
:102FF0001020C278012A01BF0A78D1F810C000EB76
:103000008202526D08BFC2F814C00A7800EB820039
:10301000426D136000207CBD4B78012B0B780CD1E6
:1030200000EB830082691368C3F3076101F080013C
:10303000C9B231B143F0804303E000EB8300426D3D
:10304000136843F400131360002070474B78012B82
:103050000B78C9780BBF00EB830000EB830083691A
:10306000436D02391A68C9B26FF35552012998BFEE
:1030700042F080521A600020704703699A69D8694B
:103080001040000C704700EB81014B6D02699B689A
:1030900050691840704703699869DB69184080B22D
:1030A0007047000082B000230093C0338DF80330D6
:1030B0000122002362F3C4038DF8023018238DF837
:1030C0000030436D009A1A61C278012A01BF00F5F1
:1030D000B96058611A68024A08BF1A6002B07047A6
:1030E0000080008038B50446FFF708FC012000216D
:1030F00084F81201054684F8131194F801C02346A0
:10310000224608464FF0400E0EE082F8F010A2F87A
:10311000F61082F8F15082F8F300C2F8F8E0C2F835
:10312000FC00C2F80401013128326145EDD30022D0
:10313000114640200EE083F84823A3F84E2383F87D
:10314000491383F84B13C3F85003C3F85413C3F85F
:103150005C13013228336245EDD32046FFF7ADFC06
:103160002046FFF72FFC00212046FFF7E9FC204610
:10317000FFF72EFD2046FFF799FC38BD10B5CCB205
:1031800014F0800F14BF4FF0280E4FF0280E8C461D
:1031900001F07F0115BF0EFB01F10EFB01F101F5FE
:1031A0008C7101F55C7141180CF07F0CE40981F819
:1031B00000C04C708A60CB700CB1A1F806C0022B25
:1031C00001D100230B71FFF7B1FD002010BDCAB281
:1031D00012F0800F14BF4FF0280C4FF0280C08B5E8
:1031E00001F07F0315BF0CFB03F30CFB03F303F5A6
:1031F0008C7303F55C73C318D20901F07F01197059
:103200005A701946FFF7C7FD002008BD08B54FF0FA
:10321000280C01F07F0E0CFB0EFC0CF55C71844455
:10322000CCF8843300238CF870E38CF87133CCF83D
:103230008833C3784118012B08BFCCF8802328239A
:1032400003FB0E0E9EF87033CCF87C2313B9FFF706
:103250005CFE01E0FFF7C2FD002008BD10B54FF095
:10326000280C01F07F040CFB04FC0CF58C718444E9
:103270004FF0010ECCF82421CCF82821002241186F
:103280008CF819E18CF81841CCF83021CCF82C31AD
:1032900014B9FFF73AFE01E0FFF7A0FD002010BDD2
:1032A000CAB212F0800F08B508D001F07F034FF0CA
:1032B000280C0CFB03F303F58C7303E028234B432A
:1032C00003F55C73C3184FF0010CD20901F07F01C4
:1032D000197083F802C05A701946FFF79DFE00204E
:1032E00008BDCAB212F0800F10B508D001F07F03FC
:1032F0004FF0280C0CFB03F303F58C7303E0282339
:103300004B4303F55C73C3180024D20901F07F011D
:1033100019709C705A701946FFF798FE204610BD30
:103320000369002261F30A1219680A431A607047A0
:1033300008B5036903205A686FF341025A60FEF72B
:10334000CCF908BD08B5036903205A6842F00202AF
:103350005A60FEF7C2F908BDF0B587B00446FFF722
:1033600004FC002800F06C822046FFF706FC029067
:10337000002800F06482C0F3074000F00800C0B2EB
:10338000002864D02046FFF778FE039000202746EF
:103390002646049057E0039911F0010F48D0049B92
:1033A0002046DAB211460192FFF76DFE10F0010FD0
:1033B0000546019A21D0736D01259D60E178A942EF
:1033C00007D11B69D7F87813C3F31203CB1AC7F8D8
:1033D0008833DFF870C42046DCF8003011461B68E3
:1033E0009847E378012B08D1049830B994F811314B
:1033F000052B02D12046FFF755FE05F00203DBB294
:1034000013B1736D02259D6005F00403DBB213B1A7
:10341000736D04259D6005F00805EDB245B1DFF838
:10342000241420460B689B689847736D08229A60A5
:10343000049BDDF80CC001334FEA5C0C0493CDF81B
:103440000CC00436283703980028A4D10130029913
:10345000C1F3074303F00403DBB2002B00F0C68086
:103460002046FFF718FE00220490254627460392C7
:103470002646B5E0049B13F0010F00F0A6803369E7
:10348000DDF80CC019695C6B5FFA8CFC24FA0CF453
:1034900006EB8C029269E401926804F0FF040C438D
:1034A000144014F0010FCDF814C01DD0DDF80CC08D
:1034B000012000FA0CF15A6B044622EA01025A6319
:1034C000AB6905999860DF48036830465B689847A8
:1034D000F378A34208D1039931B996F81131042B3E
:1034E00002D13046FFF7DEFD04F00403DBB213B176
:1034F000AB6904249C6004F00803DBB213B1AB6930
:1035000008249C6004F01003DBB213B1AB691024F3
:103510009C6004F02003DBB213B1AB6920249C60F3
:1035200004F04003DBB213B1AB6940249C6004F0AB
:103530000203DBB213B1AB6902249C6024F07F0468
:1035400014F0FF0F41D0D7F83031D7F82CC1C3EBBE
:103550000C0CD7F820319C4528BF9C460CF1030C7D
:10356000AB694FEA9C0C64469B69B4461EE0D7F8F1
:1035700020219E1B964228BF1646B3B26046D7F85C
:103580002411059ACDF804C0FFF792F9D7F8243139
:10359000F41C9B19C7F82431D7F83031DDF804C08A
:1035A0009E19AB69C7F830619B69A4089BB2A3421E
:1035B00007D9D7F83061D7F82C319E4201D2002BC1
:1035C000D5D1AB69802266469A60039BDDF810C0B6
:1035D00001334FEA5C0C0393CDF810C00435283753
:1035E000049800287FF446AF34460130029901F078
:1035F0000203DBB213B1E36802225A61029AC2F3FA
:10360000076303F08003DBB2CBB1A37A43B1D4F8F4
:103610000C31D4F80C216FF341036FF300031360F6
:10362000236920465A6822F001025A60854B1B68C4
:103630009B699847E3684FF000425A610120DDF82A
:1036400008C0CCF3072303F00803DBB2FBB17D4BCA
:1036500020461B685B6998472369E2684FF4006164
:103660009B685161A27A8AB113F0010F0ED0D4F891
:103670000C311A6842F001021A601A6842F0030223
:103680001A60714B1A6942F006021A610120029910
:1036900001F00803DBB243B16A4B20461B68DB68CC
:1036A0009847E36808225A610120029A02F0100349
:1036B000DBB2002B3AD0E3689A6922F010029A61DB
:1036C0001D6AC5F34343022B05F00F0602D0062BFB
:1036D00026D115E047F6F07305EA030303B3282368
:1036E00003FB0646C5F30A152046D6F87C132A4686
:1036F000FFF7F2F8D6F87C335B19C6F87C330AE0A2
:1037000004F5B96120460822FFF7E6F8282303FBF9
:103710000646C5F30A15D6F88833ED18C6F888535F
:10372000E36801209A6942F010029A61DDF808C04E
:10373000CCF3072303F01003DBB2002B36D0236950
:1037400000255A68294622F001025A602046FFF7F8
:10375000BBF904F114022B46FF2105E052F8040FD7
:1037600001338160D06B816060788342F6D3236936
:1037700001264FF0FF3266F30F059A6166F31F458D
:103780001032DD615A6120321A611A6820466FF3E7
:103790000A121A60FFF786FCE3684FF480525A6100
:1037A000284B20461B681B69984730460299C1F395
:1037B000072303F02003DBB2EBB12046FFF7A0FAAA
:1037C000E3682046DD68FFF78BFA032806D1002363
:1037D0004FF40072A370A280093304E00123A370A8
:1037E0004023A380052363F38D25E3684FF4005243
:1037F000DD6001205A61DDF808C0CCF3074303F017
:103800001003DBB24BB10F4B20461B68DB699847B6
:10381000E3684FF480125A6101200299C1F3074313
:1038200003F02003DBB25BB1064B20461B681B6A2A
:103830009847E3684FF400125A61012000E00298B3
:1038400007B0F0BD0400002000ED00E0002305E01B
:1038500011F803C0013A00F803C00133002AF7D180
:10386000704700000004024004000000000C024009
:10387000000800000004024000100000000C02409C
:10388000000400000000024000800000000402402C
:1038900000010000FFFFFFFF00000000000000002B
:1038A0000040000808000000000000000080000840
:1038B000100000000000000000C000081800000018
:1038C00000000000000001082000000000000000CF
:1038D00000000208280000000000000000000408AA
:1038E0003000000000000000000006083800000062
:1038F0000000000000000808400000000000000078
:1039000000000A08480000000000000000000C0849
:10391000500000000000000000000E0858000000E9
:10392000000000000000020303010203030303037D
:10393000020203014D494F5333320053544D333289
:103940004634444953434F564552590053544D331E
:1039500032463478780025303878003F00256400FE
:103960004D494F53333220426F6F746C6F61646501
:103970007200286329203230313220542E204B6CC3
:103980006F7365002025303258002020200025303C
:1039900038582000F000007E320000007514000846
:1039A000811400088D1500088D14000855150008B5
:1039B000251500082D15000809160008DD1500085A
:1039C0003F1500080000000043150008CB15000853
:1039D000B915000800000000000000000000000011
:1039E0004915000804030904120100020000004008
:1039F000C016FE0310100102030100003515000877
:103A000037150008FD1500083B1500083D15000896
:103A100039150008F31500083432006D69646962D5
:103A20006F782E6F72670000090265000201008046
:103A3000320904000000010100020924010001090B
:103A40000001010904010002010300020724010032
:103A500001410006240201010006240202020009BD
:103A600024030103010201000924030204010101EE
:103A700000090502024000000000052501010109BE
:103A8000058102400000000005250101030000003F
:103A9000286E756C6C290000020102000000000015
:103AA0001010000008000020F72200085D22000826
:103AB00011220008B7210008E3210008A321000813
:103AC0008D210008C7210008D52100080000000052
:103AD0000000000000000000FFFFFFFFFFFFFFFFEE
:103AE000FFFFFFFFFFFFFFFFFFFFFFFFFFFFFFFFE6
:103AF000FFFFFFFFFFFFFFFFFFFFFFFFFFFFFFFFD6
:103B0000FFFFFFFFFFFFFFFFFFFFFFFFFFFFFFFFC5
:103B1000FFFFFFFFFFFFFFFFFFFFFFFFFFFFFFFFB5
:1040000000000220415800088B580008B14D0008FC
:104010008B5800088B5800088B58000800000000DF
:10402000000000000000000000000000F95400083B
:104030008B580008000000006D550008A9550008C5
:104040008B5800088B5800088B5800088B580008C4
:104050008B5800088B5800088B5800088B580008B4
:104060008B5800088B5800088B5800088B580008A4
:104070008B58000809800008E97F00088B58000869
:104080002D8500088B5800088B5800088B580008B5
:104090008B5800088B5800088B5800088B58000874
:1040A0008B5800088B5800088B5800088B58000864
:1040B000258B0008498B00088B5800088B58000896
:1040C0008B58000831970008F59800088B580008B5
:1040D0008B5800088B58000875960008D196000888
:1040E0008B5800088B5800088B5800088B58000824
:1040F0008B5800088B5800088B5800088B58000814
:104100008B5800088B5800086D8B00088B580008EE
:104110008B5800088B5800088B5800088B580008F3
:104120008B5800088B580008C97F00088B5800087E
:104130008B5800088B5800088B5800088B580008D3
:104140008B5800088B5800088B580008B98E00085F
:104150008B5800088B5800088B5800088B580008B3
:104160008B5800088B5800088B5800088B580008A3
:104170008B5800088B5800088B5800088B58000893
:084180008B5800088B58000861
:10418800F7B500F0D5FF019001A8012101F0E6F88C
:104198003F4B40491F78404B00221E880846134673
:1041A8003E4D21E0072B23D830F902EBBEF1000F7A
:1041B80019DA3B4C04F803C015F902C0394C0CFB62
:1041C80006FC24F813C00133BEF1FF3F02BFDFF83D
:1041D800D8C00EF1010E4FF6FE74DBB204BF4CF8E6
:1041E80022E020F8024C01325FFA82FCBC45D9D3A8
:1041F8002E4A1278D2F1010238BF0022072B98BF4D
:1042080042F00102002A3FD0214A24481678224A67
:104218001588002234E0072B36D831F802EB0FFA64
:104228008EF7002F2BDD1E4F1E4C07F803C010F829
:1042380002C00EF1FF3E4FFA8CF76F431FFA8EFE55
:1042480024F8137001331EF0070F08BF184F21F828
:1042580002EC08BF17F802E0DBB204BFCEEB0C0C8F
:1042680000F802C010F902C0BCF1000FDFBF4FF028
:10427800000C4FF0000E00F802C021F802EC0132E9
:104288005FFA82FCB445C6D30A4A13707CE700BFC4
:10429800A4560020204B0020020000204C420020A1
:1042A800C44C00208C420020C44B0020CC4C002081
:1042B8000C420020C04B0020F8B5134F05460E46AF
:1042C80007EB4517114802F041FA3146384609F024
:1042D800E3FB0446384609F05BFC002C04DA21466F
:1042E8000B4802F033FA0CE00A4B002243F8252071
:1042F800BB68094A094842F825302946324602F087
:1043080025FA2046F8BD00BF2043002004DF00083E
:1043180014DF0008C44B0020E84000203BDF000801
:10432800F7B5144B054653F822600C46760A0196F9
:10433800009209F09DFB019B0746B3FBF0F61F2E88
:10434800009A88BF4FF0FF3012D80B4B06EB421291
:1043580053F8220009F092FB019B294607FB163609
:10436800801902F0CBFF0028ACBF20466FF0010097
:10437800FEBD00BFC44B002068110020F7B54A4BB2
:1043880003F5806200280CBF1E461646474B1B7873
:1043980033B91A46F2500433B3F5806FFAD182E08C
:1043A80004F01AFC0120014604F02EF9404A137863
:1043B8001A46002B6ED000243E4D3F4F3FE03F4A47
:1043C8004FF4007102EB44202A5DFFF7A9FF002893
:1043D80006DA2B5D002227F81320394B23F8142026
:1043E8002B5D384951F8232002F5007241F823204B
:1043F800354951F823108A4202D3002227F81320A6
:1044080004F0F4FB2D2804F1010417D9284D0A22E1
:104418002B78B0FBF2F102FB110200932B482346E4
:1044280002F094F92C70224B294A93F800E0234CAF
:10443800012302EB4E0E47F6FF7C27E0E4B21C4A4C
:104448001378A342BBD8EEE70F7811F8015C01F5A9
:10445800007105EB072530F9027F2DB207FB052215
:104468007045F1D1D2136245C8BF47F6FF7203DC2D
:1044780018498A42B8BF0A46120442EA124246F86C
:10448800042B023340F20122934208D01048E1186D
:104498000022E5E7F2500433B3F5806FFAD101202A
:1044A800002104F0B1F8FEBD68310020E841002089
:1044B800C04B0020C44C0020204B00206801002085
:1044C8008C420020C44B0020E84000206FDF000829
:1044D8008A4200200080FFFFF0B5684B9DB07F2224
:1044E80016AC1A801AAD06466549204609F031FC1B
:1044F80032462846634905F077FB2946204609F0ED
:104508000EFC0120014604F07FF85F4B00251D706A
:104518005E4B01221A7021465D4802F017F95D488A
:10452800214609F0B9FAA84203DA5B4802F00EF90D
:104538009DE006AEB31C594F2C46049330463F21EC
:1045480009F074FB002836D000211022049800F0EE
:10455800C7FCDFF84CC1002145F80C000A22701D89
:1045680000F0BEFC4F4A00211055F01D0A2200F051
:10457800B7FCDFF834C1C3B20CF8043013B1434AB6
:104588000021117006F10C011E223846039309F030
:10459800EFFB039B434A0093135DDFF804C10193CB
:1045A8003A4655F80C304148214602F0CFF8364BD0
:1045B8001A7801321A7001341E370435402CBDD1E7
:1045C800344809F0E5FA00244BE0344B1E2101FB86
:1045D80004312046FFF770FE054618B1344802F052
:1045E800B5F838E009F044FA324B334A400203EB9D
:1045F800C413059004932E4602EB4417DFF8BCC0A1
:104608005CF824309D4226D2384609F089FA002801
:1046180021DB284609F0D8FA0028034605DB0DF10E
:104628006F00012109F0E0FA03463846039309F0C8
:10463800AFFA039B002B0EDB049B3A69314643F823
:10464800042F1F480493013602F080F8DDF814C0E7
:10465800202E6544D2D11B4B002223F814200134AC
:10466800E4B2DFF824C09CF80030A342ADD80120A2
:10467800002103F0C9FF1DB0F0BD00BF02000020FB
:1046880008000020ADDF0008A4560020CC4C002014
:10469800B0DF0008EC410020C5DF000868390020C1
:1046A800A8560020A0420020E0420020DFDF0008DA
:1046B8002CE000086411002020430020E84000207E
:1046C80045E00008204B002010B5002420460134A6
:1046D8000421E4B203F0F8FF082CF7D103F0F7FF48
:1046E800C0B27F2812D0BF2808BF204619D0DF28C3
:1046F8000ED0EF280ED0F7280ED0FB280ED0FD28BC
:104708000ED0FE2814BF012002200AE0092008E08C
:10471800072006E0062004E0052002E0042000E06F
:10472800032010BDF7B500F003FD02AC114F124E87
:10473800124D44F8040D2046642100F00FFE104A83
:104748001378002BF7D0FFF7BFFF3B780146834271
:10475800F1D0387030700B4801F0F8FF00230A4898
:104768002B7001F0F3FF3078FFF7B6FE01232B70B2
:10477800E1E700BF0400002005000020E841002018
:104788009C420020F9E0000855E00008F0B52249F5
:1047980089B0224801F0DAFF21481F4909F07CF965
:1047A8000028A4BF01AE1F4F03DA1F4801F0CEFF57
:1047B80030E03046192109F039FA40B31B49304638
:1047C80009F0EAFA1A490546002009F0E5FA044614
:1047D80029462246174801F0B9FF1749284609F02B
:1047E800ADFA014620B920460A2200F079FB38705C
:1047F8001249284609F0A2FA01460028D9D12046D4
:104808000A2200F06DFB0E4B01381870D1E70448FE
:1048180009F0BEF909B0F0BD84E000086DE00008B9
:10482800A04B00209C4200208FE000086AEB0008A3
:1048380087E20008ABE00008C7E00008CEE0000807
:1048480000000020F8B5DFF8FCC0C1F303249CF891
:1048580000C0C1F307420CF1FF3C080E6445D3B217
:104868006ED101F00F0CACF10804E4B2012C4AD867
:10487800C1F3072101F0F001902900D148B9324A6B
:1048880000211578314ADFF8C8C0177831480A4640
:1048980035E02D4A304915782E4C0022DFF8BCC08F
:1048A8002F4F2E460BE051F8045FAB4201BF4FF08B
:1048B800FF3524F812503D5C0CF802500132D5B295
:1048C800B542F0D33CE0274EB45CB4B95CF8224062
:1048D800A34212D127B9244CA65C0EB1445E14B988
:1048E8000026465209E01D4C4652A456F6080136E9
:1048F80094FBF6F61D4C0136A65401320231D4B2AF
:10490800AC42E0D31CE0BCF10C0F11D1184C194695
:104918002270184D184801F019FF00232B70174812
:1049280001F014FF2078FFF7D7FD01232B7007E073
:10493800134B144A01EA0303934204BF124B188035
:10494800F8BD00BF00000020A4560020CC4C002079
:10495800A8560020204B0020A45600204C420020DE
:1049680084DE0008A0420020E04200200C42002023
:1049780005000020E8410020DAE0000855E00008C2
:104988000F00FF000B00070002000020704770476F
:104998007047000008B54FF40071024A024803F05E
:1049A800A3FD08BD85430008683100201FB54FF0FE
:1049B800FF3003F0E3FD2D4B01221A702C4801F063
:1049C800C5FE2C4801F0C2FE2B4801F0BFFE0020B6
:1049D80009F02CF8002802DA284801F0B7FE002474
:1049E800002002F043FC002806DC0134B4F57A7F8D
:1049F800F6D1234801F0AAFEFFF7C8FE214B1B7829
:104A080033B1214801F0A2FEFFF75EFE1F4B18707C
:104A18001E4B00241878FFF75FFD1D4801F096FE35
:104A28001C4B01221A700020FFF7B4FF1A4801F04E
:104A38008DFE642004F0A8F8032300931749234649
:104A48004FF48072164801940294039400F078FAA7
:104A58000223009313494FF48072234612480194AD
:104A68000294039400F06CFA1FBD00BFA857002001
:104A78000DE100082EE1000857E100086EE100088A
:104A880089E100089C420020ABE1000805000020F5
:104A9800BEE10008E8410020D4E10008E5E1000893
:104AA80089410008F0E100082D4700087047704769
:104AB800704708B501F084F8FFF769FF08BD0000EA
:104AC80013B500F035FB02AC44F8040D0121204673
:104AD80000F044FC00F02CFB019A431F9A4238BFB7
:104AE800019002F043F8024801F07EFEEEE700BFB5
:104AF8004D48000813B500F01BFB02AC44F8040D48
:104B08000121204600F02AFC00F012FB019A431F05
:104B18009A4238BF0190064800F0E6FF054801F0C8
:104B280095F9054804F09DF802F0A7F8E8E700BFFA
:104B380099490008B74A0008B94A000830B500206A
:104B480085B002F03DFD002004F05EF8002003F07F
:104B58000BFD002003F076F8002000F0EFFE0020A7
:104B680000F084FF002000F0EFFF002000F0FAFFC3
:104B7800002002F05BFA002004F072F8002002F036
:104B880052FA002004F0AEF9002001F0ABFA002040
:104B980002F03AF8002002F03DF8002001F0BEF9DA
:104BA800002003F0EBFA09F083F8FFF7FFFE01F0AD
:104BB8005DFA4FF4FA644FF47A7004F045F814F192
:104BC800FF34F8D1032523460C494FF480720C4872
:104BD800009501940294039400F0B2F909494FF446
:104BE800807223460848009501940294039400F0CB
:104BF800A7F900F071FA204605B030BD05E20008BB
:104C0800FD4A000800E20008C94A000808B5FFF795
:104C1800BDFE024800F0EEFE08BD00BFBB4A00081A
:104C280008B5FFF743FF08BD70B50024642642F2BB
:104C380010750134B4FBF6F306FB13430BB901F00E
:104C480095FF084801F0D0FDB4FBF5F305FB1343CD
:104C5800002BEED103F01CFDC143012003F0D4FC6E
:104C6800E7E700BF4D48000810B5036888B0079310
:104C78004368374C069383680593C36804930369B4
:104C880003934369029383690193C36920460093A0
:104C980001F05CFD2F4801F059FD204601F056FD5A
:104CA80007992D4801F052FD06992C4801F04EFD58
:104CB80005992B4801F04AFD04992A4801F046FD60
:104CC8000399294801F042FD0299284801F03EFD68
:104CD8000199274801F03AFD0099264801F036FD70
:104CE800254B2648196801F031FD254B25481968E0
:104CF80001F02CFD244B2548196801F027FD244BB1
:104D08002448196801F022FD234B2448196801F052
:104D18001DFD6FF07F4001F0DCF9002001F0DDF9A6
:104D2800002001F0BBF801F05FF90020014601F016
:104D3800BBF81B4801F08CF90121002001F0B4F800
:104D48000199184801F0B2F9FFF76EFF08B010BDDD
:104D580061E2000875E2000889E2000894E20008B0
:104D68009FE20008AAE20008B5E20008C1E20008D4
:104D7800CCE20008D7E2000838ED00E0E3E20008E2
:104D880028ED00E0F0E200082CED00E0FDE200086C
:104D980030ED00E00AE300083CED00E017E300080E
:104DA80024E3000835E300081EF0040F0CBFEFF3FE
:104DB8000880EFF30980FFF757BF7047F0B587B059
:104DC8000492464A0F4612680846039210F8012BCF
:104DD800039C014604EB020C9CF8015015F00805F1
:104DE800F4D12D2A03D111F8012B012503E02B2A38
:104DF80008BF11F8012BD3F1010038BF0020102B98
:104E080014BF044640F00104BCB1302A10D191F817
:104E180000C0BCF1780F14BF00240124BCF1580F66
:104E280008BF44F001041CB14A781023023104E0A1
:104E380018B1302A14BF0A230823002D0CBF6FF0C5
:104E480000404FF00040B0FBF3FC03FB1C000024C3
:104E5800059001952046039EB5186D7815F0040F4E
:104E680001D0303A08E015F0030F22D015F0010FF9
:104E78000CBF57253725521B9A421ADA604594BF52
:104E88000025012555EAD4740ED1059D604514BF4F
:104E980000240124AA42D4BF002404F001041CB950
:104EA80003FB0020013401E04FF0FF3411F8012B1F
:104EB800D1E7B4F1FF3F019D06D1002D0CBF6FF083
:104EC80000404FF0004001E005B14042049E1EB191
:104ED80004B14F1E049B1F6007B0F0BD6C0000209A
:104EE80008B58C4686461346002071466246FFF791
:104EF80065FF08BD0D4B10B51A68044650600C4A92
:104F08001268904206D20B4A10681968043100F002
:104F1800AAFA0AE0084A10681968043100F0A3FAEE
:104F2800064B1A68944238BF1C6010BD884D00209B
:104F3800A04D0020A44D0020E84C002018000020BF
:104F4800F0B587B0039048200491144605930C9E51
:104F58000E9F00F0E7FB0546002800F09B801FB974
:104F6800A00000F0DFFB07462F631FB9284600F0BA
:104F7800A3FB8FE0A2003846A52108F0C8FE2B6BE2
:104F880004991022671E05F1340003EB870708F027
:104F9800EFFE002385F843302C1D042E34BF334622
:104FA8000423EB626B642046019300F04CFA05F190
:104FB800180000F048FA019B27F00707C3F1050322
:104FC800AB612D616D6238460399059A00F080FA4D
:104FD8000D9B286003B11D6000F0AAFA304A1368DF
:104FE800013313602F4B1F68002F28D11D601368F1
:104FF800012B2CD12C4A133303FB072001370292D3
:10500800019300F015FA052F029A019BF4D1274B62
:10501800274F1846019300F00BFA384600F008FABB
:10502800244800F005FA244800F002FA234800F06A
:10503800FFF9019B224A1360224B1F6007E0224AB6
:10504800126822B91A68D26AB24298BF1D601F4A14
:10505800EB6A11688B4288BF13601D4A11680131E1
:1050680011601C4A11688B4288BF13600E4A1420D5
:1050780000FB0320214600F0E9F900F067FA124B23
:105088001B6853B1074B1B68DB6AB34205D200F0BB
:105098003FFA02E04FF0FF3000E0012007B0F0BD1A
:1050A800C84D0020884D00201C4D0020B04D002028
:1050B800084D00208C4D0020F44C0020D44C0020DA
:1050C800E84C0020A44D0020EC4C0020CC4D0020E2
:1050D800AC4D0020A84D002030B5002485B00C4808
:1050E8000C494FF48072234600940194029403946F
:1050F800FFF726FF0128054607D100F011FA064BF5
:105108001D60064B1C6000F067FA05B030BD00BF9B
:10511800FD52000842E30008EC4C0020A04D00209E
:10512800024B1A6801321A60704700BF804D002098
:1051380010B500F0FDF9034B1C6800F007FA204693
:1051480010BD00BFA04D00202F4BF7B51B68002BEA
:105158004ED12E4B1A6801321A601B68ABB92C4B22
:105168002C4A19681068186011602B4A11680131BF
:1051780011601A681168294A11B94FF0FF3303E02A
:105188001B68DB68DB685B681360204F234B3A6859
:105198001B689A4232D31E4D214C224E2B681B6845
:1051A80013B94FF0FF3206E02B68DB68DB6839681B
:1051B8005A68914202D2194B1A601FE01A1D104614
:1051C8000192009300F069F9009B9A6A22B103F1F9
:1051D800180000F062F9009BD86A23680199984288
:1051E80088BF2060142303FB006000F02FF9D5E787
:1051F8000D4B1A6801321A60FFF708FD0A4B1B684D
:105208000BB9FFF703FDFEBD804D0020A04D002027
:10521800E84C0020A44D0020844D002018000020F8
:10522800A84D00201C4D0020D04C0020F7B500F000
:105238007FF9284B1A68013A1A601D68002D43D17E
:10524800254B1C68002C40D0244F254E1DE0FB68E0
:10525800DC6804F1180000F020F9211D08460191CE
:1052680000F01BF9E06A3368019998421D4B88BF2A
:105278003060142202FB003000F0E8F81A4A136884
:10528800E26ADB6A9A4228BF01253B68002BDED11F
:10529800164C23682BB908E0FFF756FF2368013B3B
:1052A80023602368002BF7D107E0012D05D0104AB1
:1052B8001268012A18BF1C4607D10D4B00221A603C
:1052C80000F026F9012400E0002400F03FF9204610
:1052D800FEBD00BF804D0020C84D00208C4D002031
:1052E800A84D00201C4D0020884D0020D04C0020E7
:1052F800C44D0020F8B5154C154F164E1AE0FFF7AF
:105308000FFF3D68FFF792FFA5B100F011F9FB68A8
:10531800DD68281D00F0C1F83368013B336023685D
:10532800013B236000F012F9286B00F0C5F928460C
:1053380000F0C2F92368002BE1D1074A1368012B5A
:1053480001D900F0E5F8FFF76BFCF3E7F04C00201B
:10535800F44C0020C84D00201C4D002038B50C46E8
:105368000546FFF7DDFE124A2B681168E4189942DA
:1053780002D29C4208D201E09C4207D313689C42A7
:1053880094BF0023012302E0002300E001232C60E6
:105398003BB1084B1868043000F07FF82046FFF74F
:1053A800A9FDFFF743FF08B900F0B2F838BD00BF08
:1053B800A04D0020884D0020184B10B51B6833B154
:1053C8000122174B28E018680138186002E0154BD5
:1053D80015491422D3F800C0134802FB0CFC51F8FD
:1053E8000C40002CEFD00F4B4FF0140C19680CFB3D
:1053F80001FC00EB0C035A680CF1080C526860447D
:1054080082425A6004BF52685A60074B142202FB5A
:1054180001314B68DA68054B1A6010BD804D0020D9
:10542800C44D0020A84D00201C4D0020884D0020B0
:1054380000F108034FF0FF3282604360C3600361EC
:1054480000230360704700230361704743685A686C
:105458008B604A605A689160596003684160013303
:105468000861036070470A68B2F1FF3F0CBF036927
:1054780000F1080301D106E05B68D3F804C0DCF84A
:1054880000C09445F8D95A68086191604A6059602B
:105498008B600368013303607047436882689A60D1
:1054A8008268536003695968814208BF5A600022C4
:1054B80002611A68013A1A60186870470348006860
:1054C800006880F3088862B600DF00BF08ED00E0DE
:1054D800031F4FF0807C40F804CC181F43F8041CCD
:1054E800002140F8041C40F8182CA3F13C00704738
:1054F800064B19680868B0E8F00F80F309884FF088
:10550800000080F311884EF00D0E7047884D002082
:10551800024B4FF080521A60704700BF04ED00E064
:10552800EFF311804FF0BF0181F31188704700201D
:1055380008B5FFF7F5FF024B1A6801321A6008BD7B
:105548001C00002080F311887047000008B5044B48
:1055580018680138186008B9FFF7F4FF08BD00BFE4
:105568001C000020EFF309800C4B1A6820E9F00FAB
:1055780010602DE908404FF0BF0080F31188FFF755
:105588001BFF4FF0000080F31188BDE80840196840
:105598000868B0E8F00F80F309887047884D00204C
:1055A80008B5064B4FF080521A60FFF7B9FFFFF7B6
:1055B800CBFD0020FFF7C6FF08BD00BF04ED00E0EB
:1055C800034A044B1A600722043B1A60704700BF65
:1055D8003F90020014E000E0094B10B51A6800245F
:1055E80042F47F021A601A6842F07F421A60FFF79D
:1055F800E7FF044B1C60FFF761FF204610BD00BFAA
:1056080020ED00E01C000020F0B50C2404FB00FC99
:1056180009180B4B04FB01F533F80C605F1926F4ED
:1056280000465E53788033F80C0089B24004400C81
:1056380004FB0034618042EA010123F80C10F0BD3C
:10564800B85700200C2110B548430A4B1A18B2F875
:1056580006C0948801FB0C3CACF80440B2F804C0C6
:10566800D28801FB0C31CA801A5A22F400421A521D
:1056780010BD00BFB8570020F8B50C2505FB00F693
:105688000C4C0746A05B05FB00F3E35E002B0FDA2A
:10569800FFF7D8FFA35B6B43E35A5B045B0C05FB86
:1056A80003435F80A35B5D43635B23F40043A35321
:1056B800F8BD00BFB857002070B5064600282ED0A8
:1056C800174C0C25361BFFF72BFDB6FBF5F6B6B2CB
:1056D8003046FFF7D1FF05FB06F3E2185088684310
:1056E800215E00290BDAE15A6FEA41416FEA514124
:1056F8002152E35A528805FB034462800DE0A188D9
:1057080005FB014591800021EE80A680D180E25AF8
:105718006FEA42426FEA5242E252FFF787FD70BDDC
:10572800B8570020F7B5064600287FD0FFF7F8FCE9
:10573800082E07D9A6F109010C23B1FBF3F10231B8
:1057480089B200E001213A4847F6FF7384880025B2
:1057580022464FF00C0E18E030F80C506D04C4EBE4
:105768005545ADB28D4234BF4FF0000C4FF0010CDF
:105778009D422CBF4FF0000C0CF0010CBCF1000F47
:1057880018BF224618BF2B4634460EFB04FC00EB1C
:105798000C06B688002EDFD147F6FF70834218BF8B
:1057A8001D4618BF14460C226243214B9A5A5204D4
:1057B800560C82B18D4203D12046FFF743FF2EE0FD
:1057C8006D1AADB2204629464FF400422C19FFF756
:1057D8001BFFA4B223E06218B2F5557F06DB224610
:1057E800144800F0B3FFFFF721FD1FE01CB90122A8
:1057F8001A809A8001340C2202FB04F30C4E6518BF
:10580800F118C888AFB202FB006002FB056587800B
:105818002846019308F070FA019B6C80F752FFF755
:1058280005FD034B0C2606FB043604363046FEBD48
:10583800B85700206CE40008684620F007018D4640
:1058480001B50A4A0A4B0B4903E052F8040B43F826
:10585800040B8B42F9D3084B0849002201E043F8B6
:10586800042B8B42FBD3FFF769F9FEE7D0F9000858
:10587800000000206801002068010020B089002095
:105888007047FEE7254B70B5002101241C700A46BD
:10589800204602F0C3F821460022204602F0BEF856
:1058A80000212246204602F0B9F821462246204629
:1058B80002F0B4F81A4B1B4893F800C01A490023A9
:1058C8001A4A0AE0C55CCC5CD65C86EA040445EA60
:1058D8000404C454D45CCC5401336345F2DB144B48
:1058E8001B6803B19847134B1B78ABB1124B1A785E
:1058F80092B1013A1A700A4B0B4993F800C0002381
:10590800084A184606E0CC5CD55C85EA0404CC5409
:10591800D05401336345F6DB70BD00BFD64D00207F
:10592800D54D0020B47F0020E47F0020D47F0020E4
:10593800D04D0020D44D0020D74D002038B5002888
:1059480032D11B4B102218601A4B1B4DDFF86CE04C
:10595800DFF86CC01B491A700346FF222B540EF85F
:1059680000200CF800200B54013000241028F4D13A
:10597800154B01201C70154B21461C70024602F085
:105988004DF801200246014602F048F802210120A4
:1059980001F0FAFE06220120032102F0BBF80C4BAD
:1059A80001221A70204601E04FF0FF3038BD00BFD9
:1059B800D04D0020D54D0020C47F0020E47F00207A
:1059C800D47F0020B47F0020D44D0020D74D002084
:1059D800D64D0020014B1878704700BFD54D0020E8
:1059E800024B00201A78024B1A707047D44D0020E1
:1059F800D74D002037B5174D2B7823B3164B1A789F
:105A080022B300241C70154B214618602246012041
:105A180002F004F801200146224601F0FFFF0120B0
:105A28002146024601F0FAFF01200146024601F034
:105A3800F5FF0B4A2B78009201200A490A4A02F026
:105A480035FA204604E04FF0FF3001E06FF0010026
:105A58003EBD00BFD54D0020D64D0020D04D0020C2
:105A68008D580008C47F0020D47F002060B9DFF87B
:105A780020C0084AFF2103460CF8001013540130D7
:105A88001028F9D1002001E04FF0FF30704700BF27
:105A9800E47F0020B47F002010B50446FFF79AFF8A
:105AA800844236BF024B4FF0FF30185D10BD00BF77
:105AB800E47F002070B504460E46FFF78BFF844252
:105AC8000CD201F015FE074B1D5D1A5D06EA0505AF
:105AD80022EA06061E5501F021FE00E000252846B0
:105AE80070BD00BFB47F0020F7B50190FFF772FFCB
:105AF800064620B3019A12B300241CE02046FF2179
:105B0800FFF7D8FF0746A8B10025E30057FA05F2CA
:105B180012F0010F0BD00B4AE818115D00932941D0
:105B2800019A01F001019047FFF75AFF009B0135E8
:105B3800082DEBD10134B442E0DB002001E04FF046
:105B4800FF30FEBDE47F002038B9054A03461354F0
:105B580001301028FBD1002001E04FF0FF307047E2
:105B6800C47F002010B520BB134C1449024604F82A
:105B7800202011F8303043F00F036FF3041301F8BD
:105B8800303001EBC00393F803C001300CF0F00C87
:105B98006FF3071C83F803C093F805C040286FF320
:105BA800030C5A709A701A7183F805C0DFD100206F
:105BB80001E04FF0FF3010BDF87F0020F880002092
:105BC800F7B59F4E9F4D002416F82430002B00F0A7
:105BD800318105EBC4039A780AB1013A9A7006EB51
:105BE80084039F780FB35B7803215B09994015F80C
:105BF80034200193134662F38303013F924AFFB2B4
:105C080005F83430D35DC9B219420ED03846FFF7D3
:105C180051FF50B13846FFF73FFF019B184115F877
:105C2800343060F3010305F8343015F83410C1F34B
:105C3800810201F003039A4200F0FC8001F00F0298
:105C4800012A16F8243002D113F0100F08E0072AB1
:105C580002D113F0200F03E00E2A02D113F0400FF7
:105C680006D1082A14BF0020012010EAD31068D0FA
:105C780001F01001C9B229B905EBC4029278E02AF3
:105C880000F2D880FF2B0BD105EBC40315F83420A4
:105C9800DB7802F00F0203F00F039A4200F0CA808B
:105CA80015F8343043F0100305F8343005EBC4031D
:105CB8001A799978891A142901DD14329A7006EB39
:105CC80084035A7812F0030316D0022B4FEAC40358
:105CD80026D1EB189978C2F38202C2F1070251FA71
:105CE80002F293F9011008BF01228A1A6FF04501E8
:105CF8008A42B8BF0A4616E005EBC4035979C2F3D5
:105D08008202D24301F00F01521802D559780139A5
:105D1800597005EBC403597962F30301597103E023
:105D2800EB185A78013A5A7005EBC4039A781A713D
:105D38004FF0FF329A7015F83410DA7861F30302E5
:105D480077E0022A02D113F0010F0DE00B2A02D1ED
:105D580013F0020F08E00D2A02D113F0040F03E03C
:105D6800042A67D113F0080F64D001F01001C9B2FA
:105D780021B105EBC4029278E02A5BD8FF2B09D148
:105D880015F8343005EBC402D27803F00F03B3EBF7
:105D9800121F4FD015F834306FF3041305F8343060
:105DA80005EBC4031A799978891A142901DD14328C
:105DB8009A7006EB84035A7812F0030314D0022B6E
:105DC8004FEAC40325D1EB189978C2F38202C2F1D5
:105DD800070251FA02F293F9011008BF0122521882
:105DE800462AA8BF462217E005EBC4035979C2F337
:105DF800820201F00F018A1801320F2A02DD597858
:105E08000131597005EBC403597962F303015971E3
:105E180003E0EB185A7801325A7005EBC4039A78FC
:105E28004FF0FF311A71997015F83410DA7861F370
:105E38000712DA700134402C7FF4C6AE0020FEBD94
:105E4800F87F0020F8800020B47F0020F7B50546D1
:105E58004FF0FF30BDB100240B4F264601F048FC3F
:105E680007EBC40393F9011039B15E70019101F099
:105E780055FC20460199A84701E001F04FFC013488
:105E8800402CEBD10020FEBDF8800020024B93F996
:105E98000000C00F704700BFFC820020014B187043
:105EA80000207047E44D002008B50B4B18800B4BC1
:105EB80019800B4B9A8812B1D2B29B7901E0082362
:105EC80006224243DFF81CC04B43ACF80020064AC8
:105ED800138006F0F5FC08BD068300200C83002023
:105EE800D84D00200E830020F882002008B5034B0F
:105EF8001880034B198006F077FC08BD0E8300203C
:105F0800F8820020044A0023C15C99540133042B11
:105F1800FAD10020704700BF0883002007B5002889
:105F280039D11E4B1E4A9C4607CAACE80300ACF8A0
:105F380000201C4A1278422A0ED11B4A12781A7085
:105F48001A4A12785A701A4A12789A70194A1278AC
:105F58009A80194A1278DA80184B00229A80184BD6
:105F680002A81B6840F8043DFFF7CCFF4CF2503004
:105F780002F06AFE002006F0E5F900280DDB06F0C5
:105F8800A5FB00200146FFF78FFF00200146FFF721
:105F9800ADFF002001E04FF0FF300EBDFC82002075
:105FA80000E50008C03F0008C13F0008C23F0008E4
