:020000040800F2
:10000000005000208D010008890100080000000058
:10001000890100088901000889010008000000002A
:10002000000000000000000000000000890100083E
:10003000890100080000000089010008890100080A
:100040008901000889010008890100088901000868
:100050008901000889010008890100088901000858
:100060008901000889010008890100088901000848
:100070008901000889010008890100088901000838
:100080008901000889010008890100088901000828
:100090008901000889010008890100088901000818
:1000A0008901000889010008890100088901000808
:1000B00089010008890100088901000889010008F8
:1000C00089010008890100088901000889010008E8
:1000D00089010008890100088901000889010008D8
:1000E00089010008890100088901000889010008C8
:1000F00089010008890100088901000889010008B8
:1001000089010008890100088901000889010008A7
:100110008901000889010008890100088901000897
:100120008901000889010008890100088901000887
:100130008901000889010008890100088901000877
:100140008901000889010008890100088916000852
:100150008901000889010008890100088901000857
:100160008901000889010008890100088901000847
:100170008901000889010008890100088901000837
:100180008901000889010008FEE70000684620F0A8
:1001900007018D4601B500230A4A0B499818884289
:1001A00004D20A49585898500433F5E7084B094AD5
:1001B000934203D2002043F8040BF8E700F00CF858
:1001C000FEE700BF000000203800002000390008D2
:1001D00038000020481C00202DE9F743002000F0E3
:1001E00061FF002001F008F9012001F09DF8684648
:1001F00001F075FE002401238DF805408DF80430D0
:100200008DF80640B5490A196058958802AE0583F5
:100210006946083446F8085D01F014FE182CF1D147
:100220000027AF4CE31938599A8802A9028341F894
:10023000082D0837694601F005FE302FF1D1002660
:10024000A84DAF197059BC8802AB44836946083683
:1002500043F8084D01F0F6FD182EF1D1A24D082605
:10026000284669460096802401F0ECFD2E839F4DC0
:10027000DFF87C8208264FF020094FF40057A8F8D9
:100280001A9001206F836E8301F0D8F8A8F81890B7
:1002900001202F832E8301F0D1F8013CE7D12046C5
:1002A0008F4A131881589D88083030284D83F7D124
:1002B000012001F0C3F80027894EF019BC5982884B
:1002C0000837302F2283F7D1012001F0B7F800253D
:1002D00001218DF804508DF80710804B5F1902AC96
:1002E000BE88E85844F8086D6946083501F0AAFD53
:1002F000182DF2D100257A48421902A9938828586E
:1003000041F8083D0835694601F09CFD302DF2D1D9
:100310000027744EF41902A8A588694640F8085DC4
:10032000B859083701F08EFD182FF2D1704F6420B4
:1003300001F022F83A6902F0010501F0B4F9C6B201
:1003400016B93B69D9070BD53DB18020012101F0D9
:1003500023FE8020002101F01FFE002001F0AAF9F9
:10036000002000F02FFB002000F024F9B6B960490E
:100370000C69E20770D45F480778422F6CD15E4A5F
:100380001678002E68D001F0D1FC0120002100F089
:10039000DFFF5A4BDF78082F46D103E0102000F032
:1003A000DDFA59E06FF00700012101F0E9FD6FF07F
:1003B0008000012101F0F0FD4FF0FF30012101F03C
:1003C000F7FD4FF0FF30012101F0FEFD4FF0FF304F
:1003D000002101F0D5FD4FF0FF30002101F0DCFDE0
:1003E0004FF0FF30002101F0E3FD4FF0FF3000211E
:1003F00001F0EAFD45B18020012101F0CDFD802012
:10040000002101F0C9FD08E001F04DF928B13C4898
:10041000D0F8E4550DB102F0C5FA3A4E346884F3D1
:10042000088836490A68904700F0CEFF012001464F
:1004300000F08EFF00F0D2FF40F2F31398421F4607
:10044000F8D900F0C1FF0120002100F081FF00F089
:10045000C5FFB842FBD9E7E700F0B6FF00F0BEFFEA
:100460003227B0FBF7F364210446B3FBF1F001FB44
:10047000103242F21073B4FBF3F1560841F28830A7
:1004800003FB11428242B4FBF7F307FB134188BF21
:10049000C6EB07060120B14294BF002101210A27C3
:1004A00000F056FFB4FBF7F607FB16440CB900F05A
:1004B000A9FD002000F03AFD00F090FF44F61F6116
:1004C0008842CBD900F080F80028C7D1002D3FF436
:1004D0005AAF074A1069C307C0D454E73036000842
:1004E0004836000818360008001002400004024098
:1004F00000000240D23F0008D33F0008044000083B
:10050000EC15002000400008124B1A78032A10B5A1
:100510000BD811490C6800F07F004FEAC41444EA7C
:10052000001008600FD104220EE0072A0FD80B49F3
:100530000C6800F07F004FEAC41444EA0010086021
:1005400001D1082200E001321A70002010BD4FF0E6
:10055000FF3010BDFC0400203800002044000020C3
:1005600070B5134B88B016461A7804460D468DF8C0
:1005700000209978DA7858781B798DF802108DF878
:1005800003208DF801008DF8043000F083FD8DF814
:100590000500F7208DF808006946204609228DF8ED
:1005A00006508DF8076000F087FA08B070BD00BFF4
:1005B0007837000810B9034B187070474FF0FF30C0
:1005C000704700BFFD040020014B1878704700BF42
:1005D000FD0400202DE9F04198460C4615460646DC
:1005E00000F04CFD00F0F0FEB8F1010F04D0B8F1BE
:1005F000020F40F0A38189E0B14B14B1012C0AD164
:1006000004E01C70AF4BB04A1C6092E019780729D7
:1006100000F2918197E01978082903D030460E2125
:100620000122E5E0A948AA4C02784378817822703B
:10063000C2780079A34FA44D6370A170E27020715D
:100640003F682D6800F026FD4FEA556E6071780E08
:100650000223E071C7F386417044A3712172C7F38E
:10066000C62341186372C7F3061253FA81F3C5F328
:100670008640A27252FA83F250FA82F1C5F3C62381
:1006800053FA81F22073C5F3061050FA82F16373B6
:100690000023A07384F80BE0C9B21A460F34184641
:1006A000A84221D010F807E04FF0080C01335200A7
:1006B000DBB242EADE12062B4FEA4E0ED2B25FFAEE
:1006C0008EFE0AD9C3F1070302FA03F2D2B251181F
:1006D000002304F8012BC9B21A460CF1FF3C1CF0B0
:1006E000FF0CE3D10130DBE71BB18B1804F8012BC1
:1006F000D9B24A42764902F07F00F723A21C20704B
:1007000063703046521A00F0D7F914E114B1012C8D
:1007100053D110E06A4B6B496B486E4A1C700C60F9
:1007200004606D4B6D496E4814706E4A1C700C600D
:1007300004601460FFE062480178072907D8654922
:1007400008782A180A702846FFF7DEFEF3E0082929
:100750002BD160480278AB18037060480368B3F58A
:10076000806F80F0E880584E5E4F5D4C3668386888
:10077000226807240132C5F380176D00072A47EA73
:100780004000EDB206D9524AD0540133B34228BFDB
:1007900009210022013CEDD1524C206050480260FA
:1007A0004E4A1360464B1970C5E0092902D14A4BE5
:1007B0001D70C0E00C220270BDE0434B47481F682B
:1007C0000168B942FFF42AAF3D4A13780C2B03D1DC
:1007D00030460E2142460BE03E4A3F4813780178EE
:1007E000584200F07F02914205D030460E2103228C
:1007F000FFF7B6FE9FE0334B3B4901240C701C68A9
:1008000044EA0700830740F08C80384A944202D8BB
:100810006FF0070087E000F0D9FC00F100614B1E8B
:100820009C426DD801F074FA00230C2159433048E2
:100830000A58944224D12F492F488C4201D10022DA
:1008400002600121006801FA03F1014203D02B4D3F
:100850004FF000082EE041EA000227490A60244ACE
:100860000C2000FB03230221586801F0B5FA082888
:10087000EDD04FF0FF3001F061FA6FF0030052E06D
:1008800001330C2BD1D1E2E76B7829781A0442EAC4
:10089000012315F8011CAA780B4343EA026101F019
:1008A0007DFA04350828E4D101F02AFA01F020FA93
:1008B00008F10408B84508EB0400E5D342E000BFA6
:1008C000FC04002038000020440000207837000895
:1008D0004C0000204000002048000020F8040020C8
:1008E000F404002000050020FD040020FF3F000864
:1008F00078360008004000083C0000204D00002031
:10090000B4F1005F84D300F069FC00F10050421E96
:1009100094423FF67DAF20460E493A4602F072FE01
:1009200010E06FF0080043420E213046DAB2FFF7C4
:1009300017FE00F067FB0020BDE8F0814FF0FF30AC
:10094000BDE8F0810449087842420F21304602F0A8
:100950007F02ECE74C0000204000002010B5114B56
:1009600088B01A7899788DF800200446DA7858789B
:100970001B798DF802108DF803208DF801008DF899
:10098000043000F087FBF7218DF8050001208DF879
:1009900006008DF8071020466946082200F08CF802
:1009A00008B010BD7837000808B52020FFF7D6FF43
:1009B0001020FFF7D3FF024B0020187008BD00BFC6
:1009C000FD04002010B5044600282CD1174A184910
:1009D000102313700B70174A174B184918601060DA
:1009E0000860174B174A184918601060086000F03B
:1009F00061FF164B164A1C70164B174914701C7079
:100A00000A78C00F422A04D114490A78110658BF47
:100A10001A70134B00211980124900220023C1E9EA
:100A20000023404210BD4FF0FF3010BD00000020F9
:100A300001000020040500200C05002030050020E6
:100A40003805002020050020100500201405002096
:100A50001805002015050020D03F0008D13F0008F0
:100A6000160500202805002010F0F00F38B50446C8
:100A70000D4604D101280CBF0C4B0D4B1C780D4BBF
:100A80001A6864F3071542B904F0F004102C0AD177
:100A90002846BDE8384000F07BBF204629469047F5
:100AA0000028F1D038BD4FF0FF3038BD01000020E4
:100AB00000000020040500202DE9F04180460E468C
:100AC00017460024BC4235D23B1B022B0DD0032B12
:100AD00019D0012B19D1325D052161F3030562F3B1
:100AE0000F2501346FF317450AE03119305D4A785C
:100AF000062363F3030560F30F2562F31745023401
:100B00006FF31F650FE0072000E0042060F303058A
:100B10003019335D4178827863F30F2561F317450F
:100B200062F31F65033440462946FFF79DFF002806
:100B3000C8DA00E00020BDE8F081000030B5A1B0C7
:100B4000F0238DF80030134B7E2232258DF80320E0
:100B50001A788DF8045000240F258DF801408DF887
:100B600002408DF805208DF8065002AB0D5D5A1E2F
:100B700035B101341A4603F8015C0133642CF5D118
:100B8000F72102F8011B6946521AFFF795FF21B0C1
:100B900030BD00BF1505002000B589B0F0238DF8E9
:100BA000003000238DF801308DF802307E238DF85F
:100BB000033032238DF80430084B8DF806101B7873
:100BC0008DF80720F7218DF80810092269468DF865
:100BD0000530FFF771FF09B000BD00BF150500200B
:100BE000F0B5454E8BB0337804460D461746FFF7F7
:100BF000F1FC00287CDA31780D295AD001D829B1CE
:100C000069E00E2974D00F2965D15AE03B4B1DB124
:100C1000012D03D11F706BE01D7069E01878052865
:100C200029D011D8022820D004D801283DD120464F
:100C3000334937E003281BD0042836D100F0C0FA2E
:100C400030490246684623E0082826D006D8062800
:100C500019D0072829D100F0C1FA16E009281FD0C1
:100C60007F2822D1FFF7A0FE42E02046264919E066
:100C70002046264916E0684600F0B4FA00282046CF
:100C800009DA23490EE000F0A1FA2249024668463B
:100C900001F004F82046694604E020461E4901E0C0
:100CA0001E492046FFF74AFF22E020460E210D2272
:100CB00004E0022D1CD120460E211022FFF76CFF0C
:100CC00016E0174A0DB1012D01D1556010E05268B0
:100CD00072B92046F2E70E210A462046FFF75CFF74
:100CE0000F49054B0A7800206FF307020A7018704D
:100CF00000200BB0F0BD00BF080500203405002027
:100D0000183700083A3700081F3700083037000846
:100D10003F370008413700084437000856370008BD
:100D200018050020F72910B50A465AD82E4B197815
:100D300001F0080303F0FF041BB12C4B1B78834226
:100D40004CD1A0F11103062B48D9284B187004BBD5
:100D50002548037803F00703042B03D82448C05C1C
:100D6000904221D101F00701052903D121480178E2
:100D7000914219D15A1C1C4B197802F0070060F3FC
:100D80000201052819702CD9CAB242F00800187067
:100D900027E0130611D5F72A06D101F01001CBB2D6
:100DA00013B10221FFF71CFF0F4B134A19780020E3
:100DB0006FF307011970107010BD01F01004E4B258
:100DC00044B9094B197841F0100119700A4B2146BA
:100DD0001A7000E00121FFF703FF02E04FF0FF303F
:100DE00010BD002010BD00BF180500201405002014
:100DF00078370008150500200805002001F00F03D2
:100E00002DE9F0470F46C1F30728C1F307494FEA20
:100E1000116A03F1080101F00F010629064602D804
:100E2000002A58D17AE0B8F1F00F05D003F10C0098
:100E300000F00F01032929D83A49D1E9004554EAC5
:100E4000050023D106F0F004302C4FF000000CD048
:100E5000502C13D0102C19D1334C208006F00F00E9
:100E6000012404FA00F0088010E02F4C208006F0E6
:100E70000F00012404FA00F0488007E02A4C20808B
:100E800006F00F00012404FA00F08880991E0D2955
:100E900044D8DFE801F01E1E071B242443434343CC
:100EA00043434307B8F1F70F13D83046414607F0E4
:100EB0000F07FFF737FF0F2F30D049463046FFF7B7
:100EC00031FF30465146FFF72DFF27E0B8F1F70F0D
:100ED00005D91AB3304627F0F00190471EE01A1FDB
:100EE00012F0FF041AD030464146FFF71BFF012CD9
:100EF0000CD030464946FFF715FF022C05D030468E
:100F00005146FFF70FFFD04600E0C846B8F1F70F93
:100F100004D1044800220023C0E900230020BDE8DA
:100F2000F08700BF280500201605002013B50446F1
:100F300001A800F045FD002807DB0199C1F303106B
:100F400010302246FFF75AFFF2E72849D1E9002383
:100F500052EA030047D0264B1888B0F57A7F42D971
:100F60000A8862B1002142FA01F313F0010003D1B3
:100F700001311029F7D101461031C8B21AE04B886F
:100F80005BB143FA02F010F0010103D10132102AE3
:100F9000F7D10A463032D0B20CE0888850B140FA1E
:100FA00003F111F0010203D10133102BF7D11346E5
:100FB0005033D8B20F4B1A7802F00801C9B249B1C8
:100FC0000D490978814205D16FF307021A700B4B66
:100FD00000221A700A490A6802B1904703480022A9
:100FE0000023C0E9002300201CBD00BF280500200D
:100FF0001605002018050020140500200805002013
:101000003805002010B500F007FD044600F048F850
:10101000054B1A884FF6FF718A4240EA040001D05E
:1010200001321A8010BD00BF16050020114BF7B524
:101030001C680746E4B1C1F30764C1F30720C1F39C
:1010400007420D4D8DF8064001F00F0100246E5C43
:101050008DF804008DF805202546B54208DA01AA6E
:10106000044B515D1B683846984701350443F4E74B
:101070002046FEBD0C05002008370008012803D0DB
:10108000034B1870002070474FF0FF30704700BFCF
:1010900001000020014B1878704700BF15050020A3
:1010A0000020704713B5044600287AD11F20012183
:1010B00000F036FF3C4B00949A6802F00C000828C0
:1010C00002D1012000905DE0196841F001021A6030
:1010D0009C60186820F08471344821F480321A60D2
:1010E0005860196821F480221A60DC600194186845
:1010F00040F4803119602C4B1A6802F400300090E3
:1011000001994A1C0192009818B90199B1F5A06F94
:10111000F1D11B6813F4003218BF0122009200982D
:1011200001282FD1204B2248196C41F080521A64BB
:10113000016841F48042026098689860996841F4BF
:1011400000429A6098681B4A40F4A05199605A6026
:10115000186840F0807119601868134A8101FBD546
:10116000154B40F205611960906820F00301916011
:10117000936843F0020090600B4A916801F00C0301
:10118000082BF9D10D48002100F0A2FD4FF440706A
:1011900000F094FD009A012A14BF4FF0FF300020A8
:1011A00001E04FF0FF301CBD003802401030002439
:1011B0000070004008544007003C02400000000856
:1011C000014B1868704700BF002004E0024B1888EC
:1011D00081B28802704700BF227AFF1F4FF440306F
:1011E0007047000000230B4A591089180A78D90764
:1011F00058BF120902F00F02092A94BF302137218B
:101200008A18C2540133182BEDD10021017608460B
:10121000704700BF107AFF1F074B1A681AB9EFF327
:101220001081064801604FF0010080F310881A68B1
:10123000511C196000207047400500203C0500202B
:10124000074A13683BB1581E106038B905490A684F
:1012500082F3108802E04FF0FF30704700207047A3
:10126000400500203C0500200F291CD80F4BDA68F0
:10127000D343C3F30222C2F1040301FA03F10901CB
:1012800000F16043CAB203F56141012381F80023F4
:1012900042B200F01F00510903FA00F2044840F87E
:1012A0002120002070474FF0FF30704700ED00E034
:1012B00000E100E073B5054668460E46144600F0AE
:1012C0000EFE02238DF805300096062C29D8DFE8A3
:1012D00004F02604090F13181D0003208DF80400E4
:1012E000002302E000238DF804308DF8073012E06F
:1012F00000228DF80420F8E700218DF80410012366
:10130000F3E701208DF80400002302E001238DF8AB
:1013100004308DF806302846694600F093FD002021
:1013200001E06FF001007CBDC30710B5044605D590
:1013300006484FF480510522FFF7BCFF34F00F033D
:1013400014BF6FF00100002010BD00BF000C024070
:10135000C20707D5074B11F0010F4FF4805214BF9D
:101360001A835A8330F00F0314BF6FF0010000207E
:10137000704700BF000C024030B5012185B0044623
:10138000102000F0E5FD54204443611E0D4CADF8E3
:1013900004104FF6FF730025204601A90293ADF813
:1013A0000C50ADF8065000F01BFE01210A46204605
:1013B00000F060FE2046012100F050FE284605B0F6
:1013C00030BD00BF001000400348012108B5416254
:1013D00000F064FE002008BD00100040054810B574
:1013E0000121446A00F04FFE00280CBF20464FF058
:1013F000FF3010BD001000401FB50446B8B90120F1
:10140000014600F0B1FDA7204FF6FF73ADF80400D0
:1014100001A909480293ADF80C40ADF8064000F070
:10142000DFFD0548012100F019FE204601E04FF0E4
:10143000FF3004B010BD00BF00000140044B596AEA
:1014400089B25A6A521A92B28242FAD9002070477F
:101450000000014012230B8000487047B437000899
:1014600004230B8000487047B0370008704770476E
:101470007047704770470020704700207047000099
:1014800065230B8000487047F337000810B50B4BFD
:101490008CB098781A888DF8060002A80C46ADF832
:1014A0000420FFF79FFE0028ACBF02A801A8044952
:1014B000224601F065F902480CB010BDE43700087F
:1014C000E41B002070B5164B86B00A4601AC03F150
:1014D000100618685968254603C50833B3422C46E0
:1014E000F7D11888002328800E495818017859B17F
:1014F00020395F298CBF002101210133202B06D028
:101500000029F1D101A805E0002BFBD001E0002962
:10151000F8D00448044901F033F9034806B070BD1F
:1015200044370008E03F0008E41B0020FFF7CABF73
:10153000FFF7C8BF1146FFF7C5BF00001FB5084C35
:101540000A462068616801AB03C3A068054C1860B7
:10155000214601A801F014F9204604B010BD00BFD7
:10156000E7370008E41B0020022908B503D108462C
:10157000002100F067FA002008BD012908B503D159
:101580000846002100F056FA002008BD10B50221DF
:10159000044601F046FD2046812101F042FD002075
:1015A00010BD002000F08CB9012000F089B90000C6
:1015B000022110B5402204460B4601F011FD8121A5
:1015C00040220223204601F00BFD0221034A044879
:1015D000402301F03FFD002010BD00BFAC150020EE
:1015E000EC15002073B50120244C014600F098FC56
:1015F00000204FF4D853022503268DF806008DF8FD
:1016000007006946204600938DF804508DF8056068
:1016100000F018FC204608210A2200F069FC204650
:1016200009210A2200F064FC20460B210A2200F066
:101630005FFC0A2220460C2100F05AFC4FF4806126
:1016400000918DF804502046012569468DF8075019
:101650008DF8056000F0F6FB0A210A46204600F0EE
:1016600047FC29464FF4804000F07EFC802029464C
:1016700000F062FC284600F035FB7CBD0000024013
:1016800043200821FFF7F0BD014801F06FBD00BF06
:10169000EC15002080B2FFF7D1BE4FF47A735843A7
:1016A00080B2FFF7CBBE4FF0A0431868C0F3C04034
:1016B00070470000022837B5054642D8FFF7F3FF10
:1016C0000446FFF76EFF45BB14F0FF0F25D01E4CFC
:1016D0002046FFF787FF1D481D491E4AC4F8E40550
:1016E000C4F8E81520460121C4F8EC2501F0AEF855
:1016F000204601F050F9204601F0C0F92046FFF7DE
:10170000BFFF01210323204684F8101184F8123111
:10171000FFF74EFFFFF748FF11E00D4B0D4A009316
:1017200001210A4B084800F0BBFD074801F016FDF7
:101730004CF25030FFF782FE034801F007FD002015
:1017400001E04FF0FF303EBDEC150020803700086F
:1017500058380008C837000870B5254CD4F8E4356F
:10176000002B43D0FFF758FD22480178002939D0DB
:10177000D4F8DC63B608B3B2002B33D01E4A10880D
:1017800081B21BB2C1F5007293422BDA00241B4DCB
:1017900055F82450C5F3031010302946FFF746FCD6
:1017A00090B9174B174A198889B242F82150198805
:1017B0004A1C91B2B1F5007F198028BF18800E48ED
:1017C00003885A1C91B201800134301B03B2002BF4
:1017D000DDDC0849064800220A7040230221074A3E
:1017E00001F038FCBDE87040FFF72ABD70BD00BFB6
:1017F000EC1500205015002046050020AC150020F7
:1018000052150020500D0020234BD3F8E40510B5ED
:10181000002840D0FFF700FD20490A78002A36D181
:101820001F4B188881B2002931D01E4A1078002839
:101830002DD019888AB2102A98BF1988174B94BFE7
:1018400089B210210120187015480288531A9AB2E3
:10185000028000220BB29A4213DA134B13481C8801
:10186000A4B250F82440124840F8224018880130B1
:1018700080B2B0F5007F188001D3002018800132BB
:10188000E8E705480A4A81219B0001F000FCBDE819
:101890001040FFF7D5BC10BDEC1500204C0D00200A
:1018A000561500205A150020581500204C05002020
:1018B0005C150020002814BF4FF0FF300020704757
:1018C0000D49002310B50B800C4C0D4923800B8073
:1018D0000C4C0D4923700B800C4C0D4923801A468B
:1018E0000B800C4C0C4B012110B121701A7001E0DF
:1018F00022701970002010BD4605002052150020EE
:1019000048050020501500205615002044050020F1
:10191000581500205A1500204C0D002038B5184CE1
:101920002378054613B94FF0FF3038BD15480188BC
:101930008AB2B2F5FF7F07D9FFF766FF2378002B45
:10194000F1D06FF0010038BDFFF766FC0E4B0F4978
:10195000188882B2501C41F8225082B21A8019882D
:1019600088B2B0F5007F01D300221A80054B198898
:10197000481C82B21A80FFF763FC002038BD00BF0C
:101980005A15002056150020440500204C05002063
:1019900010B504462046FFF7C1FF831C08D1074B52
:1019A0001A8842F20F718A4207D8501C1880F1E75A
:1019B000002802DB014B00221A8010BD54150020C4
:1019C000124B10B50446188881B2D9B1FFF724FC38
:1019D0000F4B10491A8890B251F8202022601C88C1
:1019E000601C81B2B1F5007F198001D300221A80FA
:1019F000064C2388581E81B22180FFF721FC2288E3
:101A000090B210BD4FF0FF3010BD00BF4605002062
:101A100048050020500D002008B5054801F01EF8CB
:101A200018B9FFF799FEFFF7EFFE002008BD00BFD1
:101A3000EC150020024B00221A70FFF7E5BE00BF34
:101A40004C0D0020024B01221A70FFF785BE00BF2B
:101A50005015002020B10368197001684A1C02600B
:101A600070472DE9F843141E8046894601DC202783
:101A70000FE0002219F8021009B10132FAE7A24280
:101A8000B4BFC2EB04040C4613F0020F0CBF2027B6
:101A90003027DB070CD42546002D05DD40463946AE
:101AA000FFF7D8FF013DF7E724EAE476A41B00E046
:101AB00000263546C6EB0903595D21B14046FFF7C4
:101AC000C9FF0135F6E72646002E05DD40463946BA
:101AD000FFF7C0FF013EF7E7002CACBF2819281C18
:101AE000BDE8F8832DE9FF470C9EDDF83480814680
:101AF0000C4651B930228DF804208DF8051032467D
:101B000001A94346FFF7ADFF35E033B10A2A04D1FE
:101B1000002902DA4C42012700E0002704AD00232F
:101B200005F8013DAA466CB1B4FBF2F302FB134485
:101B3000092C02DD0E993A396418303405F8014D4C
:101B40001C46EFE787B14EB118F0020F06D04846A9
:101B50002D21FFF77FFF013E012705E02D2005F134
:101B6000FF3A05F8010C00274846514632464346E5
:101B7000FFF777FF381804B0BDE8F087F0B589B0FB
:101B800006460D46059200242B7823B1252B79D1EA
:101B900068786A1C28B9002E7BD030680022027059
:101BA00077E025286DD02D2802D1AA1C012300E062
:101BB0000023174601323978302902D143F002035D
:101BC000F7E700223978A1F130005FFA80FC3D464A
:101BD0000137BCF1090F03D80A2505FB0202F1E722
:101BE000732909D1059F391D059139682A4F30465F
:101BF000002908BF394641E064290ED18DE80C0068
:101C0000059961230293081D096805900A22304650
:101C10000123FFF767FF241839E0782906D10599D9
:101C2000081D8DE80C000590612207E058290AD1B3
:101C30000599081D8DE80C0005904122029230465E
:101C4000096810220BE075290BD18DE80C0005996D
:101C500061230293081D096805900A22304600237B
:101C6000D7E7632913D10599081D0968059000205D
:101C70008DF81C108DF81D0007A93046FFF7F1FE06
:101C8000C9E7154630462978FFF7E4FE01340135EF
:101C90007AE7204609B0F0BD743800080EB40FB5DD
:101CA00005AA019052F8041B01A80392FFF766FFF2
:101CB00004B05DF804EB03B07047000040F0BF6073
:101CC000024B40F40031D960704700BF00ED00E0E6
:101CD00021F0604121F07F02014B10439860704772
:101CE00000ED00E0014B5861704700BF003C01402F
:101CF000024B1A6842F4006018607047003C0240D2
:101D0000024B1A6842F4805018607047003C024051
:101D1000044B1A69002A04DA034800F1883158603C
:101D200059607047003C024023016745024B1A6925
:101D300042F0004018617047003C0240014BD860FF
:101D4000704700BF003C02400B4BDA68D0030DD453
:101D5000D868C1060CD4D96811F0EF0F0AD1DB683E
:101D600013F0020F0CBF08200720704701207047B6
:101D70000520704706207047003C024007B5082345
:101D80008DF80730FFF7E0FF8DF807009DF807009A
:101D90000128F7D09DF807000EBD000070B505467C
:101DA0000E46FFF7EBFF082813D10A4C236923F4F2
:101DB00040702061216941F400722261236943F07F
:101DC000010020612E60FFF7D9FF216921F0010297
:101DD000226170BD003C024070B5064641B1012948
:101DE00008D0022914BF4FF440754FF4007503E08A
:101DF0000D4601E04FF48075FFF7C0FF08281ED1A3
:101E00000F4C236923F44070206121690D43256143
:101E1000226922F0F8032361206940F002010E4399
:101E20002661226942F480332361FFF7A7FF21690D
:101E300021F002022261236923F0F801216170BDC3
:101E4000003C0240F0B50E680022012303FA02F3C1
:101E500003EA06059D423ED107680C79530027FA34
:101E600003F707F00307A7420DD007684FF0030CF4
:101E70000CFA03FC27EA0C070760076804FA03FC66
:101E80004CEA07070760013C012C17D88768032438
:101E900004FA03F427EA040787604C79876804FA98
:101EA00003F43C438460446824EA05058C7945606A
:101EB000456804FA02F4A4B22C434460C5680324C4
:101EC00004FA03F425EA0405C560CD79C46805FA6F
:101ED00003F32343C3600132102AB6D1F0BD0021C1
:101EE0004FF6FF730360017141718171C1717047D9
:101EF00001F00703C908083130B59B0050F82150A4
:101F00000F2404FA03F425EA040440F8214050F8B1
:101F1000214002FA03F2144340F8214030BD000092
:101F2000044B1A6B09B1104301E022EA0000186368
:101F3000704700BF00380240044B5A6B09B1104390
:101F400001E022EA00005863704700BF00380240F9
:101F5000044B1A6C09B1104301E022EA0000186436
:101F6000704700BF00380240044B5A6C09B110435F
:101F700001E022EA00005864704700BF00380240C8
:101F8000044B1A6909B1104301E022EA000018610C
:101F9000704700BF00380240044B5A6909B1104332
:101FA00001E022EA00005861704700BF003802409B
:101FB000044B1A6A09B1104301E022EA00001862DA
:101FC000704700BF00380240044B5A6A09B1104301
:101FD00001E022EA00005862704700BF003802406A
:101FE0001C4A038890429BB212D002F58062904254
:101FF0000ED0B0F1804F0BD0A2F58032904207D0C6
:1020000002F58062904203D002F58062904203D1D3
:102010004A8823F0700313430F4A904208D002F518
:102020008062904204D023F440730A899BB2134328
:1020300003804B680A88C362064B0285984203D02E
:1020400003F58062904201D1897A0186012383825F
:10205000704700BF0000014000100040038819B124
:1020600099B241F0010303E023F001010A04130CCB
:102070000380704783899BB20AB1194301E023EAC8
:10208000010181817047038A828911EA030092B2BB
:1020900003D011420CBF002001207047C9438AB20F
:1020A00002827047D0F8E83510B5044618698047B9
:1020B000032184F81211002010BD08B590F81231E8
:1020C000042180F8133180F81211D0F8E805C268B5
:1020D0009047002008BD08B5D0F8E435D96901B1B2
:1020E0008847002008BD08B5D0F8E435196A88474C
:1020F000002008BD08B5D0F8E435596A88470020AB
:1021000008BD002110B5402204460B4600F068FFD0
:10211000802140220023204600F062FFD4F8E80529
:10212000012384F812314168A0788847002010BD4F
:1021300013B56946044600F023F99DF8001001F03C
:102140001F03012B0CD006D3022B0ED1204669466B
:1021500000F046F90EE02046694600F0BBF909E0C0
:102160002046694600F09EF904E0204601F0800117
:1021700000F0A8FF00201CBD70B50446002947D11F
:1021800090F81131022B37D1D0F83821D0F8243112
:102190009A4211D9D21AC0F83821C078012804D146
:1021A000D4F82811CB18C4F828312046D4F82811C7
:1021B00092B200F0B5F81FE0D0F83C51B5FBF3F651
:1021C00003FB16565EB99D4209D3D0F840219542D3
:1021D00005D2324600F0A4F8C4F840610CE0D4F80F
:1021E000E405C16829B194F81231032B01D12046CE
:1021F0008847204600F0B5F894F81621012A10D13E
:10220000094920690B680022436084F8162108E020
:10221000D0F8E4355B6923B190F81221032A00D18C
:102220009847002070BD00BFE01B002010B5044699
:1022300059BB90F81111032930D1D0F89023D0F870
:102240007C339A4214D9D21AC0F89023C07801285E
:1022500004D1D4F88013C818C4F880039A4228BF68
:102260001A462046D4F8801392B200F062F815E0C6
:10227000D0F8E4150B6923B190F81221032A00D19C
:102280009847204600F05EF808E0D0F8E4359B69F6
:1022900023B190F81221032A00D19847002010BDE5
:1022A0002DE9F041069F0446164698460D46FFF775
:1022B00099F920462946C4F8E485C4F8E875C4F8BD
:1022C000EC6500F042FED4F8E835186880472046F7
:1022D000BDE8F041FFF7D4B9D0F8E43510B50446B5
:1022E0001A689047D4F8E80581688847002010BD37
:1022F00008B5D0F8E4355A689047002008BD38B5D5
:1023000004460D46C4F83C21C4F838211346022285
:1023100080F8112100212A4600F0B9FE002038BDC6
:1023200010B50C4613460021224600F0B0FE0020F6
:1023300010BD10B50C4613460021224600F08AFE5F
:10234000002010BD0021042310B50A46044680F881
:1023500011310B4600F09BFE204600F0D8FD002016
:1023600010BD0021052310B50A46044680F811313E
:102370000B4600F06FFE204600F0C9FD002010BDA6
:1023800090F8CC350B7090F8CD254A7090F8CE358A
:1023900090F8CF2503EB02224A8090F8D03590F8D0
:1023A000D12503EB02228A8090F8D23590F8D3250C
:1023B00003EB022293B2CB800121C0F8403180F8B8
:1023C0001111704710B58021044600F07BFE2046B5
:1023D000002100F077FE2046BDE8104000F097BDD8
:1023E00070B54E788A88012E04460D46D3B211D0BE
:1023F00029D3032E51D190F81221022A2AD0032A80
:1024000049D14988A9B9A3B1802B12D0194600F04F
:1024100059FE0EE090F81221022A1BD0032A3AD16D
:102420004988002939D153B1802B08D0194600F0D2
:1024300067FED4F8E405294683682046984720467D
:10244000FFF780FF29E090F81251022D02D0032DF2
:1024500021D106E00BB3802B1FD0194600F032FECD
:102460001BE012F0800F4FF0280006D002F07F0230
:1024700000FB024191F81E3103E000FB034393F897
:102480007633074803B10123036005492046022241
:10249000FFF735FF01E0FFF795FF002070BD00BF9B
:1024A000A415002038B590F81231032B04460D46D0
:1024B0000CD10A79012A09D8D0F8E4359A689047F6
:1024C000E88828B92046FFF73DFF01E0FFF77AFFD3
:1024D000002038BD70B54B78052BA2B004460D46E0
:1024E00000F0838008D8012B00F01581C0F0DA805D
:1024F000032B40F03381E6E0082B00F0C58003D8C1
:10250000062B40F02B8106E0092B00F08E80552B26
:1025100040F024810FE14888010A4B1E062B00F28F
:102520001D81DFE813F007001A0027001B011B01C3
:102530001B011B01D4F8EC15A0780A680DF1060107
:1025400090470146E888402803D094F81231012BC7
:102550003BD10822ADF8062037E0D4F8E4050DF1B0
:102560000601826AA0789047022343700146C4F8AE
:10257000F0052AE0C1B2A07805291FD8DFE801F0F4
:1025800003070B0F1317D4F8EC25536812E0D4F8A7
:10259000EC158B680EE0D4F8EC35DB680AE0D4F873
:1025A000EC25136906E0D4F8EC154B6902E0D4F889
:1025B000EC2593690DF10601984705E0D4F8E43560
:1025C0000DF10602DB6A98470146BDF806000028B7
:1025D00000F0C880EA88002A00F0C480824228BF48
:1025E0000246ADF806202046B5E08A88002A40F071
:1025F000B580C988002940F0B1806E8890F812211A
:1026000006F07F03032A1E4600F0A88080F81431EC
:10261000194600F093FD2046FFF794FE0EB102200C
:1026200000E0012084F812019CE08B784F4A012BD6
:10263000137000F2938090F81221022A03D0032A2B
:1026400040F08E8008E0002B61D00121032380F848
:10265000101180F8123114E043B9022180F81211F0
:1026600080F810311946FFF743FE50E090F8101142
:1026700001294CD0FFF73CFE3C480178204684F805
:102680001011FFF729FE42E0CA88012A66D190F8AE
:102690001231022B04D0032B62D100F588715AE06D
:1026A000334958E090F81221931E012B58D8314835
:1026B000D4F81821002101600AB1022303602046EA
:1026C0002C49022247E04B88012B2DD0022B49D107
:1026D0008A8812F0FF0F45D10069110A4A1E43682B
:1026E000042A0FD8DFE802F0030507090B000120D8
:1026F00006E0022004E0032002E0042000E00520C0
:1027000060F306131C490B60012384F81631204640
:10271000FFF718FE26E090F81221931E012B1FD818
:102720004A88012A1ED10023D4F8E425C4F81831C0
:1027300093689847EBE70978C0290FD16B886BB98C
:10274000EE88802E0AD10D49324602A800F05AFFC9
:10275000204602A93246FFF7D2FD03E02046294673
:10276000FFF730FE002022B070BD00BFA015002092
:10277000A81500209C150020E01B00207B380008D5
:1027800030B5C0B10023C55CDCB20133002DFAD1F5
:10279000631C5B00138003220B704A700138022314
:1027A00010F8012F3AB15C1CCA54E2B20233002483
:1027B0008C54DBB2F4E730BD37B50023104C0193E5
:1027C00005460320FEF766FFE8680269013C0192B6
:1027D00013D001990029F4DA019B43F00102019220
:1027E0000199074A01610369013A019302D00199F5
:1027F000C907F8D40320FEF74DFF00203EBD00BFFF
:10280000410D030030B5C4786CB900EB820003338E
:10281000D0F8D0509B1022469A4204D051F82200A2
:1028200001322860F8E7002030BD10B50332D0F83F
:10283000D0409210002393424FEA830004D02068D6
:1028400041F823000133F6E7081810BDF0B5002366
:10285000012240240129C370827084800CD102239C
:10286000082604224FF4A0740372C17206704270ED
:10287000C4804FF0A04309E041B90C23C17203703A
:1028800006214FF4A065204B4170C58003F500611F
:1028900045780161C3600246194600240432AC4207
:1028A00001F1200608D201F5106701F530611165CC
:1028B000576101343146F1E703F5806403F588611F
:1028C00044610478C0F8CC10002203F5A061A24254
:1028D00006D200EB82050132C5F890102031F6E7F0
:1028E00003F580510022A24207D200EB820501329B
:1028F000C5F8D01001F58051F5E703F56063C0F825
:102900000C310020F0BD00BF0000044038B5037A50
:102910000025012B0446C3681FD1986B617A65F3CB
:10292000104009B140F480109863DA686FF38612A2
:102930006FF396526FF351426FF3D342DA60204641
:10294000FFF73AFFE378012B19D1052161F3440524
:10295000E06845F02005856011E0DA6842F040014A
:10296000D960FFF729FF607AE36800280CBF4FF4B5
:1029700034124FF474129A631420FEF78EFEE2783C
:10298000012A06D1E368996821F03E0040F02A024E
:102990009A60002038BDC3689A6842F001009860D0
:1029A00000207047C3689A6822F0010098600020F8
:1029B0007047000007B500230193019A42F02003FD
:1029C0000193019A094B61F38A120192C26801983E
:1029D00010611169013B019102D001988006F8D481
:1029E0000320FEF757FE00200EBD00BF410D03007F
:1029F00007B500230193019941F010020192C068CC
:102A0000019B074A03610169013A019102D0019BD0
:102A1000D906F8D40320FEF73DFE00200EBD00BF0E
:102A2000410D0300C26808B5D36801296FF35D73D7
:102A30006FF39E7302D143F0005302E009B943F0F3
:102A400080433220D360FEF728FE002008BDC36813
:102A5000586900F0010181F001007047C3685869AE
:102A600000F001007047C3685A69986910407047C8
:102A700003691A6861F301021A60704710B5C368F0
:102A800000226FF080414FF0FF349A6159615C6021
:102A900059610A499961C07890420CBF10211146D2
:102AA00041F4872040F00811986941F4401120EA70
:102AB000010001439961104610BD00BF000800806D
:102AC00038B5D0F80C31016900221A6015460A6841
:102AD00065F3CC220A60C37A012B04461BD1032183
:102AE000FFF7C6FFE068C02380214FF4800263F344
:102AF0000F05416261F31F4561F30F024FF4A071AE
:102B00008262C0F8045161F30F056FF31F45C0F8EE
:102B10000851C0F80C5110212046FFF74BFF20460A
:102B2000FFF766FF206900234FF0FF320361436126
:102B30008261C36161788B4214D204EB830201335A
:102B400090690168C1F3076202F08001CAB2002AED
:102B500014BF4FF09041002101600022FF2102616B
:102B60008160E7E700236078834214D204EB83009E
:102B70000133426D1168C1F3076000F08001C8B2F3
:102B8000002814BF4FF09041002111600020FF2168
:102B900010619160E7E723691A6942F48071196155
:102BA000E078012804D1054A402161F359421A63B3
:102BB0002046FFF763FF002038BD00BF030101007E
:102BC00003699868C0F341014B1E022B02D8024AE8
:102BD000D05C704703207047FB38000803698169A7
:102BE00010B59C680A68C4F34100022802D06FF354
:102BF0000A0202E0032060F30A020A60596841F405
:102C000080725A60002010BD30B54D780B780022DC
:102C1000012D00EB830405D105FA03F5A46965F3E2
:102C20000F0205E0012505FA03F3646D63F31F420B
:102C30002368C3F3072505F08005EDB26DB98D68F3
:102C400065F30A03CD78C98865F3934361F399531B
:102C500043F0805343F4004121600069C3691A4383
:102C6000C261002030BD30B54D780B780024012DB5
:102C7000224600EB830105D105FA03F3896963F36A
:102C80000F0205E0012505FA03F3496D63F31F42C6
:102C900000696FF3CF340C60C16921EA0202C2619E
:102CA000002030BD70B54E780A78012E0B4600EB3F
:102CB000820148D18D695C6929682A6964F312022E
:102CC00014B966F3DC420BE09E68A419013CB4FB26
:102CD000F6F6DC7866F3DC42012C08BF64F35E7222
:102CE0002A61C278012A06D11A7800EB82041A6997
:102CF000A46962610CE0DA78012A09D05A693AB114
:102D000002691C78556B012606FA04F42C435463BF
:102D1000DA78012A07D102699268D20554BF41F0DE
:102D2000005141F080511A7800EB820241F00441D9
:102D300092691160D978012937D1D9681A789B8AAC
:102D4000FFF760FD31E04D6D5E692A689C68296976
:102D50002EB964F31201012464F3DC410AE0361950
:102D6000013EB6FBF4F666F3DC41B605B60D7443DE
:102D700064F312012961C178012905D11C7800EBA7
:102D800084014C6D19696161D978012906D159799D
:102D900011B142F0005201E042F080521B7800EB8A
:102DA000830042F00441426D1160002070BD73B594
:102DB0004D78012D3DD183694A691E681C690094D4
:102DC000E4B242B962F306049DF802208DF8004097
:102DD00065F3C4020EE08D68AA428ABF4D6162F3BA
:102DE000060465F306049DF802208DF800400124D6
:102DF00064F3C4028DF80220009A1A61C278012A95
:102E000005D10C7800EB840294690A69626146F08E
:102E100004461E60C378002B34D14A69002A31D0A1
:102E200003690A78586B012101FA02F202435A63DE
:102E300028E00B784E6900EB8302536D8A681D68A9
:102E40001C690094E4B206B14A6162F306049DF87D
:102E500002208DF80040012464F3C4028DF80220A2
:102E6000009A1A61C378012B05D10A7800EB82031E
:102E70005A6D0B695361097800EB810045F00445F8
:102E8000426D156000207CBD4B780978012B00EB6A
:102E900081000DD180690368C3F3076202F08001ED
:102EA000CAB20AB143F0804343F40011016004E068
:102EB000436D1A6842F400111960002070474B7886
:102EC000012B0B78C97800EB83000CBF8269426D3F
:102ED0001368881E6FF35553012898BF43F0805341
:102EE00013600020704703699A69D8691040000C8C
:102EF000704700EB810102694B6D99685069084089
:102F0000704703699869D969084080B2704782B0F8
:102F100000230093C021012200238DF8031062F3E7
:102F2000C40318218DF802308DF80010436D009A0B
:102F30001A61C178012906D100F2CC5058611A6893
:102F40004FF080221A6002B0704710B50446FFF7B8
:102F50007DFC012384F81231002384F81431627857
:102F6000934213D2282202FB034101F58E72012005
:102F700081F81D0181F81C31A1F822314020002187
:102F8000D1709060D16051610133E8E7002360782F
:102F9000834213D2282101FB034000F55D7200211A
:102FA00080F87433A0F87A3380F8751380F87713BB
:102FB00040209060D16051610133E8E72046FFF77F
:102FC000F1FC2046FFF7A2FC00212046FFF72AFD76
:102FD0002046FFF775FD2046BDE81040FFF7DBBC3B
:102FE00070B5CDB201F07F044FF0280606FB040453
:102FF00015F0800F14BF04F58E7404F55D7401F0B4
:103000007F01ED0921706570A260E37005B1E18078
:10301000022B01D1002323712146FFF7F5FD00208B
:1030200070BD10B5CAB201F07F034FF0280404FB55
:10303000030312F0800F14BF03F58E7303F55D7365
:1030400001F07F01D20919705A701946FFF70BFE83
:10305000002010BD38B501F07F04282505FB0405CC
:1030600005F55D7185F874434B610023CA608B617F
:103070004B70C378012B05F55C7508BF0A6114B964
:10308000FFF795FE01E0FFF70DFE002038BD70B59B
:1030900001F07F04282505FB040505F58E71012646
:1030A000CA600A61002285F81C414E7005F58C75D6
:1030B0008A614B6114B9FFF77AFE01E0FFF7F2FD78
:1030C000002070BDCAB212F0800F10B54FF0280377
:1030D00006D001F07F0403FB040303F58E7303E0C5
:1030E00003FB010404F55D73D209012401F07F01A3
:1030F00019709C705A701946FFF7C6FE002010BD6B
:10310000CAB212F0800F10B54FF0280306D001F0BC
:103110007F0403FB040303F58E7303E003FB010448
:1031200004F55D730024D20901F07F0119709C70D1
:103130005A701946FFF7C3FE204610BD02690023EE
:1031400061F30A1311680B431360704703695A68EF
:1031500003206FF341025A60FEF79FBA03695A6871
:1031600042F0020058600320FEF797BA2DE9F04FB5
:1031700085B00446FFF76BFC08B900203AE2204610
:10318000FFF771FC07460028F7D0C0F3074A0AF0A2
:103190000800C0B2002856D02046FFF7A4FEA34680
:1031A000804626464FF00009B8F1000F4AD018F0CB
:1031B000010F3FD05FFA89F3194620460093FFF7CD
:1031C00098FE10F0010F0546009B20D0706D012580
:1031D0008560E178A94207D10269DBF87C13C2F36C
:1031E00012000A1ACBF88C237148016820460A683D
:1031F00019469047E378012B09D1B9F1000F06D1A8
:1032000094F81101052802D12046FFF780FE05F051
:103210000201CAB212B1736D02259D6005F008006B
:10322000C1B239B1624A15682046AB689847706DE3
:103230000821816009F101094FEA580804360BF1B1
:10324000280BB1E701200AF0040A5FFA8AF3002B89
:1032500000F0B1802046FFF754FE264681464FF02D
:103260000008B9F1000F00F0A58019F0010F00F07F
:1032700099805FFA88FA236904EB8A0019695D6B0B
:10328000826925FA0AF59068EA01D5B20D43054036
:10329000EA071BD5586B464A012505FA08F120EAD2
:1032A00001005863B36910689D6051464368204629
:1032B0009847E178A94209D1B8F1000F06D194F8F6
:1032C0001121042A02D12046FFF721FE05F0080053
:1032D000C3B213B1B16908258D6005F01002D0B2F8
:1032E00010B1B36910259D6005F04001CAB212B15A
:1032F000B0694025856005F00203D9B211B1B26909
:103300000225956025F07F0010F0FF0F4AD028239A
:1033100003FB084101F58C75019504356869AB69BB
:10332000AA68C11AB069914238BF0A4602F1030C7B
:1033300082694FEA9C0C93B2634530D9A9696A69E6
:1033400091422CD25AB3A868C1EB020B834528BF27
:1033500083460BF1030E4FEA9E0CE968CDF800C0DE
:1033600052461FFA8BF32046FFF74CFAEB68AA6926
:10337000DDF800C003EB0B010BEB0200E960A86174
:103380006969B36988429A69D5D301982569027938
:103390006B6B012101FA02F023EA00036B63B5694C
:1033A0008022AA6008F101084FEA5909043658E75B
:1033B000040000200120FDB205F00201CAB212B1E2
:1033C000E36802215961C7F3076202F08003D9B2B2
:1033D000C9B1A07A40B1D4F80C31D4F80C216FF304
:1033E00041036FF3000313602169844A486820F0A9
:1033F00001034B60116820468B699847E0684FF0E5
:10340000004242610120C7F3072808F00801CBB24F
:103410006BB37A4994F812210B6800208DF80F00E5
:103420008DF80F2020465A6990472069E36882682A
:103430004FF400615961A07AC0B1D30716D594F852
:103440001521012A12D19DF80F30032B0ED1D4F88B
:103450000C11086840F001020A600B6843F0030099
:10346000086067490A6942F006030B61012005F014
:103470000801CAB242B1614803682046D96888474A
:10348000E06808224261012005F01005EDB2002D30
:1034900035D0E668B36923F01001B161366A28229D
:1034A00006F00F00C6F3434302FB0045022B05F56F
:1034B0005D750DD0062B1CD104F2CC51204608229C
:1034C000FFF7B3F9A969C6F30A168819A86110E0D5
:1034D00047F6F072324062B1C6F30A16E968324626
:1034E0002046FFF7A2F9EB68A86999198619E960E7
:1034F000AE61E3689A6942F010019961012008F019
:103500001003DAB2002A34D026697068002520F052
:103510000101716020462946FFF74CFA23462A46EE
:1035200066780433B24206D25E69FF21B160186D3D
:1035300001328160F4E70126206966F30F050B2153
:103540004FF0FF3266F31F458261C5614161016141
:1035500003686FF30A1303602046FFF7D8FC27497E
:10356000E0680B684FF4805242611A692046904728
:10357000304608F020085FFA88F1E9B12046FFF7ED
:103580002DFBE5682046ED68FFF71AFB032806D1FE
:1035900000214FF40070A170A080092204E00120F6
:1035A0004023A070A3800522E36862F38D254FF4C9
:1035B0000052DD6001205A61C7F3074707F0100190
:1035C000CBB24BB10D4802682046D1698847E36809
:1035D0004FF480105861012007F02007FFB24FB16F
:1035E000064A116820460B6A9847E0684FF40012BB
:1035F0004261012005B0BDE8F08F00BF040000204B
:1036000000ED00E010B50023934203D0CC5CC4541D
:103610000133F9E710BD0000000002408000000007
:10362000000402400080000000040240200000006E
:1036300000000240200000000004024000200000C2
:1036400000040240080000000004024004000000E2
:10365000000C0240000800000004024000100000BE
:10366000000C024000040000000002400080000046
:103670000004024000010000FFFFFFFF0000000007
:1036800000000000004000080800000000000000EA
:1036900000800008100000000000000000C00008CA
:1036A00018000000000000000000010820000000D9
:1036B00000000000000002082800000000000000D8
:1036C00000000408300000000000000000000608B0
:1036D0003800000000000000000008084000000062
:1036E0000000000000000A08480000000000000080
:1036F00000000C08500000000000000000000E0850
:103700005800000000000000000002030301020353
:1037100003030303020203014D494F5333320053A5
:10372000544D33324634444953434F564552590061
:1037300053544D3332463478780025303878003F82
:10374000002564004D494F53333220426F6F746C33
:103750006F6164657200286329203230313420544F
:103760002E204B6C6F7365002025303258002020CE
:103770002000253038582000F000007E3200000084
:10378000B11500088D15000877140008000000002E
:103790007B1400087B150008691500080000000074
:1037A000000000000000000081140008351500082A
:1037B000040309041201000200000040C016FE03C9
:1037C00010100102030100005514000861140008E4
:1037D0003D150008C51400088D14000831150008B7
:1037E0002D1500083432006D696469626F782E6FA0
:1037F00072670009026500020104803209040000BA
:10380000000101000209240100010900010109046D
:103810000100020103000207240100014100062407
:10382000020101000624020202000924030103012F
:10383000020100092403020401010100090502023A
:10384000400000000005250101010905810240003A
:1038500000000005250101036D1400086F14000825
:10386000A9150008731400087514000871140008E5
:10387000A3150008286E756C6C2900D10FED54CF8C
:10388000C5FBB89752389138910E7D0FED389301F2
:10389000910E9100C11F020E91F7041040006E10AE
:1038A0006EE76A0000000000000000000000000059
:1038B0000000000000000000000400000000000004
:1038C000000000000000002F55461F00D848403778
:1038D0006AF76A00300000C7062E734A2C137BE992
:1038E0007F32002A280D9BFE0B21EF422A2F73B551
:1038F000B8DA76E679BF0FEB793E0B0201020000E1
:1039000010100000080000202D2200087921000876
:1039100031210008D720000803210008BB2000083F
:10392000A5200008E7200008F5200008000000009E
:103930000000000000000000FFFFFFFFFFFFFFFF8F
:10394000FFFFFFFFFFFFFFFFFFFFFFFFFFFFFFFF87
:10395000FFFFFFFFFFFFFFFFFFFFFFFFFFFFFFFF77
:10396000FFFFFFFFFFFFFFFFFFFFFFFFFFFFFFFF67
:10397000FFFFFFFFFFFFFFFFFFFFFFFFFFFFFFFF57
:1040000000000220CD190108C9190108A9100108F2
:10401000C9190108C9190108C919010800000000DF
:10402000000000000000000000000000AD160108C4
:10403000C9190108000000001D17010859170108DF
:10404000C9190108C9190108C9190108C9190108C4
:10405000C9190108C9190108C9190108C9190108B4
:10406000C9190108C9190108C9190108C9190108A4
:10407000C91901083941010819410108C919010884
:10408000C9190108C9190108C9190108C919010884
:10409000C9190108C9190108C9190108C919010874
:1040A000C9190108C9190108C9190108C919010864
:1040B000C91901080D000108C9190108B556010800
:1040C000C15601089D560108A9560108C9190108E1
:1040D000C9190108C9190108F953010859540108FF
:1040E000C9190108C9190108C9190108C919010824
:1040F000C9190108C9190108C9190108C919010814
:10410000C9190108C9190108C9190108C919010803
:10411000C9190108C9190108C9190108C9190108F3
:10412000C9190108C9190108F9400108C91901088C
:10413000C9190108C9190108C9190108C9190108D3
:10414000C9190108C9190108C919010881480108DC
:10415000C9190108C9190108C9190108C9190108B3
:10416000C9190108C9190108C9190108C9190108A3
:10417000C9190108C9190108C9190108C919010893
:08418000C9190108C919010861
:020000040801F1
:10000000014B586A704700BF000C004010B5104CFF
:100010000121204605F0CBFFC0B12046012105F0AB
:10002000D1FF2046002105F0ADFF4FF08043094A83
:10003000586AD3F8241C1368984700216162E06273
:1000400001212046BDE8104005F09CBF10BD00BF57
:100050000004004070000020014B1860704700BF92
:1000600070000020F0B5012085B0014605F0F8FDD4
:10007000002201214FF0804005F090FF012400256F
:100080004FF0FF3701A94FF080402A4E0297ADF89C
:100090000440ADF80C50ADF8065005F029FF21469C
:1000A0004FF0804005F06EFF0820214605F0D8FD96
:1000B0002A463046214605F071FF4FF4EE63304684
:1000C00001A9ADF804300297ADF80C50ADF8065018
:1000D00005F00EFF30462146A6F5006605F052FFFA
:1000E0000220214605F0BCFD2A463046214605F097
:1000F00055FF40F2E730029001A93046ADF80440C8
:10010000ADF80C50ADF8065005F0F2FE3046294629
:1001100005F02CFF30462146224605F03FFF0C211A
:100120001D2003F0DBFB3046214605F02BFF05B018
:10013000F0BD00BF000C00402DE9F04F0B4BFF203D
:1001400000220121022485B01A7059709870D8706D
:10015000187158719C71064B0024D518D454023282
:10016000B2F5C07F6C70F6D104E000BF240B002014
:100170002C0B0020122613200125022203214FF010
:10018000110BDE7122271E734FF03209D87523261A
:1001900004204FF033084FF0050C83F800B0DA70FC
:1001A000DF7283F80F901A74D9741A751A765A761A
:1001B000DE761A77597783F81F8083F8202083F83A
:1001C000210083F8230083F824209D701C719D7109
:1001D0001C729D729D735C749D745D759D759D769A
:1001E0009D7783F8225083F825C083F833C04FF001
:1001F0002A0C83F834C04FF0150C83F837C04FF049
:10020000290C83F838C04FF0250C142783F83BC025
:1002100083F847B04FF0240A4FF02B0C4FF0210B1E
:10022000282683F8277083F82BA006274FF0070AAB
:100230004FF0340E83F83CC083F84BB04FF0350CD0
:100240004FF0310B83F8282083F8297083F82C2095
:1002500083F82DA083F82FE083F8306083F83FC047
:1002600083F8265083F82A5083F82E5083F83250B2
:1002700083F8365083F83A5083F83E5083F8404074
:1002800083F8425083F8435083F8444083F8465043
:1002900083F8484083F84A5083F84C4083F84E5026
:1002A00083F84FB083F853A04FF0170A83F857A094
:1002B0004FF0270B4FF0370A83F85BB083F85FA04D
:1002C00083F8601083F8629083F8641083F8668086
:1002D00083F8681083F8692083F86AC083F86C108B
:1002E00083F86D1083F86EE083F8780083F87A0065
:1002F00083F87C0083F8504083F8525083F85440D0
:1003000083F8565083F8584083F85A5083F85C407D
:1003100083F85E5083F8614083F8655083F870403D
:1003200083F8724083F8744083F8764083F879400C
:1003300083F87B5083F87D2083F87F1036223021AC
:1003400083F87E0083F883704FF0160E262783F81B
:100350008F204FF02008102283F89F1008204FF0C4
:10036000180C092183F887E083F88B7083F89720B5
:1003700083F89B8083F8A30083F8A7C083F88040AC
:1003800083F8825083F8844083F8865083F888404D
:1003900083F88A5083F88C4083F88E5083F890401D
:1003A00083F8925083F8934083F8944083F89650F2
:1003B00083F8984083F89A5083F89C4083F89E50C5
:1003C00083F8A04083F8A25083F8A44083F8A65095
:1003D00083F8A84083F8AA5083F8B310392183F832
:1003E000BF102A2183F8AB602920382683F8CB1070
:1003F0003A2183F8AF6083F8BB0019260A204FF03A
:100400001A0983F8CF104FF01B0A0B214FF02B0B6A
:1004100083F8B76083F8C30083F8C79083F8D310DC
:1004200083F8AC4083F8AE5083F8B04083F8B25004
:1004300083F8B44083F8B65083F8B84083F8BA50D4
:1004400083F8BC4083F8BE5083F8C04083F8C250A4
:1004500083F8C44083F8C65083F8C84083F8CA5074
:1004600083F8CC4083F8CE5083F8D04083F8D25044
:1004700083F8D44083F8D65083F8D7A083F8DBB054
:100480004FF03B0B83F8DFB04FF0510B83F8E0B037
:100490004FF0500B83F8E2B04FF04B0B83F8E4B011
:1004A0004FF04A0B83F8E6B04FF0490B83F8E8B001
:1004B0004FF0480B83F8EAB04FF0470B83F8ECB0ED
:1004C0004FF0460B83F8EEB04FF03C0B83F8F4B0DE
:1004D0004FF03D0B83F8F6B04FF03E0B83F8F8B0C9
:1004E0004FF03F0B83F8FAB04FF0400B83F8FCB0AD
:1004F0004FF0410B83F8FEB04FF01D0B83F8D8404E
:1005000083F8DA5083F8DC4083F8DE5083F8F0405B
:1005100083F8F24083F8004183F8024183F80441F4
:1005200083F8064183F8084183F80A4183F80C41B7
:1005300083F80E4183F8104183F8124183F8144187
:1005400083F8164183F840B14FF02D0B83F842B188
:100550004FF02C0B83F844B14FF02F0B83F846B1CA
:100560004FF01E0B83F848B14FF01F0B83F84AB1D0
:1005700083F84E8183F852C183F856614FF02E0BF9
:100580004FF0150C4FF017064FF0140883F84CB1DC
:1005900083F858E183F8184183F81A4183F81C4125
:1005A00083F81E4183F8204183F8224183F82441D7
:1005B00083F8264183F8284183F82A4183F82C41A7
:1005C00083F82E4183F8304183F8324183F8344177
:1005D00083F8364183F8384183F83A4183F83C4147
:1005E00083F83E4183F8508183F854C183F85A91CF
:1005F00083F85C611C2683F86061212683F86261C0
:1006000083F8687124264FF0230783F85EA14FF02A
:10061000250E83F86A7183F86E610D270E2683F824
:10062000760183F87C210F200C224FF022094FF035
:10063000270A4FF0130B83F8780183F87A1183F8B7
:1006400064E183F8669183F86CA183F8707183F894
:1006500072B183F8746183F87E21204601F09CFB1F
:10066000010A65F301016FF0770364F384010390DD
:1006700000908DF80C308DF80D1020460399013450
:1006800001F07CFB152CF8D19DF80D504FF0080AB5
:100690006FF347158DF80D508DF80EA000200399CB
:1006A00001F06CFB9DF80D6004274FF0070B67F31A
:1006B00047168DF80D608DF80EB00120039901F0FA
:1006C0005DFB9DF80D006FF347108DF80D00039949
:1006D000022001F053FB9DF80D20022565F347121F
:1006E0008DF80D200320039901F048FB9DF80D3093
:1006F0004FF0010969F347138DF80D308DF80E9016
:100700000399384601F03AFB9DF80D10062467F373
:1007100047118DF80E408DF80D100520039901F05A
:100720002DFB9DF80D6065F347168DF80D6003995C
:10073000204601F023FB9DF80D006FF347108DF864
:100740000D000399584601F019FB9DF80D20052670
:1007500067F347128DF80D208DF80E60039950460F
:1007600001F00CFB9DF80D3065F347138DF80D304B
:100770000920039901F002FB9DF80D106FF347115A
:100780008DF80D100A20039901F0F8FA9DF80D007C
:100790008DF80E704FF0030868F347108DF80D00C8
:1007A00003990B2001F0EAFA9DF80D2069F3471236
:1007B0008DF80D200C20039901F0E0FA9DF80D3022
:1007C0008DF80E4064F347138DF80D300D2003991A
:1007D00001F0D4FA8DF80E600E20039901F0CEFAE4
:1007E0009DF80D108DF80E7066F347118DF80D1001
:1007F0000F20039901F0C2FA9DF80D0040F0E002CD
:100800008DF80D200399102001F0B8FA9DF80D30F5
:100810008DF80E9065F347138DF80D300399112074
:1008200001F0ACFA9DF80D1067F347118DF80D102B
:100830000399122001F0A2FA9DF80D0040F0E002A9
:100840008DF80D200399132001F098FA9DF80D30D2
:100850008DF80EB064F347138DF80D300399142012
:1008600001F08CFA794800214B4600226BF3C70156
:100870006BF3C703026041708370294643466BF3F4
:10088000C7016BF3C70342604171837100214B467E
:100890006AF3C7016AF3C703826041728372294613
:1008A00043466AF3C7016AF3C703C26041738373A7
:1008B0000721234664F3C70164F3C703026141744F
:1008C000837431463B4664F3C70164F3C703426156
:1008D0004175837541462B4664F3C70164F3C70332
:1008E0008261417683764946002364F3C70164F34D
:1008F000C703C2614177837731463B4666F3C70140
:1009000066F3C703026280F8211080F822300721C5
:10091000234666F3C70166F3C703426280F82510D9
:1009200080F826304946002366F3C70166F3C70303
:10093000826280F8291080F82A3041462B4666F3FF
:10094000C70166F3C703C26280F82D1080F82E300D
:100950000721234667F3C70167F3C703026380F8E3
:10096000311080F8323031463B4667F3C70167F3F8
:10097000C703426380F8351080F836303946334675
:100980006AF3C7016AF3C703826380F8391080F8FD
:100990003A302146072365F3C70165F3C7030264B4
:1009A000C263426480F8411080F8423080F83C9085
:1009B00080F84450264802788378417869F302022F
:1009C00065F3020368F3C70265F3C703027083701F
:1009D000C278437969F3020165F3C701417068F396
:1009E0000202017966F3020365F3C70265F3C703E8
:1009F000C27043718279C37967F3020165F3C7015D
:100A0000017102F0F80103F0F80268F3C70165F321
:100A1000C7028171C271017A437A827A67F3020157
:100A200068F3C701017266F30203C17A68F3C70372
:100A3000437264F3020241EA0B0368F3C70268F3EE
:100A4000C7038272C37205B0BDE8F08FAC0C002002
:100A5000F40C002070B53825B0FBF5F400F0070267
:100A600005FB1400C008234B1856C4F107060028E4
:100A700006F0FF063DDB02EBC00206EBC2021E4B96
:100A800003EB420013F812304078002B31D0D1F143
:100A90000101A3F10A0238BF0021272A04D8184611
:100AA000BDE8704000F0F4B8312B04D91846BDE819
:100AB000704000F005B9012B03D1BDE8704000F093
:100AC00053B8022B03D1BDE8704000F06FB8032B80
:100AD00003D1BDE8704000F0CBB8042B03D1BDE8D2
:100AE000704000F0CDB805481946BDE8704001F0EF
:100AF000C7BD70BD240B00202C0B0020E8D20108DC
:100B000010B9084600F0E4B8C0B200F0F3B8000035
:100B1000032810B51AD80B2918D8012A16D842EA8A
:100B200040000B4A895C6FF0570201F0F80402FBA9
:100B3000004001F0070100F51672C1F1070010181E
:100B400000211A46BDE810400BF0E6BC10BD00BF06
:100B5000F40C0020034B00200122187001461346BC
:100B6000FFF7D6BFE80A002070B50D4604462146BF
:100B70000C482A4601F084FD95B10B4D29780122DD
:100B80000809002301F00F01FFF7C2FF012220092D
:100B900004F00F0113462C70BDE87040FFF7B8BF9A
:100BA00070BD00BF02D30108E80A002038B50D4629
:100BB000044621462C482A4601F062FD002D52D001
:100BC000002C50D0012C4ED0022C05D1274B93F88D
:100BD000F21041F0090008E0032C0DD1234B93F8EB
:100BE000F22002F0FE006FF3C30083F8F200002051
:100BF000BDE838400BF08EBA042C0BD10020014622
:100C0000212210230BF0C6F800200BF041FA002837
:100C1000FAD138BD052C0BD100200146212220231A
:100C20000BF0B8F800200BF033FA0028FAD138BDE9
:100C3000062C0BD100200146212208230BF0AAF834
:100C400000200BF025FA0028FAD138BD072C0AD174
:100C500000200146212203460BF09CF800200BF0F7
:100C600017FA0028FAD138BD23D301089C1C0120B3
:100C7000034602480A46194601F002BD37D301086F
:100C8000034602480A46194601F0FABC5DD3010842
:100C900038B505460C4607482946224601F0F0FCC7
:100CA000262D06D12CB1044801F0EAFC034B0322A7
:100CB0001A7038BD7ED3010898D30108F80A0020C5
:100CC000034602480A46194601F0DABCA5D30108DA
:100CD00010B504462146054801F0D2FC002C044B17
:100CE00001DD012200E002221A7010BDBDD301080F
:100CF000F80A0020034602480A46194601F0C0BC23
:100D0000D0D301080328F8B5044640D80021F425C3
:100D1000242265431E4E02FB0153F0184F1C837EB4
:100D2000F9B20022204603F00103FFF7F1FE062F7F
:100D30003946ECD17519EA79D30905D0154BA87954
:100D40001978431A18BF0123204607210022FFF714
:100D5000DFFE0F4A0F4BF42505FB042000258179A7
:100D600019707A2202FB04507430094B13F81020DA
:100D700002F00F0305F1080100220F3B18BF012309
:100D80002046C9B20135FFF7C3FE042DE9D1F8BDF5
:100D90009C1C01200000002008B501F011F8BDE8FE
:100DA00008400BF0C1BD000007B500F0A7FA0190A4
:100DB000012101A800F0BAFB00F0A0FA019B421F3C
:100DC000934238BF0190074800F04CFF064801F0FD
:100DD0002DF9064803F023FC02F029F80BF00AFC79
:100DE000E6E700BF2DC901083DC9010841C9010856
:100DF00007B500F083FA0190012101A800F096FBED
:100E000000F07CFA019B421F934238BF019001F031
:100E100087FC034801F038FF0BF082FDECE700BFD0
:100E200023C9010830B5002085B002F097FC0020EE
:100E300003F0C4FB002002F0BFFB002003F0C6F962
:100E4000002002F099FF002000F03EFE002000F09C
:100E5000CFFE002000F038FF002000F059FF0020F6
:100E600002F0A8F9002003F0D7FB002002F09FF960
:100E7000002001F025FA002003F076FD002001F0AB
:100E80009FFF002001F0A2FF002001F07DF901206A
:100E900001F028F9002009F01FFA002001F022F9E2
:100EA0000CF0AAF90BF06AFB01F0D6F94FF4FA64E2
:100EB0004FF47A7003F0A4FB013CF9D103252346DB
:100EC00000950194029403940A490B484FF48072F0
:100ED00000F01CF9094900954FF4807223460194F3
:100EE00002940394064800F011F900F0D9F9204665
:100EF00005B030BDEED30108A90D0108E9D3010802
:100F0000F10D010808B502F061FB0BF00BFD024882
:100F1000BDE8084000F030BE990D01080BF052BB4F
:100F200010B5002401346423B4FBF3F203FB124038
:100F300008B901F0F5FB094801F0A6FE42F2107174
:100F4000B4FBF1F301FB1342002AEBD103F0AAF941
:100F5000C143012003F074F9E4E700BF23C901088D
:100F600010B5036841688268C46888B0009303695B
:100F70000191029241698269C06903940493334CE0
:100F80000591069207900699314801F079FB2046B9
:100F900001F076FB2F4801F073FB204601F070FB57
:100FA00000992D482D4C01F06BFB01992C4801F064
:100FB00067FB02992B4801F063FB03992A4801F073
:100FC0005FFB0499294801F05BFB0599284801F073
:100FD00057FB0699274801F053FB0799264801F073
:100FE0004FFB264B2648196801F04AFB2549264845
:100FF000096801F045FB254A2548116801F040FBCE
:1010000024480168244801F03BFB2168234801F093
:1010100037FB6FF07F4001F04FF9002001F04EF9EF
:10102000002001F05FF801F0ADF80020014601F06A
:101030005FF81B4801F004F90121002001F058F885
:101040000699184801F026F9FFF76AFF60D40108F5
:101050004AD4010874D4010888D401083CED00E0AA
:1010600093D401089ED40108A9D40108B4D401087E
:10107000C0D4010855D40108CBD4010838ED00E0F4
:10108000D7D4010828ED00E0E4D401082CED00E0FD
:10109000F1D4010830ED00E0FED401080BD50108C1
:1010A00018D5010829D501081EF0040F0CBFEFF375
:1010B0000880EFF30980FFF753BF70470E4B1A68A3
:1010C00010B5044650600D4801688C4207D20C4AA6
:1010D00010681B68191DBDE8104000F0A8BA094A45
:1010E00010681B68191D00F0A2FA074801688C42BD
:1010F00038BF046010BD00BF2C0100204401002057
:10110000480100208C000020040000202DE9F84F49
:1011100083464820884617469A460A9EDDF82C905A
:101120000C9D00F0C3FB0446002800F099801DB917
:10113000B80000F0BBFB054625631DB9204600F052
:101140007BFB8DE0BA002846A5210CF084F8236BC8
:10115000013F03EB87001022414620F0070704F10E
:1011600034000CF0ABF8042E34BF354604250021C2
:1011700004F1040884F843104046E562656400F019
:1011800046FA04F1180000F042FAC5F10502A26126
:101190002461646238465946524600F07BFA20606A
:1011A000B9F1000F01D0C9F8004000F09FFA2E48B5
:1011B0000368591C2D4B01601D6815BB1C6003683A
:1011C000012B26D12A48142707FB0500013500F022
:1011D00013FA052DF6D1274F274D384600F00CFAAB
:1011E000284600F009FA254800F006FA244800F0E5
:1011F00003FA244800F000FA2349244A0F601560DE
:1012000007E0234A106820B91968CA6AB24298BF39
:101210001C60E36A1F4C204A20681168834288BF23
:1012200023604C1C14601D4A0124116804FA03F069
:10123000014311600E4A142000FB0320414600F0D8
:10124000E9F900F061FA124B196831B107480268F8
:10125000D36AB34201D200F039FA2046BDE8F88FD4
:101260004FF0FF30BDE8F88F6C0100202C0100200A
:10127000C000002054010020AC00002030010020FC
:1012800098000020780000208C00002048010020F9
:101290009000002070010020500100204C0100202F
:1012A00030B585B0002400940194029403940B4857
:1012B0000B494FF480722346FFF728FF01280546AB
:1012C0000AD100F00BFA074B07481D60046005B017
:1012D000BDE8304000F05CBA05B030BDC51401086F
:1012E00036D501089000002044010020024B1A6806
:1012F000501C1860704700BF2401002010B500F09A
:10130000F5F9034B1C6800F0FFF9204610BD00BF43
:101310004401002038B5314B186800284FD13048BF
:1013200001684A1C02600368ABB92E4B2E4A19684B
:101330001068186011602D4A1168481C10601A6806
:101340002B48116811B94FF0FF3303E01B68DA68CE
:10135000D1684B6803602248254902680B689A42AD
:1013600033D320480268116821B921484FF0FF317A
:1013700001602AE004681A4AE368DC681168606862
:10138000814202D21A4B18601FE0251D284600F04A
:1013900066F9A36A1BB104F1180000F060F9154A60
:1013A000E36A1068012101FA03F101431160124A56
:1013B000142000FB0320294600F02CF9D1E70F4947
:1013C0000A68531C0B60FFF79DFD0C4A13681BB99C
:1013D000BDE83840FFF796BD38BD00BF24010020AE
:1013E000440100208C00002048010020280100203A
:1013F000040000204C010020C000002074000020E8
:1014000070B500F073F9274B1A68501E18601D68FC
:101410000DB1002441E024490C68002CF9D0234B85
:101420001A6802B3DE68F468261D04F1180000F0A3
:1014300016F9304600F013F91D4AE36A10680121DD
:1014400001FA03F1014311601A4A142000FB032042
:10145000314600F0DFF8184BE46A1968C86A844224
:1014600028BF0125DBE71548016841B1134C22680C
:101470003AB1FFF74FFF23685A1E2260F6E7012DAD
:1014800006D10F4900200860012400F01FF904E094
:101490000B4C2368012BBCD1F3E700F035F9204653
:1014A00070BD00BF240100206C010020300100202D
:1014B0004C010020C00000202C01002074000020FE
:1014C0006801002070B5154C2368F3B1144DFFF787
:1014D0000DFF2E68FFF794FF002EF4D000F006F900
:1014E000EA68D568281D00F0BAF80E4B1868411E4E
:1014F00019602668721E226000F006F9286B00F061
:101500009BF9284600F098F9DDE7074801680129B2
:1015100001D900F0DBF8FFF701FDD4E794000020CB
:10152000980000206C010020C000002038B50C4657
:101530000546FFF7DBFE184A2B68116899421C44E8
:1015400002D29C4208D201E09C4207D31068844238
:1015500094BF0020012002E0002000E001202C6068
:1015600090B10E4D2B68181D00F079F848B90C4B5E
:1015700019682A68D26A012000FA02F221EA0201FF
:1015800019602046FFF79AFDFFF73AFF18B9BDE84A
:10159000384000F09BB838BD440100202C010020E9
:1015A0004C0100200F4B186810B101220E4B16E0C1
:1015B0000E490A68B2FA82F30D4AD8B21421C0F17A
:1015C0001F0301FB032000F1080143685A68094B1F
:1015D00042608A4204BF526842604068C2681A6032
:1015E000704700BF24010020680100204C0100204A
:1015F000C00000202C01002000F108034FF0FF3252
:10160000002182604360C360036101607047002372
:101610000361704743685A688B604A605A689160FA
:1016200059604160086101684B1C036070470A689B
:10163000531C10B501D1036907E000F108035C6891
:101640002468944201D85B68F9E75A6808619160A0
:101650004A6059608B6001684B1C036010BD436891
:1016600082689A608268536003695968814208BF42
:101670005A60002202611868411E1960186870479C
:1016800003480068006880F3088862B600DF00BF86
:1016900008ED00E04FF0807300E90A00002340F8F5
:1016A0000C3C40F8202C403870470000064B19686D
:1016B0000868B0E8F00F80F309884FF0000080F36D
:1016C00011884EF00D0E70472C010020024B4FF098
:1016D00080521A60704700BF04ED00E0EFF3118004
:1016E0004FF0BF0181F311887047002008B5FFF764
:1016F000F5FF024B1A68501C186008BD0800002056
:1017000080F3118870470000034B18680138186097
:1017100008B9FFF7F5BF704708000020EFF3098014
:101720000C4B1A6820E9F00F10602DE908404FF0CB
:10173000BF0080F31188FFF735FF4FF0000080F302
:101740001188BDE8084019680868B0E8F00F80F318
:10175000098870472C01002008B5064B4FF08052D5
:101760001A60FFF7BBFFFFF7D5FD0020BDE808407A
:10177000FFF7C6BF04ED00E0034B044A07201A60E0
:1017800043F8040C704700BF14E000E03F900200F3
:10179000094B1A6842F47F0010B51860196841F0CF
:1017A0007F441C60FFF7E8FF044B00241C60FFF738
:1017B00067FF204610BD00BF20ED00E008000020BC
:1017C00030B5094A0C2148431318DC889D8801FB79
:1017D0000424A5809D88DC8801FB0521CC801B8822
:1017E00059044B0C135230BD0C0D00202DE9F04173
:1017F0000C25104C05FB00F7E6198046308805FBE8
:101800000043B3F90010002912DAFFF7D9FF30883E
:1018100005FB004213885904480C05FB0042A2F85E
:101820000280338805FB034529884804420CE253B3
:10183000BDE8F0810C0D0020F8B50746002832D035
:10184000194C0C253F1BFFF751FDB7FBF5F086B295
:1018500037466F433046FFF7C9FFE319598869439C
:10186000625E002A0BDA1A886FEA42406FEA504241
:10187000625259881B8805FB034461800FE0A088F1
:1018800081B205FB01450022EE8098809A71DA71E1
:10189000A6801B886FEA43406FEA5041E153BDE8E0
:1018A000F840FFF7ADBDF8BD0C0D0020F8B50446BB
:1018B000002800F08480FFF719FD082C07D9A4F157
:1018C00009010C23B1FBF3F0821C91B200E001216D
:1018D0003B4CA28847F6FF7614460020384B0C2577
:1018E00005FB023EBEF804706FB1BEF800506B04F9
:1018F000C2EB534080B2884203D3B0423CBF14468F
:1019000006463A46EAE747F6FF77BE4208BF144666
:1019100005FB043218BF304617887A04A446570CDA
:10192000E2B1884203D12046FFF74AFF3FE0401A68
:1019300014FA80F005FB00F299189F524C8084B293
:1019400005FB0CF01A5A51044A0C05FB02356FEAEC
:1019500044416FEA51426C801A5228E0601841F20B
:101960005352904207DD2246164800F089FEFFF7E9
:1019700047FD3846F8BD2CB901255C705C711D70BF
:101980001D712C460E4B0C2000FB04F55A196118F2
:10199000D68800FB06370E46B980176841435818B1
:1019A0005F5051684160926882605E534480FFF7E7
:1019B00027FD034B0C2000FB0434201DF8BDF8BDAF
:1019C0000C0D002060D60108FEE70000684620F0FC
:1019D00007018D4601B500230A4A0B499818884231
:1019E00004D20A49585898500433F5E7084B094A7D
:1019F000934203D2002043F8040BF8E7FFF712FAF2
:101A0000FEE700BF000000207000002088EF010802
:101A100070000020C820012070470000F8B50021A8
:101A20000124214B0A4620461C7002F0BBF82146D7
:101A30002046002202F0B6F822462046002102F09D
:101A4000B1F820462146224602F0ACF81748047847
:101A50000023A3420CDA1648164A1749C65CD55C27
:101A6000CF5C7D403543C554C85CD0540133F0E7AA
:101A700012490A6802B19047114B187898B1114980
:101A80000A7882B10948531E00780B700023834204
:101A900009DA0849064ACC5CD55C6C40CC5400217C
:101AA000D1540133F3E7F8BD7A0100207901002019
:101AB000080D01202C0D0120200D012074010020B3
:101AC000780100207B01002010B500282ED1194B91
:101AD000194918600C220A70034618481849002456
:101AE000C4541848FF22CA54C254174AD45401336C
:101AF0000C2BF2D115481649047001200C700246D7
:101B0000214602F04FF801200246014602F04AF851
:101B10000221012001F008FF06220120032102F02A
:101B2000A3F80C4B01221A70204610BD4FF0FF3075
:101B300010BD00BF7401002079010020140D0120A8
:101B40002C0D0120200D0120080D01207B0100201B
:101B5000780100207A010020014B1878704700BFFF
:101B600079010020024B03481A7802700020704768
:101B7000780100207B01002037B5174D2B7823B367
:101B800016490A7822B3164B002418600C702246BE
:101B90002146012002F006F801200146224602F00B
:101BA00001F801202146024601F0FCFF0120014618
:101BB000024601F0F7FF0B482B7800900A490B4AC8
:101BC000012002F005FA204604E04FF0FF3001E06A
:101BD0006FF001003EBD00BF790100207A010020B6
:101BE000740100201D1A0108140D0120200D012090
:101BF00050B90346064AFF21D15406490020C85473
:101C000001330C2BF6D170474FF0FF30704700BF07
:101C10002C0D0120080D012010B50446FFF79CFF94
:101C2000844202D2024B185D10BD4FF0FF3010BD50
:101C30002C0D012070B504460D46FFF78DFF844240
:101C40000BD201F023FE064B1E5D1A5D2E4022EAE8
:101C500005051D5501F02EFE00E00026304670BD42
:101C6000080D01202DE9F8430746FFF775FF0646EA
:101C700020B31FB30024B4421DDA2046FF21FFF732
:101C8000D9FF804608B90134F5E74FEAC4090025B9
:101C900048FA05F3DB070AD50A48015D41FA05F168
:101CA00005EB090001F00101B847FFF75BFF0135C3
:101CB000082DEDD1E7E70020BDE8F8834FF0FF30B5
:101CC000BDE8F8832C0D012038B90346044A0020F2
:101CD000D05401330C2BF9D170474FF0FF307047CF
:101CE000140D012038B504460D46FFF735FF844238
:101CF00007D2054B05495A5DE44320180A540020D9
:101D000038BD4FF0FF3038BD82D60108140D0120D8
:101D100060BB184B184913F820206FF3070203F833
:101D2000202011F8303043F00F026FF3041201F855
:101D3000302001EBC00101304B788A786FF3070344
:101D40004B70CB786FF307028A7003F0F0026FF3E9
:101D500007120B79CA704A796FF307036FF3030216
:101D600020280B714A71D4D1002070474FF0FF300A
:101D7000704700BF380D0120B80D01201F2882B028
:101D800004D8044B43F82010002001E04FF0FF304E
:101D900002B07047380D01201F2882B006D90021FB
:101DA000012200918DF80120009802E0034B53F8C6
:101DB00020000190019802B0704700BF380D01204B
:101DC0002DE9F74F0027DFF8609219F827304FEA26
:101DD000870B0BEB0908002B00F018818F4DFE00DC
:101DE0007419A07808B1411EA17098F8022092B32E
:101DF00098F8013016F805C002F1FF3A5A0903209D
:101E000002F0060300FA03F0C1B260466CF38300EF
:101E100070555FFA8AFA824810F80A0001421AD017
:101E2000504601920093FFF705FF019A009B90B185
:101E30007C4911F80A0040FA03F303F00301D207CA
:101E4000CBB204D54A0002F0020040EA5303A95D78
:101E500063F301017155705DC0F3810200F003036B
:101E60009A4200F0D38000F00F0101291BF80930DD
:101E700002D113F0100F0DE0072902D113F0200F4B
:101E800008E00E2902D113F0400F03E0082958D1D1
:101E900013F0800F00F0BA8000F01000C2B21AB93F
:101EA000A178E02900F2B280FF2B08D1705DE378C1
:101EB00000F00F0203F00F018A4200F0A780705D6E
:101EC00040F0100373552179A278501A142801DDCF
:101ED0001431A17098F8013013F0030115D00229D4
:101EE00023D1A178C3F38203C3F1070001F0C0023C
:101EF00032FA00F194F9012008BF0121501A6FF065
:101F000045039842B8BF184611E06079C3F38202D6
:101F100000F00F01D343C81802D561784A1E6270E1
:101F2000637960F30303637102E06278501E6070AE
:101F3000A078E3782071FF21A170725D62F3030342
:101F400063E0022902D113F0010F0DE00B2902D149
:101F500013F0020F08E00D2902D113F0040F03E083
:101F6000042953D113F0080F50D000F01000C2B272
:101F700012B1A178E02949D8FF2B06D1735DE07832
:101F800003F00F02B2EB101F40D0A95D6FF30411F4
:101F900071552379A078C21A142A01DD1433A37075
:101FA00098F8011011F0030313D0022B22D1A3786B
:101FB000C1F3820103F0C000C1F1070230FA02F35D
:101FC00094F9010008BF0123C218462AA8BF46227F
