:020000040800F2
:1000000000500020E9010008E501000800000000A0
:10001000E5010008E5010008E50100080000000016
:10002000000000000000000000000000E5010008E2
:10003000E501000800000000E5010008E5010008F6
:10004000E5010008E5010008E5010008E5010008F8
:10005000E5010008E5010008E5010008E5010008E8
:10006000E5010008E5010008E5010008E5010008D8
:10007000E5010008E5010008E5010008E5010008C8
:10008000E5010008E5010008E5010008E5010008B8
:100090002D1A0008E5010008E5010008E501000847
:1000A000E5010008E5010008E5010008E501000898
:1000B000E5010008E5010008E5010008E501000888
:1000C000E5010008E5010008E5010008E501000878
:1000D000E5010008D121000895220008312200081E
:1000E000E5010008E5010008E5010008E501000858
:1000F000E5010008E5010008E5010008E501000848
:10010000E5010008E5010008E5010008E501000837
:10011000E5010008E5010008E5010008E501000827
:10012000E5010008E5010008E5010008E501000817
:10013000E5010008000000000000000000000000D1
:1001400000000000000000000000000000000000AF
:10015000000000000000000000000000000000009F
:10016000000000000000000000000000000000008F
:10017000000000000000000000000000000000007F
:10018000000000000000000000000000000000006F
:10019000000000000000000000000000000000005F
:1001A000000000000000000000000000000000004F
:1001B000000000000000000000000000000000003F
:1001C000000000000000000000000000000000002F
:1001D000000000000000000000000000000000001F
:1001E0005FF8E0F1FEE70000684620F007018D4669
:1001F00001B500230A4A0B499818884204D20A49DB
:10020000585898500433F5E7084B094A934203D2F3
:10021000002043F8040BF8E700F00CF8FEE700BFFD
:100220000000002050000020083B00085000002083
:10023000D81600202DE9F743002001F021F9002015
:1002400001F096FA012001F01FFA01A802F0C1F9AD
:10025000022314208DF806308DF807000024A649EB
:100260000A196058958802A9056121F8045D0834CF
:1002700002F05FF9182CF2D10026A04F02A9BB1999
:10028000F0599C880836046121F8044D02F051F9B8
:10029000282EF2D100259A494A196858968802A951
:1002A000466121F8046D083502F043F9182DF2D1AA
:1002B0008024944DDFF8648240264FF020094FF4EB
:1002C0000057C8F8149001206F616E6101F074FA54
:1002D000C8F8109001202F612E6101F06DFA013CE9
:1002E000E7D12046854B1A18C15895880830282830
:1002F0004D61F7D1012001F05FFA00277F4EF01920
:10030000BC5983880837282F2361F7D1012001F0D9
:1003100053FA48218DF807100025774F02A97A1962
:100320009688E85921F8046D083502F002F9182D75
:10033000F3D10024714802A903199D88205821F89F
:10034000045D083402F0F5F8282CF3D100276C4E38
:10035000F1198A8802A9B85921F8042D083702F04A
:10036000E8F8182FF3D1674F642001F0BFF9BC689B
:1003700084F00400C0F3800501F076FBC6B216B924
:10038000BB6859070DD44DB14FF40000012102F0B4
:10039000D7FB4FF40000002102F0D2FB002001F057
:1003A0006BFB002000F00EFB002000F00FF9AEB94F
:1003B00054498A68520711D5534F3C78422C0DD1CD
:1003C0005248037853B1524F02F060F901200021E6
:1003D00001F078F9FB78082B33D108E0202000F0F9
:1003E0009DFA002E45D0102000F098FA41E06FF001
:1003F0000700012102F098FB6FF40000012102F0D8
:100400009FFB4FF0FF30002102F08EFB4FF0FF30DA
:10041000002102F095FB55B101214FF4000002F0DC
:100420008FFB4FF40000002102F08AFB02E0394A02
:1004300015605560384D2E6886F3088834490C687D
:10044000A04701F07BF90120014601F03BF901F0E2
:100450007FF940F2F317B8423D46F8D901F06EF942
:100460000120002101F02EF901F072F9A842FBD918
:10047000E7E701F063F901F06BF93222B0FBF2F724
:100480006421B7FBF1F4064601FB147042F21077C9
:10049000B6FBF7F107FB1164B6FBF2F702FB17613D
:1004A000430841F28830844288BFC3EB0203012035
:1004B000994294BF0021012101F004F90A23B6FBFF
:1004C000F3F203FB12660EB900F0DAFD002000F033
:1004D00049FD01F03DF944F61F618842CBD900F097
:1004E0007FF80028C7D1002D3FF46DAF054CA06800
:1004F0004307C0D567E700BF9C380008B438000840
:1005000084380008000C0140D23F0008D33F0008A7
:1005100004400008405C0040004000080008014022
:10052000124B10B51A78032A0BD8114900F07F003E
:100530000C684FEAC41444EA001008600FD104228A
:100540000EE0072A0FD80B4900F07F000C684FEA35
:10055000C41444EA0010086001D1082200E001320E
:100560001A70002010BD4FF0FF3010BD14050020A0
:10057000500000205C00002070B5134B16461A781E
:1005800088B004460D468DF800209978DA785878BE
:100590001B798DF802108DF803208DF801008DF87D
:1005A000043000F0C1FD8DF80500F7208DF808003B
:1005B0006946204609228DF806508DF8076000F044
:1005C00097FA08B070BD00BF8B39000810B9034B13
:1005D000187070474FF0FF30704700BF15050020BE
:1005E000014B1878704700BF150500202DE9F04138
:1005F00098460C461546064600F08AFD01F09EF826
:10060000B8F1010F04D0B8F1020F40F07B8185E012
:10061000B04B14B1012C0AD104E01C70AE4BAF4AB0
:100620001C608EE01978072900F2508193E0197858
:10063000082903D030460E210122E1E0A848A94C48
:100640000278437881782270C2780079A24FA34D56
:100650006370A170E27020713F682D6800F064FD46
:100660004FEA556E6071780E0223E071C7F3864140
:100670007044A3712172C7F3C62341186372C7F394
:100680000612CB18C5F38640A2729A181118C5F34A
:10069000C623CA182073C5F306101118637300230C
:1006A000A07384F80BE001F0FF011A460F341846DE
:1006B000A84221D010F807E04FF0080C0133520097
:1006C000DBB242EADE12062B4FEA4E0ED2B25FFADE
:1006D0008EFE0AD9C3F1070302FA03F2D2B251180F
:1006E000002304F8012BC9B21A460CF1FF3C1CF0A0
:1006F000FF0CE3D10130DBE71BB18B1804F8012BB1
:10070000D9B24A42774902F07F00F723A21C207039
:1007100063703046521A00F0EBF9D7E014B1012CA7
:1007200053D110E06B4B6C496C486F4A1C700C60E5
:1007300004606E4B6E496F4814706F4A1C700C60F9
:1007400004601460C2E0634B1978072907D8664932
:1007500008782A180A702846FFF7E2FEB6E0082952
:100760002BD1614B18782A181A70614B1B68B3F5AE
:10077000806F80F0AB80594E5F4F5E4C36683868B2
:10078000226807240132C5F380176D00072A47EA63
:100790004000EDB206D9534AD0540133B34228BFCA
:1007A00009210022013CEDD1534C206051480260E8
:1007B0004F4A1360474B197088E0092902D14B4A10
:1007C000157083E00C20187080E0444B48481F6887
:1007D0000168B942FFF42EAF3E4A13780C2B03D1C7
:1007E00030460E2142460BE03F4A404813780178DC
:1007F000584200F07F02914205D030460E2103227C
:10080000FFF7BAFE62E0344B3C4901240C701C68CF
:1008100044EA0700830779D1394A944202D86FF03D
:10082000070075E000F0B8FE00F100614B1E9C422D
:1008300032D801F01FFF2546291BB9423BD200F0F8
:10084000D5FE00F0A9FEB0F5802F34BF4FF48061D3
:100850004FF40061B5FBF1F301FB135060B928467A
:1008600001F066FF042807D0142001F017FF00F004
:10087000D1FE6FF003004BE01A4A2846131B5919AA
:100880004A785B5D43EA022101F034FF0428EBD192
:1008900000F0C0FE0235CFE7B4F1005FBFD300F037
:1008A00083FE00F10050421E9442B8D820460D4904
:1008B0003A4602F0DEFF0C4B0F211878424202F05C
:1008C0007F023046FFF758FE00F0DAFB0020BDE85B
:1008D000F08100BF14050020500000205C000020C3
:1008E0008B390008680000205400002060000020C0
:1008F000100500206400002058000020150500208D
:10090000FF3F00084FF0FF30BDE8F0816FF00800B6
:1009100042420E213046D2B2D4E700BF10B5114B8F
:1009200088B01A78997804468DF800205878DA78DB
:100930001B798DF802108DF803208DF801008DF8D9
:10094000043000F0F1FBF7218DF8050001208DF84F
:1009500006008DF8071020466946082200F0C8F806
:1009600008B010BD8B39000808B52020FFF7D6FF6E
:100970001020FFF7D3FF024B0020187008BD00BF06
:100980001505002008B50B4B1A7802F00801C9B212
:1009900049B109490978814205D16FF307021A70FC
:1009A000064B00221A7006490A6802B190470020DF
:1009B00008BD00BF44050020290500201C050020BB
:1009C0003005002038B50446002837D11D4A1E499D
:1009D000102313700B701D4D1D4B1E4A1E492860BD
:1009E00018601E4D1E4B106008601860286001F0F2
:1009F0008DF9C50F204600F0B5FB1A4A00281A4BA6
:100A0000B8BF45F00205002010701978174A60F34E
:100A100007011970107016480378422B04D115494C
:100A20000878010658BF1070134B002213491A8032
:100A300000220023C1E90023684238BD4FF0FF3097
:100A400038BD00BF0000002001000020200500206C
:100A50001805002040050020300500203405002046
:100A60002405002029050020440500202A05002037
:100A7000D03F0008D13F00082C0500203805002099
:100A800010F0F00F70B504460D4604D101280CBFDC
:100A9000144B154B1C78154B04F00F061A6872B9ED
:100AA00004F0F000102812D0202817D166F30715A3
:100AB00004F00F002946BDE8704000F0FDBB66F36E
:100AC00007152046294690470028E9D070BD66F3F7
:100AD00007152846BDE8704001F086B94FF0FF3099
:100AE00070BD00BF0100002000000020180500209C
:100AF0002DE9F04180460E4617460024BC4235D20F
:100B00003B1B022B0DD0032B19D0012B19D1325DC9
:100B1000052161F3030562F30F2501346FF31745D7
:100B20000AE0305D3119062363F303054A7860F368
:100B30000F2562F3174502346FF31F650FE007209E
:100B400000E0042060F30305335D3019417863F35E
:100B50000F25827861F3174562F31F650334404621
:100B60002946FFF78DFF0028C8DA00E00020BDE825
:100B7000F081000030B5F023A1B08DF80030134BA8
:100B80007E2232258DF803201A7800248DF8045037
:100B90000F258DF801408DF802408DF805208DF865
:100BA000065002AB0D5D5A1E35B101341A4603F8EA
:100BB000015C0133642CF5D1F72102F8011B694671
:100BC000521AFFF795FF21B030BD00BF2A05002063
:100BD00000B5F02389B08DF8003000238DF8013086
:100BE0008DF802307E238DF8033032238DF80430E7
:100BF000084B8DF806101B78F7218DF807208DF82B
:100C00000810092269468DF80530FFF771FF09B019
:100C100000BD00BF2A050020F0B5454E8BB03378EB
:100C200004460D461746FFF7E1FC00287CDA3178D0
:100C30000D295AD001D829B169E00E2974D00F29A5
:100C400065D15AE03B4B1DB1012D03D11F706BE004
:100C50001D7069E01878052829D011D8022820D005
:100C600004D801283DD12046334937E003281BD062
:100C7000042836D100F08AFC30490246684623E059
:100C8000082826D006D8062819D0072829D100F030
:100C90008BFC16E009281FD07F2822D1FFF764FEC5
:100CA00042E02046264919E02046264916E06846DB
:100CB00000F082FC0028204609DA23490EE000F00B
:100CC0006BFC22490246684601F024FC2046694636
:100CD00004E020461E4901E01E492046FFF74AFF76
:100CE00022E020460E210D2204E0022D1CD12046D8
:100CF0000E211022FFF76CFF16E0174A0DB1012DEF
:100D000001D1556010E0526872B92046F2E70E2119
:100D10000A462046FFF75CFF0F49054B0A78002082
:100D20006FF307020A70187000200BB0F0BD00BF0F
:100D30001C0500202805002024390008453900083A
:100D40002B3900083B3900084A3900084C390008A3
:100D50004F3900086139000844050020F72910B513
:100D60000A465AD82E4B197801F0080303F0FF0405
:100D70001BB12C4B1B7883424CD1A0F11103062BE5
:100D800048D9284B187004BB2548037803F00703A3
:100D9000042B03D82448C05C904221D101F0070104
:100DA000052903D121480178914219D15A1C1C4BC5
:100DB00002F007001978052860F3020119702CD998
:100DC000CAB242F00800187027E0130611D5F72ABE
:100DD00006D101F01001CBB213B10221FFF71CFFC5
:100DE0000F4B134A197800206FF307011970107028
:100DF00010BD01F01004E4B244B9094B197841F078
:100E0000100119700A4B21461A7000E00121FFF70A
:100E100003FF02E04FF0FF3010BD002010BD00BF07
:100E200044050020290500208B3900082A050020F0
:100E30001C05002001F00F032DE9F0470F46C1F318
:100E40000728C1F307494FEA116A03F1080101F0CD
:100E50000F010629064602D8002A58D17AE0B8F1D7
:100E6000F00F05D003F10C0000F00F01032929D881
:100E70003A49D1E9004554EA050023D106F0F004CF
:100E8000302C4FF000000CD0502C13D0102C19D166
:100E9000334C208006F00F00012404FA00F0088093
:100EA00010E02F4C208006F00F00012404FA00F01F
:100EB000488007E02A4C208006F00F00012404FA45
:100EC00000F08880991E0D2944D8DFE801F01E1E2D
:100ED000071B24244343434343434307B8F1F70F1D
:100EE00013D83046414607F00F07FFF737FF0F2FA3
:100EF00030D049463046FFF731FF30465146FFF7C4
:100F00002DFF27E0B8F1F70F05D91AB3304627F0C7
:100F1000F00190471EE01A1F12F0FF041AD030466D
:100F20004146FFF71BFF012C0CD030464946FFF726
:100F300015FF022C05D030465146FFF70FFFD04673
:100F400000E0C846B8F1F70F04D10448002200239E
:100F5000C0E900230020BDE8F08700BF380500206D
:100F60002C0500202DE9F04180468CB0684600F049
:100F700053FF002807DB00994246C1F303101030ED
:100F8000FFF758FFF2E73B4D02AC0FCD0FC40FCD7A
:100F90000FC495E803009DF8083084E803004BB3C4
:100FA0000024254626460CA800EBC40111F8282C85
:100FB00012B9FDB1144615460CAF07EBC40313F884
:100FC000287C53F8242C07F00F0001A9904710F15A
:100FD0000A0F03D13846FFF7D5FC08E0002806DBEE
:100FE00038460199424601360135FFF723FF0134A7
:100FF000092ED8DD2049D1E9002352EA030035D07B
:101000001E480388B3F57A7F30D90A8862B100217F
:1010100042FA01F313F0010003D101311029F7D195
:1010200001461031C8B21AE04B885BB143FA02F0B6
:1010300010F0010103D10132102AF7D10A463032F3
:10104000D0B20CE0888850B140FA03F111F00102EF
:1010500003D10133102BF7D113465033D8B2FFF729
:1010600091FC054800220023C0E9002300200CB0B9
:10107000BDE8F081DC380008380500202C05002090
:1010800010B500F0F5FE044600F092F8044300F0BD
:10109000F5F9054B4FF6FF711A8820438A4201D0BB
:1010A00001321A8010BD00BF2C05002008B5034B8B
:1010B0001A680AB1904708BD104608BD20050020F7
:1010C000114BF7B51C680746E4B1C1F307640F4D37
:1010D000C1F30720C1F307428DF8064001F00F016C
:1010E00000246E5C8DF804008DF805202546B5427D
:1010F00008DA054B01AA515D1B683846984701354F
:101100000443F4E72046FEBD200500201439000802
:10111000012803D0034B1870002070474FF0FF30B8
:10112000704700BF01000020014B1878704700BFD6
:101130002A050020012838B504460CD800F056FADC
:10114000064B0748FF2200251A5520F8145000F0DE
:1011500061FA284638BD4FF0FF3038BD4C050020FD
:101160006A05002010B5044610B14FF0FF3010BDE5
:101170000D4B0E49FF221860187158719871D87183
:101180001881D860187458749874D87498820A704A
:10119000FFF7D0FF0120FFF7CDFF204600F0ACFEA7
:1011A0000028E2DB204610BD500500206805002025
:1011B00008B500F01BFA104A4FF6FF711388084675
:1011C0008B4201D0013313800C4B1989814201D02D
:1011D000481C188152884FF6FF718A4202D0064897
:1011E000013242809B8A8B4202D0044A591C918270
:1011F00000F010FA002008BD6A050020500500200C
:10120000F7B50128C1F3072601F00F03C1F3074228
:101210000546F7B2C1F3076102D94FF0FF3040E055
:10122000204CE45C002C3BD0DFF888E08DF80460B3
:101230003EF815C08DF80520BCF57A7F8DF80610B4
:1012400002D9FFF777FF1BE01748007840FA05F056
:10125000C00715D5072B13DD0F2B11D0012C0ED98C
:10126000124B5B5DBB4206D18DF80420621E8DF8E7
:101270000510D4B204E000232EF8153000E001245C
:10128000F72F98BF094B01A92846224698BF5E5503
:1012900000F092FF811C0229BFD80548405600E0AB
:1012A0002046FEBD14390008680500204C050020CA
:1012B000903900086A05002038B505460C462846D6
:1012C0002146FFF79DFF831CF9D038BD01282DE989
:1012D000F04180460F4603D94FF0FF30BDE8F08162
:1012E0000C2606FB00F6624DAC19404600F096FE57
:1012F0000028C0F2A1800206C3B252D5F72B08D94C
:10130000396841F00F023A607B700023BB70FB70BC
:10131000ABE05849C3F30212895C2371617109B1D2
:10132000002137E0544A00F00F00125CF02B62718C
:1013300003D101226370E271F2E7F72B1DD1E2794C
:10134000207842B1012A0ED1062262F303002070F8
:10135000A370E1700CE0052161F30300207063705D
:10136000A270E27004E0072161F303002070E370D3
:10137000236800203B60E0710BE0002AD0D1217887
:10138000052060F3030121706370A270E27023688E
:101390003B60012163790020A37120810029A4D042
:1013A00063E02279F02A17D1E279511CC8B20128F2
:1013B000E07103D0022803D1A37096E7637094E72D
:1013C000E370AB5D042262F30303AB55A95900201F
:1013D0003960E071208148E0A07920B962792081EC
:1013E000511EA17101E0411EA1716079012802D155
:1013F000A370002303E0A2790AB1A37000E0E370B8
:10140000A379002B7FF471AF2079AA5D00F0F00181
:10141000F02901D0010908E063791BB1012B03D148
:10142000022102E0052100E0032161F30302AA5535
:101430006070A859386018E00020A17971B1228944
:10144000B2F57A7F0AD90023AB5123716371A3717E
:10145000E37123816FF00900BDE8F08100280CBF23
:101460004FF0FF300020BDE8F0810120E5E700BF2C
:101470005005002083390008043900080020704717
:1014800037B5054600286FD101217D2001F034FBDE
:1014900001A801F09EF84EF2FF704823ADF8040059
:1014A00001A933488DF8073001F043F84FF6FF717A
:1014B000ADF804102F4801A901F03BF82E4801A90E
:1014C00001F037F82D4801A901F033F801F090FA46
:1014D000082834D001F038FA4FF4803001F054FA83
:1014E00001F04EFB012804462AD1102001F0B6F885
:1014F000022001F0A9F8284601F082FA284601F0FE
:1015000093FA4FF4806001F085FA4FF4004001F047
:101510009BFA4FF480304FF4801101F04FFA2046CF
:1015200001F056FA392001F017FB0028FAD002200A
:1015300001F054FA01F05CFA0828FBD100E02C46D7
:1015400000210F4801F03CFB4FF4407001F02EFBEE
:10155000042001F03FFB0B4A0B4B012C14BF4FF052
:10156000FF3000201A6001E04FF0FF303EBD00BFA9
:10157000000801400010014000140140000C01402F
:101580000000000800FF1F00042004E0014B186861
:10159000704700BF002004E0024B188881B2880227
:1015A000704700BFE0F7FF1F024B188881B2880226
:1015B000704700BFE2F7FF1F00235A1002F10051ED
:1015C000A1F618021278D90758BF120902F00F02CB
:1015D000092A94BF302137218A18C2540133182BAD
:1015E000EBD100210176084670470000074B1A68CE
:1015F0001AB9EFF31081064801604FF0010080F343
:1016000010881A680020511C19607047740500206A
:1016100070050020074A13683BB1581E106038B9A6
:1016200005490A6882F3108802E04FF0FF307047E6
:101630000020704774050020700500200F291CD879
:101640000F4BDA68D343C3F30222C2F1040301FA59
:1016500003F100F160430901CAB203F5614181F869
:101660000023012342B200F01F00510903FA00F2E7
:10167000044840F82120002070474FF0FF307047A9
:1016800000ED00E000E100E013B5044601A800F021
:10169000A0FF102303208DF80730E3078DF8060024
:1016A00006D50421ADF804100548694400F041FF57
:1016B00034F0010314BF6FF0010000201CBD00BF17
:1016C00000140140C20707D5074B11F0010F4FF07E
:1016D000040214BF1A615A6130F0010314BF6FF0A5
:1016E00001000020704700BF0014014030B5012107
:1016F00085B00446102001F00BFA48204443611ED7
:101700000D4C4FF6FF730025ADF80410204601A9DB
:10171000ADF80830ADF80A50ADF8065001F0A6F863
:1017200001210A46204601F0F7F82046012101F088
:10173000E7F8284605B030BD0010004003480121FD
:1017400008B5818401F0FCF8002008BD00100040BD
:10175000064810B50121848C01F0E7F8A4B20028F6
:101760000CBF20464FF0FF3010BD00BF00100040FE
:101770001FB50446C8B94FF40060012101F0BCF95F
:1017800047204FF6FF73ADF8040001A90948ADF8F2
:101790000830ADF80A40ADF8064001F067F805489A
:1017A000012101F0ADF8204601E04FF0FF3004B018
:1017B00010BD00BF002C0140044B998C89B29A8C5B
:1017C000521A92B28242FAD900207047002C01408E
:1017D000014B04221A60704778050020704770475B
:1017E000022070470220704709B10220704701288B
:1017F000FBD808467047000070B5454AC4B0516830
:10180000054610686B4603C3906803A91860414BF6
:1018100003F110060C4618685968083303C4B34234
:101820002146F7D11A883C4822800368D9780329D9
:101830006BD8DFE801F006021E460DF1FF300023F1
:101840000EE009238DF84A3004238DF84B304EE02A
:10185000C82A13460BD012AAD154D21800215170B5
:1018600010F8011F9A1C93B20029F1D13FE0C82360
:101870003DE00023294A99B2981802785AB1203ADB
:101880005F2A8CBF002201220133202B06D0002AC0
:10189000F0D103AB05E00029FBD001E0002AF8D02D
:1018A0001E4B591E002311F8010F9A1C93B2F0B180
:1018B000C82A1346DBD012AAD054D2180020507088
:1018C000F1E708A8FFF778FE00281EDB0DF11F01E5
:1018D000002311F8010F9A1C93B240B1C82A134695
:1018E00005D012AAD054D21800205070F1E703207E
:1018F0008DF8490012AA284608A98DF848300892A8
:10190000ADF8243001F03EFB00E0002044B070BD93
:10191000103A00084F390008CC160020E03F0008BC
:1019200013B5054A044692E803008DE803002046FB
:10193000694601F027FB1CBD9439000813B5054A20
:10194000044692E803008DE803002046694601F052
:1019500019FB1CBD9C39000838B5294B00241868B8
:10196000802584724572C472204601F075FE2046BF
:101970004FF4007101F078FE1021204601F089FE3D
:101980004021204601F008FF2946204601F0F4FEE0
:10199000204601F0BDFE1B4920460A6892F82C1033
:1019A00001F034FF204601F0A2FE0120214601F0A3
:1019B0005BFE0220214601F057FE0120C02101F00C
:1019C000DBFE0120402101F013FF0120202101F066
:1019D00060FE02204FF4807101F0DEFE4021022003
:1019E00001F014FF022001F082FE204601F008FD04
:1019F000204600F091F9044B0120186038BD00BF6B
:101A0000CC160020C41600207805002008B5054B30
:101A10001868817A29B1012000F07EF9024B052275
:101A20001A6008BDCC160020780500200C4B10B5BC
:101A30001C68610506D50B484FF6FF3201681A6035
:101A40004B689847A20503D505484FF6FF52026040
:101A5000230403D5BDE8104001F024BD10BD00BF34
:101A6000445C0040C416002008B5002001F008FEC8
:101A7000003018BF012008BD73B5044601A800F06E
:101A8000A8FD022C74D8FFF7B1FD3B4B00221A6071
:101A9000FFF7C0FD022C12D038483949394D086093
:101AA0002E88394A39483A4B1680186039493A4DE0
:101AB0003A4E3B4A3B483C4B296016605860304EDA
:101AC000002000F029F93168022500220D728A7287
:101AD0009CB9FFF7C9FF80B12021012001F0D9FD99
:101AE000284601F004FE2C4A346880200123116846
:101AF0006072A3724C68A0472AE01F4D032010219A
:101B000028604FF480538DF807108DF8060001A966
:101B10002648ADF8043000F00CFD254B234A4FF465
:101B20008050013B5061F9D1022129600A201F4AEF
:101B3000002301385361FAD10F490860486000F072
:101B40007DFF01214FF4000000F0E2FF022C06D0DF
:101B5000184B00204FF40442186043F8042C164937
:101B600000240C6014200821FFF768FD204601E0E6
:101B70004FF0FF307CBD00BF405C00407C05002082
:101B8000CC160020A4390008D0160020E039000847
:101B9000C4160020A8390008C8160020811E0008BD
:101BA00004000020911E00082000002000080140D1
:101BB000400D0300445C00407805002070B5FFF73D
:101BC00015FD224B187800283BD0022001F03CFE86
:101BD000C0F38F04002C34D01D4920B20A8893B280
:101BE000C3F5007188422CDA1A4D35F8046C35F8CB
:101BF000082C42EA0646C6F3031010303146FFF7C0
:101C00005FFA90B9144B154A198889B242F82160DD
:101C100019884A1C91B2B1F5007F198028BF18803D
:101C20000B4803885A1C91B20180013CA4B220B237
:101C300008350028D9DC054B002202201A7001F07B
:101C400056FDBDE87040FFF7E5BC00BFA0150020C1
:101C50009805002008620040A2150020A00D002079
:101C600038B5FFF7C3FC234B187800283ED1224932
:101C70000A8893B2002B39D020480278002A35D048
:101C80000D88ABB2102B98BF0C881A4994BFA4B230
:101C90001024A5B2AA000120087091B201F0A8FD9D
:101CA0001548174A0388591B8DB20580154B1649F4
:101CB000188880B231F8200042F8080C188880B2E9
:101CC00051F82010080C198842F8040C481C81B205
:101CD000B1F5007F198001D300201880013CA4B227
:101CE0000832002CE2D1012001F0F0FCBDE83840C0
:101CF000FFF790BC9C0D0020A4150020A815002023
:101D000088610040A61500209C050020002814BF13
:101D10004FF0FF30002070470D49002310B50B80B5
:101D20000C4C0D4923800B800C4C0D4923700B800B
:101D30000C4C0D4923801A460B800C4C01210C4B96
:101D400010B121701A7001E022701970002010BDCE
:101D500098050020A21500209A050020A01500205B
:101D6000A4150020AC150020A6150020A815002001
:101D70009C0D002038B5184C0546237813B94FF058
:101D8000FF3038BD154801888AB2B2F5FF7F07D908
:101D9000FFF766FF2378002BF1D06FF0010038BD0C
:101DA000FFF724FC0E4B0F49188882B2501C41F8F3
:101DB000225082B21A80198888B2B0F5007F01D310
:101DC00000221A80054B1988481C82B21A80FFF73E
:101DD00021FC002038BD00BFA8150020A41500205C
:101DE000AC1500209C05002010B504462046FFF7E6
:101DF000C1FF831C08D1074B42F20F711A888A4237
:101E000007D8501C1880F1E7002802DB014B0022A4
:101E10001A8010BDAA150020124B10B50446188870
:101E200081B2D9B1FFF7E2FB0F4B10491A8890B28B
:101E300051F8202022601C88601C81B2B1F5007F1F
:101E4000198001D300221A80064C2388581E81B2C3
:101E50002180FFF7DFFB228890B210BD4FF0FF30EA
:101E600010BD00BF980500209A050020A00D00209D
:101E700008B5FFF7A3FEFFF7F3FE002008BD000042
:101E8000024B00221A70FFF7EBBE00BF9C0D002032
:101E9000024B01221A70FFF791BE00BFA01500206F
:101EA00030B5012885B004460D461BD84FF00C0113
:101EB0004FF0000314BF0D480D48ADF80A1004AAF6
:101EC0006946ADF80430ADF80630ADF80830ADF82D
:101ED0000C3042F8105D00F04BFC064840F82450EE
:101EE000002001E04FF0FF3005B030BD0038014068
:101EF00000480040B816002073B50446002873D18E
:101F000001213B4800F06EFB01A800F062FB4FF49A
:101F1000007002231C26ADF8040001A935488DF895
:101F200006304FF480658DF8076000F002FB324800
:101F300001A9ADF804508DF8076000F0FAFA4821C5
:101F40008DF807102B4801A9ADF8045000F0F1FA04
:101F50004FF40062284801A9ADF8042000F0E9FA26
:101F60004FF48040012100F0C7FD4FF4C020012153
:101F700000F0CEFD47F612212046FFF791FF47F60D
:101F800012210120FFF78CFF04212520FFF756FBCB
:101F900001221A4840F2255100F04EFC042127206E
:101FA000FFF74CFB164840F22551012200F044FC9B
:101FB000144E154A154B16481649174D34702C709F
:101FC00004700C7014701C7074706C7044704C70E1
:101FD0000A48012154705C7000F022FC084801217D
:101FE00000F01EFC204601E04FF0FF307CBD00BF3A
:101FF00010001400000801400010014000380140AA
:1020000000480040B0150020C0160020AE1500208A
:10201000B2150020B6160020B4160020012838B5ED
:1020200004461BD8104B185CD8B1FFF7DFFA0F4BF2
:102030000F491A5D185D02EB8415421C4D5DD1B24B
:102040003F29195501D900201855074B1A5D511E1B
:10205000C8B21855FFF7DEFA284638BD4FF0FF30FA
:1020600038BD6FF0010038BDB0150020B21500205A
:1020700034160020012838B504460D461CD8114BF3
:10208000185C3F281BD8FFF7B1FA0F4B0F491A5DB8
:1020900002EB84101A5D0D54501CC1B23F29195532
:1020A00001D900221A55074B185D411CCAB21A55B6
:1020B000FFF7B0FA002038BD4FF0FF3038BD6FF0A9
:1020C000010038BDB0150020B416002034160020E1
:1020D000012838B504461BD8104B185CD8B1FFF75F
:1020E00085FA0F4B0F491A5D185D02EB8415421CEF
:1020F0004D5DD1B23F29195501D900201855074B24
:102100001A5D511EC8B21855FFF784FA284638BD2B
:102110004FF0FF3038BD6FF0010038BDB61600201B
:10212000AE150020B41500200128F8B504460D4670
:10213000164630D81B4B185C81183F292EDCFFF760
:1021400055FA2846421B93B2B34220D2164B174988
:102150001F5D07EB841210F8017B8F541A5D511C30
:10216000CAB23F2A1A5501D9002119550D4A135DEB
:10217000591CCBB2012B1355E4D1012C14BF0C4BCD
:102180000C4B9A8991B241F080029A81DAE7FFF70D
:1021900041FA0020F8BD4FF0FF30F8BD6FF00100AC
:1021A000F8BD00BFB6160020C0160020B4150020F0
:1021B000003801400048004070B506460D46144600
:1021C000304629462246FFF7AFFF831CF8D070BD8A
:1021D000154B10B51A8802F0200081B249B19C88D5
:1021E0002020E4B22146FEF761FF10B92146FFF737
:1021F00041FF0D4C238803F0800290B298B10B4947
:102200000B7853B10020FFF763FF002802DAFF20AC
:10221000A08010BD82B2A28010BDA28922F08000F1
:1022200001040B0CA38110BD00380140B61600203C
:10223000164B10B51A8802F0200081B251B19C886B
:102240002120E4B22146FEF731FF18B901202146D2
:10225000FFF710FF0D4C238803F0800290B298B175
:102260000B494B7853B10120FFF732FF002802DA07
:10227000FF20A08010BD82B2A28010BDA28922F0F2
:10228000800001040B0CA38110BD00BF004800407A
:10229000B616002010B50C4C238803F0200081B244
:1022A00021B1A2882220D1B2FEF700FF2388064880
:1022B00003F080018AB22AB1838923F080010A04E5
:1022C000130C838110BD00BF0044004020B103689F
:1022D000197001684A1C026070472DE9F843141E0A
:1022E0008046894601DC20270FE0002219F8021001
:1022F00009B10132FAE7A242B4BFC2EB04040C46B2
:1023000013F0020F0CBF20273027DB070CD4254623
:10231000002D05DD40463946FFF7D8FF013DF7E7C0
:1023200024EAE476A41B00E000263546C6EB090348
:10233000595D21B14046FFF7C9FF0135F6E7264652
:10234000002E05DD40463946FFF7C0FF013EF7E7A6
:10235000002CACBF2819281CBDE8F8832DE9FF47E5
:102360000C9E8146DDF834800C4651B930228DF840
:1023700004208DF80510324601A94346FFF7ADFF52
:1023800035E033B10A2A04D1002902DA4C42012790
:1023900000E0002704AD002305F8013DAA466CB11A
:1023A000B4FBF2F302FB1344092C02DD0E993A3917
:1023B0006418303405F8014D1C46EFE787B14EB183
:1023C00018F0020F06D048462D21FFF77FFF013E8F
:1023D000012705E02D2005F1FF3A05F8010C002743
:1023E0004846514632464346FFF777FF381804B057
:1023F000BDE8F087F0B589B006460D460592002489
:102400002B7823B1252B79D168786A1C28B9002E46
:102410007BD030680022027077E025286DD02D280F
:1024200002D1AA1C012300E00023174639780132AB
:10243000302902D143F00203F7E7002239783D4604
:10244000A1F130005FFA80FC0137BCF1090F03D81D
:102450000A2505FB0202F1E7732909D1059F3046E1
:10246000391D059139682A4F002908BF394641E0D6
:1024700064290ED18DE80C00059961230293081D93
:10248000096805900A2230460123FFF767FF2418E8
:1024900039E0782906D105998DE80C00081D0590D2
:1024A000612207E058290AD105998DE80C00081D22
:1024B0000590412202923046096810220BE07529EE
:1024C0000BD18DE80C00059961230293081D096862
:1024D00005900A2230460023D7E7632913D10599D6
:1024E000081D0968059000208DF81C108DF81D004E
:1024F00007A93046FFF7F1FEC9E7154630462978AF
:10250000FFF7E4FE013401357AE7204609B0F0BD5B
:10251000813A00080EB40FB505AA52F8041B0190C9
:1025200001A80392FFF766FF04B05DF804EB03B067
:102530007047CB78F0B5DA0648BF8A78098803F08F
:102540000F0548BF154311F0FF0F1ED0046800228D
:10255000012707FA02F707EA0106BE4211D19700E8
:102560004FF00F0C0CFA07FC05FA07F724EA0C04ED
:10257000282B44EA070401D1466102E0482B08BF3A
:1025800006610132082AE3D10460FF2920D944689A
:10259000002202F10806012707FA06F707EA0106FA
:1025A000BE4211D197004FF00F0C0CFA07FC05FA50
:1025B00007F724EA0C04282B44EA070401D14661FA
:1025C00002E0482B08BF06610132082AE1D14460CD
:1025D000F0BD4FF6FF730221042203808170C270A8
:1025E000704700000028174B30B500F44014B4BF0A
:1025F000DB695B68B4F5401F82B207D1114C23F050
:102600007063656825F0706565600FE0C40205D5EC
:10261000C0F30344032505FA04F403E0440D240148
:1026200002FA04F423EA040343F0706321B1410D7C
:10263000090102FA01F2134300280248B4BFC36142
:10264000436030BD00000140034B1A6802F03801BE
:1026500008431860704700BF00200240044B1A680E
:1026600022F0100119601A6810431860704700BF0B
:1026700000200240034A044B02F188305A6058603F
:10268000704700BF2301674500200240024B1A69D2
:1026900042F080001861704700200240014BD86072
:1026A000704700BF00200240084BDA68D20709D407
:1026B000D868400708D4D96811F0100F0CBF042067
:1026C000032070470120704702207047002002401D
:1026D00010B50446FFF7E8FF012806D11CB1FFF74B
:1026E000E3FF013CF8E7052010BD002C08BF0520E2
:1026F00010BD000070B505464FF400500E46FFF7C0
:10270000E7FF042810D1094C236943F00100206140
:102710002E804FF40050FFF7DBFF052804D022691C
:1027200041F6FE711140216170BD00BF00200240E2
:1027300038B505464FF43020FFF7CAFF042814D1FE
:102740000A4C236943F002002061656121694FF45E
:10275000302041F040022261FFF7BAFF052804D083
:10276000216941F6FD730B40236138BD0020024012
:10277000038A30B50D460446EA8898B220F44051E9
:1027800011432182A3892889A98823F4B05340EA00
:102790000102688923F00C0102430804030C1A4368
:1027A00091B2A181A08AAA8983B223F4407187B033
:1027B0001143A18201A800F051F91848A38984426D
:1027C0000CBF0498039819B200294FF019032A6826
:1027D00003FB00F001DA510000E09100B0FBF1F1E1
:1027E0006423B1FBF3F21201100903FB1011A0895D
:1027F00000B2002806DAC9003231B1FBF3F303F06E
:10280000070005E009013231B1FBF3F303F00F00DB
:10281000024390B2208107B030BD00BF00380140B4
:10282000838919B199B241F4005303E023F40051B4
:102830000A04130C83817047C1F3421310B50124BD
:1028400001F01F01A34204FA01F101D10C3004E0B0
:10285000022B01D1103000E01430036812B143EABA
:10286000010201E023EA0102026010BD224A03884E
:1028700090429BB212D002F5006290420ED0B0F1AD
:10288000804F0BD0A2F59832904207D002F58062BB
:10289000904203D002F58062904203D14A8823F02F
:1028A00070031343154A904208D002F580629042AB
:1028B00004D023F44073CA889BB2134303808B88EF
:1028C0000A8883850C4B028598420FD003F500627D
:1028D00090420BD002F54063984207D003F5806226
:1028E000904203D002F58063984201D1097A0186B3
:1028F00001228282704700BF002C0140001000407E
:10290000038819B199B241F0010303E023F00101FA
:102910000A04130C0380704783899BB20AB11943E0
:1029200001E023EA010181817047038A828911EA6B
:10293000030092B203D011420CBF00200120704767
:10294000C9438AB2028270470D4B1A6842F00100F7
:10295000186059680B4A0A405A60186820F0847160
:1029600021F480321A60186820F4802119605A68B6
:102970004FF41F0122F4FE0058609960704700BFB9
:10298000001002400000FFF80B4BB0F5803F1A68C2
:1029900022F4803119601A6822F48021196006D06F
:1029A000B0F5802F07D1186840F4A02202E0196822
:1029B00041F480321A60704700100240034B5A689D
:1029C00022F47C121043014359607047001002400A
:1029D000014B1860704700BF60004242034B5A68C9
:1029E00022F0030108435860704700BF0010024006
:1029F000024B586800F00C00704700BF0010024006
:102A0000034B5A6822F0F00108435860704700BF3A
:102A100000100240034B5A6822F4E06108435860FA
:102A2000704700BF00100240034B5A6822F4605107
:102A300041EAC0005860704700100240014B186026
:102A4000704700BFD8004242034B5A6822F440410D
:102A500008435860704700BF001002401F4B10B57C
:102A60005A6802F00C01042903D0082904D01C4A3A
:102A700000E01C4A02600FE05C685968C4F38342BE
:102A8000941CC90301D4184904E05B6899034CBF46
:102A9000164914494C430460104B15495C68C4F353
:102AA00003128C5C026822FA04F242605C68C4F390
:102AB00002240C5D22FA04F484605C68C4F3C2242E
:102AC000095D22FA01F2C2605B680A49C3F38133EF
:102AD000CB5CB2FBF3F2026110BD00BF00100240FC
:102AE00000127A00001BB70000093D00808D5B00DA
:102AF000400000203C000020044B9A6909B11043BB
:102B000001E022EA00009861704700BF0010024017
:102B1000044BDA6909B1104301E022EA0000D861F0
:102B2000704700BF00100240044BDA6809B110433F
:102B300001E022EA0000D860704700BF00100240A8
:102B4000044B1A6909B1104301E022EA0000186140
:102B5000704700BF001002404309012B074A01D112
:102B6000136803E0022B0CBF136A536A00F01F00C6
:102B700023FA00F101F00100704700BF001002408D
:102B800007B5002301933120FFF7E6FF01994A1CA6
:102B90000192019BB3F5A06F01D00028F3D0312042
:102BA000FFF7DAFF003018BF01200EBD40F0BF6014
:102BB000024B40F40031D960704700BF00ED00E0E7
:102BC00021F0604121F07F02014B10439860704773
:102BD00000ED00E0044B04281A680CBF42F0040228
:102BE00022F004021A60704710E000E010B5064CB5
:102BF00018B9236801221A8210BD044B18680168B5
:102C0000884720680A3010BDCC160020C816002066
:102C100010B5064C18B9236801221A8210BD044B66
:102C200018688168884720680C3010BDCC160020D9
:102C3000C816002008B5234A18B9136802221A8260
:102C400008BD214B002012681880117811F07F0117
:102C500013D1507A00F02002D1B209B102221A70C9
:102C600000F04003D8B2184B18B11A7842F00101B5
:102C70001EE0197821F001011AE001291FD0022974
:102C80001ED1507900F00F024FEA820110F0800F40
:102C900001F1804000F5B842116803D001F0300224
:102CA000102A03E001F44050B0F5805F01D101210A
:102CB0001970064B186801698847034808BD184613
:102CC00008BD00BFCC160020D2160020C816002078
:102CD000F8B5224B1C68238A267AABB9042E13D18F
:102CE0001F48017801291F490AD11F4C226894B25C
:102CF0001E4AA2185200136030220A80037028E096
:102D000010260E80072624E0A58AA169AB428CBF5D
:102D1000022604269D4228BF1D46284688470746AE
:102D2000002000F049FD2A460146384600F06AFCC2
:102D30002946002000F05CFD208A638A421BED18C2
:102D400008480B4B228230214FF4405201806582AB
:102D50001A80024B18680672F8BD00BFCC1600201E
:102D6000C2160020D6160020505C00400230002021
:102D7000D416002010B50A4B0A4918684B78C2785F
:102D800093420AD3817841B9848834B98272064863
:102D9000026853689847204610BD022010BD00BF4E
:102DA000CC160020D0160020C816002038B50E4AD8
:102DB0000E4C106823688269D97858799047216849
:102DC0008B7A7BB170B9087960B98D7855B9084AAA
:102DD0001168CB68984720684279C178C272017344
:102DE000284638BD022038BDC4160020CC1600206D
:102DF000C816002010B5334B1B68187810F07F0000
:102E000004D1597A21F020025A7210BD022856D1FD
:102E10005A88002A54D11979002951D15A7922F0BF
:102E200080004FEA800404F1804101F5B844216834
:102E3000254C12F0800F247814BF01F0300101F40A
:102E40004051A0423BD2002939D09B7A002B36D08A
:102E5000840002F0800204F18043D1B203F5B8444B
:102E6000226861B102F03001102922D1C4B220469B
:102E700000F06FFC2046302100F00BFC19E002F45A
:102E80004051B1F5805F14D130B9104B1A6892F8F7
:102E90002C1000F0BBFC01E000F049FC20684BF670
:102EA0008F71014081F4405343F4004242F08000AE
:102EB0002060074B1A6850698047002010BD02202F
:102EC00010BD00BFCC160020D0160020C416002074
:102ED000C816002010B51F4B19684A7922F08003EC
:102EE0004FEA830000F1804404F5B8401A4C0068B2
:102EF000247812F0800F14BF00F0300000F440502E
:102F0000A34224D24C8814BB08B3897AF9B19B0040
:102F100003F1804102F0800201F5B843D0B2196894
:102F200028B148F6BF720A4082F0100004E04BF668
:102F30008F720A4082F4805040F4004141F08000DA
:102F40001860064B1A6891698847002010BD02205E
:102F500010BD00BFCC160020D0160020C8160020DF
:102F600008B5064B1868064B427A42F020014172C0
:102F70001868C2699047002008BD00BFCC16002029
:102F8000C8160020054B1A68538A18B98988CB1ACD
:102F9000138270470868C018704700BFCC16002025
:102FA00070B5A2B002AD80240646074928462246E5
:102FB00000F05FFC304669460095ADF80440FFF72D
:102FC000E1FF22B070BD00BF883A000808B50C4B85
:102FD0000020196891F82C1000F018FC09480268CC
:102FE000117A082906D1084B4FF480501880074801
:102FF0001022028009394B4253EB010008BD00BF8B
:10300000C4160020CC160020D4160020D6160020AE
:1030100070B52E4B1C68207A02284FD004284DD062
:10302000032801D0052843D1A169208AA9B1A0B104
:10303000A58A854228BF054628468847228A064633
:10304000608A531B291861822382002000F0C2FB92
:103050002A460146304600F0ECFA228A52B11C4B57
:103060004FF4405018800020014600F0C1FB194A7F
:1030700030211180208AA38A1449834202D80B6828
:10308000032202E018B10B6805221A720CE00A68EC
:103090000623114913720A68104993B25A18530053
:1030A0000C49186030200880084801680B7A06E057
:1030B000072803D10A490A68D36898470823034AB6
:1030C00010680372BDE87040FFF780BFCC16002087
:1030D000D4160020D6160020505C0040023000209C
:1030E000C4160020944B73B51A68944990B24418E2
:1030F000934E65002A6835682B7A092B15D090B25B
:10310000410001F1804404F5C04422782A706378BC
:103110006B70A08800F0A8FB68802089356800F0FB
:10312000A3FBA880A0893168C880854D01242B6845
:10313000DA881C725C78002A6AD1187810F07F0255
:103140003ED1092C02D1FFF715FE4BE0052C0FD123
:1031500093F90320002A01DA082155E09978002923
:10316000FAD198880028F7D19B7A002B3ED0F3E75C
:10317000032C16D1D878012807D0724A204611684E
:103180004B69984703282FD13DE09A88002AF4D153
:103190005B7A03F02001C8B20028EED0FFF7E0FE12
:1031A00020E0012CE9D1D9780129E6D198880028BE
:1031B000E3D15B7A03F02002D1B20029DDD00AE02E
:1031C000012A04D10B2CD8D1FFF7F0FD0AE0022A26
:1031D000D3D1012C02D1FFF70DFE03E0032CCCD19B
:1031E000FFF778FE10B1C8E70028B5D15248564B1A
:1031F000026891B2C818554B4100002230200A6085
:103200001880062100E009214D4A10680172DCE0B7
:10321000062C14D11A78510640F083809C78494BD3
:10322000012C02D11A68D16971E0022C02D1186810
:10323000016A6CE0032C74D11968496A67E0002CBC
:103240003ED1598800296CD1586820F47F44B4F5E8
:10325000003F66D11A7812F07F0004D198880028C8
:1032600000F0B6805DE001280CD1364C5879226818
:103270009469A047002854D12B68997A002940F01E
:10328000A7804EE002284CD15B7903F00F014FEA92
:10329000810404F1804202F5B8402D4A0468107898
:1032A00013F0800F14BF04F0300404F44054814242
:1032B00037D213F0700F34D1002C40F0898030E009
:1032C000082C04D11B785A0600F0848029E00A2CCF
:1032D00016D11C7804F07F02012A22D1987A00B31B
:1032E0005988F1B95C6824F47F42B2F5803F18D167
:1032F000144804685879A269904700286CD010E0FF
:10330000552C0ED1588860B9802A0AD166E041B1A7
:103310000B480024036820465C8299618847204658
:1033200018E0084C2168064C0A69236858789047D1
:1033300003280FD1236814E0505C004004300020C3
:10334000CC160020C416002002300020D616002023
:10335000D016002022490B684FF6FF711A8A8A4264
:1033600001D1092103E0022800D012B90821197205
:103370002BE093F90000002821DAD9880191019807
:10338000824202D9019A1A8211E08A420FD215496B
:10339000086890F82C108A4201D2002105E092FBC7
:1033A000F1F001FB102212B901210F4801700D4903
:1033B000086890F82C209A82FFF78AFC05E0032227
:1033C0001A720A4B4FF440511980FFF7FFFD7CBD84
:1033D00007499DE707499BE7074999E7074997E7A9
:1033E000CC160020C4160020C2160020D4160020DF
:1033F000352C0008ED2B0008112C0008A12F000827
:1034000070B50D4B1C780023A34210D203F18052FB
:1034100002F5B855A90043F400420E6842F0800559
:1034200040F60F7232402A430A600133ECE7034949
:1034300040F08000086070BDD01600204C5C004059
:1034400010B514490B680C461A7A022A01D0042AD6
:1034500004D1FFF73DFC2168087A13E0062A10D159
:103460005878052809D11978480606D1D878FFF789
:10347000C7FF094B1A68106A804708490B689A68A9
:1034800090470820034B1A681072BDE81040FFF700
:103490009DBD00BFCC160020C8160020C416002019
:1034A0007047000037B50023ADF806304F48036879
:1034B0001A0440F19A8013F00F056BD14C4C25682B
:1034C000AAB24C4D2A8028884B4A00F03001118066
:1034D00028884BF6BF7200F44051298020680240D2
:1034E00082F4005181F0200040F4004242F080015B
:1034F0002160D90607D4216848F60F730B4023607A
:10350000FFF79EFF1DE0236898B2ADF80600BDF8F6
:10351000062002F400618BB23BB1206840F68F7246
:1035200002402260FFF7DEFD0BE0BDF8060002B2AC
:10353000002ABBDA216840F68F730B402360FFF747
:1035400067FD20682A884BF6BF7302F48051034060
:1035500088B208B183F48053264A118801F40050E0
:1035600082B20AB183F400532348018801F01002AB
:1035700091B209B183F01003008800F0200291B2EB
:1035800009B183F0200343F40040194A40F0800160
:1035900011602AE0AC0004F1804101F5B8442268D2
:1035A00090B2ADF80600BDF8063019B2002909DA6C
:1035B000226840F68F70114B1040691E206053F84E
:1035C00021209047BDF8060000F080018BB2002B4F
:1035D0003FF46CAF22680A4948F60F701040013D75
:1035E000206051F82530984760E73EBD445C0040BC
:1035F000005C0040D4160020D616002020000020D9
:103600000400002030B501F1005101F540530132B2
:103610005900521000230230934209D010F8015C87
:1036200010F8024C44EA052421F823400133F2E764
:1036300030BD01F1005110B5013201F54054521076
:1036400064000023934205D054F8231020F813108F
:103650000133F7E710BD00004FF6F873014A03404D
:1036600013607047505C0040800000F1804202F51A
:10367000B842106848F68F13034019431160704731
:10368000800000F1804303F5B8410A6802F4C0608D
:103690007047800000F1804202F5B842106848F699
:1036A000BF73034001F0100080B208B99BB201E083
:1036B00083F0100301F0200188B208B183F02003E9
:1036C00043F4004141F0800010607047800000F139
:1036D000804202F5B840016848F6BF730B4083F0A2
:1036E000300242F4004141F08003036070478000E3
:1036F00000F1804202F5B84001684BF68F730B4031
:1037000083F4405242F4004141F08003036070476B
:10371000800000F1804202F5B840016840F60F6376
:103720000B4043F4004242F080010160704780008A
:1037300000F1804303F5B8400268510408D50168E0
:1037400040F60F730B4043F4404242F080010160A9
:103750007047800000F1804303F5B8431A685006B3
:1037600008D5196840F60F70084040F4004242F056
:10377000C001196070470000064B49081A6893B2EF
:1037800003EBC00000F1005202F5405358004A001C
:1037900002607047505C0040054B49081A6893B2BC
:1037A000044A03EBC000831858004A0002607047C7
:1037B000505C004004300020054B19688AB202EBCF
:1037C000C00000F1005303F540514A0010887047D3
:1037D000505C0040044B1968044B8AB202EBC000F5
:1037E000C1184A0010887047505C00400430002027
:1037F000044B1A6893B2044A03EBC00083185800C4
:1038000001607047505C0040023000200C4B1A6889
:1038100093B20C4A03EBC00083185A003E2908D922
:103820004B09C90601D1581E83B2990241F40041E7
:1038300004E04B08C80748BF013399021160704784
:10384000505C004006300020054B1968054B8AB2D9
:1038500002EBC000C1184A0010688305980D70473C
:10386000505C004006300020C3B2000A40EA03204A
:10387000704710B50023934203D0CC5CC45401338D
:10388000F9E710BD0008014080000000000C014075
:1038900000800000000C01402000000000080140F2
:1038A00020000000000C014000200000000C01403E
:1038B000400000000008014010000000001001401E
:1038C00000800000000C01400010000000100140CA
:1038D0000020000000100140004000002000000017
:1038E000CD12000821000000CD12000822000000C7
:1038F000CD12000823000000CD12000800000000D7
:1039000000000000010102010000000000000000B2
:10391000000000000000020303010203030303038D
:10392000020203014D494F533332004D4248505F6C
:10393000434F52455F53544D33320053544D33324D
:10394000463130780025303878003F002564004D3E
:10395000494F53333220426F6F746C6F61646572EC
:1039600000286329203230313220542E204B6C6FD6
:103970007365002025303258002020200025303883
:103980005820000202020201010200F000007E3213
:10399000FEFF00001C3A000865000000CC3900085A
:1039A0001200000005010000A13400080D1A0008F3
:1039B000A1340008A1340008A1340008A134000893
:1039C000A1340008A1340008D11700081201000238
:1039D00000000040C016FE031010010203010000A9
:1039E0000000000059190008DD170008DF17000863
:1039F000E1170008E5170008E91700083D1900085D
:103A000021190008F917000800000000400000001C
:103A10006D696469626F782E6F72670009026500D4
:103A200002010080320904000000010100020924A3
:103A30000100010900010109040100020103000263
:103A400007240100014100062402010100062402AE
:103A500002020009240301030102010009240302F8
:103A600004010101000905020240000000000525D3
:103A70000101010905810240000000000525010146
:103A800003286E756C6C2900D10FED54CFC5FBB8BF
:103A90009752389138910E7D0FED389301910E9128
:103AA00000C11F020E91F7041040006E106EE76A0D
:103AB0000000000000000000000000000000000006
:103AC00000000000000004000000000000000000F2
:103AD000000000002F55461F00D84840376AF76A9B
:103AE00000300000C7062E734A2C137BE97F32009A
:103AF0002A280D9BFE0B21EF422A2F73B5B8DA76E8
:103B0000E679BF0FEB793E0B10100000A1340008DE
:103B1000A1340008A1340008A1340008A134000831
:103B2000A1340008A1340008A1340008A134000821
:103B3000A1340008A1340008A1340008A134000811
:103B4000A13400080204060800000000010203047A
:103B50000102030406070809FFFFFFFFFFFFFFFF45
:103B6000FFFFFFFFFFFFFFFFFFFFFFFFFFFFFFFF65
:103B7000FFFFFFFFFFFFFFFFFFFFFFFFFFFFFFFF55
:103B8000FFFFFFFFFFFFFFFFFFFFFFFFFFFFFFFF45
:103B9000FFFFFFFFFFFFFFFFFFFFFFFFFFFFFFFF35
:1040000000000120A15700089D5700085D4D0008E1
:104010009D5700089D5700089D57000800000000AC
:1040200000000000000000000000000081540008B3
:104030009D57000800000000F15400082D550008AD
:104040009D5700089D5700089D5700089D57000880
:104050009D5700089D5700089D5700089D57000870
:104060009D5700089D5700089D5700089D57000860
:10407000ED7B00089D570008057C0008717D000855
:104080009D5700089D5700089D5700089D57000840
:104090004D8600089D5700089D5700089D57000851
:1040A0009D5700089D5700089D5700089D57000820
:1040B0009D820008C18200089D5700089D57000896
:1040C0009D570008E18E00084D9000089D5700089C
:1040D0009D570008E58D0008A98E0008458E000850
:1040E0009D5700089D5700089D5700089D570008E0
:1040F0009D5700089D5700089D5700089D570008D0
:104100009D5700089D570008E58200089D5700084C
:104110009D5700089D5700089D5700089D570008AF
:104120009D5700089D5700089D5700089D5700089F
:104130009D57000800000000000000000000000083
:10414000000000000000000000000000000000006F
:10415000000000000000000000000000000000005F
:10416000000000000000000000000000000000004F
:10417000000000000000000000000000000000003F
:10418000000000000000000000000000000000002F
:10419000000000000000000000000000000000001F
:1041A000000000000000000000000000000000000F
:1041B00000000000000000000000000000000000FF
:1041C00000000000000000000000000000000000EF
:1041D00000000000000000000000000000000000DF
:0441E0005FF8E0F1B3
:1041E400F7B500F073FF019001A8012101F086F8F2
:1041F4002F48304B002206882F491C781346D0B232
:10420400A0421AD2072B18D831F9025F002D12DA16
:104214002A4FF8542A4817562A48774320F813702F
:1042240001330135DBB206D1274F00254FF6FE706E
:1042340047F8225008800132E1E7244A157825B96D
:104244001B4F23493F8800220AE0072BF8D92CE0B2
:10425400072B2AD831F8026B35B2002D04DC013269
:10426400D0B2A042F4D320E0144D013EE8541448E7
:10427400DFF850E0155CB6B24FFA85FC0CFB07FC86
:1042840021F8026C2EF813C001337607DBB203D198
:10429400104E965DAD1B855480560028DFDC084D1A
:1042A4000026565521F8026CD9E70B4E33709BE774
:1042B40000000020E85500203E430020643A00201E
:1042C4006C3A0020AC3A0020C4430020444C002047
:1042D40040430020243A0020C1430020F8B5134E87
:1042E40004460F4606EB4416114801F087FD394693
:1042F400304608F091F90546304608F009FA002DD9
:1043040004DA29460B4801F079FD0CE00A4B00223F
:1043140043F824200948B368214640F824303A463B
:10432400074801F06BFD2846F8BD00BF403B002064
:104334005CCA00086CCA0008C4430020003900208D
:1043440093CA00082DE9F843124B814653F82250D2
:104354008846174608F04AF96D0AB5FBF0F41F2C9D
:10436400064613D80C4804EB471750F8270008F00A
:1043740043F906FB14544946001902F037FC00289F
:10438400ACBF40466FF00100BDE8F8834FF0FF304A
:10439400BDE8F883C4430020E0100020F7B54B4B80
:1043A4004B4D1B78002814BF4FF4806000202D185B
:1043B40033B90021E9500433B3F5806FF9D182E0B9
:1043C40003F0C8FF0120014603F014FD41490878B9
:1043D40000286BD000243F4E3378A34236D93E499F
:1043E4003E4E01EB4420325D4FF40071FFF7AAFF0B
:1043F400002807DA305D3A4A3A49002322F810309F
:1044040021F81430365D3848384950F8263003F521
:10441400007240F8262051F82600824203D3304A25
:10442400002322F8163003F09FFF2D28024611D9ED
:10443400284E0A23B0FBF3F130780134009003FBDB
:1044440011222B48234601F0D9FC34702149002263
:104454000E7814E00134E4B2BDE7CB1347F6FF71E4
:104464008B4203DC23498B42A8BF1946080440EA67
:10447400104345F812300232B2F5007F1CD00023FD
:104484001946D8B2B042E8D2134F5802BC1804EB14
:10449400000C144F9CF801E0205C37F9137000EB1A
:1044A4000E2000B200FB07110133EAE700222A5074
:1044B4000430B0F5806FF9D10120002103B0BDE8CC
:1044C400F04003F097BC03B0F0BD00BF003A0020F9
:1044D40000310020C1430020E0000020643A0020A5
:1044E40040430020AC3A0020C4430020003900209F
:1044F400C7CA00080080FFFF2DE9F047614B98B060
:104504007F220446604904A81A8008F0DAF922469A
:104514005E4903A804F004FF03A904A808F0B9F94C
:104524000120014603F066FC594A5A48012100243F
:104534001170047004A9584801F060FC574804A99C
:1045440008F06AF8A04203DA554801F057FC91E0FC
:1045540008A83F2108F02CF9002837D000211022A8
:104564000DF1220000F086FC4E4D002145F8240098
:104574000A220DF1250000F07DFC4B4E0021305540
:104584000A220DF1270000F075FCC3B20646474825
:10459400A700235413B13E4A00211170444D1E223A
:1045A40002FB04550BA9284608F09BF9F6B23E4BD2
:1045B4000096E05C3B4B019021462A463D48FB585F
:1045C40001F01CFC33490A78501C08700134402C5B
:1045D400BED1324808F09CF800242E4B1978A14231
:1045E40048D9334A1E2606FB04212046FFF776FEEF
:1045F400064618B1304801F001FC34E007F0F6FF3C
:104604002E4D4FEA402905EBC41A35462C4850F884
:1046140024309E4227D22B4F07EB4417384608F02C
:1046240041F800281FDB304608F08EF8B0F100088E
:1046340005DB0DF10B00012108F098F8804638469F
:1046440008F066F8B8F1000F0DDB1E491E4801EBB7
:104654004412126929464AF82520013501F0CEFB9F
:10466400202D4E44D2D1194B002023F814000134DC
:10467400E4B2B2E70120002103F0BCFB18B0BDE8AE
:10468400F08700BF000000200400002005CB0008D4
:10469400444C0020E855002008CB0008043A0020D0
:1046A4001DCB0008EC550020BD3A0020FD3A002047
:1046B400C444002037CB000884CB0008E01000205D
:1046C40000390020403B00209DCB000840430020DF
:1046D40010B50024204601340421E4B203F00CFC9C
:1046E400082CF7D103F00BFCC0B27F2810D0BF28F0
:1046F40010D0DF2810D0EF2810D0F72810D0FB28D6
:1047040010D0FD2810D0FE2814BF0120022010BDB7
:10471400092010BD204610BD072010BD062010BD85
:10472400052010BD042010BD032010BD37B500F0D6
:10473400CDFC019001A8642100F0E0FD0E4B187837
:104744000028F7D0FFF7C4FF0C4C014622788242C0
:10475400F0D020700A4C0B4D20700B4801F04EFB3A
:1047640000210A48297001F049FB2078FFF7C4FEB4
:1047740001232B70DEE700BFBC3A002002000020BA
:1047840003000020003A002051CC0008ADCB000803
:1047940030B5214989B0214801F030FB20481E4939
:1047A40007F03AFF00282BDA1E4801F027FB30E01F
:1047B4001D4901A808F0AAF81C490546002008F084
:1047C400A5F8044629462246194801F017FB194961
:1047D400284608F06BF8014628B920460A2200F062
:1047E40049FB154B18701549284608F05FF8014637
:1047F40030B920460A2200F03DFB11490138087007
:1048040001A8192107F0D4FF0028D1D1044807F0EA
:104814007FFF09B030BD00BFDCCB0008C5CB00086A
:10482400E0300020E7CB0008B6D70008F5CD00083B
:1048340003CC00081FCC0008BC3A002026CC00089A
:10484400C0430020F8B53B48C1F303250078C1F309
:1048540007430A0E8542DCB26AD101F00F00A0F1D1
:104864000805012D47D8C1F3072000F0F003902B71
:10487400314900D12AB9314E00220D7836781346D9
:104884001AE009780023D8B288420FD22C4850F895
:104894002300844208D12B484FF6FF7520F81350AB
:1048A400294D2A48AD5C1D540133ECE7F8BD284975
:1048B400585C28B101330232D8B2A842F7D319E0C8
:1048C4001F4951F823008442F4D11E4826B92149D6
:1048D400595C09B1875E17B900218152EAE7115288
:1048E4001A48C9081856013190FBF1F0411C1A48C6
:1048F4001954DFE7F8BD0C2811D1184D214618488A
:10490400184C2B7001F07AFA00221748227001F03B
:1049140075FA2878FFF7F0FD01212170F8BD134BDB
:1049240001F0FF1121F0F000984204BF104B1A80EF
:10493400F8BD00BFC0430020E8550020444C0020CF
:10494400EC55002040430020DCC900086C3A0020EC
:10495400BD3A0020FD3A0020243A00200300002044
:1049640032CC0008003A0020ADCB00080B00070051
:10497400000000200248034A4FF4007103F0DAB942
:1049840000310020A14300081FB54FF0FF3003F0B1
:1049940013FA2C4B01222C481A7001F02FFA2B48E1
:1049A40001F02CFA2A4801F029FA002007F0FCFD56
:1049B400002802DA274801F021FA4FF47A74002023
:1049C40002F0CCF8002804DC013CF8D1224801F0C4
:1049D40015FAFFF7DDFE2148214C017829B1214861
:1049E40001F00CFAFFF774FE20702078FFF784FDC5
:1049F4001D4801F003FA1D4B012200201A70FFF735
:104A0400B9FF1B4801F0FAF9642003F07BFC002491
:104A140003238DE8180002942346039415494FF4A8
:104A24008072154800F05AFA02238DE818000294A7
:104A3400039412494FF480722346114800F04EFA51
:104A44001FBD00BFEC56002065CC000886CC0008D2
:104A5400AFCC0008C6CC000836CD0008BC3A002014
:104A640003000020E1CC0008F4CC0008003A002048
:104A74000ACD00081BCD0008E541000826CD00083A
:104A840031470008704770477047000007B500F0D1
:104A94001DFB0190012101A800F030FC00F016FB81
:104AA400019B421F934238BF0190044803F09FFCCE
:104AB40001F079FDFFF7E8FFECE700BF8B4A00083F
:104AC4007047000007B500F001FB0190012101A827
:104AD40000F014FC00F0FAFA019B421F934238BF25
:104AE400019001F0DBF9034801F08AFCFFF7E8FFCD
:104AF400ECE700BF4948000830B5002085B002F05B
:104B0400C9F9002003F040FC002002F011F9002054
:104B140003F048F9002002F007FF002001F006FF2F
:104B2400002003F061FC002001F0FDFE002003F0F2
:104B3400B1FD002000F082FF002001F0FDFC002008
:104B440001F000FD002000F0DDFE012000F088FEF1
:104B5400002006F0F7F9002000F082FE002003F0A8
:104B64005BF807F05FFEFFF70FFF00F033FF4FF431
:104B7400FA644FF47A7003F02BFC013CF9D103255D
:104B8400234600950194029403940B494FF48072D8
:104B94000A4800F0A3F90A494FF4807223460095AD
:104BA400019402940394074800F098F900F060FA25
:104BB400204605B030BD00BF5DCD0008914A000815
:104BC40058CD0008C94A000802F0BCB8FFF75ABF24
:104BD40010B5002401346423B4FBF3F203FB124048
:104BE40008B901F05BF9094801F00AFC42F21071BE
:104BF400B4FBF1F301FB1342002AEBD103F00EF9ED
:104C0400C143012003F0F6F8E4E700BF4948000877
:104C140010B503684168826888B00093C46803696A
:104C24000191029241698269C06903940493334CEF
:104C34000591069207900699314801F0DFF8204665
:104C440001F0DCF82F4801F0D9F8204601F0D6F83D
:104C540000992D4801F0D2F801992C4801F0CEF8C2
:104C640002992B4801F0CAF803992A4801F0C6F8C2
:104C74000499294801F0C2F80599284801F0BEF8C2
:104C84000699274801F0BAF80799264801F0B6F8C2
:104C9400254B2648196801F0B1F8254925480968CB
:104CA40001F0ACF8244A2548116801F0A7F824481B
:104CB400244C0168244801F0A1F82168234801F03C
:104CC4009DF86FF07F4000F0B5FE002000F0B4FEC8
:104CD400002000F0C5FD00F013FE0020014600F0A6
:104CE400C5FD1B4800F06AFE0121002000F0BEFD56
:104CF4000699184800F08CFEFFF76AFFCFCD000834
:104D0400B9CD0008E3CD0008F7CD000802CE0008B5
:104D14000DCE000818CE000823CE00082FCE0008C0
:104D2400C4CD00083ACE000838ED00E046CE0008B5
:104D340028ED00E053CE00082CED00E060CE000822
:104D440030ED00E03CED00E06DCE00087ACE0008C6
:104D540087CE000898CE00081EF0040F0CBFEFF3B6
:104D64000880EFF30980FFF753BF704740482DE9EF
:104D7400F04FD0F800800846044614F8015B08EBB5
:104D840005067778204607F00806F7B2002FF3D11E
:104D94002D2D03D114F8015B012704E02B2D04BF52
:104DA400244614F8015B002B5BD0102B07D1302D67
:104DB40005D12578782D4DD1657810230234002F44
:104DC4000CBF6FF000404FF00040B0FBF3F9002639
:104DD40003FB190A304608EB050C9CF801C00CF0E3
:104DE400040B5FFA8BFBBBF1000F01D0303D0BE0ED
:104DF4001CF0030C1BD0BCF1010F14BF4FF0570C77
:104E04004FF0370CCCEB05059D4210DAB6F1FF3FAD
:104E14000AD0484506D801D1554503DC03FB0050B0
:104E2400012601E04FF0FF3614F8015BD3E7731C51
:104E340008D1002F14BF4FF000406FF000402AB992
:104E4400BDE8F08F07B140427AB106B1611E11602E
:104E5400BDE8F08F582DAFD03025002BAFD10823FB
:104E6400ADE7302DA5D00A23A9E7BDE8F08F00BF38
:104E74007400002030B505460C4613460020294630
:104E84002246BDE83040FFF771BF00000E4B10B55D
:104E94001A68044650600D4801688C4207D20C4AD7
:104EA40010681B68191DBDE8104000F0A8BA094A33
:104EB40010681B68191D00F0A2FA074801688C42AB
:104EC40038BF046010BD00BF004D0020184D002005
:104ED4001C4D0020604C0020140000202DE9F84FE8
:104EE40083464820884617469A460A9EDDF82C9049
:104EF4000C9D00F0C3FB0446002800F099801DB906
:104F0400B80000F0BBFB054625631DB9204600F040
:104F14007BFB8DE0BA002846A52107F0B2FC236B89
:104F2400013F03EB87001022414620F0070704F1FC
:104F3400340007F0D6FC042E34BF35460425002186
:104F440004F1040884F843104046E562656400F007
:104F540046FA04F1180000F042FAC5F10502A26114
:104F64002461646238465946524600F07BFA206058
:104F7400B9F1000F01D0C9F8004000F09FFA2E48A3
:104F84000368591C2D4B01601D6815BB1C60036828
:104F9400012B26D12A48142707FB0500013500F010
:104FA40013FA052DF6D1274F274D384600F00CFA99
:104FB400284600F009FA254800F006FA244800F0D3
:104FC40003FA244800F000FA2349244A0F601560CC
:104FD40007E0234A106820B91968CA6AB24298BF28
:104FE4001C60E36A1F4C204A20681168834288BF12
:104FF40023604C1C1460012404FA03F01B4A11685A
:10500400014311600E4A142000FB0320414600F0C6
:10501400E9F900F061FA124B196831B107480268E6
:10502400D36AB34201D200F039FA2046BDE8F88FC2
:105034004FF0FF30BDE8F88F404D0020004D0020B8
:10504400944C0020284D0020804C0020044D00206A
:105054006C4C00204C4C0020604C00201C4D002067
:10506400644C0020444D0020244D0020204D00209D
:1050740030B5002485B000940194029403940B4845
:105084000B494FF480722346FFF728FF0128054699
:105094000AD100F00BFA074B07481D60046005B005
:1050A400BDE8304000F05CBA05B030BD995200084C
:1050B400A5CE0008644C0020184D0020024B1A684D
:1050C400501C1860704700BFF84C002010B500F069
:1050D400F5F9034B1C6800F0FFF9204610BD00BF32
:1050E400184D002038B5314B186800284FD130488E
:1050F40001684A1C02600368ABB92E4B2E4A19683A
:105104001068186011602D4A1168481C10601A68F4
:105114002B48116811B94FF0FF3303E01B68DA68BC
:10512400D1684B6803602248254902680B689A429B
:1051340033D320480268116821B921484FF0FF3168
:1051440001602AE004681A4AE368DC681168606850
:10515400814202D21A4B18601FE0251D284600F038
:1051640066F9A36A1BB104F1180000F060F9E36A60
:10517400012101FA03F1134A106801431160124A34
:10518400142000FB0320294600F02CF9D1E70F4935
:105194000A68531C0B60FFF717FD0C4A13681BB910
:1051A400BDE83840FFF710BD38BD00BFF84C002003
:1051B400184D0020604C00201C4D0020FC4C0020A9
:1051C40014000020204D0020944C0020484C002066
:1051D40070B500F073F9274B1A68501E18601D68EB
:1051E4000DB1002441E024490C68002CF9D0234B74
:1051F4001A6802B3DE68F468261D04F1180000F092
:1052040016F9304600F013F9E36A012101FA03F1BB
:105214001B4A1068014311601A4A142000FB032042
:10522400314600F0DFF8184BE46A1968C86A844212
:1052340028BF0125DBE71548016841B1134C2268FA
:105244003AB1FFF74FFF23685A1E2260F6E7012D9B
:1052540006D10F4900200860012400F01FF904E082
:105264000B4C2368012BBCD1F3E700F035F9204641
:1052740070BD00BFF84C0020404D0020044D0020BC
:10528400204D0020944C0020004D0020484C00206C
:105294003C4D002070B5154C2368F3B1144DFFF755
:1052A4000DFF2E68FFF794FF002EF4D000F006F9EE
:1052B400EA68D568281D00F0BAF80E4B1868411E3C
:1052C40019602668721E226000F006F9286B00F04F
:1052D4009BF9284600F098F9DDE7074801680129A1
:1052E40001D900F0DBF8FFF771FCD4E7684C00202B
:1052F4006C4C0020404D0020944C002038B50C46E6
:105304000546FFF7DBFE184A2B681168E41899423A
:1053140002D29C4208D201E09C4207D31068844226
:1053240094BF0020012002E0002000E001202C6056
:1053340090B10E4D2B68181D00F079F848B90C4B4C
:10534400012019682A68D26A00FA02F221EA0201ED
:1053540019602046FFF79AFDFFF73AFF18B9BDE838
:10536400384000F09BB838BD184D0020004D002097
:10537400204D00200F4B186810B101220E4B16E08F
:105384000E490A68B2FA82F30D4AD8B21421C0F168
:105394001F0301FB0320436800F108015A68094B0D
:1053A4008A42426004BF526842604068C2681A6020
:1053B400704700BFF84C00203C4D0020204D0020D9
:1053C400944C0020004D002000F108034FF0FF3200
:1053D400002182604360C360036101607047002361
:1053E4000361704743685A688B604A605A689160E9
:1053F40059604160086101684B1C036070470A688A
:1054040010B5531C01D1036907E000F108035C687F
:105414002468944201D85B68F9E75A68086191608E
:105424004A6059608B6001684B1C036010BD43687F
:1054340082689A608268536003695968814208BF30
:105444005A60002202611868411E1960186870478A
:1054540003480068006880F3088862B600DF00BF74
:1054640008ED00E04FF0807300E90A00002340F8E3
:105474000C3C40F8202C403870470000064B19685B
:105484000868B0E8F00F80F309884FF0000080F35B
:1054940011884EF00D0E7047004D0020024B4FF066
:1054A40080521A60704700BF04ED00E0EFF31180F2
:1054B4004FF0BF0181F311887047002008B5FFF752
:1054C400F5FF024B1A68501C186008BD1800002034
:1054D40080F3118870470000034B18680138186086
:1054E40008B9FFF7F5BF704718000020EFF30980F3
:1054F4000C4B1A6820E9F00F10602DE908404FF0BA
:10550400BF0080F31188FFF735FF4FF0000080F3F0
:105514001188BDE8084019680868B0E8F00F80F306
:1055240009887047004D002008B5064B4FF08052A3
:105534001A60FFF7BBFFFFF7D5FD0020BDE8084068
:10554400FFF7C6BF04ED00E0034B044A07201A60CE
:1055540043F8040C704700BF14E000E03F19010059
:10556400094B10B51A6842F47F001860196841F0BD
:105574007F441C60FFF7E8FF044B00241C60FFF726
:1055840067FF204610BD00BF20ED00E0180000209A
:105594000C2130B54843084A1318DC889D8801FB68
:1055A4000424A5809D88DC8801FB0521CC801B8810
:1055B40059044B0C135230BDFA5600202DE9F0412A
:1055C4000C2505FB00F70F4C8046E619308805FBD7
:1055D4000043B3F90010002912DAFFF7D9FF30882D
:1055E40005FB004213885904480C05FB0042A2F84D
:1055F4000280338805FB034529884804420CE253A2
:10560400BDE8F081FA560020F8B50746002832D0EC
:10561400194C0C253F1BFFF751FDB7FBF5F086B283
:1056240037466F433046FFF7C9FFE319598869438A
:10563400625E002A0BDA1A886FEA42406FEA50422F
:10564400625259881B8805FB034461800FE0A088DF
:10565400002281B205FB0145EE8098809A71DA71CF
:10566400A6801B886FEA43406FEA5041E153BDE8CE
:10567400F840FFF7ADBDF8BDFA560020F8B5044672
:10568400002800F08380FFF719FD082C07D9A4F146
:1056940009010C23B1FBF3F0821C91B200E001215B
:1056A4003B4C47F6FF76A28800201446384B0C2565
:1056B40005FB023EBEF804706FB1BEF800506B04E7
:1056C400C2EB534080B2884203D3B0423CBF14467D
:1056D40006463A46EAE747F6FF77BE4208BF144655
:1056E40005FB0432178818BF30467A04A446570CC9
:1056F400E2B1884203D12046FFF74AFF3EE0401A58
:1057040081B2601805FB00F299189F524C8084B254
:1057140005FB0CF01A5A51044A0C05FB02356FEADA
:1057240044416FEA51426C801A5227E06018B0F588
:10573400557F07DB2246174800F060FBFFF748FD62
:105744003846F8BD2CB901255C705C711D701D7163
:105754002C460C2000FB04F50D4B61185A19D68811
:1057640000FB06370E46B9804143176858185F504E
:1057740051684160926882605E534480FFF728FD5F
:10578400034B0C2000FB0434201DF8BDF8BD00BF02
:10579400FA560020CFCF0008FEE70000684620F04C
:1057A40007018D4601B500230A4A0B49981888421F
:1057B40004D20A49585898500433F5E7084B094A6B
:1057C400934203D2002043F8040BF8E7FFF794F95F
:1057D400FEE700BF00000020E000002018E60008FB
:1057E400E0000020287F002070470000104A114B81
:1057F40011685068128919600F4958601A81087835
:10580400422813D10D4A0E481178197002780D49B7
:105814005A7008780C4A98701178064AFF2908BF14
:105824004FF480719980094B1878D080002070471C
:1058340066D00008F87E0020C03F0008C13F000881
:10584400C23F0008C33F0008C43F0008C53F00082A
:10585400024B93F90000C00F704700BFF87E002090
:10586400014B187000207047544D002010B50B4BAD
:105874000B4C18800B4AA388118013B1DAB2A379B8
:1058840001E0082306224243074C4B432280074A87
:105894001380BDE8104005F0FFBD00BF027F00206B
:1058A400484D0020087F00200A7F0020F67E00205B
:1058B400024B034A1880118005F084BD0A7F002042
:1058C400F67E00200023C15C034A99540133042B63
:1058D400F9D10020704700BF047F00208278074B75
:1058E400111D421801781A604278C078998001210C
:1058F4001881DA8099720020704700BF484D00205B
:1059040005F0BCBC13B50446F0B9FFF76FFF1048AF
:10591400104B016801A89C800191FFF7D3FF4CF262
:10592400503002F055FD204605F00CFB00280DDB3D
:10593400FFF7E6FF21462046FFF798FF2046214661
:10594400FFF7B6FF204601E04FF0FF301CBD00BF5B
:10595400F1CF0008484D002030B5154B85B093F9C0
:1059640000100546002919DA124B4FF0FF309A88CF
:10597400E2B101AC93E8070084E80700DA881B89E8
:10598400D108594305FB0100ADF80A200190ADF898
:105994000C3094E8070005F0ABFD01E005F0D8F900
:1059A400002803DB044B1A88511C198005B030BD54
:1059B400F87E0020484D0020027F002038B5451EA7
:1059C400002415F8010F18B1FFF7C6FF0443F8E7E8
:1059D400204638BD38B50B4B0024214620461C70A8
:1059E400FFF744FF05460848FFF7E8FF0121054398
:1059F4002046FFF73BFF05430448FFF7DFFF28433A
:105A040038BD00BF544D002065CC000886CC00088A
:105A14000FB400B593B014AA52F8041B02A8019263
:105A240003F08DFC02A8FFF7C9FF13B05DF804EB87
:105A340004B0704705F056BD05F057BD38B50546AE
:105A4400002845D1244A2549102313700B70244C97
:105A5400244B254A254920601860254C254B1060AD
:105A640008601860206002F05DFFC40F284600F053
:105A7400BBFD0028B8BF44F00204002000F04BFF37
:105A84000028B8BF44F00404002000F039FF1A4A8B
:105A940000281A4BB8BF44F008040020107019788D
:105AA400174A60F307011970107016480378422BE7
:105AB40004D115490878010658BF1070134B002211
:105AC40013491A8000220023C1E90023604238BD33
:105AD4004FF0FF3038BD00BF1C0000201E00002026
:105AE400604D0020584D0020884D00208C4D002032
:105AF400784D0020644D0020694D0020704D002039
:105B04006A4D0020D03F0008D13F00086C4D0020B2
:105B1400804D002010F0F00F70B505460C4604D1FE
:105B240001280CBF1F4B204B1D78204B05F00F069E
:105B34001A68002A18D105F0F00020281CD008D8D3
:105B440010282BD166F307142046BDE8704002F0FC
:105B540055BF302819D0502820D166F307142046A9
:105B6400BDE8704000F0D1BE66F307142846214614
:105B740090470028DFD070BD66F3071405F00F00CE
:105B84002146BDE8704000F0D9BD66F3071405F066
:105B94000F002146BDE8704000F0C2BE4FF0FF3058
:105BA40070BD00BF1E0000201C000020584D0020C6
:105BB4002DE9F04180460E4617460024BC4235D2FA
:105BC4003B1B022B0DD0032B19D0012B19D1325DB5
:105BD400052161F3030562F30F2501346FF31745C3
:105BE4000AE0305D3119062363F303054A7860F354
:105BF4000F2562F3174502346FF31F650FE007208A
:105C040000E0042060F30305335D3019417863F349
:105C14000F25827861F3174562F31F65033440460C
:105C24002946FFF777FF0028C8DA00E00020BDE826
:105C3400F081000030B5F023A1B08DF80030134B93
:105C44007E2232258DF803201A7800248DF8045022
:105C54000F258DF801408DF802408DF805208DF850
:105C6400065002AB0D5D5A1E35B101341A4603F8D5
:105C7400015C0133642CF5D1F72102F8011B69465C
:105C8400521AFFF795FF21B030BD00BF6A4D0020C6
:105C940000B5F02389B08DF8003000238DF8013071
:105CA4008DF802307E238DF8033032238DF80430D2
:105CB400084B8DF806101B78F7218DF807208DF816
:105CC4000810092269468DF80530FFF771FF09B005
:105CD40000BD00BF6A4D00202DE9F04104230024DB
:105CE4000E4663F303046FF00F0161F30F246FF3A7
:105CF40017446FF31F64214605469046FFF70AFFD9
:105D04000E4B07467E201978322260F30F2462F38B
:105D1400174461F31F6421462846FFF7FBFE07433F
:105D24000D2060F30F2466F3174468F31F642846BC
:105D34002146FFF7EFFE3843BDE8F0816A4D0020AD
:105D44002DE9F84381468846174652B30D4600268E
:105D5400C8EB0503BB4225D22978042060F3030471
:105D640031B16B7801F07F0262F30F241BB90DE0AF
:105D740061F30F240AE0A97803F07F0060F317446D
:105D840031B101F07F0262F31F6403E06FF3174443
:105D94006FF31F6448462146FFF7BCFE03350643F4
:105DA400D6E716463046BDE8F88308B5002105233A
:105DB40063F303016FF0080262F30F2189B2FFF766
:105DC400A9FE08BDF8B5054606F083FD0A4F064650
:105DD400402138782A78FFF77FFF012E044605D941
:105DE4003878691C721EFFF7ABFF0443024B187826
:105DF400FFF7DBFF2043F8BD1E0000200FB430B5D1
:105E0400A3B0269D284606F064FD642801D90E48F7
:105E140013E002AC27AA29462046019203F08FFA28
:105E2400204606F056FD0023834205D0E25C02F0D2
:105E34007F01E1540133F7E72046FFF7C3FF23B0A6
:105E4400BDE8304004B07047B8D0000810B50E4B20
:105E540004461A7802F00801C8B248B10B49087820
:105E6400A04205D16FF307021A70094B00221A7081
:105E740008490A680AB12046904721460648FFF7B8
:105E8400BDFF002010BD00BF704D0020694D0020F3
:105E94005C4D00208C4D00200BD1000810B502F0A1
:105EA400EFFD044600F0C6FB044300F037FD044355
:105EB40000F029FD044B4FF6FF711A8820438A42F3
:105EC40001D001321A8010BD6C4D002008B5034B7F
:105ED4001A680AB1904708BD104608BD604D0020FD
:105EE400114BF7B51C680746E4B1C1F307640F4DC5
:105EF400C1F30720C1F307428DF8064001F00F01FA
:105F040000246E5C8DF804008DF805202546B5420A
:105F140008DA054B01AA515D1B68384698470135DC
:105F24000443F4E72046FEBD604D0020A8D00008DD
