:020000040800F2
:10000000005000208D010008890100080000000058
:10001000890100088901000889010008000000002A
:10002000000000000000000000000000890100083E
:10003000890100080000000089010008890100080A
:100040008901000889010008890100088901000868
:100050008901000889010008890100088901000858
:100060008901000889010008890100088901000848
:100070008901000889010008890100088901000838
:100080008901000889010008890100088901000828
:100090008901000889010008890100088901000818
:1000A0008901000889010008890100088901000808
:1000B00089010008890100088901000889010008F8
:1000C00089010008890100088901000889010008E8
:1000D00089010008890100088901000889010008D8
:1000E00089010008890100088901000889010008C8
:1000F00089010008890100088901000889010008B8
:1001000089010008890100088901000889010008A7
:100110008901000889010008890100088901000897
:100120008901000889010008890100088901000887
:100130008901000889010008890100088901000877
:100140008901000889010008890100088916000852
:100150008901000889010008890100088901000857
:100160008901000889010008890100088901000847
:100170008901000889010008890100088901000837
:100180008901000889010008FEE70000684620F0A8
:1001900007018D4601B500230A4A0B499818884289
:1001A00004D20A49585898500433F5E7084B094AD5
:1001B000934203D2002043F8040BF8E700F00CF858
:1001C000FEE700BF000000203800002000390008D2
:1001D00038000020481C00202DE9F743002000F0E3
:1001E00061FF002001F008F9012001F09DF8684648
:1001F00001F075FE002401238DF805408DF80430D0
:100200008DF80640B5490A196058958802AE0583F5
:100210006946083446F8085D01F014FE182CF1D147
:100220000027AF4CE31938599A8802A9028341F894
:10023000082D0837694601F005FE302FF1D1002660
:10024000A84DAF197059BC8802AB44836946083683
:1002500043F8084D01F0F6FD182EF1D1A24D082605
:10026000284669460096802401F0ECFD2E839F4DC0
:10027000DFF87C8208264FF020094FF40057A8F8D9
:100280001A9001206F836E8301F0D8F8A8F81890B7
:1002900001202F832E8301F0D1F8013CE7D12046C5
:1002A0008F4A131881589D88083030284D83F7D124
:1002B000012001F0C3F80027894EF019BC5982884B
:1002C0000837302F2283F7D1012001F0B7F800253D
:1002D00001218DF804508DF80710804B5F1902AC96
:1002E000BE88E85844F8086D6946083501F0AAFD53
:1002F000182DF2D100257A48421902A9938828586E
:1003000041F8083D0835694601F09CFD302DF2D1D9
:100310000027744EF41902A8A588694640F8085DC4
:10032000B859083701F08EFD182FF2D1704F6420B4
:1003300001F022F83A6902F0010501F0B4F9C6B201
:1003400016B93B69D9070BD53DB18020012101F0D9
:1003500023FE8020002101F01FFE002001F0AAF9F9
:10036000002000F02FFB002000F024F9B6B960490E
:100370000C69E20770D45F480778422F6CD15E4A5F
:100380001678002E68D001F0D1FC0120002100F089
:10039000DFFF5A4BDF78082F46D103E0102000F032
:1003A000DDFA59E06FF00700012101F0E9FD6FF07F
:1003B0008000012101F0F0FD4FF0FF30012101F03C
:1003C000F7FD4FF0FF30012101F0FEFD4FF0FF304F
:1003D000002101F0D5FD4FF0FF30002101F0DCFDE0
:1003E0004FF0FF30002101F0E3FD4FF0FF3000211E
:1003F00001F0EAFD45B18020012101F0CDFD802012
:10040000002101F0C9FD08E001F04DF928B13C4898
:10041000D0F8E4550DB102F0C5FA3A4E346884F3D1
:10042000088836490A68904700F0CEFF012001464F
:1004300000F08EFF00F0D2FF40F2F31398421F4607
:10044000F8D900F0C1FF0120002100F081FF00F089
:10045000C5FFB842FBD9E7E700F0B6FF00F0BEFFEA
:100460003227B0FBF7F364210446B3FBF1F001FB44
:10047000103242F21073B4FBF3F1560841F28830A7
:1004800003FB11428242B4FBF7F307FB134188BF21
:10049000C6EB07060120B14294BF002101210A27C3
:1004A00000F056FFB4FBF7F607FB16440CB900F05A
:1004B000A9FD002000F03AFD00F090FF44F61F6116
:1004C0008842CBD900F080F80028C7D1002D3FF436
:1004D0005AAF074A1069C307C0D454E73036000842
:1004E0004836000818360008001002400004024098
:1004F00000000240D23F0008D33F0008044000083B
:10050000EC15002000400008124B1A78032A10B5A1
:100510000BD811490C6800F07F004FEAC41444EA7C
:10052000001008600FD104220EE0072A0FD80B49F3
:100530000C6800F07F004FEAC41444EA0010086021
:1005400001D1082200E001321A70002010BD4FF0E6
:10055000FF3010BDFC0400203800002044000020C3
:1005600070B5134B88B016461A7804460D468DF8C0
:1005700000209978DA7858781B798DF802108DF878
:1005800003208DF801008DF8043000F083FD8DF814
:100590000500F7208DF808006946204609228DF8ED
:1005A00006508DF8076000F087FA08B070BD00BFF4
:1005B0007837000810B9034B187070474FF0FF30C0
:1005C000704700BFFD040020014B1878704700BF42
:1005D000FD0400202DE9F04198460C4615460646DC
:1005E00000F04CFD00F0F0FEB8F1010F04D0B8F1BE
:1005F000020F40F0A38189E0B14B14B1012C0AD164
:1006000004E01C70AF4BB04A1C6092E019780729D7
:1006100000F2918197E01978082903D030460E2125
:100620000122E5E0A948AA4C02784378817822703B
:10063000C2780079A34FA44D6370A170E27020715D
:100640003F682D6800F026FD4FEA556E6071780E08
:100650000223E071C7F386417044A3712172C7F38E
:10066000C62341186372C7F3061253FA81F3C5F328
:100670008640A27252FA83F250FA82F1C5F3C62381
:1006800053FA81F22073C5F3061050FA82F16373B6
:100690000023A07384F80BE0C9B21A460F34184641
:1006A000A84221D010F807E04FF0080C01335200A7
:1006B000DBB242EADE12062B4FEA4E0ED2B25FFAEE
:1006C0008EFE0AD9C3F1070302FA03F2D2B251181F
:1006D000002304F8012BC9B21A460CF1FF3C1CF0B0
:1006E000FF0CE3D10130DBE71BB18B1804F8012BC1
:1006F000D9B24A42764902F07F00F723A21C20704B
:1007000063703046521A00F0D7F914E114B1012C8D
:1007100053D110E06A4B6B496B486E4A1C700C60F9
:1007200004606D4B6D496E4814706E4A1C700C600D
:1007300004601460FFE062480178072907D8654922
:1007400008782A180A702846FFF7DEFEF3E0082929
:100750002BD160480278AB18037060480368B3F58A
:10076000806F80F0E880584E5E4F5D4C3668386888
:10077000226807240132C5F380176D00072A47EA73
:100780004000EDB206D9524AD0540133B34228BFDB
:1007900009210022013CEDD1524C206050480260FA
:1007A0004E4A1360464B1970C5E0092902D14A4BE5
:1007B0001D70C0E00C220270BDE0434B47481F682B
:1007C0000168B942FFF42AAF3D4A13780C2B03D1DC
:1007D00030460E2142460BE03E4A3F4813780178EE
:1007E000584200F07F02914205D030460E2103228C
:1007F000FFF7B6FE9FE0334B3B4901240C701C68A9
:1008000044EA0700830740F08C80384A944202D8BB
:100810006FF0070087E000F0D9FC00F100614B1E8B
:100820009C426DD801F074FA00230C2159433048E2
:100830000A58944224D12F492F488C4201D10022DA
:1008400002600121006801FA03F1014203D02B4D3F
:100850004FF000082EE041EA000227490A60244ACE
:100860000C2000FB03230221586801F0B5FA082888
:10087000EDD04FF0FF3001F061FA6FF0030052E06D
:1008800001330C2BD1D1E2E76B7829781A0442EAC4
:10089000012315F8011CAA780B4343EA026101F019
:1008A0007DFA04350828E4D101F02AFA01F020FA93
:1008B00008F10408B84508EB0400E5D342E000BFA6
:1008C000FC04002038000020440000207837000895
:1008D0004C0000204000002048000020F8040020C8
:1008E000F404002000050020FD040020FF3F000864
:1008F00078360008004000083C0000204D00002031
:10090000B4F1005F84D300F069FC00F10050421E96
:1009100094423FF67DAF20460E493A4602F072FE01
:1009200010E06FF0080043420E213046DAB2FFF7C4
:1009300017FE00F067FB0020BDE8F0814FF0FF30AC
:10094000BDE8F0810449087842420F21304602F0A8
:100950007F02ECE74C0000204000002010B5114B56
:1009600088B01A7899788DF800200446DA7858789B
:100970001B798DF802108DF803208DF801008DF899
:10098000043000F087FBF7218DF8050001208DF879
:1009900006008DF8071020466946082200F08CF802
:1009A00008B010BD7837000808B52020FFF7D6FF43
:1009B0001020FFF7D3FF024B0020187008BD00BFC6
:1009C000FD04002010B5044600282CD1174A184910
:1009D000102313700B70174A174B184918601060DA
:1009E0000860174B174A184918601060086000F03B
:1009F00061FF164B164A1C70164B174914701C7079
:100A00000A78C00F422A04D114490A78110658BF47
:100A10001A70134B00211980124900220023C1E9EA
:100A20000023404210BD4FF0FF3010BD00000020F9
:100A300001000020040500200C05002030050020E6
:100A40003805002020050020100500201405002096
:100A50001805002015050020D03F0008D13F0008F0
:100A6000160500202805002010F0F00F38B50446C8
:100A70000D4604D101280CBF0C4B0D4B1C780D4BBF
:100A80001A6864F3071542B904F0F004102C0AD177
:100A90002846BDE8384000F07BBF204629469047F5
:100AA0000028F1D038BD4FF0FF3038BD01000020E4
:100AB00000000020040500202DE9F04180460E468C
:100AC00017460024BC4235D23B1B022B0DD0032B12
:100AD00019D0012B19D1325D052161F3030562F3B1
:100AE0000F2501346FF317450AE03119305D4A785C
:100AF000062363F3030560F30F2562F31745023401
:100B00006FF31F650FE0072000E0042060F303058A
:100B10003019335D4178827863F30F2561F317450F
:100B200062F31F65033440462946FFF79DFF002806
:100B3000C8DA00E00020BDE8F081000030B5A1B0C7
:100B4000F0238DF80030134B7E2232258DF80320E0
:100B50001A788DF8045000240F258DF801408DF887
:100B600002408DF805208DF8065002AB0D5D5A1E2F
:100B700035B101341A4603F8015C0133642CF5D118
:100B8000F72102F8011B6946521AFFF795FF21B0C1
:100B900030BD00BF1505002000B589B0F0238DF8E9
:100BA000003000238DF801308DF802307E238DF85F
:100BB000033032238DF80430084B8DF806101B7873
:100BC0008DF80720F7218DF80810092269468DF865
:100BD0000530FFF771FF09B000BD00BF150500200B
:100BE000F0B5454E8BB0337804460D461746FFF7F7
:100BF000F1FC00287CDA31780D295AD001D829B1CE
:100C000069E00E2974D00F2965D15AE03B4B1DB124
:100C1000012D03D11F706BE01D7069E01878052865
:100C200029D011D8022820D004D801283DD120464F
:100C3000334937E003281BD0042836D100F0C0FA2E
:100C400030490246684623E0082826D006D8062800
:100C500019D0072829D100F0C1FA16E009281FD0C1
:100C60007F2822D1FFF7A0FE42E02046264919E066
:100C70002046264916E0684600F0B4FA00282046CF
:100C800009DA23490EE000F0A1FA2249024668463B
:100C900001F004F82046694604E020461E4901E0C0
:100CA0001E492046FFF74AFF22E020460E210D2272
:100CB00004E0022D1CD120460E211022FFF76CFF0C
:100CC00016E0174A0DB1012D01D1556010E05268B0
:100CD00072B92046F2E70E210A462046FFF75CFF74
:100CE0000F49054B0A7800206FF307020A7018704D
:100CF00000200BB0F0BD00BF080500203405002027
:100D0000183700083A3700081F3700083037000846
:100D10003F370008413700084437000856370008BD
:100D200018050020F72910B50A465AD82E4B197815
:100D300001F0080303F0FF041BB12C4B1B78834226
:100D40004CD1A0F11103062B48D9284B187004BBD5
:100D50002548037803F00703042B03D82448C05C1C
:100D6000904221D101F00701052903D121480178E2
:100D7000914219D15A1C1C4B197802F0070060F3FC
:100D80000201052819702CD9CAB242F00800187067
:100D900027E0130611D5F72A06D101F01001CBB2D6
:100DA00013B10221FFF71CFF0F4B134A19780020E3
:100DB0006FF307011970107010BD01F01004E4B258
:100DC00044B9094B197841F0100119700A4B2146BA
:100DD0001A7000E00121FFF703FF02E04FF0FF303F
:100DE00010BD002010BD00BF180500201405002014
:100DF00078370008150500200805002001F00F03D2
:100E00002DE9F0470F46C1F30728C1F307494FEA20
:100E1000116A03F1080101F00F010629064602D804
:100E2000002A58D17AE0B8F1F00F05D003F10C0098
:100E300000F00F01032929D83A49D1E9004554EAC5
:100E4000050023D106F0F004302C4FF000000CD048
:100E5000502C13D0102C19D1334C208006F00F00E9
:100E6000012404FA00F0088010E02F4C208006F0E6
:100E70000F00012404FA00F0488007E02A4C20808B
:100E800006F00F00012404FA00F08880991E0D2955
:100E900044D8DFE801F01E1E071B242443434343CC
:100EA00043434307B8F1F70F13D83046414607F0E4
:100EB0000F07FFF737FF0F2F30D049463046FFF7B7
:100EC00031FF30465146FFF72DFF27E0B8F1F70F0D
:100ED00005D91AB3304627F0F00190471EE01A1FDB
:100EE00012F0FF041AD030464146FFF71BFF012CD9
:100EF0000CD030464946FFF715FF022C05D030468E
:100F00005146FFF70FFFD04600E0C846B8F1F70F93
:100F100004D1044800220023C0E900230020BDE8DA
:100F2000F08700BF280500201605002013B50446F1
:100F300001A800F045FD002807DB0199C1F303106B
:100F400010302246FFF75AFFF2E72849D1E9002383
:100F500052EA030047D0264B1888B0F57A7F42D971
:100F60000A8862B1002142FA01F313F0010003D1B3
:100F700001311029F7D101461031C8B21AE04B886F
:100F80005BB143FA02F010F0010103D10132102AE3
:100F9000F7D10A463032D0B20CE0888850B140FA1E
:100FA00003F111F0010203D10133102BF7D11346E5
:100FB0005033D8B20F4B1A7802F00801C9B249B1C8
:100FC0000D490978814205D16FF307021A700B4B66
:100FD00000221A700A490A6802B1904703480022A9
:100FE0000023C0E9002300201CBD00BF280500200D
:100FF0001605002018050020140500200805002013
:101000003805002010B500F007FD044600F048F850
:10101000054B1A884FF6FF718A4240EA040001D05E
:1010200001321A8010BD00BF16050020114BF7B524
:101030001C680746E4B1C1F30764C1F30720C1F39C
:1010400007420D4D8DF8064001F00F0100246E5C43
:101050008DF804008DF805202546B54208DA01AA6E
:10106000044B515D1B683846984701350443F4E74B
:101070002046FEBD0C05002008370008012803D0DB
:10108000034B1870002070474FF0FF30704700BFCF
:1010900001000020014B1878704700BF15050020A3
:1010A0000020704713B5044600287AD11F20012183
:1010B00000F036FF3C4B00949A6802F00C000828C0
:1010C00002D1012000905DE0196841F001021A6030
:1010D0009C60186820F08471344821F480321A60D2
:1010E0005860196821F480221A60DC600194186845
:1010F00040F4803119602C4B1A6802F400300090E3
:1011000001994A1C0192009818B90199B1F5A06F94
:10111000F1D11B6813F4003218BF0122009200982D
:1011200001282FD1204B2248196C41F080521A64BB
:10113000016841F48042026098689860996841F4BF
:1011400000429A6098681B4A40F4A05199605A6026
:10115000186840F0807119601868134A8101FBD546
:10116000154B40F205611960906820F00301916011
:10117000936843F0020090600B4A916801F00C0301
:10118000082BF9D10D48002100F0A2FD4FF440706A
:1011900000F094FD009A012A14BF4FF0FF300020A8
:1011A00001E04FF0FF301CBD003802401030002439
:1011B0000070004008544007003C02400000000856
:1011C000014B1868704700BF002004E0024B1888EC
:1011D00081B28802704700BF227AFF1F4FF440306F
:1011E0007047000000230B4A591089180A78D90764
:1011F00058BF120902F00F02092A94BF302137218B
:101200008A18C2540133182BEDD10021017608460B
:10121000704700BF107AFF1F074B1A681AB9EFF327
:101220001081064801604FF0010080F310881A68B1
:10123000511C196000207047400500203C0500202B
:10124000074A13683BB1581E106038B905490A684F
:1012500082F3108802E04FF0FF30704700207047A3
:10126000400500203C0500200F291CD80F4BDA68F0
:10127000D343C3F30222C2F1040301FA03F10901CB
:1012800000F16043CAB203F56141012381F80023F4
:1012900042B200F01F00510903FA00F2044840F87E
:1012A0002120002070474FF0FF30704700ED00E034
:1012B00000E100E073B5054668460E46144600F0AE
:1012C0000EFE02238DF805300096062C29D8DFE8A3
:1012D00004F02604090F13181D0003208DF80400E4
:1012E000002302E000238DF804308DF8073012E06F
:1012F00000228DF80420F8E700218DF80410012366
:10130000F3E701208DF80400002302E001238DF8AB
:1013100004308DF806302846694600F093FD002021
:1013200001E06FF001007CBDC30710B5044605D590
:1013300006484FF480510522FFF7BCFF34F00F033D
:1013400014BF6FF00100002010BD00BF000C024070
:10135000C20707D5074B11F0010F4FF4805214BF9D
:101360001A835A8330F00F0314BF6FF0010000207E
:10137000704700BF000C024030B5012185B0044623
:10138000102000F0E5FD54204443611E0D4CADF8E3
:1013900004104FF6FF730025204601A90293ADF813
:1013A0000C50ADF8065000F01BFE01210A46204605
:1013B00000F060FE2046012100F050FE284605B0F6
:1013C00030BD00BF001000400348012108B5416254
:1013D00000F064FE002008BD00100040054810B574
:1013E0000121446A00F04FFE00280CBF20464FF058
:1013F000FF3010BD001000401FB50446B8B90120F1
:10140000014600F0B1FDA7204FF6FF73ADF80400D0
:1014100001A909480293ADF80C40ADF8064000F070
:10142000DFFD0548012100F019FE204601E04FF0E4
:10143000FF3004B010BD00BF00000140044B596AEA
:1014400089B25A6A521A92B28242FAD9002070477F
:101450000000014012230B8000487047B437000899
:1014600004230B8000487047B0370008704770476E
:101470007047704770470020704700207047000099
:1014800065230B8000487047F337000810B50B4BFD
:101490008CB098781A888DF8060002A80C46ADF832
:1014A0000420FFF79FFE0028ACBF02A801A8044952
:1014B000224601F065F902480CB010BDE43700087F
:1014C000E41B002070B5164B86B00A4601AC03F150
:1014D000100618685968254603C50833B3422C46E0
:1014E000F7D11888002328800E495818017859B17F
:1014F00020395F298CBF002101210133202B06D028
:101500000029F1D101A805E0002BFBD001E0002962
:10151000F8D00448044901F033F9034806B070BD1F
:1015200044370008E03F0008E41B0020FFF7CABF73
:10153000FFF7C8BF1146FFF7C5BF00001FB5084C35
:101540000A462068616801AB03C3A068054C1860B7
:10155000214601A801F014F9204604B010BD00BFD7
:10156000E7370008E41B0020022908B503D108462C
:10157000002100F067FA002008BD012908B503D159
:101580000846002100F056FA002008BD10B50221DF
:10159000044601F046FD2046812101F042FD002075
:1015A00010BD002000F08CB9012000F089B90000C6
:1015B000022110B5402204460B4601F011FD8121A5
:1015C00040220223204601F00BFD0221034A044879
:1015D000402301F03FFD002010BD00BFAC150020EE
:1015E000EC15002073B50120244C014600F098FC56
:1015F00000204FF4D853022503268DF806008DF8FD
:1016000007006946204600938DF804508DF8056068
:1016100000F018FC204608210A2200F069FC204650
:1016200009210A2200F064FC20460B210A2200F066
:101630005FFC0A2220460C2100F05AFC4FF4806126
:1016400000918DF804502046012569468DF8075019
:101650008DF8056000F0F6FB0A210A46204600F0EE
:1016600047FC29464FF4804000F07EFC802029464C
:1016700000F062FC284600F035FB7CBD0000024013
:1016800043200821FFF7F0BD014801F06FBD00BF06
:10169000EC15002080B2FFF7D1BE4FF47A735843A7
:1016A00080B2FFF7CBBE4FF0A0431868C0F3C04034
:1016B00070470000022837B5054642D8FFF7F3FF10
:1016C0000446FFF76EFF45BB14F0FF0F25D01E4CFC
:1016D0002046FFF787FF1D481D491E4AC4F8E40550
:1016E000C4F8E81520460121C4F8EC2501F0AEF855
:1016F000204601F050F9204601F0C0F92046FFF7DE
:10170000BFFF01210323204684F8101184F8123111
:10171000FFF74EFFFFF748FF11E00D4B0D4A009316
:1017200001210A4B084800F0BBFD074801F016FDF7
:101730004CF25030FFF782FE034801F007FD002015
:1017400001E04FF0FF303EBDEC150020803700086F
:1017500058380008C837000870B5254CD4F8E4356F
:10176000002B43D0FFF758FD22480178002939D0DB
:10177000D4F8DC63B608B3B2002B33D01E4A10880D
:1017800081B21BB2C1F5007293422BDA00241B4DCB
:1017900055F82450C5F3031010302946FFF746FCD6
:1017A00090B9174B174A198889B242F82150198805
:1017B0004A1C91B2B1F5007F198028BF18800E48ED
:1017C00003885A1C91B201800134301B03B2002BF4
:1017D000DDDC0849064800220A7040230221074A3E
:1017E00001F038FCBDE87040FFF72ABD70BD00BFB6
:1017F000EC1500205015002046050020AC150020F7
:1018000052150020500D0020234BD3F8E40510B5ED
:10181000002840D0FFF700FD20490A78002A36D181
:101820001F4B188881B2002931D01E4A1078002839
:101830002DD019888AB2102A98BF1988174B94BFE7
:1018400089B210210120187015480288531A9AB2E3
:10185000028000220BB29A4213DA134B13481C8801
:10186000A4B250F82440124840F8224018880130B1
:1018700080B2B0F5007F188001D3002018800132BB
:10188000E8E705480A4A81219B0001F000FCBDE819
:101890001040FFF7D5BC10BDEC1500204C0D00200A
:1018A000561500205A150020581500204C05002020
:1018B0005C150020002814BF4FF0FF300020704757
:1018C0000D49002310B50B800C4C0D4923800B8073
:1018D0000C4C0D4923700B800C4C0D4923801A468B
:1018E0000B800C4C0C4B012110B121701A7001E0DF
:1018F00022701970002010BD4605002052150020EE
:1019000048050020501500205615002044050020F1
:10191000581500205A1500204C0D002038B5184CE1
:101920002378054613B94FF0FF3038BD15480188BC
:101930008AB2B2F5FF7F07D9FFF766FF2378002B45
:10194000F1D06FF0010038BDFFF766FC0E4B0F4978
:10195000188882B2501C41F8225082B21A8019882D
:1019600088B2B0F5007F01D300221A80054B198898
:10197000481C82B21A80FFF763FC002038BD00BF0C
:101980005A15002056150020440500204C05002063
:1019900010B504462046FFF7C1FF831C08D1074B52
:1019A0001A8842F20F718A4207D8501C1880F1E75A
:1019B000002802DB014B00221A8010BD54150020C4
:1019C000124B10B50446188881B2D9B1FFF724FC38
:1019D0000F4B10491A8890B251F8202022601C88C1
:1019E000601C81B2B1F5007F198001D300221A80FA
:1019F000064C2388581E81B22180FFF721FC2288E3
:101A000090B210BD4FF0FF3010BD00BF4605002062
:101A100048050020500D002008B5054801F01EF8CB
:101A200018B9FFF799FEFFF7EFFE002008BD00BFD1
:101A3000EC150020024B00221A70FFF7E5BE00BF34
:101A40004C0D0020024B01221A70FFF785BE00BF2B
:101A50005015002020B10368197001684A1C02600B
:101A600070472DE9F843141E8046894601DC202783
:101A70000FE0002219F8021009B10132FAE7A24280
:101A8000B4BFC2EB04040C4613F0020F0CBF2027B6
:101A90003027DB070CD42546002D05DD40463946AE
:101AA000FFF7D8FF013DF7E724EAE476A41B00E046
:101AB00000263546C6EB0903595D21B14046FFF7C4
:101AC000C9FF0135F6E72646002E05DD40463946BA
:101AD000FFF7C0FF013EF7E7002CACBF2819281C18
:101AE000BDE8F8832DE9FF470C9EDDF83480814680
:101AF0000C4651B930228DF804208DF8051032467D
:101B000001A94346FFF7ADFF35E033B10A2A04D1FE
:101B1000002902DA4C42012700E0002704AD00232F
:101B200005F8013DAA466CB1B4FBF2F302FB134485
:101B3000092C02DD0E993A396418303405F8014D4C
:101B40001C46EFE787B14EB118F0020F06D04846A9
:101B50002D21FFF77FFF013E012705E02D2005F134
:101B6000FF3A05F8010C00274846514632464346E5
:101B7000FFF777FF381804B0BDE8F087F0B589B0FB
:101B800006460D46059200242B7823B1252B79D1EA
:101B900068786A1C28B9002E7BD030680022027059
:101BA00077E025286DD02D2802D1AA1C012300E062
:101BB0000023174601323978302902D143F002035D
:101BC000F7E700223978A1F130005FFA80FC3D464A
:101BD0000137BCF1090F03D80A2505FB0202F1E722
:101BE000732909D1059F391D059139682A4F30465F
:101BF000002908BF394641E064290ED18DE80C0068
:101C0000059961230293081D096805900A22304650
:101C10000123FFF767FF241839E0782906D10599D9
:101C2000081D8DE80C000590612207E058290AD1B3
:101C30000599081D8DE80C0005904122029230465E
:101C4000096810220BE075290BD18DE80C0005996D
:101C500061230293081D096805900A22304600237B
:101C6000D7E7632913D10599081D0968059000205D
:101C70008DF81C108DF81D0007A93046FFF7F1FE06
:101C8000C9E7154630462978FFF7E4FE01340135EF
:101C90007AE7204609B0F0BD743800080EB40FB5DD
:101CA00005AA019052F8041B01A80392FFF766FFF2
:101CB00004B05DF804EB03B07047000040F0BF6073
:101CC000024B40F40031D960704700BF00ED00E0E6
:101CD00021F0604121F07F02014B10439860704772
:101CE00000ED00E0014B5861704700BF003C01402F
:101CF000024B1A6842F4006018607047003C0240D2
:101D0000024B1A6842F4805018607047003C024051
:101D1000044B1A69002A04DA034800F1883158603C
:101D200059607047003C024023016745024B1A6925
:101D300042F0004018617047003C0240014BD860FF
:101D4000704700BF003C02400B4BDA68D0030DD453
:101D5000D868C1060CD4D96811F0EF0F0AD1DB683E
:101D600013F0020F0CBF08200720704701207047B6
:101D70000520704706207047003C024007B5082345
:101D80008DF80730FFF7E0FF8DF807009DF807009A
:101D90000128F7D09DF807000EBD000070B505467C
:101DA0000E46FFF7EBFF082813D10A4C236923F4F2
:101DB00040702061216941F400722261236943F07F
:101DC000010020612E60FFF7D9FF216921F0010297
:101DD000226170BD003C024070B5064641B1012948
:101DE00008D0022914BF4FF440754FF4007503E08A
:101DF0000D4601E04FF48075FFF7C0FF08281ED1A3
:101E00000F4C236923F44070206121690D43256143
:101E1000226922F0F8032361206940F002010E4399
:101E20002661226942F480332361FFF7A7FF21690D
:101E300021F002022261236923F0F801216170BDC3
:101E4000003C0240F0B50E680022012303FA02F3C1
:101E500003EA06059D423ED107680C79530027FA34
:101E600003F707F00307A7420DD007684FF0030CF4
:101E70000CFA03FC27EA0C070760076804FA03FC66
:101E80004CEA07070760013C012C17D88768032438
:101E900004FA03F427EA040787604C79876804FA98
:101EA00003F43C438460446824EA05058C7945606A
:101EB000456804FA02F4A4B22C434460C5680324C4
:101EC00004FA03F425EA0405C560CD79C46805FA6F
:101ED00003F32343C3600132102AB6D1F0BD0021C1
:101EE0004FF6FF730360017141718171C1717047D9
:101EF00001F00703C908083130B59B0050F82150A4
:101F00000F2404FA03F425EA040440F8214050F8B1
:101F1000214002FA03F2144340F8214030BD000092
:101F2000044B1A6B09B1104301E022EA0000186368
:101F3000704700BF00380240044B5A6B09B1104390
:101F400001E022EA00005863704700BF00380240F9
:101F5000044B1A6C09B1104301E022EA0000186436
:101F6000704700BF00380240044B5A6C09B110435F
:101F700001E022EA00005864704700BF00380240C8
:101F8000044B1A6909B1104301E022EA000018610C
:101F9000704700BF00380240044B5A6909B1104332
:101FA00001E022EA00005861704700BF003802409B
:101FB000044B1A6A09B1104301E022EA00001862DA
:101FC000704700BF00380240044B5A6A09B1104301
:101FD00001E022EA00005862704700BF003802406A
:101FE0001C4A038890429BB212D002F58062904254
:101FF0000ED0B0F1804F0BD0A2F58032904207D0C6
:1020000002F58062904203D002F58062904203D1D3
:102010004A8823F0700313430F4A904208D002F518
:102020008062904204D023F440730A899BB2134328
:1020300003804B680A88C362064B0285984203D02E
:1020400003F58062904201D1897A0186012383825F
:10205000704700BF0000014000100040038819B124
:1020600099B241F0010303E023F001010A04130CCB
:102070000380704783899BB20AB1194301E023EAC8
:10208000010181817047038A828911EA030092B2BB
:1020900003D011420CBF002001207047C9438AB20F
:1020A00002827047D0F8E83510B5044618698047B9
:1020B000032184F81211002010BD08B590F81231E8
:1020C000042180F8133180F81211D0F8E805C268B5
:1020D0009047002008BD08B5D0F8E435D96901B1B2
:1020E0008847002008BD08B5D0F8E435196A88474C
:1020F000002008BD08B5D0F8E435596A88470020AB
:1021000008BD002110B5402204460B4600F068FFD0
:10211000802140220023204600F062FFD4F8E80529
:10212000012384F812314168A0788847002010BD4F
:1021300013B56946044600F023F99DF8001001F03C
:102140001F03012B0CD006D3022B0ED1204669466B
:1021500000F046F90EE02046694600F0BBF909E0C0
:102160002046694600F09EF904E0204601F0800117
:1021700000F0A8FF00201CBD70B50446002947D11F
:1021800090F81131022B37D1D0F83821D0F8243112
:102190009A4211D9D21AC0F83821C078012804D146
:1021A000D4F82811CB18C4F828312046D4F82811C7
:1021B00092B200F0B5F81FE0D0F83C51B5FBF3F651
:1021C00003FB16565EB99D4209D3D0F840219542D3
:1021D00005D2324600F0A4F8C4F840610CE0D4F80F
:1021E000E405C16829B194F81231032B01D12046CE
:1021F0008847204600F0B5F894F81621012A10D13E
:10220000094920690B680022436084F8162108E020
:10221000D0F8E4355B6923B190F81221032A00D18C
:102220009847002070BD00BFE01B002010B5044699
:1022300059BB90F81111032930D1D0F89023D0F870
:102240007C339A4214D9D21AC0F89023C07801285E
:1022500004D1D4F88013C818C4F880039A4228BF68
:102260001A462046D4F8801392B200F062F815E0C6
:10227000D0F8E4150B6923B190F81221032A00D19C
:102280009847204600F05EF808E0D0F8E4359B69F6
:1022900023B190F81221032A00D19847002010BDE5
:1022A0002DE9F041069F0446164698460D46FFF775
:1022B00099F920462946C4F8E485C4F8E875C4F8BD
:1022C000EC6500F042FED4F8E835186880472046F7
:1022D000BDE8F041FFF7D4B9D0F8E43510B50446B5
:1022E0001A689047D4F8E80581688847002010BD37
:1022F00008B5D0F8E4355A689047002008BD38B5D5
:1023000004460D46C4F83C21C4F838211346022285
:1023100080F8112100212A4600F0B9FE002038BDC6
:1023200010B50C4613460021224600F0B0FE0020F6
:1023300010BD10B50C4613460021224600F08AFE5F
:10234000002010BD0021042310B50A46044680F881
:1023500011310B4600F09BFE204600F0D8FD002016
:1023600010BD0021052310B50A46044680F811313E
:102370000B4600F06FFE204600F0C9FD002010BDA6
:1023800090F8CC350B7090F8CD254A7090F8CE358A
:1023900090F8CF2503EB02224A8090F8D03590F8D0
:1023A000D12503EB02228A8090F8D23590F8D3250C
:1023B00003EB022293B2CB800121C0F8403180F8B8
:1023C0001111704710B58021044600F07BFE2046B5
:1023D000002100F077FE2046BDE8104000F097BDD8
:1023E00070B54E788A88012E04460D46D3B211D0BE
:1023F00029D3032E51D190F81221022A2AD0032A80
:1024000049D14988A9B9A3B1802B12D0194600F04F
:1024100059FE0EE090F81221022A1BD0032A3AD16D
:102420004988002939D153B1802B08D0194600F0D2
:1024300067FED4F8E405294683682046984720467D
:10244000FFF780FF29E090F81251022D02D0032DF2
:1024500021D106E00BB3802B1FD0194600F032FECD
:102460001BE012F0800F4FF0280006D002F07F0230
:1024700000FB024191F81E3103E000FB034393F897
:102480007633074803B10123036005492046022241
:10249000FFF735FF01E0FFF795FF002070BD00BF9B
:1024A000A415002038B590F81231032B04460D46D0
:1024B0000CD10A79012A09D8D0F8E4359A689047F6
:1024C000E88828B92046FFF73DFF01E0FFF77AFFD3
:1024D000002038BD70B54B78052BA2B004460D46E0
:1024E00000F0838008D8012B00F01581C0F0DA805D
:1024F000032B40F03381E6E0082B00F0C58003D8C1
:10250000062B40F02B8106E0092B00F08E80552B26
:1025100040F024810FE14888010A4B1E062B00F28F
:102520001D81DFE813F007001A0027001B011B01C3
:102530001B011B01D4F8EC15A0780A680DF1060107
:1025400090470146E888402803D094F81231012BC7
:102550003BD10822ADF8062037E0D4F8E4050DF1B0
:102560000601826AA0789047022343700146C4F8AE
:10257000F0052AE0C1B2A07805291FD8DFE801F0F4
:1025800003070B0F1317D4F8EC25536812E0D4F8A7
:10259000EC158B680EE0D4F8EC35DB680AE0D4F873
:1025A000EC25136906E0D4F8EC154B6902E0D4F889
:1025B000EC2593690DF10601984705E0D4F8E43560
:1025C0000DF10602DB6A98470146BDF806000028B7
:1025D00000F0C880EA88002A00F0C480824228BF48
:1025E0000246ADF806202046B5E08A88002A40F071
:1025F000B580C988002940F0B1806E8890F812211A
:1026000006F07F03032A1E4600F0A88080F81431EC
:10261000194600F093FD2046FFF794FE0EB102200C
:1026200000E0012084F812019CE08B784F4A012BD6
:10263000137000F2938090F81221022A03D0032A2B
:1026400040F08E8008E0002B61D00121032380F848
:10265000101180F8123114E043B9022180F81211F0
:1026600080F810311946FFF743FE50E090F8101142
:1026700001294CD0FFF73CFE3C480178204684F805
:102680001011FFF729FE42E0CA88012A66D190F8AE
:102690001231022B04D0032B62D100F588715AE06D
:1026A000334958E090F81221931E012B58D8314835
:1026B000D4F81821002101600AB1022303602046EA
:1026C0002C49022247E04B88012B2DD0022B49D107
:1026D0008A8812F0FF0F45D10069110A4A1E43682B
:1026E000042A0FD8DFE802F0030507090B000120D8
:1026F00006E0022004E0032002E0042000E00520C0
:1027000060F306131C490B60012384F81631204640
:10271000FFF718FE26E090F81221931E012B1FD818
:102720004A88012A1ED10023D4F8E425C4F81831C0
:1027300093689847EBE70978C0290FD16B886BB98C
:10274000EE88802E0AD10D49324602A800F05AFFC9
:10275000204602A93246FFF7D2FD03E02046294673
:10276000FFF730FE002022B070BD00BFA015002092
:10277000A81500209C150020E01B00207B380008D5
:1027800030B5C0B10023C55CDCB20133002DFAD1F5
:10279000631C5B00138003220B704A700138022314
:1027A00010F8012F3AB15C1CCA54E2B20233002483
:1027B0008C54DBB2F4E730BD37B50023104C0193E5
:1027C00005460320FEF766FFE8680269013C0192B6
:1027D00013D001990029F4DA019B43F00102019220
:1027E0000199074A01610369013A019302D00199F5
:1027F000C907F8D40320FEF74DFF00203EBD00BFFF
:10280000410D030030B5C4786CB900EB820003338E
:10281000D0F8D0509B1022469A4204D051F82200A2
:1028200001322860F8E7002030BD10B50332D0F83F
:10283000D0409210002393424FEA830004D02068D6
:1028400041F823000133F6E7081810BDF0B5002366
:10285000012240240129C370827084800CD102239C
:10286000082604224FF4A0740372C17206704270ED
:10287000C4804FF0A04309E041B90C23C17203703A
:1028800006214FF4A065204B4170C58003F500611F
:1028900045780161C3600246194600240432AC4207
:1028A00001F1200608D201F5106701F530611165CC
:1028B000576101343146F1E703F5806403F588611F
:1028C00044610478C0F8CC10002203F5A061A24254
:1028D00006D200EB82050132C5F890102031F6E7F0
:1028E00003F580510022A24207D200EB820501329B
:1028F000C5F8D01001F58051F5E703F56063C0F825
:102900000C310020F0BD00BF0000044038B5037A50
:102910000025012B0446C3681FD1986B617A65F3CB
:10292000104009B140F480109863DA686FF38612A2
:102930006FF396526FF351426FF3D342DA60204641
:10294000FFF73AFFE378012B19D1052161F3440524
:10295000E06845F02005856011E0DA6842F040014A
:10296000D960FFF729FF607AE36800280CBF4FF4B5
:1029700034124FF474129A631420FEF78EFEE2783C
:10298000012A06D1E368996821F03E0040F02A024E
:102990009A60002038BDC3689A6842F001009860D0
:1029A00000207047C3689A6822F0010098600020F8
:1029B0007047000007B500230193019A42F02003FD
:1029C0000193019A094B61F38A120192C26801983E
:1029D00010611169013B019102D001988006F8D481
:1029E0000320FEF757FE00200EBD00BF410D03007F
:1029F00007B500230193019941F010020192C068CC
:102A0000019B074A03610169013A019102D0019BD0
:102A1000D906F8D40320FEF73DFE00200EBD00BF0E
:102A2000410D0300C26808B5D36801296FF35D73D7
:102A30006FF39E7302D143F0005302E009B943F0F3
:102A400080433220D360FEF728FE002008BDC36813
:102A5000586900F0010181F001007047C3685869AE
:102A600000F001007047C3685A69986910407047C8
:102A700003691A6861F301021A60704710B5C368F0
:102A800000226FF080414FF0FF349A6159615C6021
:102A900059610A499961C07890420CBF10211146D2
:102AA00041F4872040F00811986941F4401120EA70
:102AB000010001439961104610BD00BF000800806D
:102AC00038B5D0F80C31016900221A6015460A6841
:102AD00065F3CC220A60C37A012B04461BD1032183
:102AE000FFF7C6FFE068C02380214FF4800263F344
:102AF0000F05416261F31F4561F30F024FF4A071AE
:102B00008262C0F8045161F30F056FF31F45C0F8EE
:102B10000851C0F80C5110212046FFF74BFF20460A
:102B2000FFF766FF206900234FF0FF320361436126
:102B30008261C36161788B4214D204EB830201335A
:102B400090690168C1F3076202F08001CAB2002AED
:102B500014BF4FF09041002101600022FF2102616B
:102B60008160E7E700236078834214D204EB83009E
:102B70000133426D1168C1F3076000F08001C8B2F3
:102B8000002814BF4FF09041002111600020FF2168
:102B900010619160E7E723691A6942F48071196155
:102BA000E078012804D1054A402161F359421A63B3
:102BB0002046FFF763FF002038BD00BF030101007E
:102BC00003699868C0F341014B1E022B02D8024AE8
:102BD000D05C704703207047FB38000803698169A7
:102BE00010B59C680A68C4F34100022802D06FF354
:102BF0000A0202E0032060F30A020A60596841F405
:102C000080725A60002010BD30B54D780B780022DC
:102C1000012D00EB830405D105FA03F5A46965F3E2
:102C20000F0205E0012505FA03F3646D63F31F420B
:102C30002368C3F3072505F08005EDB26DB98D68F3
:102C400065F30A03CD78C98865F3934361F399531B
:102C500043F0805343F4004121600069C3691A4383
:102C6000C261002030BD30B54D780B780024012DB5
:102C7000224600EB830105D105FA03F3896963F36A
:102C80000F0205E0012505FA03F3496D63F31F42C6
:102C900000696FF3CF340C60C16921EA0202C2619E
:102CA000002030BD70B54E780A78012E0B4600EB3F
:102CB000820148D18D695C6929682A6964F312022E
:102CC00014B966F3DC420BE09E68A419013CB4FB26
:102CD000F6F6DC7866F3DC42012C08BF64F35E7222
:102CE0002A61C278012A06D11A7800EB82041A6997
:102CF000A46962610CE0DA78012A09D05A693AB114
:102D000002691C78556B012606FA04F42C435463BF
:102D1000DA78012A07D102699268D20554BF41F0DE
:102D2000005141F080511A7800EB820241F00441D9
:102D300092691160D978012937D1D9681A789B8AAC
:102D4000FFF760FD31E04D6D5E692A689C68296976
:102D50002EB964F31201012464F3DC410AE0361950
:102D6000013EB6FBF4F666F3DC41B605B60D7443DE
:102D700064F312012961C178012905D11C7800EBA7
:102D800084014C6D19696161D978012906D159799D
:102D900011B142F0005201E042F080521B7800EB8A
:102DA000830042F00441426D1160002070BD73B594
:102DB0004D78012D3DD183694A691E681C690094D4
:102DC000E4B242B962F306049DF802208DF8004097
:102DD00065F3C4020EE08D68AA428ABF4D6162F3BA
:102DE000060465F306049DF802208DF800400124D6
:102DF00064F3C4028DF80220009A1A61C278012A95
:102E000005D10C7800EB840294690A69626146F08E
:102E100004461E60C378002B34D14A69002A31D0A1
:102E200003690A78586B012101FA02F202435A63DE
:102E300028E00B784E6900EB8302536D8A681D68A9
:102E40001C690094E4B206B14A6162F306049DF87D
:102E500002208DF80040012464F3C4028DF80220A2
:102E6000009A1A61C378012B05D10A7800EB82031E
:102E70005A6D0B695361097800EB810045F00445F8
:102E8000426D156000207CBD4B780978012B00EB6A
:102E900081000DD180690368C3F3076202F08001ED
:102EA000CAB20AB143F0804343F40011016004E068
:102EB000436D1A6842F400111960002070474B7886
:102EC000012B0B78C97800EB83000CBF8269426D3F
:102ED0001368881E6FF35553012898BF43F0805341
:102EE00013600020704703699A69D8691040000C8C
:102EF000704700EB810102694B6D99685069084089
:102F0000704703699869D969084080B2704782B0F8
:102F100000230093C021012200238DF8031062F3E7
:102F2000C40318218DF802308DF80010436D009A0B
:102F30001A61C178012906D100F2CC5058611A6893
:102F40004FF080221A6002B0704710B50446FFF7B8
:102F50007DFC012384F81231002384F81431627857
:102F6000934213D2282202FB034101F58E72012005
:102F700081F81D0181F81C31A1F822314020002187
:102F8000D1709060D16051610133E8E7002360782F
:102F9000834213D2282101FB034000F55D7200211A
:102FA00080F87433A0F87A3380F8751380F87713BB
:102FB00040209060D16051610133E8E72046FFF77F
:102FC000F1FC2046FFF7A2FC00212046FFF72AFD76
:102FD0002046FFF775FD2046BDE81040FFF7DBBC3B
:102FE00070B5CDB201F07F044FF0280606FB040453
:102FF00015F0800F14BF04F58E7404F55D7401F0B4
:103000007F01ED0921706570A260E37005B1E18078
:10301000022B01D1002323712146FFF7F5FD00208B
:1030200070BD10B5CAB201F07F034FF0280404FB55
:10303000030312F0800F14BF03F58E7303F55D7365
:1030400001F07F01D20919705A701946FFF70BFE83
:10305000002010BD38B501F07F04282505FB0405CC
:1030600005F55D7185F874434B610023CA608B617F
:103070004B70C378012B05F55C7508BF0A6114B964
:10308000FFF795FE01E0FFF70DFE002038BD70B59B
:1030900001F07F04282505FB040505F58E71012646
:1030A000CA600A61002285F81C414E7005F58C75D6
:1030B0008A614B6114B9FFF77AFE01E0FFF7F2FD78
:1030C000002070BDCAB212F0800F10B54FF0280377
:1030D00006D001F07F0403FB040303F58E7303E0C5
:1030E00003FB010404F55D73D209012401F07F01A3
:1030F00019709C705A701946FFF7C6FE002010BD6B
:10310000CAB212F0800F10B54FF0280306D001F0BC
:103110007F0403FB040303F58E7303E003FB010448
:1031200004F55D730024D20901F07F0119709C70D1
:103130005A701946FFF7C3FE204610BD02690023EE
:1031400061F30A1311680B431360704703695A68EF
:1031500003206FF341025A60FEF79FBA03695A6871
:1031600042F0020058600320FEF797BA2DE9F04FB5
:1031700085B00446FFF76BFC08B900203AE2204610
:10318000FFF771FC07460028F7D0C0F3074A0AF0A2
:103190000800C0B2002856D02046FFF7A4FEA34680
:1031A000804626464FF00009B8F1000F4AD018F0CB
:1031B000010F3FD05FFA89F3194620460093FFF7CD
:1031C00098FE10F0010F0546009B20D0706D012580
:1031D0008560E178A94207D10269DBF87C13C2F36C
:1031E00012000A1ACBF88C237148016820460A683D
:1031F00019469047E378012B09D1B9F1000F06D1A8
:1032000094F81101052802D12046FFF780FE05F051
:103210000201CAB212B1736D02259D6005F008006B
:10322000C1B239B1624A15682046AB689847706DE3
:103230000821816009F101094FEA580804360BF1B1
:10324000280BB1E701200AF0040A5FFA8AF3002B89
:1032500000F0B1802046FFF754FE264681464FF02D
:103260000008B9F1000F00F0A58019F0010F00F07F
:1032700099805FFA88FA236904EB8A0019695D6B0B
:10328000826925FA0AF59068EA01D5B20D43054036
:10329000EA071BD5586B464A012505FA08F120EAD2
:1032A00001005863B36910689D6051464368204629
:1032B0009847E178A94209D1B8F1000F06D194F8F6
:1032C0001121042A02D12046FFF721FE05F0080053
:1032D000C3B213B1B16908258D6005F01002D0B2F8
:1032E00010B1B36910259D6005F04001CAB212B15A
:1032F000B0694025856005F00203D9B211B1B26909
:103300000225956025F07F0010F0FF0F4AD028239A
:1033100003FB084101F58C75019504356869AB69BB
:10332000AA68C11AB069914238BF0A4602F1030C7B
:1033300082694FEA9C0C93B2634530D9A9696A69E6
:1033400091422CD25AB3A868C1EB020B834528BF27
:1033500083460BF1030E4FEA9E0CE968CDF800C0DE
:1033600052461FFA8BF32046FFF74CFAEB68AA6926
:10337000DDF800C003EB0B010BEB0200E960A86174
:103380006969B36988429A69D5D301982569027938
:103390006B6B012101FA02F023EA00036B63B5694C
:1033A0008022AA6008F101084FEA5909043658E75B
:1033B000040000200120FDB205F00201CAB212B1E2
:1033C000E36802215961C7F3076202F08003D9B2B2
:1033D000C9B1A07A40B1D4F80C31D4F80C216FF304
:1033E00041036FF3000313602169844A486820F0A9
:1033F00001034B60116820468B699847E0684FF0E5
:10340000004242610120C7F3072808F00801CBB24F
:103410006BB37A4994F812210B6800208DF80F00E5
:103420008DF80F2020465A6990472069E36882682A
:103430004FF400615961A07AC0B1D30716D594F852
:103440001521012A12D19DF80F30032B0ED1D4F88B
:103450000C11086840F001020A600B6843F0030099
:10346000086067490A6942F006030B61012005F014
:103470000801CAB242B1614803682046D96888474A
:10348000E06808224261012005F01005EDB2002D30
:1034900035D0E668B36923F01001B161366A28229D
:1034A00006F00F00C6F3434302FB0045022B05F56F
:1034B0005D750DD0062B1CD104F2CC51204608229C
:1034C000FFF7B3F9A969C6F30A168819A86110E0D5
:1034D00047F6F072324062B1C6F30A16E968324626
:1034E0002046FFF7A2F9EB68A86999198619E960E7
:1034F000AE61E3689A6942F010019961012008F019
:103500001003DAB2002A34D026697068002520F052
:103510000101716020462946FFF74CFA23462A46EE
:1035200066780433B24206D25E69FF21B160186D3D
:1035300001328160F4E70126206966F30F050B2153
:103540004FF0FF3266F31F458261C5614161016141
:1035500003686FF30A1303602046FFF7D8FC27497E
:10356000E0680B684FF4805242611A692046904728
:10357000304608F020085FFA88F1E9B12046FFF7ED
:103580002DFBE5682046ED68FFF71AFB032806D1FE
:1035900000214FF40070A170A080092204E00120F6
:1035A0004023A070A3800522E36862F38D254FF4C9
:1035B0000052DD6001205A61C7F3074707F0100190
:1035C000CBB24BB10D4802682046D1698847E36809
:1035D0004FF480105861012007F02007FFB24FB16F
:1035E000064A116820460B6A9847E0684FF40012BB
:1035F0004261012005B0BDE8F08F00BF040000204B
:1036000000ED00E010B50023934203D0CC5CC4541D
:103610000133F9E710BD0000000002408000000007
:10362000000402400080000000040240200000006E
:1036300000000240200000000004024000200000C2
:1036400000040240080000000004024004000000E2
:10365000000C0240000800000004024000100000BE
:10366000000C024000040000000002400080000046
:103670000004024000010000FFFFFFFF0000000007
:1036800000000000004000080800000000000000EA
:1036900000800008100000000000000000C00008CA
:1036A00018000000000000000000010820000000D9
:1036B00000000000000002082800000000000000D8
:1036C00000000408300000000000000000000608B0
:1036D0003800000000000000000008084000000062
:1036E0000000000000000A08480000000000000080
:1036F00000000C08500000000000000000000E0850
:103700005800000000000000000002030301020353
:1037100003030303020203014D494F5333320053A5
:10372000544D33324634444953434F564552590061
:1037300053544D3332463478780025303878003F82
:10374000002564004D494F53333220426F6F746C33
:103750006F6164657200286329203230313420544F
:103760002E204B6C6F7365002025303258002020CE
:103770002000253038582000F000007E3200000084
:10378000B11500088D15000877140008000000002E
:103790007B1400087B150008691500080000000074
:1037A000000000000000000081140008351500082A
:1037B000040309041201000200000040C016FE03C9
:1037C00010100102030100005514000861140008E4
:1037D0003D150008C51400088D14000831150008B7
:1037E0002D1500083432006D696469626F782E6FA0
:1037F00072670009026500020104803209040000BA
:10380000000101000209240100010900010109046D
:103810000100020103000207240100014100062407
:10382000020101000624020202000924030103012F
:10383000020100092403020401010100090502023A
:10384000400000000005250101010905810240003A
:1038500000000005250101036D1400086F14000825
:10386000A9150008731400087514000871140008E5
:10387000A3150008286E756C6C2900D10FED54CF8C
:10388000C5FBB89752389138910E7D0FED389301F2
:10389000910E9100C11F020E91F7041040006E10AE
:1038A0006EE76A0000000000000000000000000059
:1038B0000000000000000000000400000000000004
:1038C000000000000000002F55461F00D848403778
:1038D0006AF76A00300000C7062E734A2C137BE992
:1038E0007F32002A280D9BFE0B21EF422A2F73B551
:1038F000B8DA76E679BF0FEB793E0B0201020000E1
:1039000010100000080000202D2200087921000876
:1039100031210008D720000803210008BB2000083F
:10392000A5200008E7200008F5200008000000009E
:103930000000000000000000FFFFFFFFFFFFFFFF8F
:10394000FFFFFFFFFFFFFFFFFFFFFFFFFFFFFFFF87
:10395000FFFFFFFFFFFFFFFFFFFFFFFFFFFFFFFF77
:10396000FFFFFFFFFFFFFFFFFFFFFFFFFFFFFFFF67
:10397000FFFFFFFFFFFFFFFFFFFFFFFFFFFFFFFF57
:10400000000002209DB7020899B70208C5A5020862
:1040100099B7020899B7020899B702080000000092
:1040200000000000000000000000000041B4020891
:1040300099B7020800000000B1B4020801B50208F7
:1040400099B7020899B7020899B7020899B7020808
:1040500099B7020899B7020899B7020899B70208F8
:1040600099B7020899B7020899B7020899B70208E8
:1040700099B70208B5F1020895F1020899B702084C
:1040800099B7020899B7020899B7020899B70208C8
:1040900099B7020899B7020899B7020899B70208B8
:1040A00099B7020899B7020899B7020899B70208A8
:1040B00091F80208B5F8020899B70208151103082B
:1040C00021110308FD1003080911030899B702081C
:1040D00099B702085D0E03082D0D03089D0D030816
:1040E00099B7020899B7020899B7020899B7020868
:1040F00099B7020899B7020899B7020899B7020858
:1041000099B7020899B70208D9F8020899B70208C6
:1041100099B70208AD0E030899B7020899B70208CB
:1041200091FC020899B7020875F1020899B70208D4
:1041300099B7020899B7020899B7020899B7020817
:1041400099B7020899B7020899B70208C9FF02088F
:1041500099B7020899B7020899B702080D0E03082B
:1041600099B7020899B7020899B7020899B70208E7
:1041700099B7020899B7020899B7020899B70208D7
:0841800099B7020899B7020883
:020000040801F1
:1000000008B506F0AFFC2BF0D5F81BF073FE2BF013
:1000100045F80248BDE808401BF0C6BC01000108D5
:1000200038B505460C4600F04FFB2146284605F042
:1000300003F82146284607F0E1FA2846214626F033
:10004000EBFD002038BD0000034B1B7813B10023EB
:1000500005F082BF704700BF2047012008B500F0BF
:100060001BFB002008BD27F08DBA10B50C4626F00A
:1000700061FE012802D1204631F006F9002010BDB2
:1000800010B54FF0FF301FF0EDF864201FF036FC84
:10009000404B41484149002402221C7002700C7000
:1000A000E0B2042101341FF051F9082CF8D10020EE
:1000B00008F0FEF800202CF09BFA00202CF060FCE9
:1000C00004201BF0CEF8364B186004201BF0C9F852
:1000D000344A106004201BF0C4F83349086004203F
:1000E0001BF0BFF8314B186004201BF0BAF8304AFF
:1000F000106030481CF01EFF2F481CF0C7FB2F4833
:100100001CF0BEFB2E481CF027FF002027F066F9EC
:10011000002000F075FA002026F0E4FC002001F039
:100120005DFA002005F07AF9002005F03FFA002082
:1001300005F08CFB002007F007F9002005F0F4FC27
:10014000002005F003FF002007F0F4F8002005F080
:10015000ABFF002006F05AF9002028F0FBFF00203A
:1001600019F03CFA002027F08DFA002008F0DAF9A7
:10017000002008F077F9002031F062FA002000F04A
:10018000F5FA10F00FFA2AF089FF0E48BDE810408A
:100190001BF00ABC2047012028470120E000002076
:1001A0001C47012030470120244701201847012027
:1001B0002C470120210001086B000108670001089D
:1001C0005D000108010001082DE9F04108F0E6F8A2
:1001D0001EF03CFA002506462C461EF037FAB042C7
:1001E000FBD01EF033FA06462BF0AAF827F0A8F948
:1001F000304610F05AFA00F0D7FD6B4B1878002803
:1002000040F08A800134A4B2B4F57A7FC0F08480D3
:100210006649086801211BF0CDF80128F8D12FF0BC
:1002200071FB0128074612D12FF0E4FB014660481C
:100230001CF066FA31F030F9384608F091F938468A
:1002400004F0A2FA4FF47A7410F026FA60E0022863
:100250001ED158481CF054FA08F09CF931F01CF9F2
:10026000554808F0F9F9554F012138681BF0A2F8FC
:100270000128F8D100200146024607F023FB504830
:1002800007F01AFC07F044FC38681AF0D5FF3EE08E
:1002900003283CD12FF08EFB98B94A481CF030FA65
:1002A000454808F0D9F9454C012120681BF082F837
:1002B0000128F8D100200146024607F003FB404820
:1002C00015E02FF07DFBD0B93F481CF019FA3F48EC
:1002D00008F0C2F9394C012120681BF06BF80128A5
:1002E000F8D100200146024607F0ECFA384807F042
:1002F000E3FB07F00DFC20681AF09EFF04E00020ED
:1003000008F0AAF908F054F9324B01221A700024BF
:10031000264800681AF090FFDFF88C8098F80010EB
:1003200000293FF45AAF214A012110681BF042F81E
:100330000128F8D198F800301B4F022B1FD0032B57
:1003400002D0012B24D103E01FF0C2FE00231EE0E7
:10035000214D012128681BF02DF80128F8D100203B
:1003600031F094F90028104801DB022100E003215C
:10037000194A017010681AF05FFF002508E031F09B
:1003800088F955B1002031F087F908B903233B7093
:10039000064F38681AF050FF1FE7284631F07CF905
:1003A000051C18BF0125F3E7E00000201C470120D1
:1003B000B4350408CB350408E1350408184701209A
:1003C000EC350408003604081336040839360408EE
:1003D00040360408204701202C47012008B51EF0B4
:1003E0009FFFC14301201EF069FF0A4B187880B1BE
:1003F00006F058FB06F064FE06F014FC05F078FDEC
:1004000005482CF07DF91EF021F9BDE8084010F0F8
:100410004BB908BD204701204900010807F0D2BFB1
:1004200038B5C1F30723F72B05460C4609D801F070
:100430000F000F2809D001F10C0101F00F02032A6F
:1004400003D92846214604F01FFB2846214610F018
:10045000E3FA2146284606F0A7FF2146284626F063
:100460005DFB2846214627F0C7F8102D05D0B5F1D1
:100470002003584250EB030200E0012228462146A7
:10048000BDE8384027F0CCBB70B5164B187840B3A8
:100490001BF054FA00240646134901EB4402557838
:1004A000E5B1B5421AD811F8143003F00300012861
:1004B0000ED0022812D10D490D4B0A78751B05EBA1
:1004C00042150C4A595DE0B2515C05F0AEF905E009
:1004D000E0B205F09DF9013D074B58550134022C5F
:1004E000DAD170BD20470120D84A012024A601207E
:1004F00025A60120A6F5040825AA0120024B1A789A
:100500000AB104F091BF704720470120013805F07F
:1005100021BA0000034B1A7812B1002205F046BC44
:10052000704700BF2047012010B504461EF0ECF9CB
:10053000084B19781A4611B90CB1012005E013785F
:10054000022B03D114B9034B032018701EF0F0F9ED
:10055000002010BDE0000020034B1878821E51429D
:1005600051EB0200704700BFE0000020074B1A6803
:1005700010B51C4642B10648017829B9012120680E
:100580001AF018FF0128F9D110BD00BF2C47012037
:10059000E0000020044B186820B104490A780AB929
:1005A0001AF04ABE704700BF2C470120E00000202F
:1005B000054B1A6810B51C462AB1012120681AF0B3
:1005C000F9FE0128F9D110BD24470120024B18681B
:1005D00008B11AF031BE70472447012008B5044B1A
:1005E000012118681AF0E6FE0128F8D108BD00BF05
:1005F00030470120014B18681AF01EBE3047012019
:1006000020B9044B04491870087070474FF0FF3050
:10061000704700BFE2000020E40000207FB5F02317
:100620008DF8043000238DF805308DF806308DF8F4
:1006300009107E23F7218DF807308DF80A2050230A
:100640008DF80B10082201A98DF808301BF032FF3D
:1006500007B000BD10B50D4C21780F2907D1012836
:1006600012D90B4B00221878FFF7D8FF0CE0084B8B
:100670000E210C221878FFF7D1FF064802780021DE
:100680006FF3070202702170002010BDE10000200E
:10069000E2000020E4000020084B1A7802F08001FC
:1006A000C9B249B106490978814205D16FF3070201
:1006B0001A70044B0020187000207047E4000020DE
:1006C000E2000020E100002038B5244B244C1B78C8
:1006D00023F07F0505F0FF0215B1257885423BD157
:1006E0002070B2B91D4B1C6804F007001D4C245C3F
:1006F0008C42197801D01A701CE0421C02F00700ED
:1007000060F302010528197026D1C9B241F08002B8
:1007100011E00A0611D5F72906D103F04001C8B24D
:1007200010B10220FFF796FF0C4B1A786FF3070207
:100730001A7000220C4B1A700EE003F04000C0B299
:1007400038B9064B1A7842F040021A70064B1970FD
:1007500000E00120FFF77EFF012038BDE40000200B
:10076000E200002057360408E1000020F0B50446FE
:1007700085B0002840F0DC806F4D14201BF0FCF8A1
:1007800020201BF0E1F821462846082232F03AFEEC
:100790006A4804606A4C0123AB7004F180010026B2
:1007A000082204F8062C04F8056C24F8086C04F8F8
:1007B000046C04F8036C04F8026C04F8016C08344F
:1007C0008C42ECD15F4F07F1E0050024082307F8C5
:1007D0000C3C07F80B4C27F80E4C07F80A4C07F8AE
:1007E000094C07F8084C07F8074C07F8064C07F8BF
:1007F000054C07F8024C0E37AF42E6D15248047060
:100800001F201FF0E3F8504901EB840640F6FF7506
:10081000B2886FF30B02B280776865F317377760A1
:10082000F37901346FF30003082CF371EBD1002648
:1008300034464FF482726243444B995C072066F35E
:100840000001E5B260F34401D15428460021D718D5
:100850002BF094FE012128462BF0B4FE1F212846E0
:100860002BF02CFF284640212BF00EFF002207EB37
:10087000820340F6FF709D886FF30B059D805968D9
:1008800060F317310D0E01326FF30005402A5960F5
:10089000DD71ECD10134022C86F00106C9D12C4B5C
:1008A0002C49002468461C700C702CF077F9082045
:1008B0008DF800408DF801009DE80F002CF052FAF1
:1008C00020462CF09BF820462AF05AFB224B0521AB
:1008D000642299819A82A3F82411A3F82C215C70D8
:1008E0005C719C71DC711C72DC8183F8194183F8A6
:1008F0001D4183F81E4183F81F4183F82041A3F86E
:10090000264101202AF03CFB144803784178827884
:1009100064F301030370C37864F3070164F3010215
:1009200064F3070341708270C3706D46204601E096
:100930004FF0FF3005B0F0BDDE4A012050BB012072
:100940003C470120FE470120B4470120D048012048
:10095000DD4A0120DC4A01206CC50120D84A012073
:1009600070B504460FF008FE0F4D012128681AF0FB
:1009700021FD0128F8D120460DF0E6F80646204674
:100980000DF040FC20464FF0FF310EF027F900211A
:100990000A460B4620460FF0CFFD28681AF04CFCA3
:1009A00003F0C6FE304670BD1C47012038B5054631
:1009B000074C012120681AF0FDFC0128F8D12846D7
:1009C0000DF05EF9054620681AF036FC284638BD61
:1009D0001C470120F0B5534A0388841A4FF6FF756F
:1009E000AC4228BF2C460C810B804668CE608389C0
:1009F0000B824288448A4A808C82457E81F831503D
:100A0000068A4E81836800224B62CA83847E81F805
:100A10003240C57D8D62C67D0EB100F11B06CE62EF
:100A2000047E1CB1C37D00F11B02D4188C63C27D0F
:100A3000057E00F11B06C089AD18C2B202F00404A5
:100A4000E4B2731964B19C785F78755D240444EA5C
:100A500007242C43DD7844EA05644C60043300E04D
:100A60004C6012F0010404D05D7813F8024B44EAA4
:100A700005244C8202F00204E4B22CB15D7813F834
:100A8000024B44EA052401E04FF6FF74CC8202F0E9
:100A90000804E4B224B15D7813F8024B44EA05245B
:100AA0000C8302F01004E4B22CB15D7813F8024B11
:100AB00044EA052400E07F244C8302F02004E4B2E1
:100AC00024B15D7813F8024B44EA05248C8302F0CC
:100AD0004004E4B224B15D7813F8024B44EA0524E3
:100AE0000C8432F07F0218BF13F8012B81F83020FC
:100AF000C0F3072212F0010018BF13F8010B81F8B0
:100B0000330012F0020018BF13F8010B12F00402B8
:100B100081F8340016BF1B7881F8352081F8353014
:100B20000020F0BD7C02002073B50025144B0E227E
:100B300002FB0530017B21B90135102DF6D10020D3
:100B40007CBDA1F11003032B02D801F0030006E0E5
:100B5000A1F12002032AEFD801F00304201D094E61
:100B6000002406EBC0067F21335D0091A2B2002174
:100B7000E8B2013405F0C4FE082CF4D1DCE700BF74
:100B8000F04701207E02012010B50446806B10B1B1
:100B900032F088FC0130A36A6168C01809B91B30C3
:100BA00000E01F30628A02B10230E18AB4F91820F5
:100BB0004FF6FF73994218BF023002B10230B4F908
:100BC0001A10B4F91C307F2918BF023003B102306B
:100BD000228C02B1023094F8301001B1013094F847
:100BE000333003B1013094F8342002B1013094F86D
:100BF000351001B1013010BD70B503880B8004467B
:100C0000C06848600D46218AA9816288A68A6A80E8
:100C10006E8294F831306B7660892882616AA960AF
:100C200094F83220AA76A06B10B132F03BFC013070
:100C3000A36AE26AC61802B1DAB2EA75287622B16E
:100C400005F11B00E16A32F0BAFB2A7E32B1E97D80
:100C500005F11B004018A16B32F0B1FB0020EB7DC9
:100C60002A7EE881606805F11B01D2188B1810B943
:100C700006F11B020FE0A87B40F00400A873606837
:100C8000885461680A0A5A70E0889870E17906F120
:100C90001F02D9700433608A50B1A97B41F0010072
:100CA000A873618A1970608A010A5970023202338E
:100CB000E08A4FF6FF7188420AD0A87B40F002011B
:100CC000A973E08A1870E18A080A58700232023368
:100CD000B4F9181051B1A87B40F00801A973208B1A
:100CE0001870218B080A587002320233B4F91A10B6
:100CF0007F290AD0A87B40F01001A973608B18707F
:100D0000618B080A587002320233B4F91C1051B1D9
:100D1000A87B40F02001A973A08B1870A18B080A52
:100D2000587002320233218C51B1A87B40F040014F
:100D3000A973208C1870218C080A58700232023373
:100D400094F8301041B1A87B40F08001A97394F869
:100D5000300003F8010B013294F8331041B1E87B05
:100D600040F00101E97394F8330003F8010B0132FC
:100D700094F8341041B1E87B40F00201E97394F833
:100D8000340003F8010B013294F8351039B1E87BD7
:100D900040F00401E97394F8350001321870002026
:100DA000A882AA7570BD0000214B1A88501C81B220
:100DB000B1F57A7F70B501D219800BE000221A805C
:100DC0001AF056FB1B481C494FF6FF7303800B803B
:100DD0001AF05EFB194B1A88501C81B2B1F5967F50
:100DE000198023D3164A0020188002F14004A2F192
:100DF000080313F8011B11F07F0509D00A3D21F00B
:100E00007F06002DACBF354346F0000503F8015CBA
:100E100013F8015C8D4218BF01209342E9D103F120
:100E20000802A242E3D108B1FFF77EFE002070BDA8
:100E3000C0020120F4000020C60301207801002038
:100E400086020120084B094900201880084B0880C1
:100E50001880084B08491880084B08800121197038
:100E600007490870704700BF7C020120C2020120C0
:100E70007A010020E84A0120EA000020E64A012029
:100E8000EA4A0120F0B5124B12481D880678124B31
:100E900000221146A94216D2587E5C7960B1B0EBAF
:100EA000060CDCF1000757EB0C0767F345145C7187
:100EB000824238BF024602E044F020045C71987D13
:100EC00001311B18E6E7054900200A70F0BD00BF9C
:100ED0007A010020E64A01207C020020EA4A012033
:100EE000024B034819881BF05BBC00BF7C02012049
:100EF0007C020020F0B51D4B1988A1B019B91C481F
:100F00001BF0FEFB2FE01B481B4C1BF0F9FB1B48A2
:100F1000018800266418154A13889E4223D2684629
:100F20001749627820F02AFAA71C0225207885420A
:100F30000BDA102D0BD07B196846124913F8023CCE
:100F40006A4620F01BFA0135F0E7102D04D16846FF
:100F50000D496A4620F012FA68461BF0D1FB217851
:100F600001366418D7E7002021B0F0BDEA00002068
:100F7000CC380408DD3804087C020020C2020120BD
:100F8000EF380408F5380408FB380408014B1888CA
:100F9000704700BF7A010020014B1888704700BFDE
:100FA000EA000020014B1888704700BF7C02012036
:100FB0004FF4803070470000F8B50F4E34884FF67C
:100FC000FE73A7189F42154612DC0C4B1F88013791
:100FD0001F800B4F02F1020E3B1907F804E00234A8
:100FE00058702D19981C32F0EAF935800020F8BDB0
:100FF0006FF00100F8BD00BF7C020120EA00002074
:101000007C0200200C4B0D4A30B51C8813190C4C87
:1010100024880022A2420BD25D78854204D1981C1C
:1010200008601978881E30BD1D7801325B19F1E720
:101030004FF0FF3030BD00BFC20201207C02002013
:10104000EA00002010B504460020884204DA235C40
:1010500093420FD00130F8E700238B4207DAE05CBF
:10106000904202D92BB1581E10BD0133F5E7481E3E
:1010700010BD184610BD0000014B1878704700BF26
:10108000E64A01200D4B30B51C880D4B0022A242D0
:1010900011D259880905B0EB115F08D1597E31B1E1
:1010A0005D7905F02005EDB20DB1084630BD997DA2
:1010B00001325B18EBE7002030BD00BF7A01002051
:1010C0007C020020038803F47041B1F5C04F1DD0AD
:1010D0000CD8B1F5405F19D002D8B1F5805F14E0AB
:1010E000B1F5804F12D0B1F5A04F0EE0B1F5104F21
:1010F0000CD005D8B1F5E04F08D0B1F5004F04E0B1
:10110000B1F5204F02D0B1F5304F08D1007B00F08F
:101110000F02501E082894BF0020012070470120B4
:10112000704730B54FF6FF740180418001F4704183
:101130000023048141F21105C4827F24B1F5E04F00
:10114000C360038245814382436083820383448377
:10115000838343620384836280F8303080F83130C7
:1011600080F8323080F8333080F8343080F8353011
:10117000C36283630FD007D8B1F5405F1CD1037CF5
:10118000012262F3010316E0B1F5004F0FD0B1F573
:10119000104F11D10BE0017C027B012363F30301AB
:1011A00063F3071263F306110273017404E0037C16
:1011B000012161F303030374002030BD0A4B1A8838
:1011C000904210B50DD2094B00229C7D0132824223
:1011D0001C4401D82346F8E71846FFF7FBFB002024
:1011E00010BD4FF0FF3010BD7A0100207C020020BE
:1011F0002DE9F0418046FFF7C7FCFF28054624D8BB
:10120000164B1E888019B0F5803F22D814490C88EF
:10121000B44206D2134A2F19D0191119321B32F0D9
:10122000D7F8104B1F1939464046FFF7E5FCB87D4B
:101230000D4B0A491A8836180E800949501C64194A
:1012400018800C800020BDE8F0814FF0FF30BDE831
:10125000F0816FF00100BDE8F08100BF7C02012049
:10126000C20201207C0200207A0100202DE9F04713
:101270002F4B304C1A88A2B00546002393424FD220
:1012800020882988884247D1A86B20B132F00AF91A
:1012900000F1010800E080462846FFF775FCFF28B2
:1012A00041D8A27D861A06D423490B889919B1F535
:1012B000803F38DC5EB307192048B8F17F0F04EB9C
:1012C0000209C7EB000A02D91D481BF019FAA96BE5
:1012D00039B10DF10408404632F0DCF8C5F8388029
:1012E00001E08DF8041052464946384632F070F855
:1012F00021462846FFF780FC0F4B1A88B6B2B1187A
:101300001980104B188836181E8000200DE02846E2
:101310002146FFF771FCF8E7A07D01332418ADE703
:101320004FF0FF3001E06FF0010022B0BDE8F08720
:101330007A0100207C0200207C0201207C02012036
:1013400002390408C2020120F8B51568144C16468B
:1013500015B114FA85F42D0C124B1F88BD421BD217
:101360002288824214D120460135FFF733FBBD426B
:10137000A07D05D20A49421AA418B4F5803F02D3D1
:1013800000203060F8BD44EA054434600020F8BD18
:10139000A37D0135E418E1E74FF0FF30F8BD00BF51
:1013A0007C0200207A010020F8B51568164C16461C
:1013B00015B114FA85F42D0C144B1F88BD4220D2B0
:1013C000627902F02003DAB2BAB16388834214D1A1
:1013D00020460135FFF7FEFABD42A07D05D20A493D
:1013E000431AE418B4F5803F02D300203060F8BD02
:1013F00044EA054434600020F8BDA27D0135A418FC
:10140000DCE74FF0FF30F8BD7C0200207A010020BD
:10141000F0B51D68114C15B114FA85F42D0C104E61
:101420003688B54217D227880780608A0880A17E57
:1014300001351170B542A07D05D2084A811A6418A1
:10144000B4F5803F02D300201860F0BD44EA0544A3
:101450001C600020F0BD4FF0FF30F0BD7C0200208A
:101460007A0100200389094AD118838A4B82427B82
:1014700002F00803DAB212B190F8320088764B79A4
:101480006FF382034B710020704700BF7C02002085
:101490000389044AD018437961F38613437100200D
:1014A000704700BF7C02002030B503791B0791B064
:1014B000044651D040682A49014071B10025C0F36B
:1014C0000D1001A96A460095FFF73EFFA84201DA18
:1014D000284642E0BDF8183000E0A38A227902F0E5
:1014E0000F00421E072A35D8DFE802F0040B11185E
:1014F0001D242930E088B3EB900F14BF0020012099
:101500002BE0E188B3EB910F24D1022025E0E288A3
:10151000B3EB920F0CBF002001201EE0E088B3EB7C
:10152000900FF2D116E0E188B3EB910FACBF002031
:10153000012012E0E288B3EB920F0BDAE5E7E088D6
:10154000B3EB900FCCBF0020012006E0E188B3EBA5
:10155000910FDADD002000E0012011B030BD00BFA6
:10156000F0FF030010B500230749002201EBC30080
:10157000002484540132082AFAD10133082BF3D114
:10158000FFF7D2FA204610BD7E0201200A4B0B491C
:101590000B4A187000204FF6FF730860138009494A
:1015A000094A0B8010700949094A087010700949EE
:1015B000094A0B8013807047F0000020EC000020E7
:1015C000F20000207401002076010020C4030120F5
:1015D000F100002046040120BE02012030B504467F
:1015E0009BB0002840F0C480FFF72CFC624D634B99
:1015F000634A64481C804FF6FF7104801180298083
:10160000FFF7B0FF2046FFF7C1FF012404F5405368
:1016100099B20BA8FFF785FD9DF83810022262F3FE
:10162000030104F1230344F480409025ADF83E000B
:101630008DF83810D8B28DF8005000A905AD8DF89E
:10164000010016918DF85E004F491592284631F041
:1016500021FF01340BA81995FFF7CAFD412CD5D104
:10166000012404F5E04291B20BA8FFF75AFD9DF862
:101670003800042161F30300B02504F10F0244F4A3
:10168000C04302218DF838008DF8005000A805AD48
:10169000ADF83E301690D3B2159128463B498DF8EF
:1016A00001308DF85E30013431F0F4FE0BA819954D
:1016B000FFF79EFD412CD4D1002001212AF05EFFCE
:1016C00049F2010421460BA8FFF72BFD9DF83830A5
:1016D00004F10F01CDB2042262F30303B1208DF8AF
:1016E00001508DF85E5005AD02228DF838308DF82E
:1016F000000000AB2649169328461592013431F0BC
:10170000C9FE0BA81995A4B2FFF772FD49F241007A
:101710008442D7D148F2010421460BA8FFF701FD0E
:101720009DF83810042363F3030104F10F05E8B2B8
:101730008DF8381005AD00A9B22202238DF8010002
:1017400016918DF85E0013498DF8002028461593F8
:10175000013431F09FFE0BA81995A4B2FFF748FDA4
:1017600048F207029442D7D1FFF78CFB002001E03A
:101770004FF0FF301BB030BDC60301207C010020BC
:10178000F4000020C40201202F390408383904086D
:10179000413904084B39040800F47040B0F5C04FDB
:1017A00030D011D8B0F5405F26D006D8B0F5805FB4
:1017B00036D0B0F5005F1BD11CE0B0F5804F1DD0D6
:1017C000B0F5A04F14D11BE0B0F5104F20D006D8D3
:1017D000B0F5E04F18D0B0F5004F09D116E0B0F5E4
:1017E000304F19D0B0F5404F18D0B0F5204F11D080
:1017F0000C4870470C4870470C4870470C487047BD
:101800000C4870470C4870470C4870470C487047AC
:101810000C4870470C4870470C4870470C4870479C
:101820000C487047BB390408CB390408D439040884
:10183000C0390408DB390408E9390408F43904081C
:10184000F8390408FC390408033A0408063A040885
:10185000093A0408C439040830B5A04B1978A5B07A
:101860000446002900F0E8809D4A1368002B00F030
:10187000E380002506A903AA0395FFF795FDA8427A
:101880003DDA984B1878032808D92046FFF784FFE3
:1018900022050146120D94481AF032FF00210491EE
:1018A000204615A904AAFFF74FFD8E4B0028187893
:1018B00014DB032808D92046FFF76EFF22050146F6
:1018C000120D8A481AF01CFF0134A4B22105E7D199
:1018D00087481AF015FF4FF0FF302CE1032808D994
:1018E0002046FFF759FF250501462A0D81481AF0C9
:1018F00007FF06A82146FFF714FC012535E09DF8F7
:10190000240000F00F010A2912D1109921B1119B76
:101910001878132800F09080724A1178032940F259
:101920008D802046FFF738FF2205014672480BE004
:101930006C4A0B2913780BD1032B7FD92046FFF774
:101940002BFF01466D482205120D1AF0D9FE75E0F5
:10195000032B0AD92046FFF71FFF01462005020D81
:10196000009267480B461AF0CBFE5C4A11780129B9
:1019700003D0644B1878072831D05948016801F02A
:101980000F03A3F10802062A00F2CC80DFE802F080
:1019900004040404171717009DF82420073B63F381
:1019A00003024F4B8DF8242005A911915A7899789C
:1019B0008DF81420022010908DF8151029E09DF864
:1019C0002410D81F60F3030145488DF82410417896
:1019D000012305AA109311928DF8141031E09DF89F
:1019E0002410092262F3030104238DF824101093BC
:1019F0003B49454B4A7805A8119018888DF814206A
:101A0000C1B2020A01238DF815108DF816208DF849
:101A100017308DF84A1014E0324B1A78032A08D98F
:101A20002046FFF7B9FE014638482205120D1AF08C
:101A300067FE0020FFF7AAFD00207CE06FF00100A8
:101A400079E0334801884FF6FF72914243D08BB260
:101A50003048ADF830300188914214BF89B27F21FF
:101A6000ADF8321095B19DF8250040F0200106A890
:101A70008DF82510FFF7BCFB0028CDDA2046FFF7D4
:101A80008BFE230501461A0D234813E006A8FFF735
:101A9000EDFB002814DA01304FEA0455204604D14A
:101AA000FFF77AFE01461D4803E0FFF775FE014689
:101AB00019482A0D1AF024FE0020FFF767FD38E0D0
:101AC000084A1378032BB4D92046FFF765FE220598
:101AD00001461348AAE70023BAE700BFF000002040
:101AE000EC000020284701200C3A04083E3A040884
:101AF0007B3A0408A23A0408CF3A04081E3B0408C3
:101B00006D3B0408F100002046040120103C04084D
:101B1000F200002074010020D43B04083E3C04087D
:101B20008E3C040805480178032902D904481AF0BC
:101B3000E7FD6FF0020025B030BD00BF284701204F
:101B4000AC3B040810B53649044631F06DFC002862
:101B500045D02046334931F067FC002842D020466A
:101B6000314931F061FC00283FD020462F4931F047
:101B70005BFC00283CD020462D4931F055FC002864
:101B800039D020462B4931F04FFC002836D0204672
:101B9000294931F049FC002833D02046274931F04B
:101BA00043FC002830D02046254931F03DFC002878
:101BB0002DD02046234931F037FC00282AD020467A
:101BC000214931F031FC002827D020461F4931F04F
:101BD0002BFC00280CBF4FF44040002010BD4FF4F8
:101BE000805010BD4FF4005010BD4FF4405010BD58
:101BF0004FF4804010BD4FF4A04010BD4FF4C040E2
:101C000010BD4FF4E04010BD4FF4004010BD4FF444
:101C1000104010BD4FF4204010BD4FF4304010BDB7
:101C2000C4390408CB390408D4390408C03904087D
:101C3000DB390408E9390408F4390408F8390408E0
:101C4000FC390408033A0408063A0408093A04086F
:101C5000037B03F00F00411E0A2903D8024A52F801
:101C6000210070470148704794380408BD3C0408BF
:101C700010B52F49044631F0D7FB002844D0204648
:101C80002C4931F0D1FB002840D020462A4931F0C0
:101C9000CBFB00283AD02046284931F0C5FB00286C
:101CA00036D02046264931F0BFFB002832D02046EE
:101CB000244931F0B9FB00282ED02046224931F0CA
:101CC000B3FB00282AD02046204931F0ADFB002884
:101CD00026D020461E4931F0A7FB002822D02046FE
:101CE0001C4931F0A1FB00281ED020461A4931F0D2
:101CF0009BFB00281AD02046184931F095FB00289C
:101D00000CBF0B20002010BD012010BD022010BD13
:101D1000032010BD042010BD052010BD062010BDFD
:101D2000072010BD082010BD092010BD0A2010BDDD
:101D3000C63C0408CE3C0408D53C0408DA3C040840
:101D4000E73C0408EA3C0408F83C0408033D0408A6
:101D50000D3D0408133D0408183D04081D3D04080A
:101D6000037903F00F00411E072903D8024A52F8F5
:101D70002100704701487047D43604086E450408B6
:101D800010B51D49044631F04FFB30B320461B49C6
:101D900031F04AFB18B32046194931F045FB00B336
:101DA0002046184931F040FBE8B12046164931F091
:101DB0003BFBD0B12046154931F036FBB8B1204687
:101DC000134931F031FBA0B12046124931F02CFB10
:101DD00000280CBF0820002010BD012010BD0220EB
:101DE00010BD032010BD042010BD052010BD06202D
:101DF00010BD072010BD00BF243D04082C3D040881
:101E0000223D04082A3D0408403D0408453D0408DD
:101E1000583D0408623D0408037CC3F30100411EE1
:101E2000CBB2022B03D8034A52F823007047024872
:101E3000704700BFC03804087A3D040810B50B494C
:101E4000044631F0F1FA68B12046094931F0ECFA64
:101E500050B12046074931F0E7FA00280CBF0320B3
:101E6000002010BD012010BD022010BDBB3D0408A4
:101E7000843D04088B3D0408037CC3F30300411E2A
:101E8000CBB2042B03D8034A52F823007047024810
:101E9000704700BF504A04087A3D040810B5124943
:101EA000044631F0C1FAB8B12046104931F0BCFA0D
:101EB000A0B120460E4931F0B7FA88B120460D494D
:101EC00031F0B2FA70B120460B4931F0ADFA00287A
:101ED0000CBF0520002010BD012010BD022010BD48
:101EE000032010BD042010BD923D0408993D040854
:101EF0009E3D0408A73D0408B03D0408007C044B47
:101F0000044A010901290CBF10461846704700BF5A
:101F1000C13D0408B73D040810B50749044631F037
:101F200083FA38B12046054931F07EFAD0F101003C
:101F300038BF002010BD00BFC13D0408B73D0408F4
:101F40000138C1B2062903D8024B53F8210070476B
:101F500001487047084A04087A3D040810B5194939
:101F6000044631F061FA08B32046174931F05CFAB3
:101F7000F0B12046154931F057FAD8B1204614493E
:101F800031F052FAC0B12046124931F04DFAA8B1F1
:101F90002046114931F048FA90B120460F4931F0FE
:101FA00043FA00280CBF0720002010BD012010BDFF
:101FB000022010BD032010BD042010BD052010BD5F
:101FC000062010BDC63D0408E53D0408CF3D0408C9
