:1000000000800010CD0000001B0100001B0100005B
:100010001B0100001B0100001B010000AC79FFEF79
:100020000000000000000000000000001B010000B4
:100030001B010000000000001B0100001B0100006C
:100040001B0100001B0100001B0100001B01000040
:100050001B0100001B0100001B0100001B01000030
:100060001B0100001B0100001B0100001B01000020
:100070001B0100001B0100001B0100001B01000010
:100080001B0100001B0100001B0100001B01000000
:100090001B0100001B0100001B0100001B010000F0
:1000A000AD1D00001B010000F11800001B01000045
:1000B0001B0100001B0100001B0100001B010000D0
:1000C0001B0100001B0100001B010000684620F01E
:1000D00007018D4601B50B4A0B4B0C4903E052F862
:1000E000040B43F8040B8B42F9D3094B0949002256
:1000F00001E043F8042B8B42FBD302F0FBFD00F040
:100100000DF8FEE7003100000000001010000010A4
:1001100010000010701600107047FEE7F7B50020C1
:1001200001F042FB002001F015FD012001F0C3FCAD
:10013000E34BDFF890C31A68012522F440021A60ED
:100140001A6803241A60E04A116821F00061116006
:100150001A6C22F440021A641A6C1A6400230CEB25
:10016000030040781CF8032005FA00FE060900F0A1
:100170000F00400014FA00F002F1807102F10062F9
:1001800001F59C4102F5B042490106EB4202C1F87B
:1001900018E092001668023326EA0000106010682A
:1001A000062B10600A684EEA020EC1F800E0D6D1B4
:1001B000DFF818C30023012503240CEB030040786B
:1001C0001CF8032005FA00FE060900F00F004000AD
:1001D00014FA00F002F1807102F1006201F59C4115
:1001E00002F5B042490106EB4202C1F818E0920064
:1001F0001668023326EA0000106010680C2B1060AD
:100200000A684EEA020EC1F800E0D6D1DFF8C0C29B
:100210000023012503240CEB030040781CF8032085
:1002200005FA00FE060900F00F00400014FA00F085
:1002300002F1807102F1006201F59C4102F5B042C9
:10024000490106EB4202C1F81CE092001668023335
:1002500026EA000010601068062B10600A684EEA5B
:10026000020EC1F800E0D6D14FF48017994C00255A
:100270003A46802694494FF40043CA610120E66162
:10028000E3610092019301F06FFC8F4901208F61BF
:10029000A661019B0135A36101F066FC802D009AE7
:1002A000E8D18A4A0023012102EB030C9CF801C02B
:1002B000D05C01FA0CFC00F1807000F59C40023328
:1002C00040010C2BC0F81CC0EED1012001F04CFC09
:1002D0007E4A0023012102EB030C9CF801C0D05C94
:1002E00001FA0CFC00F1807000F59C4002334001E3
:1002F0000C2BC0F818C0EED1012001F035FC714A7A
:100300000023012002EB030C9CF801C0D15C00FA31
:100310000CFC01F1807101F59C414901D1F800E02C
:1003200002332EEA0C0C062BC1F800C0EAD1674A52
:100330000023012002EB030C9CF801C0D15C00FA01
:100340000CFC01F1807101F59C414901D1F800E0FC
:1003500002332EEA0C0C0C2BC1F800C0EAD15C4A27
:100360000023012002EB030C9CF801C0D15C00FAD1
:100370000CFC01F1807101F59C414901D1F800E0CC
:1003800002332EEA0C0C062BC1F800C0EAD14E4D08
:10039000642001F0B9FB6F6901F00CFDC4B207F0F5
:1003A00000671CB96B6913F0006F02D1002001F0E7
:1003B000B9FC002000F022FB002000F0E5F874B941
:1003C000414B5B6913F0006F09D043F6D2731B7881
:1003D000422B04D143F6D3731B78002B43D120204A
:1003E00000F0D8FA002C64D0102000F0D3FA60E0BE
:1003F00001F0A4FB6422B0FBF5F3B3FBF2F102FBC6
:100400001133B0FBF6F206FB120241F288315B08B1
:100410008A42B0FBF5F105FB110188BFC3F132033D
:100420000446994294BF00210121012001F054FBB0
:100430000A23B4FBF3F203FB12440CB900F050FFA3
:10044000002000F0D5FD01F079FB44F61F629042D8
:10045000CED900F0A3F80028CAD127B91A494B69B0
:1004600013F0006FC4D00120002101F035FB44F2ED
:1004700004031B681A0E05D14FF48042126882F300
:100480000888984740F2F31401F052FB012001461E
:1004900001F022FB01F052FBA042FBD901F048FB26
:1004A0000120002101F018FB01F048FBA042FBD91C
:1004B000EAE701F03DFB322542F2107698E700BFF3
:1004C0000CC00240782D000020C00920802D0000C3
:1004D000702D000000C00920134B1A78032A0CD895
:1004E000124900F07F00D1F800C04FEACC1C4CEA62
:1004F0000010086013D1042212E0072A88BF4FF0D1
:10050000FF300FD80A4900F07F00D1F800C04FEA51
:10051000CC1C4CEA0010086001D1082200E0013236
:100520001A700020704700BFD404001010000010A3
:100530001800001070B5134B16461A7888B08DF865
:1005400000205A780D468DF801209A7804468DF8DF
:100550000220DA781B798DF803208DF8043000F042
:10056000FDFEF7238DF805006946204609228DF827
:1005700006508DF807608DF8083000F0C5FA08B015
:1005800070BD00BF5030000010B9034B187001E07F
:100590004FF0FF30704700BFD5040010014B1878B2
:1005A000704700BFD5040010F0B51E468FB004465A
:1005B0000D46174601F0BCFA012E06D0022E18BFD8
:1005C0004FF0FF3040F0B68189E01DB1012DDF4BC7
:1005D0000BD105E0DD4B1D70DD4B1D60DD4B91E067
:1005E0001B78072B00F2A58197E01B78082B40F0C1
:1005F000E980D74BD84D1F68D64B1E68D74B1A7869
:100600002A705A786A709A78AA70DA781B79EA7038
:100610002B7100F0A3FE4FEA566C6871780E02232E
:10062000E871C7F386416044AB712972C7F3C623F2
:100630004118C7F30612C9186B728918C6F38643AE
:100640002B73C918C6F3C623C9186B73C6F30613F8
:10065000AB73CB1803F0FF010023AA7285F80BC01F
:100660001A460F351846039422E010F807E04FF0C1
:10067000000C01334FEADE14DBB244EA42024FEAD7
:100680004E0E062BD2B25FFA8EFE09D9C3F10703D4
:100690009A40D2B25118002305F8012BC9B21A466C
:1006A0000CF1010C5FFA8CFCBCF1080FE1D10130B8
:1006B000B042DAD1039C1BB1891805F8012BC9B2ED
:1006C00049422A4601F07F0102F8011BA249F723A3
:1006D00001326B70521A204600F016FA29E115B16A
:1006E000012D5CD111E0994B1D70994B1D60994B08
:1006F0001D609B4B1D709B4B1D709B4B1D609B4B4E
:100700001D609B4B1D60284614E1904B187807280C
:1007100007D8934B1A78BA181A703846FFF7DCFEE0
:1007200007E1082832D18E4B1A78BA181A708E4B0E
:100730001B68B3F5806F80F0FC80864A864E146893
:100740008B4A4FF0000C1168884A25461268013226
:10075000C7F380147F00072A44EA4101FFB205D99C
:10076000F1540133AB4228BF092000220CF1010CE7
:10077000BCF1070FEBD1DFF8F8C1CCF800107B49D2
:100780000A60794A1360714B1870D2E0092804BFDF
:10079000744B1F7000F0CD800C221A70C9E0724BB0
:1007A0001A686C4B1B689A42039307D2194671482A
:1007B00000F050FA20460E210122C4E0634B1B7862
:1007C0000C2B03D120460E213246BCE0654B1A7833
:1007D000634B1B785B4203F07F039A4203D02046B1
:1007E0000E210322AFE0644B01221A70584B039A8A
:1007F0001D6845EA020313F0030F40F09080B5F541
:10080000804FC0F08F8000F073FFA0F5804001386A
:10081000854274D801F086F8584B042653F8042F0B
:10082000954240D2564B53F826309D422BD132236D
:100830000993544B0DF1240C04AA604611460C9305
:1008400000920293CDF804C04F4F0A960B96B8471A
:10085000029B009ADDF804C03421049F07930491A1
:100860001046059606966146474A9047099B7F4287
:100870005B42002FB4BF4FF0FF370027002BB8BFFB
:100880006FF0010700E00027322309933D4B0A96E1
:100890000C930B963C4B09A804A99847049B5B4218
:1008A000002B04DA05E001361E2EB7D109E047B16E
:1008B00001E06FF0020701F04BF8344829463A4650
:1008C00015E033230493244B05950693039B04A85A
:1008D00007932C4B09A908932B4B9847099E764206
:1008E000002E09DA01F034F829482946324600F092
:1008F000B1F96FF0030217E001F02AF81CE0B5F13E
:10090000805F0FD300F0F7FE00F180500138854280
:1009100008D828461049039A02F010FA0CE06FF04C
:10092000080201E06FF007025242D2B220460E21C7
:1009300009E000200FB0F0BD094B20461A780F21C6
:10094000524202F07F02FFF7F5FDF2E7D4040010F7
:10095000100000101800001020000010503000009F
:10096000140000101C000010D0040010C804001077
:10097000CC0400108C2D0000D5040010102E0000B7
:100980007C2E0000C0D40100F11FFF1FBB2D000012
:10099000DD2D000010B5114B88B01A7804468DF893
:1009A00000205A788DF801209A788DF80220DA78A4
:1009B0001B798DF803208DF8043000F0CFFC012363
:1009C0008DF805008DF806302046F633694608227A
:1009D0008DF8073000F098F808B010BD50300000D6
:1009E00008B52020FFF7D6FF1020FFF7D3FF024BFA
:1009F0000020187008BD00BFD504001038B50446AB
:100A00004FF0FF30002C32D1194A10231370194ACD
:100A100020461370184B1C60184B1C60184B1C6050
:100A2000184B1C60184B1C6001F0B6FAC50F20462D
:100A300000F0B2FC154A0028B8BF45F002050023BB
:100A40001370134A1370134A137043F6D0731B7854
:100A5000422B06D143F6D1731B7813F0800F08BFE9
:100A600013700D4A002313800C4A6842136038BD8E
:100A70000000001001000010E0040010D804001075
:100A8000F8040010FC040010F0040010E40400104E
:100A9000E8040010E5040010E6040010F40400105F
:100AA00010F0F00F70B504460D4604D101280CBFBC
:100AB000124B134B1C78134B04F00F061B682BB121
:100AC00066F30715204629469847A8B904F0F004B4
:100AD000102C05D0202C18BF4FF0FF300CD105E0B2
:100AE00066F30715284601F0C9FA05E066F3071515
:100AF0003046294600F00AFD70BD00BF010000101D
:100B000000000010D8040010F0B585B0174603901F
:100B10000D460026062307224FF0040C40E0B91BC7
:100B2000022914D003291FD00129A95D18BF6CF335
:100B3000030406F1010618BF61F30F241AD1052042
:100B400060F3030461F30F246FF3174409E0A95D18
:100B500063F30304013661F30F24A95D013661F3E9
:100B600017446FF31F640DE0A95D62F3030461F3A2
:100B70000F240136A95D013661F31744A95D0136E2
:100B800061F31F640398214601920293CDF800C0DF
:100B9000FFF786FF0028019A029BDDF800C002DB08
:100BA000BE42BCD3002005B0F0BD000010B5F0235C
:100BB000A0B08DF8003000238DF801308DF80230A0
:100BC0007E338DF8033032238DF804300E4B0DF157
:100BD0006B0C1B788DF805300F238DF806306B46B3
:100BE000DA1D03E002F8014B624503D011F8014B16
:100BF000002CF7D1F72102F8011BD21A6946FFF742
:100C000083FF20B010BD00BFE504001000B5F02345
:100C100089B08DF8003000238DF801308DF8023056
:100C20007E338DF8033032238DF80430084B8DF875
:100C300006101B788DF807208DF805306946F723DC
:100C400009228DF80830FFF75FFF09B000BD00BF33
:100C5000E50400100FB430B5A5B0289C02AD2046C5
:100C600002F07EF864281ED92846204902F071F867
:100C7000F0238DF8003000238DF801308DF802301C
:100C80007E338DF8033032238DF80430184B082260
:100C90001B788DF805300D238DF8063033338DF831
:100CA000073002AB0FE029AA28462146239201F023
:100CB000AEFCDDE7013292B200F07F00882A03F833
:100CC000010C194604D0194613F8010B0028F1D184
:100CD000F7230B70074B0132187892B26946FFF781
:100CE00013FF25B0BDE8304004B07047142F00005A
:100CF000E504001001000010F0B5634F8BB03B78A5
:100D000004460D461646FFF74FFC002880F2B880D7
:100D100039780D2965D001D839B1A7E00E2900F046
:100D2000AF800F2940F0A28093E0584B002D00F0D7
:100D30008A80012D554B01D11E70A1E01B78052B37
:100D400028D00AD8022B18D002D8012B45D111E0A7
:100D5000032B15D0042B40D115E0082B32D004D83A
:100D6000062B21D0072B38D121E0092B2DD07F2B4A
:100D700033D12FE02046464929E02046454926E068
:100D80002046454923E000F0A5FC6D460246434954
:100D9000684612E0684600F0B1FC00286D46BCBF12
:100DA00020463F490BDA12E000F0A2FC01E000F01F
:100DB000A2FC3C4902466D46684601F019FC2046FB
:100DC000694604E02046384901E038492046FFF7EB
:100DD000EDFE55E0FFF704FE52E020460E210D2205
:100DE00041E01DB1012D324D14D103E0304BFF2203
:100DF0001A7045E02B78FF2B08BF2E7040D0002BD7
:100E00003ED12C4B1B68002B3AD02B4A3146107830
:100E1000984735E02A78C2B920460F21FFF7F6FE41
:100E20002B78002B2CD1234B1B68002B28D1234B74
:100E3000012C1D78224818BF1C702146FFF70AFFBD
:100E4000012D1DD01D4B1D701AE020460E211022D1
:100E500009E01C4B15B1012D1A4B01D15D600FE06B
:100E60005A686AB92046FFF7D1FE09E00E210A460A
:100E70002046FFF7CBFE134A00231370024A13707B
:100E800000200BB0F0BD00BFDC040010D604001041
:100E9000672F00006E2F00007E2F0000862F0000BD
:100EA0008B2F00008D2F0000902F0000A22F00003C
:100EB00002000010F0040010E40400100100001013
:100EC000B42F0000E8040010F72910B50A465CD8DA
:100ED0002F4B1C7804F00803DBB21BB12D490978B5
:100EE00081424FD1A0F11101C9B206294AD929493D
:100EF00008700BBB264B1B7803F00703042B03D8A9
:100F00002549C95C914223D104F00704052C03D183
:100F10002249097891421BD1013303F007021C4B8F
:100F2000052A197862F3020184BFCAB242F00802AE
:100F3000197088BF1A7028E012F0800F0ED0F72ABF
:100F400006D104F01004E4B214B10221FFF7D4FE7C
:100F50000F4B00201870124B187017E004F01004AB
:100F6000E4B25CB90A4B197841F0100119700C4BCE
:100F700021461A70FFF7C0FE204607E00121FFF767
:100F8000BBFE02E04FF0FF3000E0002010BD00BFCC
:100F9000E8040010E404001050300000E5040010E4
:100FA000DC04001010B50D4A0446137803F0080362
:100FB000DBB23BB10A4B1B78834203D10023137091
:100FC000084A1370084B1B680BB12046984721460E
:100FD0000648FFF73FFE002010BD00BFE8040010E8
:100FE000E4040010DC040010FC04001002300000D7
:100FF000F0B5002289B001210546049101920392C7
:101000001346B44F00E0059B5A1CD2B205920C2B3C
:101010002ED8DFE813F00D0015001B00210027007B
:101020002601260126012601260126012601260188
:1010300007A801F03DF8079CC4F30314103426E020
:10104000002007A900F06EFA202420E0012007A963
:1010500000F068FA21241AE0022007A900F062FAE1
:10106000222414E0032007A900F05CFA23240EE0F8
:10107000019A0399131E18BF012309298CBF00236D
:1010800003F00103002B40F01E810493E9E010F10E
:101090000A0F05D12046FFF785FF00220492E0E009
:1010A0000028C0F2DE800199039A4B1CDBB207993D
:1010B0000193531CDBB26FF30711039301F00F038D
:1010C00003F1080202F00F02062A079104D8204615
:1010D000002D40F0C580C4E09A1E0D2A00F2C180A8
:1010E000DFE812F0710071000E006D0074007400F2
:1010F000BF00BF00BF00BF00BF00BF00BF000E00A9
:101100009DF81D10F7295ED8F0291CD1724A13688A
:10111000CBB904F0F002102A02D0302A13D109E032
:101120006E4A1380012204F00F0312FA03F36A4A95
:10113000138008E0694A1380012204F00F0312FAB9
:1011400003F3654A53802046FFF7BEFE9DF81C302E
:1011500003F00F030F2B09D09DF81E102046FFF758
:10116000B3FE9DF81F102046FFF7AEFE3E68DEB1CD
:101170009DF81D102046B0479DF81C30C6B203F004
:101180000F030F2B10D09DF81E103B682046984788
:1011900002463B689DF81F10009220469847009A2F
:1011A000024342EA0606F6B22B1E18BF0123002EA8
:1011B00014BF002603F00106002E52D04EE09DF829
:1011C0001D20F72A02D9002D48D14AE0043BDBB2AA
:1011D0000293002B7BD09DF81D6020463146FFF71F
:1011E00073FE3B681A461BB1204631469847C2B28F
:1011F000029B012B24D09DF81E60204631460092B0
:10120000FFF762FE3B68009A33B1204631469847AB
:10121000009A40EA0202D2B20299022910D09DF847
:101220001F60204631460092FFF74EFE3B68009A51
:1012300033B1204631469847009A40EA0202D2B2C2
:10124000F72E02D1244B002119602B1E18BF012359
:10125000002A14BF002303F0010313B107992046AD
:10126000A8471D4B1A683AB31C490A88B2F57A7F21
:1012700022D9198861B1002251FA02F313F0010357
:1012800003D10132102AF7D11A461032D0B20DE044
:10129000588858B10B4650FA03F212F0010203D1FC
:1012A0000133102BF7D113463033D8B2FFF77AFE53
:1012B000094B00221A6003E0049A002A7FF4A3AECF
:1012C000002009B0F0BD002301930593C9E7029AFD
:1012D000BBE700BFF8040010F4040010E60400109F
:1012E00010B500F011FF044600F07EF8044B4FF6F5
:1012F000FF711A8820438A4201D001321A8010BD42
:10130000E6040010F0B5134E85B034680746ECB122
:10131000C1F307638DF80E300F4BC1F30742C1F3E1
:101320000720002401F00F018DF80D208DF80C002E
:101330005A5C254608E003AB595D38460192336894
:101340009847019A044301359542F4DB204605B0E5
:10135000F0BD00BFE0040010042F0000014B18781E
:10136000704700BFE5040010012810B5044688BF8F
:101370004FF0FF300BD800F0D5FA054BFF221A557D
:10138000044B002223F8142000F0E2FA002010BDE4
:10139000000500102005001010B504464FF0FF3086
:1013A000ECB90F4BFF221C601C715C719C71DC71ED
:1013B0001C81DC601C745C749C74DC749C82094B22
:1013C00020461A70FFF7D0FF0120FFF7CDFF20461F
:1013D00000F038FF0028B4BF4FF0FF30002010BDF0
:1013E000040500101C05001008B500F09BFA124B14
:1013F0004FF6FF711A888A4201D001321A800F4BD2
:101400004FF6FF711A898A4201D001321A810A4BC4
:101410004FF6FF715A888A4201D001325A80074B39
:101420004FF6FF719A8A8A4201D001329A8200F007
:101430008FFA002008BD00BF200500100405001031
:10144000F7B50128C1F3072601F00F03C1F30742E6
:101450000446F7B2C1F3076144D846E026488DF848
:10146000046030F814C08DF80520BCF57A7F8DF843
:10147000061003D92046FFF777FF22E0DFF87CC093
:101480009CF800C04CFA04FC1CF0010F19D0072B8B
:1014900017DD0E2BCCBF00230123012D94BF0023A9
:1014A00003F001036BB1164B1B5DBB4206D1013D3E
:1014B0008DF804208DF80510EDB202E0002320F82D
:1014C0001430F72F98BF0E4B204698BF1E5501A928
:1014D0002A4600F04DFF023002289CBF094B53F80A
:1014E000200001D94FF0FF30FEBD0748C55C2846FB
:1014F000002DB3D1F8E700BF200500101C05001037
:101500000005001058300000042F000038B50546D3
:101510000C4628462146FFF793FF10F1020FF8D042
:1015200038BD00000128F8B504460E4688BF4FF0CC
:10153000FF3000F2C5809EE0C0B210F0800F48D0AE
:10154000F72808D9336843F00F0333600023707025
:10155000B370F370B5E0C0F30213FB5C28716B71DC
:10156000002B2ED1584900F00F028A5CF0286A71D6
:1015700003D101226870EA7124E0F72822D1EA79C8
:101580001AB1012A2A7810D108E02B78052161F3DD
:1015900003032B706870AA70EA700CE0062161F3F7
:1015A00003022A70A870EB7005E01346072262F36D
:1015B00003032B70E8702B6833600023EB71013359
:1015C00000E000236A79AA7100222A81002B57D0FB
:1015D00077E02B79F02B17D1EB790133DBB2012BBC
:1015E000EB7102D0022B04D101E0687048E0A870D2
:1015F00046E02B78042262F30303E8702B702B681B
:1016000033600023EB715CE0AB7923B96A792B81FD
:10161000013AAA7101E0013BAB716B79012B03D157
:10162000013BA870EB7004E0AB790BB1A87000E04F
:10163000E870AB7923BB2B7903F0F002F02A02D0DB
:101640001A092B780BE06B791BB1012B2B7805D194
:1016500002E02B78052202E0022200E0032262F37E
:1016600003032B700C236343184AD1180879487080
:10167000D358336025E0154B0C2505FB0435144F7A
:10168000204600F041FE0028BFF656AF00200C2394
:101690005C430E490B199A796AB11A89B2F57A7FBF
:1016A00009D900220A511A715A719A71DA711A8194
:1016B0006FF0090004E000280CBF4FF0FF3000205D
:1016C000F8BD0120E3E700BFF42E00000405001080
:1016D0004830000000B58BB00AA8362340F8143D0E
:1016E0006946024B984701980BB000BDF11FFF1FE0
:1016F0004FF4002070474FF480307047F0B58BB046
:1017000004463A230AA840F8143D69460F4B98470F
:1017100004AF6946234651F8040F9C46002200F0AE
:101720000F05092D94BF3026372601327519082A76
:101730000CF8015B01D00009F1E70833B942EAD1A6
:10174000002084F820000BB0F0BD00BFF11FFF1F88
:1017500013B56B4683E80300124B0221197202464F
:101760003A31B2FBF1FC01FB1C2C00205FFA8CFC2F
:10177000187283F820C04FF4616CB2FBFCF40CFBD0
:101780001422B2FBF1F1C9B283F824101821B2FB84
:10179000F1FC01FB1C22D2B283F8282001221A722C
:1017A0001CBD00BF0040024013B5002840F08B80F4
:1017B000464B2022C3F8A0211A46D2F8A011434B71
:1017C00011F0400FF9D00322C3F80421404A012050
:1017D000C3F8A8213F4AAA21C3F8AC213E4AC3F866
:1017E0000C01C3F884205522C3F88C10C3F88C2058
:1017F000C3F88000C3F88C10C3F88C20D3F888108D
:10180000324A11F0806FF9D00323C2F88030A73339
:10181000C2F88C305523C2F88C30D2F888102B4B8C
:1018200011F0407FF9D02322C3F8A420AA2132323C
:101830000120C3F8AC10C3F8AC20C3F8A000C3F873
:10184000AC10C3F8AC20D3F8A810204A11F4806F74
:10185000F9D00323C2F8A030A733C2F8AC30552327
:10186000C2F8AC30D2F8A810184B11F4407FF9D070
:1018700000244FF0FF32C3F8C420C3F8C8411A68EF
:1018800022F4704242F480421A60144B144A9A6067
:10189000144ADA606B460094019493E80300FFF762
:1018A00057FF114B01221C605C609C60DC601C6176
:1018B0005C619C61DC610D4B1A201A63052100F00C
:1018C00059F8204601E04FF0FF301CBD00C00F402A
:1018D00000001154000440007700050000ED00E016
:1018E000000000000003FA0524050010004000502D
:1018F000F7B50A4E0A4F326800250124144206D07B
:101900007B5913B101929847019AB4603461043550
:10191000202D01D06400F1E7FEBD00BF0040005063
:1019200024050010084B1B681BB9EFF31082074B0E
:101930001A604FF0010080F31088034B00201A68F2
:1019400001321A60704700BF4805001044050010BE
:10195000064A4FF0FF3013683BB1013B13601BB9DF
:10196000034B1B6883F31088002070474805001064
:10197000440500100F2988BF4FF0FF3018D80D4BD9
:1019800042B2DB685209DB43C3F30223C3F1040311
:101990009940094B0901C318C9B283F8001300F03C
:1019A0001F00012313FA00F0034B43F8220000202C
:1019B000704700BF00ED00E000E100E0F0B5013A43
:1019C00085B00746052A72D8DFE802F00319090D31
:1019D00010140020044602224FF0010C13E00020F6
:1019E000044603220EE00020044601E0002001240A
:1019F000024607E0012000220446944603E000204E
:101A000004460222844607F1006303F5B0435B00FD
:101A100003EB11139B001D680326039501F00F05CE
:101A20006D00AE400195039DF64302962E40019D48
:101A30001E600CFA05FCAA4003961E684CEA060CD0
:101A4000C3F800C01E6CDDF808C00CEA06061E6470
:101A5000D3F840C042EA0C021A6407F1807303F520
:101A60009C435B0134B101228A40D3F800C042EAB2
:101A70000C0205E001228A40D3F800C02CEA0202E1
:101A800007F1805707F530471A60BF0038B10122CF
:101A900012FA01F1BB6E00201943B96609E0012278
:101AA00012FA01F1BB6E23EA0101B96601E04FF0C1
:101AB000FF3005B0F0BD10F0010F10B5044604D0A2
:101AC000002016210522FFF779FF34F001040CBF36
:101AD00020466FF0010010BD10F0010F0BD011F087
:101AE000010F15BF074B074B4FF480024FF48002E4
:101AF00014BF9A61DA6130F0010018BF6FF0010085
:101B0000704700BF00C009201E214843074B002238
:101B100001381A674FF0FF31D8600320996158618E
:101B20001960023159601046704700BF00400940FB
:101B3000014B00209860704700400940044B9868B2
:101B40001B6813F0010F18BF4FF0FF30704700BF44
:101B50000040094018B9034B08221A7201E04FF007
:101B6000FF30704700000B401E235843034BDA68D8
:101B7000D968891A8142FBD90020704700000B40C8
:101B800010F0100F08B502D0002000F00BFA08BDCD
:101B900070B592B00446514915460FA80C2201F0C9
:101BA000CDF812220AA84E4901F0C8F86378092B33
:101BB00003D1012000F0F6F98CE0062B40F08A807A
:101BC00063881A0A032A40F08580DBB2032B00F2F7
:101BD0008180DFE803F00D06025A43F6DF7301212E
:101BE0002FE00DF13B013F4A02234FF0000C0BE0C8
:101BF0003D4A092393700423D37064E0023302F852
:101C0000020C02F801CC9BB211F8010F0232041E43
:101C100018BF0124632B8CBF002404F00104002CA6
:101C2000ECD150E013F8010FA0F12001C9B2003847
:101C300018BF01205F2994BF002100F0010181F04D
:101C40000101A3F57E525F3A1F2ACCBF002101F0AB
:101C500001010029E6D10DF12700224A022305E007
:101C6000023302F802CC02F8011C9BB210F801CF3B
:101C70000232BCF1000418BF0124632B8CBF002486
:101C800004F00104002CEBD11DE06846FFF736FD9F
:101C900000286C461EDB013C124A0223002005E0AE
:101CA000023302F8021C02F8010C9BB214F8011F67
:101CB00002320E1E18BF0126632B8CBF002606F0D1
:101CC0000106002EECD1084A012013700323537043
:101CD0002A6000E0002012B070BD00BF6430000038
:101CE000902F0000560500105405001038B54378B9
:101CF0000C46212B0BD0222B0DD0202B0DD10725EC
:101D0000116807482A4601F019F8256003E0044BE2
:101D1000136007230B60012000E0002038BD00BFE6
:101D200004000010022808B588BF4FF0FF302ED8FD
:101D3000012806D1013800F008FD42F21070FFF7CB
:101D400013FF00F0B1FF124800F0D4FE114A12490F
:101D5000012000F0C3FE114800F09EFF81201049D1
:101D600000F0BEFC0F49012000F0BAFC202000F07A
:101D7000F4FC0D4800F0D4FC012000F013F9082118
:101D80001820FFF7F7FD012000F0DFFC002008BD60
:101D9000703000004C050010ED1C0000911B00008D
:101DA0002521000039210000811B000008B500F04A
:101DB0006FFD08BD024BD3F8F40FC0F3400070472D
:101DC00000C00050094B0004302240F4A060C3F86A
:101DD0000822C3F81002D3F8002202F01002002AF1
:101DE000F9D0024BC3F80822704700BF00C0005072
:101DF000F0B585B00390FFF795FD039A02F00F034D
:101E000099002F4A41F00101C2F82812D2F820525D
:101E100015F4006FFAD015F4806F48D0C5F387052C
:101E2000002D44D0274F3A8892B2C2F500729542F5
:101E30003DDA013DADB2224A234CDFF890C025E0E7
:101E4000D2F818620292C6F30310103031460093A4
:101E5000CDF804C0FFF756FA029A009BDDF804C0E3
:101E600090B9218840F2FF1E89B24CF82160218888
:101E7000013189B22180218889B2714588BF2080D3
:101E80003988013189B23980013DADB2691C09B28E
:101E90000029D5DC0A4A0021C2F82812039AD00989
:101EA00040EA4300FFF78EFFF220FFF78BFF044B61
:101EB0000022C3F82822FFF74BFD05B0F0BD00BF9C
:101EC00000C00050BA050010C4150010C40D001069
:101ED00038B50446FFF726FD294B1B78002B4BD164
:101EE000284B1A8892B2002A46D0274A1278002A34
:101EF00042D01A8804F00F0092B2102A98BF1A88B4
:101F0000224B94BF92B21022810041F00201C3F82B
:101F1000281211B28900C3F82412EAB1194600222E
:101F20001B4BDFF870E040F2FF1C10E01D8801320F
:101F3000ADB25EF82550C1F81C521D880135ADB216
:101F40001D801D88ADB2654501D900251D80D1F8E1
:101F5000285215F0020FE9D1094B01211970094BE4
:101F6000E409198844EA40008A1A92B21A80FFF7FD
:101F700029FFFA20FFF726FFFFF7EAFC38BD00BF74
:101F8000C00D0010C6150010CA15001000C000508A
:101F9000C8150010C0050010002814BF4FF0FF3016
:101FA000002070470F4A0023138011880E4A89B21F
:101FB000118011880D4A89B211800D4A1380118851
:101FC0000C4A89B2118011880B4A89B211800B49E1
:101FD0000B4A10B10120087001E00B70012313704F
:101FE00000207047BA050010C4150010BC05001091
:101FF000C6150010CC150010C8150010CA15001029
:10200000C00D001038B5194C054623784FF0FF304D
:1020100053B3174B1B889BB2B3F5FF7F0AD98120BE
:10202000FFF756FF2378002B14BF6FF001004FF02D
:10203000FF3019E0FFF776FC0E4B0F491A8892B279
:1020400041F82250013292B21A801A8892B2B2F547
:10205000007F01D300221A80054B1A88013292B208
:102060001A80FFF775FC002038BD00BFCA150010AC
:10207000C6150010CC150010C005001070B506463E
:102080000A4C42F20F7504E02388AB420CD80133AE
:1020900023803046FFF7B6FF10F1020FF4D000287E
:1020A00002DB024B00221A8070BD00BFB805001091
:1020B000124B10B51B8804469BB24FF0FF30E3B1C2
:1020C000FFF730FC0E4B0F4A198889B252F82120D5
:1020D00022601A88013292B21A801A8892B2B2F53E
:1020E000007F01D300221A80044C2388013B9BB25D
:1020F0002380FFF72DFC208880B210BDBA050010A8
:10210000BC050010C40D001008B5054B1B782BB1A1
:102110000120FFF76DFE8120FFF7DAFE002008BDE9
:10212000CA15001008B5034B00221A70FFF7D0FE45
:1021300008BD00BFC00D001010F0800F08B505D01D
:10214000044B00221A70FFF7C3FE01E0FFF750FEB8
:1021500008BD00BFC00D0010F0B501288BB006907F
:1021600088BF4FF0FF3063D8324B012253F8204034
:10217000314B4808089300230990DFF8C0C01F4680
:1021800005930492079430E0019CAE18B4FBF6F678
:10219000B6FBF1F001FB106C099CA44588BF01302F
:1021A000A0F1030C4FF6FC74A4450FD8B6FBF0F376
:1021B0008B4201D8CB1A00E05B1ADDF820C06345E2
:1021C00004D2B3B108930746059504920135102D4A
:1021D000DAD1DDF804C08BB101320CF5E41C0CF54A
:1021E000E05C102A0CF1380C08D00025CDF804C0B2
:1021F000CAE7079C07460595049200E0079C8323E5
:102200002373C7F307232371FFB2032327702373BC
:102210000598049A00F00F0343EA0213DBB284F836
:10222000283007232372069C054B002043F8241016
:102230000BB0F0BDE8300000A0860100389C1C0007
:10224000D415001010B504464FF0FF30002C54D1C7
:102250002A4B20461A6822F003021A601A6842F0DC
:1022600002021A601A6C22F003021A641A6C42F01D
:1022700002021A64224A916E41F0010191661A68C5
:1022800047F6122122F00C021A601A6842F0080286
:102290001A601A6C22F00C021A641A6C1A64103B51
:1022A0001A6822F003021A601A6842F002021A60E9
:1022B0001A6C22F003021A641A6C42F002021A64C9
:1022C0009A6E42F001029A661A6822F00C021A60B5
:1022D0001A6842F008021A601A6C22F00C021A64A2
:1022E0001A6C1A64074B1C705C70FFF735FF0120F5
:1022F00047F61221FFF730FF204610BD10C0024004
:1023000008C00240D0150010012888BF4FF0FF30F0
:1023100009D8054B53F820301A7D12F0010F14BF75
:1023200018786FF001007047E8300000012888BF7E
:102330004FF0FF3019D80D4B53F82000037D13F0F8
:10234000200F08BF6FF001000FD000230AE090F8C3
:1023500014C01CF0200FFAD011F801CB013380F823
:1023600000C09BB29342F2D300207047E8300000D7
:1023700070B505460C461646284621463246FFF7FC
:10238000D5FF10F1020FF7D070BD002A30B5C8BFDD
:102390004FF0000C044602DC12E00CF1010C11F8C5
:1023A0000C000028F9D19445B4BFCCEB02020246E0
:1023B00013F0020F0CBF4FF0200C4FF0300C01E077
:1023C0004FF0200C13F001000CD108E02CB1236871
:1023D00083F800C02368013323600130013A002AEA
:1023E000F4DC08E0002006E024B125682B702368A7
:1023F00001332360013011F8013B002BF4D108E0D8
:102400002CB1236883F800C02368013323600130B6
:10241000013A002AF4DC30BD7FB594461C46089A88
:10242000099B0D4649B94FF0300C8DF8051001A9F4
:102430008DF804C0FFF7A9FF46E0BCF10A0F14BFF6
:1024400000210121002C0CBF002401F001042CB15B
:10245000002D02DA6D42012400E000240A9E0DF1F5
:10246000100E00210EF8011D3A3E0BE0B5FBFCF109
:102470000CFB11510929C8BF891930310EF8011D13
:10248000B5FBFCF57146002DF0D1D4B192B113F03B
:10249000020F0FD058B1D0F800C04FF02D0E8CF8BD
:1024A00000E0D0F800C00CF1010CC0F800C0013A07
:1024B000012406E04FF02D0C0EF1FF310EF801CC97
:1024C0000024FFF762FF001904B070BDF0B589B0B9
:1024D00005460E46059200247DE0252B72D116F8A4
:1024E000013F002B7BD0252B6CD02D2B02D1013648
:1024F000012303E0002301E043F00203374616F80E
:10250000012B302AF8D0002202E00A2000FB02C290
:1025100039783E46A1F1300C5FFA8CF0013709287A
:10252000F3D9732909D10599081D059009682F4829
:10253000002908BF0146284641E064290ED10599CB
:102540000193612300920293081D096805900A22F5
:1025500028460123FFF760FF24183BE0782906D1C5
:1025600005990193081D05900092612307E0582901
:102570000AD105990193081D059000924123029309
:102580002846096810220BE075290BD105990193A3
:10259000612300920293081D096805900A222846CB
:1025A0000023D7E7632915D10599081D096805900F
:1025B0008DF81C1000218DF81D10284607A9FFF783
:1025C000E4FEC9E7327825B12B681A702B68013315
:1025D0002B60013401363378002B7FF47EAF15B1C8
:1025E0002B6800221A70204609B0F0BDF8300000B8
:1025F0000EB40FB505AA52F8041B019001A803926E
:10260000FFF764FF04B05DF804EB03B0704707B553
:10261000034602A840F8043DFFF758FF0EBD000036
:10262000054BD3F8002200EA02028242F9D1024BA4
:10263000C3F80802704700BF00C0005008B500048E
:10264000054B302240F4A060C3F80822C3F8100202
:102650001020FFF7E5FF08BD00C0005010B50C4684
:102660002404FFF7EBFF044B44F48074C3F81042DA
:102670001020FFF7D5FF10BD00C0005010B5044674
:102680002404FFF7DBFF44F40073054C2020C4F85A
:102690001032FFF7C5FFD4F81402C0B210BD00BF5E
:1026A00000C0005010B500F00F04C00940EA440417
:1026B0000122A240094BD3F844020243C3F844224A
:1026C0004FF48070C3F84842C3F84C12FFF7A8FFDC
:1026D00044F040000021FFF7C1FF10BD00C00050D2
:1026E00000F00F03C00940EA430002220A4B90FBAE
:1026F000F2F243F82210012111FA00F0074BD3F84F
:1027000034221043C3F83402D3F8042242F0040206
:10271000C3F80422704700BFE415001000C0005049
:10272000044B1860044BD3F8042242F00802C3F8AB
:1027300004227047E015001000C0005040F08001F6
:1027400008B5D020FFF78AFF08BD011E18BF012180
:1027500008B5FE20FFF782FF08BD014608B5F3204B
:10276000FFF77CFF08BD08B500F00F03C00940EA81
:102770004300FFF783FF08BD08B500F00F03C00951
:1027800040EA430040F04000003918BF0121FFF744
:1027900065FF08BD00F00F03C00940EA43009B003D
:1027A00010B5144643F00202124BC3F82822C3F8B6
:1027B000244210E011F8022C11F801CC120442EA74
:1027C0000C6211F804CC42EA0C0211F803CC42EA84
:1027D0000C22C3F81C22D3F82822043112F0020F75
:1027E000E8D1C0B2FFF72AFFFA20FFF727FF204603
:1027F00010BD00BF00C00050034600F00F0070B5D0
:10280000DFF878C0840044F00104CCF82842DCF8FA
:10281000204214F4006FFAD014F4806F08BF4FF018
:10282000FF3428D0A4054FF0000EA40DF446134D3C
:1028300013E01CF0030F08BFD5F818E20E1E18BFF6
:1028400001269445ACBF002606F001060EB101F842
:102850000CE04FEA1E2E0CF1010CA445E9D1074A09
:102860000021DB0943EA4000C2F82812FFF7E6FE28
:10287000F220FFF7E3FE204670BD00BF00C000500D
:10288000011E18BF012108B5D820FFF7E7FE08BDDB
:10289000F8B5254BD3F8004214F0010F09D00122FE
:1028A000C3F80822214B1D681DB1F520FFF7E6FE95
:1028B000A84714F0080F0FD01B4B0822FE20C3F8C6
:1028C0000822FFF7DBFE10F01A0F05D0184B1B682B
:1028D00013B100F01500984714F0040F22D0124DE8
:1028E0000423144FC5F808320024012616FA04F315
:1028F000D5F83022134212D0C5F838322020FFF725
:102900008FFE601057F82030D5F814123BB100F05C
:102910000F0040EAC410C0B201F01F019847013413
:10292000202CE3D1F8BD00BF00C00050DC15001022
:10293000E0150010E415001008B5204B002203F14B
:10294000400143F8042F8B42FBD11D4B1A6922F43E
:1029500040221A611A6942F480221A615A6822F0F0
:1029600070525A605A6842F0A0525A6003F55023E0
:10297000D3F8C42042F00042C3F8C420114B1A22FD
:10298000C3F8F42F1A46D2F8F81F0E4B01F01A01C3
:102990001A29F8D100204FF0FF32C3F80402C3F81F
:1029A0000822C3F82C02C3F83402C3F83822C3F853
:1029B0004002FFF7D2FE012008BD00BFE015001065
:1029C00000C0024000C0005070B5094C094D266897
:1029D0008020402EA8BF402632462968FFF7DAFE45
:1029E0002B689B192B6023689E1B266070BD00BF5F
:1029F0004C1600105016001008B580200121FFF77A
:102A0000BBFE08BD38B50346002855D111F00400BF
:102A10002C4D29D02C4C184621460822FFF7ECFEFD
:102A200021782A4BC1F3411253F82200284B186039
:102A3000E38828482B6003600BB1C90940D0264BBE
:102A400053F82230002B2FD01F4C224D2046294610
:102A50001F4A9847002827D0E1882A68194B9142DD
:102A6000D4BF19601A6029E02A68002A1FDD184CBB
:102A70002168FFF7C1FE002816DB23681B182360BE
:102A80002B68181A2860D8B90F48104A0378C3F386
:102A9000411352F8232022600F4A52F823301BB111
:102AA0000C492246984748B9FFF7A6FF08E00146BF
:102AB0000246FFF7A1FE03E0802801D1FFF784FF63
:102AC00038BD00BF4C16001044160010341600101C
:102AD000501600105416001024160010034B43F833
:102AE0002010034B43F82020704700BF241600102D
:102AF00034160010014B1860704700BF5C160010C0
:102B00000F4970B50968040AC5B24FF0000C12E015
:102B10004E78A6420ED1AC450AD11960022C05BFF1
:102B2000C8788B780B7843EA00231360012005E016
:102B30000CF1010C091808780028E9D170BD00BF1C
:102B40005C160010514BF7B51B6804460D4616463F
:102B50001BB19847002840F09580277807F01F07A1
:102B6000012F59D0022F6CD0002F40F08D80627859
:102B70003368092A00F28880DFE802F0058686863D
:102B8000860B0F86161C00221A705A7002232B60C7
:102B900078E0A078FFF7D2FD74E06088A1882A462B
:102BA0003346FFF7ADFF70E0394A012012781A7002
:102BB00028606AE0A6783046002E27D0354B1D6885
:102BC000FF231F461EE06A78042A08BFEB7817D05F
:102BD000052A03D0022A08BF6F7911E0B74214BF5B
:102BE00000220122002B14BF002202F001023AB1A0
:102BF0002B796979A87843EA0121FFF753FD002377
:102C00002A78AD182A78002ADDD10120FFF738FE96
:102C100062881F4B1A7035E06378326823B10A2B43
:102C200006D00B2B30D107E013705370022305E060
:102C3000002313702F6002E063882BBB2B603846A3
:102C400023E033686678012E0FD002D3032E1BD108
:102C500012E020790193FFF786FD019BC0F340004D
:102C6000002218705A702F600CE0618861B92079D9
:102C7000FFF782FD304608E063882BB920790121F7
:102C8000FFF77AFD012000E00020FEBD581600107D
:102C9000601600105C160010014B1860704700BFF2
:102CA000581600107047000010B50E4CFFF744FE98
:102CB0000D48FFF735FD00202146FFF711FD80206C
:102CC0002146FFF70DFD00204021FFF7EBFC80209F
:102CD0004021FFF7E7FC00200449054AFFF7FEFE0C
:102CE000012010BD052A0000A52C0000452B000086
:102CF0006416001070B50D4D0D4E0024761BB610F5
:102D000003E055F8043B98470134B442F9D3094D28
:102D1000094EFDF701FA761BB610002403E055F8C2
:102D2000043B98470134B442F9D370BD0031000030
:102D3000003100000031000000310000002305E0F8
:102D400011F803C0013A00F803C00133002AF7D19B
:102D500070470023CA5CC2540133002AFAD170477D
:102D600003461A4613F8011B0029FAD1101A7047BE
:102D7000011800090012000001140007000F0000F4
:102D80000116011500060005001000155B42534CAA
:102D90005F53595345585D20657870656374656469
:102DA0002025642C20676F74202564206279746567
:102DB0007320287265747279290A006572617365DF
:102DC000206661696C656420666F722030782530FA
:102DD00038783A20636F64652025640A0077726949
:102DE00074655F64617461206661696C6564206606
:102DF0006F72203078253038783A20636F64652010
:102E000025640A00FF0F0000FF1F0000FF2F0000D5
:102E1000FF3F0000FF4F0000FF5F0000FF6F00005A
:102E2000FF7F0000FF8F0000FF9F0000FFAF00004A
:102E3000FFBF0000FFCF0000FFDF0000FFEF00003A
:102E4000FFFF0000FF7F0100FFFF0100FF7F020086
:102E5000FFFF0200FF7F0300FFFF0300FF7F04006E
:102E6000FFFF0400FF7F0500FFFF0500FF7F060056
:102E7000FFFF0600FF7F0700FFFF070000000000C4
:102E800000100000002000000030000000400000A2
:102E90000050000000600000007000000080000092
:102EA0000090000000A0000000B0000000C0000082
:102EB00000D0000000E0000000F000000000010071
:102EC00000800100000002000080020000000300FA
:102ED00000800300000004000080040000000500E2
:102EE00000800500000006000080060000000700CA
:102EF0000080070001010201000000000000000046
:102F000000000000000002030301020303030303A7
:102F100002020301284552524F523A2073747269DB
:102F20006E672070617373656420746F204D494F24
:102F30005333325F4D4944495F53656E6444656263
:102F400075674D6573736167652829206973206C07
:102F50006F6E676572207468616E20313030206357
:102F600068617273210A004D494F533332004D425C
:102F700048505F434F52455F4C50433137004C50EF
:102F800043313778780025303878003F00256400D9
:102F90004D494F53333220426F6F746C6F616465DB
:102FA0007200286329203230303920542E204B6C97
:102FB0006F7365005B4D494F5333325F4D49444950
:102FC0005F53595345585F436D645F44656275674D
:102FD0005D20636F6D6D616E642068616E646C6509
:102FE00072206E6F7420696D706C656D656E7465AE
:102FF00064206279206170706C69636174696F6EBE
:103000000A005B4D494F5333325F4D4944495F528B
:103010006563656976655F48616E646C65725D20A5
:1030200054696D656F7574206F6E20706F727420B7
:103030003078253032780A002025303258002020A0
:10304000200025303858200002020202010102004F
:10305000F000007E32000000FEFFFFFFFFFFFFFFD9
:10306000000000006D696469626F782E6F726700FE
:103070001201000200000040C01600040710010207
:10308000030109026500020100803209040000000A
:1030900001010002092401000109000101090401E4
:1030A000000201030002072401000141000624027E
:1030B00001010006240202020009240301030102A7
:1030C0000100092403020401010100090501024075
:1030D00000000000052501010109058102400000F2
:1030E00000000525010103000000014000C0094067
:1030F00000C0004000800940286E756C6C290000FB
:103100001010FF0000C201000000080000000000D5
:10311000FFFFFFFFFFFFFFFFFFFFFFFFFFFFFFFFBF
:10312000FFFFFFFFFFFFFFFFFFFFFFFFFFFFFFFFAF
:10313000FFFFFFFFFFFFFFFFFFFFFFFFFFFFFFFF9F
:10314000FFFFFFFFFFFFFFFFFFFFFFFFFFFFFFFF8F
:104000000080001095530000F7530000AD4A0000F7
:10401000F7530000F7530000F753000000000000C2
:1040200000000000000000000000000055500000EB
:10403000F75300000000000005510000415100004E
:10404000F7530000B1810000CD810000E98100003C
:10405000F7530000F7530000F7530000F753000038
:10406000F7530000F7530000BD8B0000CD8B00001C
:10407000F7530000F7530000F7530000F753000018
:10408000F7530000F7530000F7530000F753000008
:10409000F7530000F7530000F7530000F7530000F8
:1040A000B5840000F7530000ED700000F7530000E6
:1040B000F7530000F7530000F7530000F7530000D8
:0C40C000F7530000F7530000F753000016
:1040CC00F8B5114E054606EB401630460F4606F085
:1040DC0081FE0446304606F003FF002C04DA21462C
:1040EC000A4801F0BBFE0CE0094B002243F82520E6
:1040FC00B368084A084842F8253029463A4601F088
:10410C00ADFE2046F8BD00BF4001001070B20000AB
:10411C0000000010E835001097B20000F7B5144B02
:10412C000C4653F822600546760A0196009206F07A
:10413C003DFE019B0746B3FBF0F61F2E009A88BF8D
:10414C004FF0FF3411D80B4B06EB421253F8220000
:10415C0006F032FE019B294607FB1636801902F049
:10416C008BFD0028B8BF6FF001042046FEBD00BFD8
:10417C000000001084150010F0B5824B8DB003F5D3
:10418C008062002818BF134603937F4B1B783BB902
:10419C001A460398C2500433B3F5806FF9D1EEE0A0
:1041AC0004F03EF80120014603F080FD774B784A7D
:1041BC001E78002311461C46764DDFF8DCE1049294
:1041CC001CE0072C1DD831F902CBBCF1000F14DA1E
:1041DC000CAA171907F8080CEF5602EB440001342F
:1041EC00BCF1FF3F20F8187CE4B206D100274FF653
:1041FC00FE704EF8237021F8020C0133D8B2B04295
:10420C00DFD3664B049A1B78D3F1010338BF00232C
:10421C00072C98BF43F00103002B39D05B4B5D4951
:10422C001D7800239E462DE0072C31D832F802CBA6
:10423C000FFA8CF6002E24DD0CAF3E1906F8080C94
:10424C000CF1FF3CC85C1FFA8CFC07EB440647B230
:10425C0001341CF0070F26F8187C08BF504E22F8CA
:10426C0002CC08BF16F803C0E4B204BFCCEB0000CC
:10427C00C854C856002804DC002701F803E022F8D3
:10428C00027C0133D8B2A842CED32346002C6CD08A
:10429C00444F0026404B254631E00AAA945D4FF46A
:1042AC0000712246384602930596FFF737FF029BB2
:1042BC003D4853F8242050F8241002F500728A422D
:1042CC0043F8242003D3324A002122F8141002931D
:1042DC0003F0ACFF01362D2807F50077029B0ED9B1
:1042EC000A22059EB0FBF2F102FB1102731C2F484F
:1042FC00009501F0B3FD049F7C1CE4B204E0F0B225
:10430C00A8420490C9D32C460DF1160CDDF80CE034
:10431C0001230CEB440447F6FF7521E00F7811F8EC
:10432C00016C01F5007106EB072630F9027F36B2FD
:10433C0007FB0622A042F1D11212AA42C8BF47F6CF
:10434C00FF7203DC1A498A42B8BF0A4612040233D0
:10435C0040F2012142EA12428B424EF8042B0AD061
:10436C00104A6046D1180022E4E7039E335104340E
:10437C00B4F5806FF9D10120002103F097FC0DB04A
:10438C00F0BD00BF40090010C014001074500010A4
:10439C00C41400104415001000000010C4350010A7
:1043AC0080140010E8360010E8350010CBB2000085
:1043BC000080FFFFF0B595B00EAC0646644912AD17
:1043CC00204606F047FE32466249284604F036FD88
:1043DC002946204606F02FFE0120014603F066FC1C
:1043EC005D4B00221A705D4B01321A7021465C48FD
:1043FC0001F034FD5B48214606F0ECFC002802DAA3
:10440C00594801F02BFD07AE0025B21C574F2C4626
:10441C0004923046192106F0B1FD002836D0002157
:10442C001022049806F0D0FE514B0021E8500A22CD
:10443C00701D06F0C9FEDFF83CC10A220CF804001E
:10444C000021F01D06F0C0FE4B4AC3B2135513B148
:10445C00424A0021117006F10C010C2238460393DC
:10446C0006F007FE039BDFF80CC100931CF8043028
:10447C00DFF8FCC001933A4655F80C303F48214612
:10448C0001F0ECFC344B1A7801321A7001340D3700
:10449C000435402CBDD1334806F022FD00244BE0FE
:1044AC00324B0D2101FB04312046FFF709FE054676
:1044BC0018B1334801F0D2FC38E006F077FC314BF0
:1044CC00314A400203EBC413059004932E4602EBD1
:1044DC004417DFF8B8C05CF824309D4226D2384629
:1044EC0006F0BCFC002821DB284606F015FD002850
:1044FC00034605DB0DF14F00012106F01DFD0346BF
:10450C003846039306F0ECFC039B002B0EDB049B5C
:10451C003A69314643F8042F1D480493013601F0E3
:10452C009DFCDDF814C0202E6544D2D1194B00221D
:10453C0023F814200134E4B2DFF81CC09CF80030DE
:10454C00A342ADD80120002103F0B0FB15B0F0BDA3
:10455C0000C0072009B3000074500010C4350010CF
:10456C000CB30000C835001021B30000401100103E
:10457C007850001084350010000100103BB300008F
:10458C0088B300008015001040010010E8350010C1
:10459C00A1B30000C414001010B50024204601344F
:1045AC000421E4B203F0A2FB082CF7D103F0CAFB00
:1045BC0000F00700032806D0052806D0062814BFF3
:1045CC000120022002E0042000E0032010BD0000C6
:1045DC00C1F30722F8B50C0E12F00F03C1F307401C
:1045EC004DD101F00F010839C9B2012947D802F0A9
:1045FC00F002902A00D15CB92C4B00221E782C4B77
:10460C002C4C1D78DFF8B0E01346DFF8B0C033E077
:10461C00264ADFF8A8E01578DFF8A4C0294A2A4911
:10462C000BE052F8046FB04201BF4FF0FF362EF88A
:10463C0013600E5D0CF803600133DEB2AE42F0D3B2
:10464C001DE0E15CB1B95EF82310884212D115B9B6
:10465C001E4FF95C19B900212CF802100AE0184F12
:10466C002CF80210FF56C908013197FBF1F1184FD5
:10467C000131F95401330232D9B2B142E1D3FFF71F
:10468C008BFF144C0146237883420ED02070124DC0
:10469C00124801F0E3FB00232B70114801F0DEFB04
:1046AC002078FFF787FE01232B70F8BD74500010A3
:1046BC00C43500108435001078500010C41400105C
:1046CC004415001074500010F0B1000000010010EF
:1046DC008014001010C00720C0140010B1B30000EB
:1046EC00C5B30000704770477047000008B54FF421
:1046FC000071024A024803F095F908BD854100009B
:10470C004009001008B54FF0FF3003F0BDFA174B0D
:10471C0001221A70164801F0A1FB164801F09EFB0D
:10472C00154801F09BFB02F0D9F9002006F020FBA4
:10473C00002802DA114801F091FB114801F08EFBC0
:10474C00FFF72AFF0F4B1870FFF734FE0E4801F0ED
:10475C0085FB0E4B01221A700020FFF7C7FF0C4897
:10476C0001F07CFB642003F047FD08BD785100107C
:10477C00DDB30000FEB3000027B400003EB400001F
:10478C0059B4000010C007206CB40000C014001015
:10479C0082B4000070477047704708B500F0A2FF64
:1047AC00FFF7A1FF08BD000013B500F07DFA02ACC5
:1047BC0044F8040D0121204600F078FB00F074FA57
:1047CC00019A431F9A4238BF019001F0A3FE0248A0
:1047DC0001F000FDEEE700BFDD45000013B500F071
:1047EC0063FA02AC44F8040D0121204600F05EFB94
:1047FC0000F05AFA019A431F9A4238BF01900648BA
:10480C0000F00CFF054801F0ABF8054803F033FD50
:10481C0001F0FDFEE8E700BFF5460000A3470000ED
:10482C00A547000030B5002085B002F0A5FB0020A4
:10483C0003F008FD002003F015FA002002F092FFAF
:10484C00002000F02DFE002000F0B0FE002000F053
:10485C000DFF002000F018FF002002F0A5F800204A
:10486C0003F006FD002002F09CF8002003F0D8FDB8
:10487C00002001F0B7F9002001F090FE002001F0BB
:10488C0093FE002001F0D4F8012001F091F80020F3
:10489C0001F0CEF8002001F08BF8002003F0FEF8B8
:1048AC0006F092FBFFF72EFF01F060F94FF4FA646B
:1048BC004FF47A7003F0D0FC14F1FF34F8D10325D7
:1048CC0023460D494FF480720C48009501940294D4
:1048DC00039400F0EFF808494FF48072234608481F
:1048EC00009501940294039400F0E4F800F0B0F900
:1048FC00204605B030BD00BF93B40000E94700006E
:10490C00B547000008B5FFF7EDFE024800F018FEB1
:10491C0008BD00BFA747000008B5FFF73BFFFCE749
:10492C0070B50024642642F210750134B4FBF6F322
:10493C0006FB13430BB901F0EDFD084801F04AFCEE
:10494C00B4FBF5F305FB1343002BEED103F0C6F9D2
:10495C00C143012003F0AAF9E7E700BFDD450000E1
:10496C0010B5036888B007934368374C0693836887
:10497C000593C368049303690393436902938369A2
:10498C000193C3692046009301F068FA2F4801F0A7
:10499C0065FA204601F062FA07992D4801F05EFA9B
:1049AC0006992C4801F05AFA05992B4801F056FA51
:1049BC0004992A4801F052FA0399294801F04EFA59
:1049CC000299284801F04AFA0199274801F046FA61
:1049DC000099264801F042FA254B2648196801F047
:1049EC003DFA254B2548196801F038FA244B254827
:1049FC00196801F033FA244B2448196801F02EFA97
:104A0C00234B2448196801F029FA6FF07F4001F01C
:104A1C00E0F8002001F0E1F8002000F0C9FF01F0FF
:104A2C0063F80020014600F0C9FF1B4801F090F824
:104A3C000121002000F0C2FF0199184801F0B6F8DE
:104A4C00FFF76EFF08B010BDEFB4000003B5000017
:104A5C0017B5000022B500002DB5000038B50000D8
:104A6C0043B500004FB500005AB5000065B5000015
:104A7C0038ED00E071B5000028ED00E07EB50000D7
:104A8C002CED00E08BB5000030ED00E098B5000097
:104A9C003CED00E0A5B50000B2B50000C3B50000C8
:104AAC001EF0040F0CBFEFF30880EFF30980FFF743
:104ABC0057BF7047F0B585B003930C9B029048200C
:104ACC0000930E4614460A9F00F0D4FB009B05464B
:104ADC00002800F09B801BB9A00000F0CBFB034624
:104AEC002B631BB9284600F08FFB8FE0A200A52199
:104AFC00184606F098FA2B6B013C03EB840323F069
:104B0C0007033146102205F134000093002406F00F
:104B1C00B0FA2E1D042F34BF3A460422EA626A64AE
:104B2C0085F843403046019200F043FA05F1180035
:104B3C0000F03FFA019A009BC2F105021846AA61E7
:104B4C000299039A2D616D6200F06DFA286000F0F5
:104B5C00BBFA314B1A6801321A601B68012B26D143
:104B6C002E4B2F4A1D60142303FB042001340192A9
:104B7C00009300F013FA052C019A009BF4D1294BF9
:104B8C00294C1846009300F009FA204600F006FA6A
:104B9C00264800F003FA264800F000FA254800F0F9
:104BAC00FDF9009B244A1360244B1C6008E0244B45
:104BBC001B682BB9194B1A68D26ABA4298BF1D6090
:104BCC00204AEB6A11688B4288BF13601E4A116839
:104BDC00013111601D4A11688B4288BF1360104A65
:104BEC00142000FB0320314600F0E6F900F078FABF
:104BFC000B9B03B11D60124B1B6853B1074B1B6819
:104C0C00DB6ABB4205D200F057FA02E04FF0FF30EE
:104C1C0000E0012005B0F0BDE04700108C4700100B
:104C2C0024470010B4470010C847001090470010EC
:104C3C00FC46001010470010F0460010A84700106A
:104C4C00F4460010E4470010B0470010AC470010C9
:104C5C001FB5002423460C480C494FF48072009475
:104C6C00019402940394FFF725FF0128034609D110
:104C7C004FF0BF0080F31188054A1360054B1C6090
:104C8C0000F0FAF91FBD00BF514E0000D0B5000076
:104C9C00F4460010A4470010024B1A6801321A6047
:104CAC00704700BF8847001010B500F00DFA034B99
:104CBC001C6800F015FA204610BD00BFA447001078
:104CCC00264BF7B51B68002B3CD1254B1A680132DB
:104CDC001A601B68002B28D1224A234B11681868D4
:104CEC0010601960214B1A6801321A601DE0396896
:104CFC005A6891422CD31A1D10460192009300F071
:104D0C0082F9009B9A6A22B103F1180000F07BF93A
:104D1C00009BD86A23680199984288BF20601423AD
:104D2C0003FB006000F048F903E00E4D0C4F104CF3
:104D3C00104E2B681B685BB12B68DB68DB68002BA3
:104D4C00D5D105E00C4B1A6801321A60FFF7DAFD79
:104D5C00094B1B680BB9FFF7D5FDFEBD884700104A
:104D6C00A4470010F0460010A8470010EC460010B5
:104D7C00AC47001024470010E8460010F7B500F0CF
:104D8C00A3F9284B1A68013A1A601D68002D44D10A
:104D9C00254B1C68002C41D0244F254E1BE004F100
:104DAC00180000F030F9211D0846019100F02BF994
:104DBC00E06A3368019998421E4B88BF3060142218
:104DCC0002FB003000F0F8F81B4A1368E26ADB6A59
:104DDC009A4228BF01253B681BB1FB68DC68002C9C
:104DEC00DDD1164C23682BB908E0FFF769FF236867
:104DFC00013B23602368002BF7D107E0012D05D080
:104E0C000F4A1268012A18BF1C4607D10C4B00220E
:104E1C001A6000F051F9012400E0002400F060F960
:104E2C002046FEBD88470010E04700109047001058
:104E3C00AC470010244700108C470010E8460010C7
:104E4C00DC470010F8B5154E154D164F3368E3B11D
:104E5C00FFF722FF2C68FFF791FFB4B100F034F993
:104E6C002C680CB1EB68DC68201D00F0CCF83B68BA
:104E7C00013B3B603368013B336000F031F9206B40
:104E8C0000F0C2F9204600F0BFF9074A1368012B65
:104E9C0001D900F011F9FFF73FFDD7E7F8460010F4
:104EAC00FC460010E04700102447001038B50C46B3
:104EBC000546FFF7F1FE174A2B681168E418994272
:104ECC0002D29C4208D201E09C4207D313689C4258
:104EDC0094BF0023012302E0002300E001232C6097
:104EEC008BB10D4D2868043000F08DF82B685C6098
:104EFC00084B1B689C4234BF084B094B1868296847
:104F0C00043100F066F8FFF739FF08B900F0D4F867
:104F1C0038BD00BFA44700108C470010A8470010F4
:104F2C00F0460010184B10B51B6833B10122174B1B
:104F3C0028E018680138186002E0154B1549142256
:104F4C00D3F800C0134802FB0CFC51F80C40002CA9
:104F5C00EFD00F4B4FF0140C19680CFB01FC00EB5D
:104F6C000C035A680CF1080C5268604482425A6077
:104F7C0004BF52685A60074B142202FB01314B6884
:104F8C00DA68054B1A6010BD88470010DC4700102A
:104F9C00AC470010244700108C47001000F10803A8
:104FAC004FF0FF3282604360C360036100230360F3
:104FBC00704700230361704743685A688B604A60EE
:104FCC005A6891605960036841600133086103605D
:104FDC0070470A68B2F1FF3F0CBF036900F1080388
:104FEC0001D106E05B68D3F804C0DCF800C094453E
:104FFC00F8D95A68086191604A6059608B600368FF
:10500C00013303607047436882689A60826853601A
:10501C0003695968814208BF5A60002202611A680C
:10502C00013A1A607047031F4FF0807C40F804CCA3
:10503C00181F43F8041C002140F8041C40F8182CDD
:10504C00A3F13C0070470000064B19680868B0E8F3
:10505C00F00F80F309884FF0000080F311884EF0B8
:10506C000D0E70478C47001002480068006880F3F2
:10507C00088800DF08ED00E00B4B10B51A6800241F
:10508C0042F47F021A601A6842F07F421A60074AA3
:10509C00074B1A600722043B1A60064B1C60FFF793
:1050AC00E3FF204610BD00BF20ED00E0BFD401009F
:1050BC0014E000E014C00720024B4FF080521A603D
:1050CC00704700BF04ED00E04FF0BF0080F3118883
:1050DC00024B1A6801321A60704700BF14C00720D7
:1050EC00044A1368013B13601BB94FF0000080F3B6
:1050FC001188704714C00720EFF309800C4B1A6815
:10510C0020E9F00F10602DE908404FF0BF0080F34C
:10511C001188FFF707FF4FF0000080F31188BDE8FE
:10512C00084019680868B0E8F00F80F309887047E8
:10513C008C47001008B5074B4FF080521A604FF0A7
:10514C00BF0080F31188FFF7BBFD4FF0000080F328
:10515C00118808BD04ED00E0F0B50C2404FB00FC44
:10516C0009180B4B04FB01F533F80C605F1926F49E
:10517C0000465E53788033F80C0089B24004400C32
:10518C0004FB0034618042EA010123F80C10F0BDED
:10519C0020C107200C2110B548430A4B1A18B2F84D
:1051AC0006C0948801FB0C3CACF80440B2F804C077
:1051BC00D28801FB0C31CA801A5A22F400421A52CE
:1051CC0010BD00BF20C10720F8B50C2505FB00F66B
:1051DC000C4C0746A05B05FB00F3E35E002B0FDADB
:1051EC00FFF7D8FFA35B6B43E35A5B045B0C05FB37
:1051FC0003435F80A35B5D43635B23F40043A353D2
:10520C00F8BD00BF20C1072070B5064600282ED07F
:10521C00174C0C25361BFFF73FFDB6FBF5F6B6B267
:10522C003046FFF7D1FF05FB06F3E21850886843C0
:10523C00215E00290BDAE15A6FEA41416FEA5141D4
:10524C002152E35A528805FB034462800DE0A18889
:10525C0005FB014591800021EE80A680D180E25AA9
:10526C006FEA42426FEA5242E252FFF787FD70BD8D
:10527C0020C10720F7B5064600287FD0FFF70CFDAC
:10528C00082E07D9A6F109010C23B1FBF3F1023169
:10529C0089B200E001213A4847F6FF738488002563
:1052AC0022464FF00C0E18E030F80C506D04C4EB95
:1052BC005545ADB28D4234BF4FF0000C4FF0010C90
:1052CC009D422CBF4FF0000C0CF0010CBCF1000FF8
:1052DC0018BF224618BF2B4634460EFB04FC00EBCD
:1052EC000C06B688002EDFD147F6FF70834218BF3C
:1052FC001D4618BF14460C226243214B9A5A520485
:10530C00560C82B18D4203D12046FFF743FF2EE0AD
:10531C006D1AADB2204629464FF400422C19FFF706
:10532C001BFFA4B223E06218B2F5557F06DB2246C0
:10533C00144800F093FDFFF721FD1FE01CB901227A
:10534C001A809A8001340C2202FB04F30C4E65186F
:10535C00F118C888AFB202FB006002FB05658780BC
:10536C002846019305F054FE019B6C80F752FFF721
:10537C0005FD034B0C2606FB043604363046FEBDF9
:10538C0020C10720D4B60000684620F007018D46E6
:10539C0001B50E4A0E4B0F4903E052F8040B43F8CB
:1053AC00040B8B42F9D30C4B0C49002201E043F85F
:1053BC00042B8B42FBD30A4B0A49002201E043F831
:1053CC00042B8B42FBD3FFF72DFAFEE7C8CA000073
:1053DC0000C0072020C1072000000010F05400106E
:1053EC0020C1072020E907207047FEE738B5254B80
:1053FC00012400211C700A46204602F057F8214671
:10540C000022204602F052F8204602F025FF00212F
:10541C002246204602F04AF821462246204602F057
:10542C0045F8194819491A4A0023C45C11F803C0FD
:10543C00D55C85EA0C0C44EA0C0C00F803C012F89D
:10544C0003C001F803C00133102BEED1114B1B68C4
:10545C0003B19847104B1B789BB1104B1A7882B153
:10546C00013A1A7009490023074A184611F803C07B
:10547C00D45C84EA0C0C01F803C0D0540133102B1B
:10548C00F4D138BDED4700107C510010AC51001028
:10549C009C510010E8470010EC470010EE4700103C
:1054AC0038B500282FD1194B194DDFF868E0DFF81B
:1054BC0068C01A4918600346FF222B540EF80020CE
:1054CC000CF800200B54013000241028F4D10120DA
:1054DC002146024601F0EAFF01200246014601F096
:1054EC00E5FF0221012001F061FE062201200321CB
:1054FC0002F058F80A4B01221A700A4B20461C7015
:10550C00094B1C7001E04FF0FF3038BDE84700102C
:10551C008C510010AC5100109C5100107C510010AB
:10552C00ED470010EC470010EE470010024B002036
:10553C001A78024B1A707047EC470010EE470010B7
:10554C0013B5154B1A7822B300241C70134B21464B
:10555C0018602246012001F0A9FF012001462246D5
:10556C0001F0A4FF012002F077FE01202146024643
:10557C0001F09CFF01200146024601F097FF084B09
:10558C00012000930749084A102302F033F9204602
:10559C0001E06FF001001CBDED470010E847001062
:1055AC00F95300008C5100109C51001060B9DFF8C9
:1055BC0020C0084AFF2103460CF800101354013098
:1055CC001028F9D1002001E04FF0FF30704700BFE8
:1055DC00AC5100107C5100100F2896BF024B4FF0BD
:1055EC00FF30185C704700BFAC5100100F2870B52D
:1055FC0004460E460CD801F08DFD074B1D5D1A5D5F
:10560C0006EA050522EA06061E5501F099FD00E0A2
:10561C000025284670BD00BF7C510010F7B506462A
:10562C004FF0FF30FEB100242046FF21FFF7DEFFD4
:10563C000746A0B10025E30057FA05F212F0010F5E
:10564C000AD0094AE818115D0193294101F00101C2
:10565C00B047FFF76BFF019B0135082DECD10134EE
:10566C00102CE1D10020FEBDAC51001038B9054A18
:10567C000346135401301028FBD1002001E04FF0F9
:10568C00FF3070478C51001010B520BB134C1449DF
:10569C00024604F8202011F8303043F00F036FF36A
:1056AC00041301F8303001EBC00393F803C0013050
:1056BC000CF0F00C6FF3071C83F803C093F805C0D3
:1056CC0040286FF3030C5A709A701A7183F805C056
:1056DC00DFD1002001E04FF0FF3010BDC0510010B1
:1056EC00C0520010F7B59B4E9B4D002416F8243089
:1056FC00002B00F0288105EBC4039A780AB1013A1B
:10570C009A7006EB84039F7817B35B7803225B09CE
:10571C0012FA03F115F834200193134662F3830354
:10572C00013F8E4AFFB205F83430D35DC9B219423D
:10573C000ED03846FFF75AFF50B13846FFF74CFFF2
:10574C00019B184115F8343060F3010305F834302F
:10575C0015F83410C1F3810201F003039A4200F0F2
:10576C00F28001F00F02012A16F8243002D113F056
:10577C00100F08E0072A02D113F0200F03E00E2AC5
:10578C0002D113F0400F06D1082A14BF00200120CB
:10579C0010EAD31062D001F01001C9B229B905EB9F
:1057AC00C4029278E02A00F2CE80FF2B0BD105EBDD
:1057BC00C40315F83420DB7802F00F0203F00F035A
:1057CC009A4200F0C08015F8343043F0100305F80D
:1057DC00343005EBC4031A799978891A142901DD40
:1057EC0014329A7006EB84035A7812F0030310D02B
:1057FC00022B4FEAC40320D1EB189978C2F3820232
:10580C00C2F1070251FA02F2597808BF01228A1A32
:10581C0016E005EBC4035979C2F38202D24301F0BE
:10582C000F01521802D559780139597005EBC40390
:10583C00597962F30301597103E0EB185A78013A74
:10584C005A7005EBC4039A781A714FF0FF329A70B4
:10585C0015F83410DA7861F3030273E0022A02D1EE
:10586C0013F0010F0DE00B2A02D113F0020F08E028
:10587C000D2A02D113F0040F03E0042A63D113F0B4
:10588C00080F60D001F01001C9B221B105EBC402C0
:10589C009278E02A57D8FF2B09D115F8343005EB54
:1058AC00C402D27803F00F03B3EB121F4BD015F8E0
:1058BC0034306FF3041305F8343005EBC4031A7954
:1058CC009978891A142901DD14329A7006EB840335
:1058DC005A7812F0030310D0022B4FEAC40321D1E3
:1058EC00EB189978C2F38202C2F1070251FA02F264
:1058FC00597808BF0122521817E005EBC4035979F7
:10590C00C2F3820201F00F018A1801320F2A02DD64
:10591C0059780131597005EBC403597962F30301CD
:10592C00597103E0EB185A7801325A7005EBC40335
:10593C009A781A714FF0FF329A7015F83410DA78A1
:10594C0061F30712DA700134402C7FF4CFAE0020E3
:10595C00FEBD00BFC0510010C05200107C510010A1
:10596C00F7B505464FF0FF30BDB100240B4F26466E
:10597C0001F0D0FB07EBC40393F9011039B15E7051
:10598C00019101F0DDFB20460199A84701E001F0EF
:10599C00D7FB0134402CEBD10020FEBDC0520010CF
:1059AC00024B93F90000C00F704700BFD054001099
:1059BC00014B187000207047EF47001008B50B4BD7
:1059CC0018800B4B19800B4B9A8812B1D2B29B7971
:1059DC0001E0082306224243DFF81CC04B43ACF81D
:1059EC000020064A138004F019F908BDDA5400109F
:1059FC00E0540010C0540010E2540010CC540010BD
:105A0C0008B5034B1880034B198004F0B1F808BD9E
:105A1C00E2540010CC540010044A0023C15C995489
:105A2C000133042BFAD10020704700BFDC54001066
:105A3C0007B500283BD11F4B1F4A9C4607CAACE850
:105A4C000300ACF800204FF47F521278422A13D195
:105A5C0043F6C17212781A7043F6C27212785A70F9
:105A6C0043F6C37212789A7043F6C47212789A8015
:105A7C0043F6C5721278DA80104B00229A80104BD4
:105A8C0002A81B6840F8043DFFF7C6FF002003F096
:105A9C00C3FE00280DDB03F0E5FF00200146FFF7F5
:105AAC008DFF00200146FFF7ABFF002001E04FF017
:105ABC00FF300EBDD0540010F8B60000C0540010DA
:105ACC0054B700008278074B043282181A600278AF
:105ADC009A804278DA80C27800201A8101229A7268
:105AEC00704700BFC054001008B503F0BBFF08BDE1
:105AFC001FB5144B844693F90030002B17DA124B68
:105B0C004FF0FF309A88D2B10DF1040E93E80700E4
:105B1C008EE80700DA881989D2084A430CFB020C7C
:105B2C00CDF804C09EE8070004F0A2F801E003F0F1
:105B3C0097FD002803DB054B1A8801321A8005B04B
:105B4C0000BD00BFD0540010C0540010DA54001037
:105B5C0038B50546002402E0FFF7CAFF044315F8E8
:105B6C00010B0028F8D1204638BD000038B50C4B8D
:105B7C0000241C7021462046FFF720FF05460948EB
:105B8C00FFF7E6FF012140EA05052046FFF716FF67
:105B9C0005430548FFF7DCFF45EA000038BD00BFB0
:105BAC00EF470010DDB30000FEB300000FB410B5DA
:105BBC0092B014AA52F8041B01AC2046119203F0C7
:105BCC004CF92046FFF7C4FF12B0BDE8104004B0FA
:105BDC00704708B504F046F808BD08B504F045F860
:105BEC0008BD000038B504464FF0FF30002C39D109
:105BFC001D4A102313701D4A204613701C4B1C6049
:105C0C001C4B1C601C4B1C601C4B1C601C4B1C60FC
:105C1C0002F03EFDC50F204600F01AFD0028B8BF6B
:105C2C0045F00205002000F0B1FE164A0028B8BF6E
:105C3C0045F0040500231370134A1370134A1370B4
:105C4C0043F6D0731B78422B06D143F6D1731B78E5
:105C5C0013F0800F08BF13700D4A002313800D4AF8
:105C6C006842136038BD00BF18C007201AC0072057
:105C7C00F8470010F04700101048001014480010AE
:105C8C0008480010FC47001000480010FD470010A9
:105C9C00FE4700100C48001010F0F00F70B50546D0
:105CAC000C4604D101280CBF164B174B1D78174B13
:105CBC0005F00F061B682BB166F307142846214626
:105CCC009847E8B905F0F005202D0CD0302D11D0F7
:105CDC00102D18BF4FF0FF3012D166F30714204679
:105CEC0002F046FD0CE066F307143046214600F046
:105CFC0069FD05E066F307143046214600F04BFEC3
:105D0C0070BD00BF1AC0072018C00720F047001054
:105D1C00F0B585B0174603900D46002606230722E2
:105D2C004FF0040C40E0B91B022914D003291FD0FA
:105D3C000129A95D18BF6CF3030406F1010618BF15
:105D4C0061F30F241AD1052060F3030461F30F24CF
:105D5C006FF3174409E0A95D63F30304013661F3A3
:105D6C000F24A95D013661F317446FF31F640DE036
:105D7C00A95D62F3030461F30F240136A95D0136BA
:105D8C0061F31744A95D013661F31F640398214642
:105D9C0001920293CDF800C0FFF77EFF0028019A14
:105DAC00029BDDF800C002DBBE42BCD3002005B074
:105DBC00F0BD000010B5F023A0B08DF8003000232A
:105DCC008DF801308DF802307E338DF8033032239C
:105DDC008DF804300E4B0DF16B0C1B788DF80530E3
:105DEC000F238DF806306B46DA1D03E002F8014BE9
:105DFC00624503D011F8014B002CF7D1F72102F8C2
:105E0C00011BD21A6946FFF783FF20B010BD00BFFB
:105E1C00FD47001000B5F02389B08DF80030002349
:105E2C008DF801308DF802307E338DF8033032233B
:105E3C008DF80430084B8DF806101B788DF8072070
:105E4C008DF805306946F72309228DF80830FFF7E5
:105E5C005FFF09B000BD00BFFD4700100FB430B5A7
:105E6C00A5B0289C02AD204605F0FBF864281ED98D
:105E7C002846204905F0EEF8F0238DF80030002379
:105E8C008DF801308DF802307E338DF803303223DB
:105E9C008DF80430184B08221B788DF805300D2333
:105EAC008DF8063033338DF8073002AB0FE029AA9A
:105EBC0028462146239202F0D0FFDDE7013292B250
:105ECC0000F07F00882A03F8010C194604D019460B
:105EDC0013F8010B0028F1D1F7230B70074B01329B
:105EEC00187892B26946FFF713FF25B0BDE8304031
:105EFC0004B0704778B70000FD4700101AC00720A7
:105F0C0030B50B4659498BB0097804460D295ED043
:105F1C0001D839B19DE00E2900F0A5800F2940F081
:105F2C0098808AE01BB1012B514B02D156E0504AAC
:105F3C0098E01B78052B25D00AD8022B17D002D855
:105F4C00012B40D111E0032B13D0042B3BD112E0D9
:105F5C00082B2FD004D8062B1ED0072B33D11EE0D4
:105F6C00092B29D07F2B2ED12AE0424925E042492A
:105F7C0023E0424921E000F095FF6D46024640497E
:105F8C00684612E0684600F0A1FF00286D46BCBFD1
:105F9C0020463C490BDA10E000F092FF01E000F0E3
:105FAC0092FF394902466D46684602F047FF20468B
:105FBC00694602E0354900E03549FFF7FBFE52E047
:105FCC0000F000FF4FE020460E210D223EE01BB1F9
:105FDC00012B304D14D103E02E4BFF221A7042E0FE
:105FEC002B78FF2B08BF2A703DD0002B3BD12A4BBE
:105FFC001B68002B37D0294908781146984732E0A6
:10600C002A78BAB90F21FFF705FF2B78002B2AD17C
:10601C00214B1B68002B26D1214B012C1D782148CC
:10602C0018BF1C702146FFF719FF012D1CBF1C4B1C
:10603C001D7018E00E21102208E01B4A13B1012B31
:10604C00194A01D153600EE0526862B9FFF7E2FEC3
:10605C0009E00E210A462046FFF7DCFE124A002317
:10606C001370024A137000200BB030BDF4470010BF
:10607C0018480010CBB70000D2B70000E2B7000000
:10608C00CBB50000EAB7000009B30000DDB3000097
:10609C00FEB3000019C0072008480010FC47001090
:1060AC001AC00720ECB7000000480010F72910B503
:1060BC000A465CD82F4B1C7804F00803DBB21BB1EA
:1060CC002D49097881424FD1A0F11101C9B206299D
:1060DC004AD9294908700BBB264B1B7803F00703E0
:1060EC00042B03D82549C95C914223D104F0070441
:1060FC00052C03D12249097891421BD1013303F0BD
:10610C0007021C4B052A197862F3020184BFCAB23C
:10611C0042F00802197088BF1A7028E012F0800F44
:10612C000ED0F72A06D104F01004E4B214B1022107
:10613C00FFF7E6FE0F4B00201870124B187017E09B
:10614C0004F01004E4B25CB90A4B197841F0100168
:10615C0019700C4B21461A70FFF7D2FE204607E04F
:10616C000121FFF7CDFE02E04FF0FF3000E00020F0
:10617C0010BD00BF00480010FC47001084B80000A0
:10618C00FD470010F447001010B50D4A0446137873
:10619C0003F00803DBB23BB10A4B1B78834203D1FB
:1061AC0000231370084A1370084B1B680BB1204670
:1061BC00984721460648FFF751FE002010BD00BF4E
:1061CC0000480010FC470010F44700101448001061
:1061DC003AB80000F0B5002289B0012105460491BF
:1061EC00019203921346C84F00E0059B5A1CD2B291
:1061FC0005920C2B58D8DFE803F0070F151B21274D
:10620C002D33393F454B510007A802F0CBFA079CC0
:10621C00C4F30314103458E0002007A900F0DEFA90
:10622C00202452E0012007A900F0D8FA21244CE0E8
:10623C00022007A900F0D2FA222446E0032007A985
:10624C0000F0CCFA232440E0002007A900F0A6FBC4
:10625C0030243AE0012007A900F0A0FB312434E0FF
:10626C00022007A900F09AFB32242EE0032007A994
:10627C0000F094FB332428E0042007A900F08EFBE7
:10628C00342422E0052007A900F088FB35241CE00B
:10629C00062007A900F082FB362416E0072007A988
:1062AC0000F07CFB372410E0019A0399131E18BFF1
:1062BC00012309298CBF002303F00103002B00F0FC
:1062CC001F81002201920592E8E010F10A0F04D11F
:1062DC002046FFF759FF002312E10028C0F2DE80B0
:1062EC000199039A4B1CDBB207990193531CDBB247
:1062FC006FF30711039301F00F0303F1080202F08F
:10630C000F02062A079104D82046002D40F0C580C4
:10631C00C4E09A1E0D2A00F2C180DFE812F0710071
:10632C0071000E006D0074007400BF00BF00BF0050
:10633C00BF00BF00BF00BF000E009DF81D10F72965
:10634C005ED8F0291CD1714A1368CBB904F0F00265
:10635C00102A02D0302A13D109E06D4A1380012291
:10636C0004F00F0312FA03F3684A138008E0684A3A
:10637C001380012204F00F0312FA03F3634A5380D3
:10638C002046FFF793FE9DF81C3003F00F030F2BF4
:10639C0009D09DF81E102046FFF788FE9DF81F10AF
:1063AC002046FFF783FE3E68DEB19DF81D102046A7
:1063BC00B0479DF81C30C6B203F00F030F2B10D062
:1063CC009DF81E103B682046984702463B689DF896
:1063DC001F10009220469847009A024342EA060694
:1063EC00F6B22B1E18BF0123002E14BF002603F09B
:1063FC000106002E52D04EE09DF81D20F72A02D93E
:10640C00002D48D14AE0043BDBB20293002B79D03B
:10641C009DF81D6020463146FFF748FE3B681A4642
:10642C001BB1204631469847C2B2029B012B24D0A7
:10643C009DF81E60204631460092FFF737FE3B6800
:10644C00009A33B1204631469847009A40EA02023E
:10645C00D2B20299022910D09DF81F602046314615
:10646C000092FFF723FE3B68009A33B12046314679
:10647C009847009A40EA0202D2B2F72E02D1234B7F
:10648C00002119602B1E18BF0123002A14BF002302
:10649C0003F0010313B107992046A8471B4B1A6858
:1064AC003AB31B490A88B2F57A7F22D9198861B1AF
:1064BC00002251FA02F313F0010303D10132102A26
:1064CC00F7D11A461032D0B20DE0588858B10B46AD
:1064DC0050FA03F212F0010203D10133102BF7D161
:1064EC0013463033D8B2FFF74FFE084B00221A6028
:1064FC0003E0049A002A7FF478AE002009B0F0BDC6
:10650C000493CBE7029ABDE7104800100C4800102A
:10651C00FE47001010B502F071F9044600F0C0F807
:10652C0040EA040400F035FA054B4FF6FF711A8867
:10653C0044EA00008A4201D001321A8010BD00BF2B
:10654C00FE470010F0B5134E85B034680746ECB129
:10655C00C1F307638DF80E300F4BC1F30742C1F343
:10656C000720002401F00F018DF80D208DF80C0090
:10657C005A5C254608E003AB595D384601923368F6
:10658C009847019A044301359542F4DB204605B047
:10659C00F0BD00BFF847001068B70000002814BF1A
:1065AC004FF0FF300020704738B9054B054A186092
:1065BC0010231370044A137001E04FF0FF30704742
:1065CC001C4800101BC007201CC0072010F0F00F47
:1065DC0008B504D101280CBF064B074B18780309EA
:1065EC00022B18BF4FF0FF3003D100F00F0002F068
:1065FC0039FA08BD1CC007201BC0072007B502AB29
:10660C0003F8011D19460122FFF7E0FF0EBD002320
:10661C0000E013465A1C042BD2B2FAD90020704762
:10662C00012810B5044688BF4FF0FF300BD800F09E
:10663C0071FD054BFF221A55044B002223F8142040
:10664C0000F07EFD002010BD2048001040480010D6
:10665C0010B504464FF0FF30ECB90F4BFF221C6015
:10666C001C715C719C71DC711C81DC601C745C7431
:10667C009C74DC749C82094B20461A70FFF7D0FF87
:10668C000120FFF7CDFF204602F056F90028B4BFD9
:10669C004FF0FF30002010BD244800103C48001083
:1066AC0008B500F037FD124B4FF6FF711A888A427D
:1066BC0001D001321A800F4B4FF6FF711A898A42B2
:1066CC0001D001321A810A4B4FF6FF715A888A4267
:1066DC0001D001325A80074B4FF6FF719A8A8A42D9
:1066EC0001D001329A8200F02BFD002008BD00BFC2
:1066FC004048001024480010F7B50128C1F30726C4
:10670C0001F00F03C1F307420446F7B2C1F307616E
:10671C0044D846E026488DF8046030F814C08DF853
:10672C000520BCF57A7F8DF8061003D92046FFF7BB
:10673C0077FF22E0DFF87CC09CF800C04CFA04FC28
:10674C001CF0010F19D0072B17DD0E2BCCBF00232B
:10675C000123012D94BF002303F001036BB1164BF1
:10676C001B5DBB4206D1013D8DF804208DF8051050
:10677C00EDB202E0002320F81430F72F98BF0E4B37
:10678C00204698BF1E5501A92A4602F06BF902302B
:10679C0002289CBF094B53F8200001D94FF0FF3061
:1067AC00FEBD0748C55C2846002DB3D1F8E700BFF5
:1067BC00404800103C480010204800108CB80000E5
:1067CC0068B7000038B505460C4628462146FFF749
:1067DC0093FF10F1020FF8D038BD00000128F8B576
:1067EC0004460E4688BF4FF0FF3000F2C5809EE095
:1067FC00C0B210F0800F48D0F72808D9336843F0A6
:10680C000F03336000237070B370F370B5E0C0F306
:10681C000213FB5C28716B71002B2ED1584900F0D0
:10682C000F028A5CF0286A7103D101226870EA7148
:10683C0024E0F72822D1EA791AB1012A2A7810D15A
:10684C0008E02B78052161F303032B706870AA70A4
:10685C00EA700CE0062161F303022A70A870EB7059
:10686C0005E01346072262F303032B70E8702B68D4
:10687C0033600023EB71013300E000236A79AA71C5
:10688C0000222A81002B57D077E02B79F02B17D1DF
:10689C00EB790133DBB2012BEB7102D0022B04D16B
:1068AC0001E0687048E0A87046E02B78042262F39F
:1068BC000303E8702B702B6833600023EB715CE0F2
:1068CC00AB7923B96A792B81013AAA7101E0013BBA
:1068DC00AB716B79012B03D1013BA870EB7004E019
:1068EC00AB790BB1A87000E0E870AB7923BB2B79C6
:1068FC0003F0F002F02A02D01A092B780BE06B7926
:10690C001BB1012B2B7805D102E02B78052202E07C
:10691C00022200E0032262F303032B700C23634377
:10692C00184AD11808794870D358336025E0154BB4
:10693C000C2505FB0435144F204602F05FF80028A7
:10694C00BFF656AF00200C235C430E490B199A7905
:10695C006AB11A89B2F57A7F09D900220A511A71E3
:10696C005A719A71DA711A816FF0090004E00028EB
:10697C000CBF4FF0FF300020F8BD0120E3E700BF53
