:1000000000800010D1000000CD000000CD000000F5
:10001000CD000000CD000000CD0000002E7BFFEFE2
:10002000000000000000000000000000CD00000003
:10003000CD00000000000000CD000000CD00000059
:10004000CD000000CD000000CD000000CD0000007C
:10005000CD000000CD000000B5240000CD00000060
:1000600005250000CD000000CD000000CD000000FF
:10007000CD000000CD000000CD000000CD0000004C
:10008000CD000000CD000000CD000000CD0000003C
:10009000CD000000CD000000CD000000CD0000002C
:1000A000A11D0000CD00000021190000CD000000BE
:1000B000CD000000CD000000CD000000CD0000000C
:1000C000CD000000CD000000CD000000FEE70000E4
:1000D000684620F007018D4601B500230B4A0C4904
:1000E0009818884204D20B49585898500433F5E7C1
:1000F000094B0A4A934203D2002043F8040BF8E765
:1001000002F0CCFE00F00EF8FEE700BF0000001089
:1001100010000010B8320000100100108817001005
:1001200070470000F8B5002001F058FB002001F0F6
:1001300023FD012001F0D5FCBF4BC04C1A6822F40E
:100140004000186019681960256825F0006626606F
:100150001F6C27F440021A64186C18640023B84915
:100160005E5CCF18740104F100557C7805F51C2005
:100170000125F20005FA04F502F1804104F00F07B1
:1001800001F5303221097C00032707FA04F4856168
:1001900052F82160023326EA040642F8216052F840
:1001A0002170062B42F82170026845EA02050560BD
:1001B000D5D10023A34DEC1867785E5D0125700151
:1001C00005FA07F500F1005107F00F0401F51C20B6
:1001D00064003909032707FA04F4F20002F18046AB
:1001E000856106F5303252F82160023326EA0406B2
:1001F00042F8216052F821700C2B42F821700268FD
:1002000045EA02050560D5D100238F4DEC186778CB
:100210005E5D0125700105FA07F500F1005107F058
:100220000F0401F51C2064003909032707FA04F4C0
:10023000F20002F18046C56106F5303252F82160C5
:10024000023326EA040642F8216052F82170062B98
:1002500042F82170026845EA02050560D5D1802484
:1002600000257748295C43194E015978012006F191
:10027000005700FA01F6023507F51C22062DD6615B
:10028000EFD101F083FC00226D4D505DAE18757802
:100290004701012007F1005300FA05F7023203F588
:1002A0001C21062A8F61EFD101F070FC013CD7D1EF
:1002B00023466448C218195C547801204E0100FAA4
:1002C00004F106F10055023305F51C270C2BF961EA
:1002D000EFD101F05BFC00235A48C2181E5C517834
:1002E0000120750100FA01F605F10057023307F508
:1002F0001C240C2BA661EFD101F048FC0023504DCB
:10030000585DE9184D784701012007F1005400FAC3
:1003100005F704F51C221668023326EA0704062BAB
:100320001460ECD10023474E9A5DF41866785101B1
:10033000012201F1005502FA06F105F51C27386883
:10034000023320EA01050C2B3D60ECD100233E4F27
:10035000D85DF9184F784401012004F1005600FAE5
:1003600007F406F51C221568023325EA0406062B5D
:100370001660ECD1314D642001F0D8FB6A6902F0BF
:10038000006701F00FFDC4B214B96969090102D414
:10039000002001F0C1FC002000F02CFB002000F048
:1003A000F1F84CBB25484669320125D543F6D27396
:1003B0001D78422D20D143F6D3721178E1B100218E
:1003C000012044F2040701F09DFBF97869BB1F4E40
:1003D0004FF4804206F5804303F5082404F5804578
:1003E0007160596061606960106880F3088844F248
:1003F00004073968884718E0202000F0C7FA3CB3AA
:10040000102000F0C3FA23E001F0AAFB40F2F3163B
:10041000B0423446F8D901F09DFB0120002101F0E3
:1004200071FB01F09DFBA042FBD901F093FB012081
:10043000014601F067FBE7E70CC0024020C009203D
:10044000122F0000182F00000C2F000000C00040E9
:1004500001F080FB01F084FB3226B0FBF6F364254B
:100460000446B3FBF5F005FB103242F21071B4FB09
:10047000F1F5530801FB1542B4FBF6F106FB1141FF
:1004800041F28830824288BFC3EB060301209942C3
:1004900094BF002101210A2601F034FBB4FBF6F3DE
:1004A00006FB13440CB900F0AFFC002000F0EAFE9C
:1004B00001F056FB44F61F65A842CBD900F06CF85A
:1004C0000028C7D1002F7FF47AAF024A5069030198
:1004D000C0D574E720C00920124B10B51A78032A42
:1004E0000BD8114900F07F000C684FEAC41444EAAD
:1004F000001008600FD104220EE0072A0FD80B4924
:1005000000F07F000C684FEAC41444EA0010086051
:1005100001D1082200E001321A70002010BD4FF016
:10052000FF3010BDD4050010100100102001001094
:1005300070B5134B16461A7888B004460D468DF8F0
:1005400000209978DA7858781B798DF802108DF8A8
:1005500003208DF801008DF8043000F021FF8DF8A4
:100560000500F7208DF808006946204609228DF81D
:1005700006508DF8076000F0D1FA08B070BD00BFDA
:100580001032000010B9034B187070474FF0FF3065
:10059000704700BFD5050010014B1878704700BFA9
:1005A000D50500102DE9F04798468AB00C4615464F
:1005B000064600F071FC01F0CDFAB8F1010F04D04D
:1005C000B8F1020F40F0C78182E0AF4B14B1012CAB
:1005D0000AD104E01C70AD4BAD4A1C608BE0197869
:1005E000072900F2B68190E01978082940F0D980F7
:1005F000A848A94C0278437881782270C2780079A3
:10060000A24FA34D6370A170E27020713F682D6806
:1006100000F0C6FE4FEA556E6071780E0223E0715D
:10062000C7F386417044A3712172C7F3C6234118F2
:100630006372C7F30612CB18C5F38640A2729A18EC
:100640001118C5F3C623CA182073C5F30610111874
:1006500063730023A07384F80BE001F0FF011A46D6
:100660000F341846A84221D010F807E04FF0080CCC
:1006700001335200DBB242EADE12062B4FEA4E0E85
:10068000D2B25FFA8EFE0AD9C3F1070302FA03F26F
:10069000D2B25118002304F8012BC9B21A460CF14A
:1006A000FF3C1CF0FF0CE3D10130DBE71BB18B18E2
:1006B00004F8012BD9B24A42774902F07F00F723B0
:1006C000A21C207063703046521A00F027FA40E1F5
:1006D00014B1012C53D110E06B4B6C496C486F4A3C
:1006E0001C700C6004606E4B6E496F4814706F4A4A
:1006F0001C700C60046014602BE1634801780729CA
:1007000007D8664908782A180A702846FFF7E4FED9
:100710001FE108292BD161480378EA18027061486B
:100720000368B3F5806F80F01481594E5F4F5E4CC3
:1007300036683868226807240132C5F380176D00D7
:10074000072A47EA4000EDB206D9534AD054013394
:10075000B34228BF09210022013CEDD1534C206057
:10076000514802604F4A1360474B1970F1E0092964
:1007700002D14B4A1570ECE00C230370E9E0494BC1
:1007800043481A680768BA4207D23946484800F019
:10079000EBFA30460E21012213E03B490A780C2A7D
:1007A00003D130460E2142460BE03C493C4B0A78CF
:1007B0001878534203F07F01884205D030460E215D
:1007C0000322FFF7B5FEC4E03A48304A0124047022
:1007D000146844EA07039B0740F0B180B4F5804FEA
:1007E00002D26FF00701ACE000F09AFF411E8C428C
:1007F00000F2938001F0ACF804252F4B53F825103C
:100800008C423CD22D4850F82520944226D1DFF866
:10081000B0A032238DE82800DFF8A890684605A92B
:100820000295CDF80CA0C847059B6846C3F10008A7
:10083000342305A98DE828000295CDF80CA0C847FF
:100840000599B8F1000FB4BF4FF0FF384FF0000822
:1008500048420028B8BF6FF0010801E04FF00008DF
:10086000174A32238DE82800684605A902950392AD
:10087000144B984705994842002825DA28E00135AD
:100880001E2DBAD12CE000BFD405001010010010BD
:100890002001001010320000280100101801001083
:1008A00024010010D00500101C01001014010010DC
:1008B000242F0000D50500109C2F000014300000EC
:1008C000C0D40100F11FFF1FB8F1000F08D001E0F4
:1008D0006FF0020801F050F826482146424614E025
:1008E000254D264A33238DE81800029505A9039764
:1008F00004926846224B984705994D42002D09DA2B
:1009000001F03AF81F4821462A4600F02DFA6FF010
:10091000030116E001F030F820E0B4F1805FFFF44D
:1009200060AF00F000FF00F18050421E94423FF69D
:1009300058AF204610493A4602F0D6FA0EE06FF062
:1009400008014A4230460E21D2B2FFF7F1FD00F015
:100950005BFA00200AE04FF0FF3007E00A480F2161
:1009600002783046534203F07F02EEE70AB0BDE85A
:10097000F08700BF532F000028010010C0D40100F1
:10098000F11FFF1F752F00001801001010B5114B4B
:1009900088B01A78997804468DF800205878DA786B
:1009A0001B798DF802108DF803208DF801008DF869
:1009B000043000F0F5FCF7218DF8050001208DF8DA
:1009C00006008DF8071020466946082200F0A6F8B8
:1009D00008B010BD1032000008B52020FFF7D6FF88
:1009E0001020FFF7D3FF024B0020187008BD00BF96
:1009F000D505001038B50446002839D11E4A1F49D4
:100A0000102313700B701E4D1E4B1F4A1F49286088
:100A100018601F4D1F4B106008601860286001F0BF
:100A20009FFAC50F204600F0D9FC1B4A00281B4B3B
:100A3000B8BF45F00205002010701978184A60F31D
:100A400007011970107043F6D0700378422B05D15E
:100A500043F6D1710878010658BF1070114B00227F
:100A600011491A8000220023C1E90023684238BDE1
:100A70004FF0FF3038BD00BF000000100200001032
:100A8000E0050010D8050010080600100C06001044
:100A9000F8050010E4050010E8050010EC05001052
:100AA000E9050010EA0500100006001010F0F00F34
:100AB00070B504460D4604D101280CBF144B154BEC
:100AC0001C78154B04F00F061A6872B904F0F00098
:100AD000102812D0202817D166F3071504F00F0054
:100AE0002946BDE8704000F023BD66F30715204697
:100AF000294690470028E9D070BD66F307152846BF
:100B0000BDE8704001F096BA4FF0FF3070BD00BFF5
:100B10000200001000000010D80500102DE9F0417F
:100B200080460E4617460024BC4235D23B1B022BA2
:100B30000DD0032B19D0012B19D1325D052161F3A2
:100B4000030562F30F2501346FF317450AE0305DAA
:100B50003119062363F303054A7860F30F2562F326
:100B6000174502346FF31F650FE0072000E00420F3
:100B700060F30305335D3019417863F30F25827804
:100B800061F3174562F31F65033440462946FFF7BA
:100B90008DFF0028C8DA00E00020BDE8F0810000E9
:100BA00030B5F023A1B08DF80030134B7E223225F2
:100BB0008DF803201A7800248DF804500F258DF845
:100BC00001408DF802408DF805208DF8065002ABEB
:100BD0000D5D5A1E35B101341A4603F8015C01332C
:100BE000642CF5D1F72102F8011B6946521AFFF770
:100BF00095FF21B030BD00BFE905001000B5F0231E
:100C000089B08DF8003000238DF801308DF8023066
:100C10007E238DF8033032238DF80430084B8DF895
:100C200006101B78F7218DF807208DF8081009228F
:100C300069468DF80530FFF771FF09B000BD00BFB0
:100C4000E90500102DE9F041042300240E4663F36A
:100C500003046FF00F0161F30F246FF317446FF378
:100C60001F64214605469046FFF720FF0E4B0746BE
:100C70007E201978322260F30F2462F3174461F367
:100C80001F6421462846FFF711FF07430D2060F33C
:100C90000F2466F3174468F31F6428462146FFF7C4
:100CA00005FF3843BDE8F081E90500102DE9F84360
:100CB00081468846174652B30D460026C8EB050309
:100CC000BB4225D22978042060F3030431B16B784C
:100CD00001F07F0262F30F241BB90DE061F30F24D2
:100CE0000AE0A97803F07F0060F3174431B101F006
:100CF0007F0262F31F6403E06FF317446FF31F6416
:100D000048462146FFF7D2FE03350643D6E716468E
:100D10003046BDE8F88308B50021052363F30301DD
:100D20006FF0080262F30F2189B2FFF7BFFE08BD22
:100D3000F8B5054602F0E1F80A4F0646402138783A
:100D40002A78FFF77FFF012E044605D93878691C01
:100D5000721EFFF7ABFF0443024B1878FFF7DBFF6F
:100D60002043F8BD020000100FB430B5A3B0269D9B
:100D7000284602F0C2F8642801D90E4813E002ACFC
:100D800027AA29462046019201F019FD204602F0CB
:100D9000B4F80023834205D0E25C02F07F01E15405
:100DA0000133F7E72046FFF7C3FF23B0BDE830402B
:100DB00004B07047D430000010B50E4B04461A78CA
:100DC00002F00801C8B248B10B490878A04205D129
:100DD0006FF307021A70094B00221A7008490A685B
:100DE0000AB12046904721460648FFF7BDFF002084
:100DF00010BD00BFEC050010E8050010DC05001078
:100E00000C0600102731000010B501F057F9044618
:100E100000F00AFB044300F06DFC054B4FF6FF7138
:100E20001A8820438A4201D001321A8010BD00BFC7
:100E3000EA05001008B5034B1A680AB1904708BDCF
:100E4000104608BDE0050010114BF7B51C680746B9
:100E5000E4B1C1F307640F4DC1F30720C1F30742AA
:100E60008DF8064001F00F0100246E5C8DF804003F
:100E70008DF805202546B54208DA054B01AA515DDB
:100E80001B683846984701350443F4E72046FEBD09
:100E9000E0050010C4300000012803D0034B187097
:100EA000002070474FF0FF30704700BF0200001075
:100EB000F0B5614E8BB0337804460D461746FFF708
:100EC00071FB002880F2B58031780D295CD001D803
:100ED00039B1A1E00E2900F0AC800F2940F09C80D0
:100EE0008EE0564B1DB1012D03D11F70A1E01D7086
:100EF0009FE0187805282BD011D8022820D004D8DC
:100F000001283DD120464E491CE003281DD004286D
:100F100036D100F0F1FB4B490246684625E008282F
:100F200028D006D806281BD0072829D100F0FBFBC3
:100F300018E0092821D07F2822D1FFF74DFD78E065
:100F400041492046FFF72CFE73E020463F49F9E770
:100F5000684600F0EBFB0028204609DA3C49F1E73F
:100F600000F0DEFB3B490246684601F019FC2046D2
:100F70006946E7E720463849E4E720463749E1E794
:100F800020460E210D2244E0354E15B1012D16D11B
:100F900002E0FF2131704CE03078FF2801D137703A
:100FA00047E018B1012844D12E4B00E02E4B1B68BE
:100FB000002B3ED02D4A39461078984739E03278D8
:100FC000AAB920460F21FFF719FE3378002B30D144
:100FD000254A116869BB264D20462D78FFF75CFF36
:100FE0002448FFF7A5FE2846FFF756FF21E0012A17
:100FF00002D11C490868E0B920460E21102208E001
:101000001D4A0DB1012D01D1556012E0526882B91F
:101010002046FFF7F3FD0CE00E210A462046FFF7BD
:10102000EDFD1549044B0A7800206FF307020A70A2
:10103000187000200BB0F0BDDC050010F4050010A6
:101040006D3100008C3100007431000084310000EB
:10105000913100009331000096310000A83100006A
:1010600001000010E4050010F8050010E80500106C
:1010700002000010BA310000EC050010F72910B58D
:101080000A465AD82E4B197801F0080303F0FF04E2
:101090001BB12C4B1B7883424CD1A0F11103062BC2
:1010A00048D9284B187004BB2548037803F0070380
:1010B000042B03D82448C05C904221D101F00701E1
:1010C000052903D121480178914219D15A1C1C4BA2
:1010D00002F007001978052860F3020119702CD975
:1010E000CAB242F00800187027E0130611D5F72A9B
:1010F00006D101F01001CBB213B10221FFF7D8FEE7
:101100000F4B134A197800206FF307011970107004
:1011100010BD01F01004E4B244B9094B197841F054
:10112000100119700A4B21461A7000E00121FFF7E7
:10113000BFFE02E04FF0FF3010BD002010BD00BF29
:10114000EC050010E805001010320000E905001061
:10115000DC05001001F00F032DE9F0470F46C1F345
:101160000728C1F307494FEA116A03F1080101F0AA
:101170000F010629064602D8002A58D17AE0B8F1B4
:10118000F00F05D003F10C0000F00F01032929D85E
:101190003A49D1E9004554EA050023D106F0F004AC
:1011A000302C4FF000000CD0502C13D0102C19D143
:1011B000334C208006F00F00012404FA00F0088070
:1011C00010E02F4C208006F00F00012404FA00F0FC
:1011D000488007E02A4C208006F00F00012404FA22
:1011E00000F08880991E0D2944D8DFE801F01E1E0A
:1011F000071B24244343434343434307B8F1F70FFA
:1012000013D83046414607F00F07FFF737FF0F2F7F
:1012100030D049463046FFF731FF30465146FFF7A0
:101220002DFF27E0B8F1F70F05D91AB3304627F0A4
:10123000F00190471EE01A1F12F0FF041AD030464A
:101240004146FFF71BFF012C0CD030464946FFF703
:1012500015FF022C05D030465146FFF70FFFD04650
:1012600000E0C846B8F1F70F04D10448002200237B
:10127000C0E900230020BDE8F08700BF0006001091
:10128000EA0500102DE9F04180468CB0684600F078
:10129000E9FE002807DB00994246C1F30310103035
:1012A000FFF758FFF2E73B4D02AC0FCD0FC40FCD57
:1012B0000FC495E803009DF8083084E803004BB3A1
:1012C0000024254626460CA800EBC40111F8282C62
:1012D00012B9FDB1144615460CAF07EBC40313F861
:1012E000287C53F8242C07F00F0001A9904710F137
:1012F0000A0F03D13846FFF75FFD08E0002806DB40
:1013000038460199424601360135FFF723FF013483
:10131000092ED8DD2049D1E9002352EA030035D057
:101320001E480388B3F57A7F30D90A8862B100215C
:1013300042FA01F313F0010003D101311029F7D172
:1013400001461031C8B21AE04B885BB143FA02F093
:1013500010F0010103D10132102AF7D10A463032D0
:10136000D0B20CE0888850B140FA03F111F00102CC
:1013700003D10133102BF7D113465033D8B2FFF706
:101380001BFD054800220023C0E9002300200CB00B
:10139000BDE8F0818C30000000060010EA05001066
:1013A000014B1878704700BFE9050010012838B5D7
:1013B00004460CD800F0CCFA064B0748FF22002563
:1013C0001A5520F8145000F0D7FA284638BD4FF0CF
:1013D000FF3038BD100600102E06001010B5044670
:1013E00010B14FF0FF3010BD0D4B0E49FF221860B9
:1013F000187158719871D8711881D8601874587420
:101400009874D87498820A70FFF7D0FF0120FFF714
:10141000CDFF204600F0E2FE0028E2DB204610BDB2
:10142000140600102C06001008B500F091FA104ABE
:101430004FF6FF71138808468B4201D001331380A9
:101440000C4B1989814201D0481C188152884FF6F3
:10145000FF718A4202D00648013242809B8A8B4249
:1014600002D0044A591C918200F086FA002008BD7F
:101470002E06001014060010F7B50128C1F3072648
:1014800001F00F03C1F307420546F7B2C1F307614C
:1014900002D94FF0FF3040E0204CE45C002C3BD000
:1014A000DFF888E08DF804603EF815C08DF805205F
:1014B000BCF57A7F8DF8061002D9FFF777FF1BE0A5
:1014C0001748007840FA05F0C00715D5072B13DD43
:1014D0000F2B11D0012C0ED9124B5B5DBB4206D1F4
:1014E0008DF80420621E8DF80510D4B204E00023AC
:1014F0002EF8153000E00124F72F98BF094B01A901
:101500002846224698BF5E5500F0C8FF811C02297C
:10151000BFD80548405600E02046FEBDC43000005C
:101520002C06001010060010153200002E060010C8
:1015300038B505460C4628462146FFF79DFF831C1B
:10154000F9D038BD01282DE9F04180460F4603D976
:101550004FF0FF30BDE8F0810C2606FB00F6624D2F
:10156000AC19404600F0C6FE0028C0F2A180020679
:10157000C3B252D5F72B08D9396841F00F023A604F
:101580007B700023BB70FB70ABE05849C3F30212C1
:10159000895C2371617109B1002137E0544A00F080
:1015A0000F00125CF02B627103D101226370E271B3
:1015B000F2E7F72B1DD1E279207842B1012A0ED152
:1015C000062262F303002070A370E1700CE0052195
:1015D00061F3030020706370A270E27004E00721E1
:1015E00061F303002070E370236800203B60E0712A
:1015F0000BE0002AD0D12178052060F3030121708F
:101600006370A270E27023683B600121637900205F
:10161000A37120810029A4D063E02279F02A17D198
:10162000E279511CC8B20128E07103D0022803D12D
:10163000A37096E7637094E7E370AB5D042262F3F6
:101640000303AB55A95900203960E071208148E0BF
:10165000A07920B962792081511EA17101E0411E5B
:10166000A1716079012802D1A370002303E0A2795F
:101670000AB1A37000E0E370A379002B7FF471AF8F
:101680002079AA5D00F0F001F02901D0010908E0FD
:1016900063791BB1012B03D1022102E0052100E097
:1016A000032161F30302AA556070A859386018E05D
:1016B0000020A17971B12289B2F57A7F0AD900237D
:1016C000AB5123716371A371E37123816FF0090042
:1016D000BDE8F08100280CBF4FF0FF300020BDE8CE
:1016E000F0810120E5E700BF140600100832000079
:1016F000B43000000020704700B58BB000F028F92E
:1017000036230AA840F8283D05A96846034A9047B1
:1017100000F032F906980BB000BD00BFF11FFF1FAB
:101720004FF4002070474FF48030704770B58AB096
:10173000044600F00DF93A220AA840F8282D114B72
:10174000684605A9984700F017F900230AA9CD18A3
:1017500055F8101C002204EB430501F00F00092886
:1017600094BF302637263018A85401320909082AB8
:10177000F3D10433102BE9D1002084F820000AB003
:1017800070BD00BFF11FFF1F37B502AB03E90300B7
:10179000114B009A022119723C21B2FBF1F401FBBA
:1017A00014250020ECB2187283F820404FF46164D5
:1017B000B2FBF4F504FB1522B2FBF1F1CCB2182117
:1017C00083F82440B2FBF1F401FB1422D1B20122D0
:1017D00083F828101A723EBD0040024013B500285D
:1017E00040F08880454B2022C3F8A0211946D1F84B
:1017F000A001424C4006FAD50323414A4149C4F8AE
:101800000431414BC4F8A8210120C4F8AC11552281
:10181000AA21C4F80C01C4F88430C4F88C10C4F8B0
:101820008C20C4F88000C4F88C10C4F88C20334C91
:10183000D4F888004101FAD50323AA215522C4F81F
:101840008030C4F88C10C4F88C20D4F888002B4B5E
:1018500010F0407FF9D0AA21552223240120C3F89B
:10186000A440C3F8AC10C3F8AC20C3F8A000C3F880
:10187000AC10C3F8AC20214CD4F8A8305B05FAD5E5
:101880000321AA225520C4F8A010C4F8AC20C4F843
:10189000AC00D4F8A810194B11F4407FF9D04FF0E8
:1018A000FF34C3F8C4400024C3F8C8411A6822F4C6
:1018B000704040F480411960144A154B15489A60F5
:1018C00002A9D8600094019411E90300FFF75CFFBE
:1018D000114B124801221C605C609C60DC601C6142
:1018E0005C619C61DC61052102631A2000F058F8FC
:1018F000204601E04FF0FF301CBD00BF00C00F408C
:1019000000001154000440007700050000000000B2
:1019100000ED00E00003FA0534060010004000501E
:10192000094B70B51E6800250124344206D00748D3
:10193000295801B18847044A946014610435640051
:10194000202DF2D170BD00BF0040005034060010C1
:10195000074B1A681AB9EFF31081064801604FF07F
:10196000010080F310881A680020511C196070472C
:101970005806001054060010074A13683BB1581E61
:10198000106038B905490A6882F3108802E04FF008
:10199000FF307047002070475806001054060010B2
:1019A0000F291CD80F4BDA68D343C3F30222C2F1CC
:1019B000040301FA03F100F160430901CAB203F51F
:1019C000614181F80023012342B200F01F00510958
:1019D00003FA00F2044840F82120002070474FF03D
:1019E000FF30704700ED00E000E100E0013A2DE932
:1019F000F0478446052A70D8DFE802F00318080C87
:101A00000F1300231C460222012513E000231C466D
:101A100003220EE000231C4601E0002301241A46A5
:101A200007E0012300221C46154603E000231C4664
:101A300002221D4601F00F084FEA48084FF0030943
:101A400009FA08F905FA08F502FA08F24FEACC0695
:101A500006F1804000F530360F0956F827A06FEAEE
:101A6000090909EA0A0A46F827A056F827A006EB52
:101A7000870045EA0A0546F82750056C09EA05057E
:101A80000564056C2A4302644FEA4C1000F10052D1
:101A900002F51C22012024B100FA01F01468204351
:101AA00004E000FA01F0146824EA000010604FEA34
:101AB0008C0202F1804000F5303001223BB102FA85
:101AC00001F2836E1A4382660020BDE8F08702FAB5
:101AD00001F2846E24EA0202F5E74FF0FF30BDE820
:101AE000F087C30710B5044604D50020162105224F
:101AF000FFF77CFF34F0010314BF6FF001000020FA
:101B000010BD0000C20707D5074B11F0010F4FF4BD
:101B1000800214BF9A61DA6130F0010314BF6FF0E4
:101B200001000020704700BF00C009201E2148436B
:101B3000074B002201381A674FF0FF31D8600320AD
:101B4000996158611960012159601046704700BFC2
:101B500000400940014B0020986070470040094058
:101B6000044B9868196811F0010F18BF4FF0FF304F
:101B7000704700BF0040094018B9034B08221A7291
:101B800070474FF0FF30704700000B401E23584352
:101B9000034BD968DA68521A8242FBD90020704799
:101BA00000000B4000F01000C1B211B1002000F0A5
:101BB000DDB97047F0B51646474A93B051680746FD
:101BC00010686B4603C3906803AC1860434B03F185
:101BD000100218685968254603C5083393422C46FD
:101BE000F7D1198829807878092803D1012000F0DD
:101BF000BDF96EE006286CD17B881A0A032A68D1E9
:101C0000D9B2032965D8DFE801F006021D470DF1BE
:101C1000FF3000230DE03248092383700423C37092
:101C200050E0642A13460BD02D4AD154D21800211B
:101C3000517010F8011F9A1C93B20029F1D141E0B4
:101C400064233FE0002303F57F5292F8200099B20D
:101C500058B120385F288CBF002001200133202B91
:101C600006D00028EFD103AB06E00029FBD001E04D
:101C70000028F8D043F6E073591E002311F8010F35
:101C80009A1C93B2F0B1642A1346D9D0144AD054A6
:101C9000D21800205070F1E708A8FFF747FD002890
:101CA00017DB0DF11F01002311F8010F9A1C93B2ED
:101CB00040B1642A134605D0094AD054D2180020F6
:101CC0005070F1E7064A0321137051700120326011
:101CD00000E0002013B0F0BD183200009631000083
:101CE0005C0600104378212B0ED0222B10D0202B25
:101CF00001D0002070471268064B10681860908869
:101D0000927998809A7101E0024B13600720086075
:101D10000120704704000010022808B52FD80128C0
:101D200006D1002000F0D3FD42F21070FFF72EFF25
:101D300001F08EF8134800F0BDFF134A012013494B
:101D400000F0ACFF124801F07BF88120114900F04F
:101D50008BFD1149022000F087FD202000F0BDFD21
:101D60000E4800F0A1FD012000F000F90821182024
:101D7000FFF716FE012000F0AAFD002008BD4FF07D
:101D8000FF3008BD24320000C0060010E51C000032
:101D9000B51B0000D9200000E9200000A51B0000B1
:101DA00000F02CBE024BD3F8F40FC0F34000704794
:101DB00000C00050084B0004302240F4A061C3F87A
:101DC0000822C3F81012D3F8002212F01000FAD043
:101DD000014BC3F80802704700C000502DE9F041E4
:101DE000064606F00F07FFF7B3FDBA00284B42F096
:101DF0000100C3F828021A46D2F820020105FBD5DB
:101E000042053CD5C0F387081FFA88F1002936D077
:101E1000204B1A8890B2C0F5007399422FDA002443
:101E2000C4EB08010AB2002A19481DDDD0F8185287
:101E3000C5F3031010302946FFF706F890B9164B8A
:101E4000164A198889B242F8215019884A1C91B261
:101E5000B1F5007F198028BF18800E4803885A1CEE
:101E600091B201800134DBE70023F109C0F8283288
:101E700041EA4700FFF79EFFF220FFF79BFF04486F
:101E80000022C0F82822BDE8F041FFF775BD00BF71
:101E900000C00050CA060010D4160010D40E001066
:101EA00070B50446FFF754FD274B1878002846D13B
:101EB000264B1A8891B2002941D025480278002A81
:101EC0003DD0198888B2102898BF1B8804F00F01F4
:101ED00094BF9BB210238A0042F002001D4AC2F850
:101EE000280218B28000C2F82402C3B100231948A6
:101EF000D0F82822920712D5174A184D16880133B8
:101F0000B6B255F82650C0F81C521088013080B285
:101F1000B0F5007F1080EAD300201080E7E70A4A7E
:101F200001201070094A1088C31A98B21080E20983
:101F300042EA4100FFF73EFFFA20FFF73BFFBDE812
:101F40007040FFF719BD00BFD00E0010D61600106C
:101F5000DA16001000C00050D8160010D00600108D
:101F6000002814BF4FF0FF30002070470C4A0D4985
:101F7000002310B513800B800B4A0C4913800B8093
:101F80000B4A0C4913801C460B8001220A490B4B5B
:101F900010B10A701C7001E00C701A70002010BDA6
:101FA000CA060010D4160010CC060010D616001079
:101FB000DC160010D8160010DA160010D00E001033
:101FC00038B5184C0546237813B94FF0FF3038BDAB
:101FD000154801888AB2B2F5FF7F08D98120FFF742
:101FE0005FFF2378002BF0D06FF0010038BDFFF7C2
:101FF000AFFC0E4B0E49188882B2501C41F822509B
:1020000082B21A80198888B2B0F5007F01D300220D
:102010001A80054B1988481C82B21A80FFF7ACFC65
:10202000002038BDDA160010D6160010DC1600109D
:10203000D006001010B504462046FFF7C1FF811CF2
:1020400008D1074B42F20F711A888A4207D8501CF8
:102050001880F1E7002802DB014B00221A8010BD36
:10206000C8060010124B10B50446188881B2D9B1C9
:10207000FFF76EFC0F4B10491A8890B251F82020E0
:1020800022601C88601C81B2B1F5007F198001D3E9
:1020900000221A80064C2388581E81B22180FFF747
:1020A0006BFC228890B210BD4FF0FF3010BD00BF16
:1020B000CA060010CC060010D40E001008B5054B5F
:1020C000187828B10220FFF789FE8120FFF7E8FE8B
:1020D000002008BDDA160010024B00221A70FFF72C
:1020E000DFBE00BFD00E0010030604D5034B002254
:1020F0001A70FFF7D5BEFFF771BE00BFD00E0010FB
:102100002DE9F04F012885B0009059D82F4B304C65
:1021100053F820600122002348082E4D02900194BC
:102120009C4698469346002707EB0209B5FBF9F950
:10213000B9FBF1F401FB1490DDF808A0504588BF0D
:102140000134E01E4FF6FC7A50450FD8B9FBF4F38A
:102150008B42019894BFC3EB0103C1EB030383429D
:1021600004D283B10193A446B84693460137102F99
:10217000DAD15BB105F5E415013205F5E155183505
:10218000102AD0D102E0A446B84693468323337385
:10219000CCF307205FFA8CF2032308F00F0C3071A8
:1021A0004CEA0B1832703373009A0B4B07205FFA1E
:1021B00088F886F8288043F822103072002001E069
:1021C0004FF0FF3005B0BDE8F08F00BF9C3200003B
:1021D000A0860100389C1C00EC160010F8B50446DF
:1021E000002870D1394B1A6822F0030119601D686C
:1021F00045F002061E601F6C354E27F003021A647C
:10220000196C41F002051D64B76E47F00102B26619
:10221000196821F00C051D601E6846F008071F6054
:102220001A6C22F00C0119641D6C1D64103B1E68B1
:1022300026F003071F601A6842F0020119601D6C46
:1022400025F003061E641F6C47F002021A64996EA3
:1022500041F001059D661E6826F00C071F601A6894
:1022600042F0080119601D6C1A4A25F00C061E6424
:102270001F6C194E1F64194D194B1A4F1A493870AB
:1022800030702870087010701870787070706870F6
:10229000487047F6122150705870FFF731FF012047
:1022A00047F61221FFF72CFF104803254560042153
:1022B0000620FFF775FB0E4908204D600421FFF74B
:1022C0006FFB2046F8BD4FF0FF30F8BD10C0024054
:1022D00008C00240E0160010E6160010E4160010D8
:1022E000DE160010E2160010E81600100000014093
:1022F00000C00940012838B504461BD8104B185CB3
:10230000D8B1FFF725FB0F4B0F491A5D185D02EBA3
:102310008415421C4D5DD1B23F29195501D90020C9
:102320001855074B1A5D511EC8B21855FFF724FB0C
:10233000284638BD4FF0FF3038BD6FF0010038BD82
:10234000E2160010E416001010000010012838B545
:1023500004460D461CD8114B185C3F281BD8FFF7CC
:10236000F7FA0F4B0F491A5D02EB84101A5D0D54FA
:10237000501CC1B23F29195501D900221A55074BEB
:10238000185D411CCAB21A55FFF7F6FA002038BD95
:102390004FF0FF3038BD6FF0010038BDE21600107D
:1023A000E616001010000010012838B504461DD8AC
:1023B000114B185CE8B1FFF7CBFA104B104A195DCE
:1023C00002EB84156818195D90F880504A1CD0B251
:1023D0003F28185501D900211955074B1A5D501E89
:1023E000C1B21955FFF7C8FA284638BD4FF0FF3083
:1023F00038BD6FF0010038BDE8160010DE16001081
:10240000100000100128F8B504460E46174636D8CD
:102410001E4D2B5C98183F2834DCFFF799FA1C49B5
:102420002A5D51F824304AB9187D00F02001C8B265
:1024300028B116F8012B01201A7000E00020034695
:10244000BB4218DA134D144A295D02EB841252186C
:10245000311AC95C82F880100C4A115D0131C9B291
:1024600011552A5D511CCAB23F2A2A5501D90021B3
:1024700029550133E4E7FFF77FFA0020F8BD4FF05C
:10248000FF30F8BD6FF00100F8BD00BFE816001086
:102490009C320000E01600101000001070B50646D7
:1024A0000D461446304629462246FFF7ABFF831CF3
:1024B000F8D070BD10B5114CA36803F00E000428CD
:1024C0000DD1207DC10718D5247820202146FEF7A4
:1024D000B1FC90B92146BDE81040FFF737BF022894
:1024E0000BD107490A7842B10020FFF75DFF30EABF
:1024F000200028BFFF20C3B2237010BD00000140A0
:10250000E816001010B5124CA36803F00E00042862
:102510000ED1207DC00719D5247821202146FEF751
:1025200089FC98B901202146BDE81040FFF70EBF95
:1025300002280BD107494A7842B10120FFF734FF46
:1025400030EA200028BFFF20C3B2237010BD00BFB7
:1025500000C00940E816001020B103681970016836
:102560004A1C026070472DE9F843141E80468946D4
:1025700001DC20270FE0002219F8021009B1013216
:10258000FAE7A242B4BFC2EB04040C4613F0020FF8
:102590000CBF20273027DB070CD42546002D05DD96
:1025A00040463946FFF7D8FF013DF7E724EAE476D5
:1025B000A41B00E000263546C6EB0903595D21B196
:1025C0004046FFF7C9FF0135F6E72646002E05DD38
:1025D00040463946FFF7C0FF013EF7E7002CACBF8D
:1025E0002819281CBDE8F8832DE9FF470C9E814679
:1025F000DDF834800C4651B930228DF804208DF876
:102600000510324601A94346FFF7ADFF35E033B16F
:102610000A2A04D1002902DA4C42012700E00027EF
:1026200004AD002305F8013DAA466CB1B4FBF2F3FA
:1026300002FB1344092C02DD0E993A396418303438
:1026400005F8014D1C46EFE787B14EB118F0020FB7
:1026500006D048462D21FFF77FFF013E012705E008
:102660002D2005F1FF3A05F8010C00274846514698
:1026700032464346FFF777FF381804B0BDE8F087CD
:10268000F0B589B006460D46059200242B7823B19B
:10269000252B79D168786A1C28B9002E7BD0306848
:1026A0000022027077E025286DD02D2802D1AA1CC7
:1026B000012300E00023174639780132302902D186
:1026C00043F00203F7E7002239783D46A1F13000DC
:1026D0005FFA80FC0137BCF1090F03D80A2505FB1E
:1026E0000202F1E7732909D1059F3046391D059192
:1026F00039682A4F002908BF394641E064290ED1C4
:102700008DE80C00059961230293081D0968059066
:102710000A2230460123FFF767FF241839E07829A1
:1027200006D105998DE80C00081D0590612207E08F
:1027300058290AD105998DE80C00081D0590412201
:1027400002923046096810220BE075290BD18DE802
:102750000C00059961230293081D096805900A225F
:1027600030460023D7E7632913D10599081D09686E
:10277000059000208DF81C108DF81D0007A930462B
:10278000FFF7F1FEC9E7154630462978FFF7E4FE6A
:10279000013401357AE7204609B0F0BDAC320000C3
:1027A0000EB40FB505AA52F8041B019001A80392BC
:1027B000FFF766FF04B05DF804EB03B0704707B5A0
:1027C00002AB43F8040D1846FFF75AFF0EBD000098
:1027D000044BD3F8002202408242F9D1C3F8080228
:1027E000704700BF00C00050054B000440F4A061DA
:1027F00030221020C3F80822C3F81012FFF7E8BFF8
:1028000000C0005010B50C46FFF7EEFF2004054B4A
:1028100040F480741020C3F81042BDE81040FFF768
:10282000D7BF00BF00C0005010B500F00F04C009B2
:1028300040EA4404012202FA04F20A4BD3F84402AB
:102840000243C3F844224FF48070C3F84842C3F8EF
:102850004C12FFF7BDFF44F040000021BDE81040DE
:10286000FFF7D0BF00C0005000F00F03C00940EADE
:10287000430002220A4B90FBF2F243F8221001219E
:1028800001FA00F0074BD3F834221043C3F83402A6
:10289000D3F8042242F00401C3F80412704700BFC9
:1028A000FC16001000C00050044B18600448D0F81B
:1028B000042242F00801C0F804127047F816001014
:1028C00000C0005040F08001D020FFF79BBF011CEA
:1028D00018BF0121FE20FFF795BF0146F320FFF747
:1028E00091BF000010B500F00F04C00940EA440495
:1028F0002046FFF779FF2104054C41F400732020A6
:10290000C4F81032FFF764FFD4F81422D0B210BD1F
:1029100000C00050C30943F04002003100F00F0036
:1029200042EA400018BF0121FFF76CBF38B500F044
:102930000F03C009144640EA43009A00104B42F0CE
:102940000202C3F82822C3F824420D4BD3F82822F0
:1029500092070DD58A78CD78120442EA05620D7887
:102960002A434D78043142EA0522C3F81C22ECE7E1
:10297000FFF73AFFFA20FFF737FF204638BD00BFC8
:1029800000C0005038B500F00F03C0099C0040EAB9
:102990004300164B44F00104C3F82842D3F82052F8
:1029A00015F4006FFAD06B051CD5AC05A50D0024FD
:1029B0002346AB420CD013F0030F04BF0B4CD4F8EA
:1029C000184211B19342B8BFCC54240A0133F0E746
:1029D00006490022C1F82822FFF706FFF220FFF780
:1029E00003FF01E04FF0FF35284638BD00C000501E
:1029F000011C18BF0121D820FFF704BF70B52B4C74
:102A0000D4F80052E90712D5294801230668C4F812
:102A1000083266B1F520FFF7E7FE26492020C4F80A
:102A20001012FFF7D5FED4F81422D0B2B0472A070F
:102A300017D51E4C0823FE20C4F80832FFF7D4FE39
:102A40001D48C4F810022020FFF7C2FED4F814126B
:102A500011F01A0F05D0194A136813B101F01500CF
:102A600098476B0721D5114D0424C5F8084200246E
:102A7000012000FA04F00D4DD5F83012084211D0B3
:102A8000C5F838022020FFF7A3FE0D4B601053F865
:102A90002030D5F814222BB140EAC411C8B202F09C
:102AA0001F0198470134202CE2D170BD00C00050B6
:102AB000F41600100002F5000002FE00F8160010E7
:102AC000FC16001008B500231E4A0021995004335B
:102AD000402BF9D11C48016921F4402202610369AD
:102AE00043F480210161426822F0705343604168E1
:102AF00041F0A052426000F55020D0F8C4301A22B4
:102B000043F00041C0F8C4101048C0F8F42F01464B
:102B1000D1F8F80F0D4B00F01A021A2AF8D1002054
:102B20004FF0FF31C3F80402C3F80812C3F82C02B7
:102B3000C3F83402C3F83812C3F84002FFF7CDFEE1
:102B4000012008BDFC16001000C0024000C000506B
:102B500070B5094C094E25683168402DA8BF402545
:102B60002A468020FFF7E2FE3368216858194D1B82
:102B70003060256070BD00BF64170010681700103A
:102B800000B5104BA1B05A781846552A0AD1598879
:102B900041B90D4B1A68802A04D10C4800AA026082
:102BA00001200CE000780A4BC0F3411153F82130AA
:102BB00023B10549054A0348984700E0184621B06B
:102BC00000BD00BF5C1700106C17001068170010E4
:102BD0003C17001038B5002853D101F00401C9B2E8
:102BE000002927D0284C08222146FFF7CBFE207869
:102BF000264BC0F3411153F821202549E3880A6090
:102C0000244A254913600B600BB1C2093BD0FFF782
:102C1000B7FF28B980200121BDE83840FFF77ABE10
:102C200019481D4BC1881A681A489142D4BF0160E7
:102C300002601DE0174D2A68002A1DDD144C216832
:102C4000FFF7A0FE0028E5DB226829681318081AA0
:102C500023602860002816D10B4A0C481378C3F370
:102C6000411150F821202260FFF78AFF0028D1D0BF
:102C7000BDE83840FFF76CBF0A46BDE83840FFF7B3
:102C800081BE8028F4D038BD5C1700104C170010AE
:102C900068170010641700106C170010034B43F8FE
:102CA0002010034941F82020704700BF3C17001056
:102CB0004C170010014B1860704700BF74170010CC
:102CC0000D49F0B50968050AC6B20024087890B12C
:102CD0004F78AF420DD1B4420AD11960022D05BF21
:102CE000C8788B780B7843EA002313600120F0BD8D
:102CF00001340918EAE7F0BD741700104D4B2DE9B7
:102D0000F0411B6804460D4617464BB9267806F07D
:102D10001F06012E54D007D3022E40F0848062E0BB
:102D200098470028F2D081E060783B6809287AD87B
:102D3000DFE800F00579797979090D79151C002013
:102D40001870587046E0A078FFF7BCFD6EE0608810
:102D5000A1882A463B46BDE8F041FFF7B1BF364A9D
:102D60000120117819702860BDE8F081A6780EB9AD
:102D700030461FE0314DFF272D68B8462978C1B194
:102D80006A78042A06D0052A06D0022A0ED195F8C0
:102D900005800BE0EF7809E0B04507D137B96979D4
:102DA0002B79A87843EA0121FFF73EFD28782D18FA
:102DB000E4E70120FFF71CFE62881F490A7035E036
:102DC0006378386823B10A2B06D00B2B2BD106E091
:102DD00003704370022204E00021017016E0628853
:102DE0000ABB2A6022E0D7F800806778012F0FD055
:102DF00002D3032F17D10FE02079FFF773FD0022D4
:102E0000C0F3400188F8001088F801202E600DE022
:102E1000618841B9207903E0608820B920790121D7
:102E2000FFF778FD02E00020BDE8F0810120BDE859
:102E3000F08100BF70170010781700107417001091
:102E4000014B1860704700BF7017001070470000FA
:102E500010B50E4CFFF736FE0D48FFF725FD00209C
:102E60002146FFF701FD80202146FFF7FDFC0020F1
:102E70004021FFF7D9FC80204021FFF7D5FC00203E
:102E80000449054AFFF70AFF012010BDD52B0000B9
:102E90004D2E0000FD2C00007917001038B50E4DA6
:102EA0000E4B0024E81A8510AC4205D00B4951F8AE
:102EB000242090470134F7E7FDF732F90849094A21
:102EC000541AA5100024AC4205D0054B53F8240039
:102ED00080470134F7E738BDB4320000B432000057
:102EE000B4320000B432000010B50023934203D086
:102EF000CC5CC4540133F9E710BD034613F8012B31
:102F0000002AFBD1181A0138704700000118000987
:102F1000001201140007000F01160115000600053C
:102F2000001000155B42534C5F53595345585D20C8
:102F300065787065637465642025642C20676F7400
:102F40002025642062797465732028726574727913
:102F5000290A006572617365206661696C65642089
:102F6000666F72203078253038783A20636F646558
:102F70002025640A0077726974655F64617461205A
:102F80006661696C656420666F7220307825303820
:102F9000783A20636F64652025640A00FF0F000003
:102FA000FF1F0000FF2F0000FF3F0000FF4F000049
:102FB000FF5F0000FF6F0000FF7F0000FF8F000039
:102FC000FF9F0000FFAF0000FFBF0000FFCF000029
:102FD000FFDF0000FFEF0000FFFF0000FF7F0100A8
:102FE000FFFF0100FF7F0200FFFF0200FF7F0300E1
:102FF000FFFF0300FF7F0400FFFF0400FF7F0500C9
:10300000FFFF0500FF7F0600FFFF0600FF7F0700B0
:10301000FFFF07000000000000100000002000007B
:103020000030000000400000005000000060000080
:1030300000700000008000000090000000A0000070
:1030400000B0000000C0000000D0000000E0000060
:1030500000F00000000001000080010000000200FC
:103060000080020000000300008003000000040054
:10307000008004000000050000800500000006003C
:10308000008006000000070000800700200000000C
:103090004515000021000000451500002200000039
:1030A0004515000023000000451500000000000049
:1030B000000000000101020100000000000000000B
:1030C00000000000000002030301020303030303E6
:1030D00002020301284552524F523A20737472691A
:1030E0006E672070617373656420746F204D494F63
:1030F0005333325F4D4944495F53656E64446562A2
:1031000075674D6573736167652829206973206C45
:103110006F6E676572207468616E20313030206395
:1031200068617273210A005B4D494F5333325F4D22
:103130004944495F526563656976655F48616E64BD
:103140006C65725D2054696D656F7574206F6E20BB
:10315000706F7274203078253032780A0020253064
:10316000325800202020002530385820004D494F8B
:10317000533332004D4248505F434F52455F4C50ED
:10318000433137004C504331377878002530387858
:10319000003F002564004D494F53333220426F6F8A
:1031A000746C6F616465720028632920323031329B
:1031B00020542E204B6C6F7365005B4D494F533389
:1031C000325F4D4944495F53595345585F436D64DD
:1031D0005F44656275675D20636F6D6D616E64202D
:1031E00068616E646C6572206E6F7420696D706CBE
:1031F000656D656E746564206279206170706C69BC
:10320000636174696F6E0A0002020202010102002A
:10321000F000007E32FEFF006D696469626F782EF7
:103220006F7267001201000200000040C016FE032A
:103230001010010203010902650002010080320939
:10324000040000000101000209240100010900013D
:1032500001090401000201030002072401000141E9
:1032600000062402010100062402020200092403D0
:103270000103010201000924030204010101000904
:103280000502024000000000052501010109058139
:10329000024000000000052501010300000001407C
:1032A00000C0094000C0004000800940286E756CD5
:1032B0006C2900000000000010FF100000C2010097
:1032C00000000800000000000000000000000000F6
:1032D00000000000000000000000000000000000EE
:1032E00000000000000000000000000000000000DE
:1032F00000000000000000000000000000000000CE
:1033000000000000000000000000000000000000BD
:1033100000000000000000000000000000000000AD
:10332000000000000000000000000000000000009D
:10333000000000000000000000000000000000008D
:10334000000000000000000000000000000000007D
:10335000000000000000000000000000000000006D
:10336000000000000000000000000000000000005D
:10337000000000000000000000000000000000004D
:10338000000000000000000000000000000000003D
:10339000000000000000000000000000000000002D
:1033A000000000000000000000000000000000001D
:1033B000000000000000000000000000000000000D
:1033C0000000000000000000FFFFFFFFFFFFFFFF05
:1033D000FFFFFFFFFFFFFFFFFFFFFFFFFFFFFFFFFD
:1033E000FFFFFFFFFFFFFFFFFFFFFFFFFFFFFFFFED
:1033F000FFFFFFFFFFFFFFFFFFFFFFFFFFFFFFFFDD
:10340000FFFFFFFFFFFFFFFFFFFFFFFFFFFFFFFFCC
:1040000000800010E1560000DD5600009D4C0000CD
:10401000DD560000DD560000DD5600000000000007
:10402000000000000000000000000000C15300007C
:10403000DD56000000000000315400006D54000007
:10404000DD560000218700003987000055870000F9
:10405000DD560000DD560000DD900000DD5600005A
:104060002D910000DD5600009D920000A9920000F5
:10407000DD560000DD560000DD560000DD56000074
:10408000DD560000DD560000DD560000DD56000064
:10409000DD560000DD560000DD560000DD56000054
:1040A000E9890000DD560000BD750000DD56000006
:1040B000DD560000DD560000DD560000DD56000034
:0C40C000DD560000DD560000DD5600005B
:1040CC00F7B500F09FFF019001A8012101F0B2F8B3
:1040DC002F48304B002206882F491C781346D0B24B
:1040EC00A0421AD2072B18D831F9025F002D12DA30
:1040FC002A4FF8542A4817562A48774320F8137049
:10410C0001330135DBB206D1274F00254FF6FE7087
:10411C0047F8225008800132E1E7244A157825B986
:10412C001B4F23493F8800220AE0072BF8D92CE0CB
:10413C00072B2AD831F8026B35B2002D04DC013282
:10414C00D0B2A042F4D320E0144D013EE854144800
:10415C00DFF850E0155CB6B24FFA85FC0CFB07FC9F
:10416C0021F8026C2EF813C001337607DBB203D1B1
:10417C00104E965DAD1B855480560028DFDC084D33
:10418C000026565521F8026CD9E70B4E33709BE78D
:10419C0000C0072028550010B6490010604B0010D5
:1041AC0064390010A4390010604A0010684B0010EC
:1041BC00B8490010243800105C4A0010F8B5134EB2
:1041CC0004460F4606EB4416114802F095F83946A2
:1041DC00304607F0B3FB0546304607F02BFC002DAC
:1041EC0004DA29460B4802F087F80CE00A4B00224F
:1041FC0043F824200948B368214640F824303A4655
:10420C00074802F079F82846F8BD00BFB841001005
:10421C0078BD000088BD0000604A001064380010B2
:10422C00AFBD00002DE9F843124B814653F82250E4
:10423C008846174607F06CFB6D0AB5FBF0F41F2C93
:10424C00064613D80C4804EB471750F8270007F024
:10425C0065FB06FB14544946001902F045FF002883
:10426C00ACBF40466FF00100BDE8F8834FF0FF3063
:10427C00BDE8F883604A001000100010F7B54B4BF6
:10428C004B4D1B78002814BF4FF4806000202D1874
:10429C0033B90021E9500433B3F5806FF9D182E0D2
:1042AC0004F074FA0120014603F01CFF4149087820
:1042BC0000286BD000243F4E3378A34236D93E49B8
:1042CC003E4E01EB4420325D4FF40071FFF7AAFF24
:1042DC00002807DA305D3A4A3A49002322F81030B8
:1042EC0021F81430365D3848384950F8263003F53B
:1042FC00007240F8262051F82600824203D3304A3F
:10430C00002322F8163004F047FA2D28024611D962
:10431C00284E0A23B0FBF3F130780134009003FBF4
:10432C0011222B48234601F0E7FF3470214900226B
:10433C000E7814E00134E4B2BDE7CB1347F6FF71FD
:10434C008B4203DC23498B42A8BF1946080440EA80
:10435C00104345F812300232B2F5007F1CD0002316
:10436C001946D8B2B042E8D2134F5802BC1804EB2D
:10437C00000C144F9CF801E0205C37F9137000EB33
:10438C000E2000B200FB07110133EAE700222A508D
:10439C000430B0F5806FF9D10120002103B0BDE8E5
:1043AC00F04003F09FBE03B0F0BD00BF003800101A
:1043BC00003000105C4A001000000010604B001030
:1043CC00B8490010A4390010604A0010643800107D
:1043DC00E3BD00000080FFFF2DE9F047614B98B072
:1043EC007F220446604904A81A8007F0F3FB22469A
:1043FC005E4903A805F080F803A904A807F0D2FBD6
:10440C000120014603F06EFE594A5A48012100244E
:10441C001170047004A9584801F06EFF574804A9A4
:10442C0007F08CFAA04203DA554801F065FF91E0E1
:10443C0008A83F2107F04EFB002837D0002110229E
:10444C000DF1220000F0B2FC4E4D002145F8240085
:10445C000A220DF1250000F0A9FC4B4E002130552D
:10446C000A220DF1270000F0A1FCC3B20646474812
:10447C00A700235413B13E4A00211170444D1E2253
:10448C0002FB04550BA9284607F0B4FBF6B23E4BD1
:10449C000096E05C3B4B019021462A463D48FB5878
:1044AC0001F02AFF33490A78501C08700134402C63
:1044BC00BED1324807F0BEFA00242E4B1978A14227
:1044CC0048D9334A1E2606FB04212046FFF776FE08
:1044DC00064618B1304801F00FFF34E007F018FA27
:1044EC002E4D4FEA402905EBC41A35462C4850F89E
:1044FC0024309E4227D22B4F07EB4417384607F047
:10450C0063FA00281FDB304607F0B0FAB0F1000860
:10451C0005DB0DF10B00012107F0BAFA8046384695
:10452C0007F088FAB8F1000F0DDB1E491E4801EBAD
:10453C004412126929464AF82520013501F0DCFEA7
:10454C00202D4E44D2D1194B002023F814000134F5
:10455C00E4B2B2E70120002103F0C4FD18B0BDE8BD
:10456C00F08700BF00C0072004C0072021BE000058
:10457C00684B00102855001024BE000004380010B1
:10458C0039BE00002C550010B5390010F53900105B
:10459C00353A001053BE0000A0BE00000010001001
:1045AC0064380010B8410010B9BE0000B8490010C2
:1045BC0010B50024204601340421E4B203F0FAFDC6
:1045CC00082CF7D103F01CFEC0B27F2810D0BF28F6
:1045DC0010D0DF2810D0EF2810D0F72810D0FB28EF
:1045EC0010D0FD2810D0FE2814BF0120022010BDD1
:1045FC00092010BD204610BD072010BD062010BD9F
:10460C00052010BD042010BD032010BD37B500F0EF
:10461C00F9FC019001A8642100F00CFE0E4B1878F7
:10462C000028F7D0FFF7C4FF0C4C014622788242D9
:10463C00F0D020700A4C0B4D20700B4801F05CFE42
:10464C0000210A48297001F057FE2078FFF7C4FEBC
:10465C0001232B70DEE700BFB439001002C0072025
:10466C0003C00720003800106DBF0000C9BE000059
:10467C0030B5214989B0214801F03EFE20481E4941
:10468C0007F05CF900282BDA1E4801F035FE30E00B
:10469C001D4901A807F0C4FA1C490546002007F083
:1046AC00BFFA044629462246194801F025FE19494D
:1046BC00284607F084FA014628B920460A2200F061
:1046CC0075FB154B18701549284607F078FA01460A
:1046DC0030B920460A2200F069FB114901380870F4
:1046EC0001A8192107F0F6F90028D1D1044807F0E8
:1046FC00A1F909B030BD00BFF8BE0000E1BE00005A
:10470C003C4A001003BF0000C1C9000011C10000E9
:10471C001FBF00003BBF0000B439001042BF0000B7
:10472C00384A0010F8B53B48C1F303250078C1F3B3
:10473C0007430A0E8542DCB26AD101F00F00A0F1EA
:10474C000805012D47D8C1F3072000F0F003902B8A
:10475C00314900D12AB9314E00220D7836781346F2
:10476C001AE009780023D8B288420FD22C4850F8AE
:10477C002300844208D12B484FF6FF7520F81350C4
:10478C00294D2A48AD5C1D540133ECE7F8BD28498E
:10479C00585C28B101330232D8B2A842F7D319E0E1
:1047AC001F4951F823008442F4D11E4826B92149EF
:1047BC00595C09B1875E17B900218152EAE71152A1
:1047CC001A48C9081856013190FBF1F0411C1A48DF
:1047DC001954DFE7F8BD0C2811D1184D21461848A3
:1047EC00184C2B7001F088FD00221748227001F044
:1047FC0083FD2878FFF7F0FD01212170F8BD134BE4
:10480C0001F0FF1121F0F000984204BF104B1A8008
:10481C00F8BD00BF384A001028550010684B001036
:10482C002C550010B8490010F8BC00006439001079
:10483C00B5390010F53900102438001003C00720DA
:10484C004EBF000000380010C9BE00000B0007006E
:10485C0000C0072070477047704700000248034AA9
:10486C004FF4007103F0FCBA0030001089420000D4
:10487C001FB54FF0FF3003F025FC2C4B01222C48C8
:10488C001A7001F039FD2B4801F036FD2A4801F071
:10489C0033FD002007F01AF8002802DA274801F04F
:1048AC002BFD4FF47A74002002F0D6FB002804DCB8
:1048BC00013CF8D1224801F01FFDFFF7D9FE214839
:1048CC00214C017829B1214801F016FDFFF770FE4B
:1048DC0020702078FFF780FD1D4801F00DFD1D4B69
:1048EC00012200201A70FFF7B9FF1B4801F004FDEC
:1048FC00642003F037FF002403238DE81800029492
:10490C002346039415494FF48072154800F082FA3F
:10491C0002238DE818000294039412494FF480721C
:10492C002346114800F076FA1FBD00BF2C5600102C
:10493C0081BF0000A2BF0000CBBF0000E2BF00009F
:10494C0052C00000B439001003C00720FDBF0000A6
:10495C0010C000000038001026C0000037C0000056
:10496C00CD40000042C0000019460000704770475F
:10497C00704708B501F06EF8BDE80840FFF76BBF53
:10498C007047000007B500F03DFB0190012101A824
:10499C0000F050FC00F036FB019B421F934238BFE5
:1049AC000190074800F0E0FF064801F083F9064843
:1049BC0003F017FF02F075F8FFF7E2FFE6E700BF20
:1049CC00654800007B4900007D49000070470000ED
:1049DC0007B500F017FB0190012101A800F02AFC9B
:1049EC0000F010FB019B421F934238BF019001F075
:1049FC00D3FC034801F082FFFFF7E8FFECE700BFB0
:104A0C003147000030B5002085B002F01FFD0020BA
:104A1C0003F0CEFE002002F009FC002003F040FB66
:104A2C00002003F0BDF8002000F0DEFE002000F0B6
:104A3C006FFF002000F0CAFF002000F0D5FF00201F
:104A4C0002F0F2F9002003F0C9FE002002F0E9F9AF
:104A5C00002003F07FFF002001F070FA002001F02D
:104A6C00E9FF002001F0ECFF002001F0CBF9012060
:104A7C0001F076F9002005F0FBFB002001F070F945
:104A8C00002003F029FA07F05FF8FFF7F1FE01F0C0
:104A9C0021FA4FF4FA644FF47A7003F093FE013C60
:104AAC00F9D10325234600950194029403940B49F4
:104ABC004FF480720A4800F0ADF90A494FF4807245
:104ACC0023460095019402940394074800F0A2F940
:104ADC0000F06AFA204605B030BD00BF79C0000076
:104AEC009149000074C00000DD49000008B502F0D7
:104AFC00A7FBFFF7AFFE0248BDE8084000F0CCBEB4
:104B0C007F490000FFF732BF10B500240134642345
:104B1C00B4FBF3F203FB124008B901F03DFC094869
:104B2C0001F0ECFE42F21071B4FBF1F301FB134205
:104B3C00002AEBD103F0EAFAC143012003F0D2FAC8
:104B4C00E4E700BF3147000010B503684168826894
:104B5C0088B00093C468036901910292416982692B
:104B6C00C06903940493334C0591069207900699FF
:104B7C00314801F0C1FB204601F0BEFB2F4801F08B
:104B8C00BBFB204601F0B8FB00992D4801F0B4FBAB
:104B9C0001992C4801F0B0FB02992B4801F0ACFBB9
:104BAC0003992A4801F0A8FB0499294801F0A4FBB9
:104BBC000599284801F0A0FB0699274801F09CFBB9
:104BCC000799264801F098FB254B2648196801F0F7
:104BDC0093FB25492548096801F08EFB244A25489A
:104BEC00116801F089FB2448244C0168244801F029
:104BFC0083FB2168234801F07FFB6FF07F4001F0BD
:104C0C0099F9002001F098F9002001F0A9F801F0C1
:104C1C00F7F80020014601F0A9F81B4801F04EF905
:104C2C000121002001F0A2F80699184801F070F952
:104C3C00FFF76AFFEBC00000D5C00000FFC000000A
:104C4C0013C100001EC1000029C1000034C10000C6
:104C5C003FC100004BC10000E0C0000056C1000085
:104C6C0038ED00E062C1000028ED00E06FC10000EB
:104C7C002CED00E07CC1000030ED00E03CED00E0EC
:104C8C0089C1000096C10000A3C10000B4C100009E
:104C9C001EF0040F0CBFEFF30880EFF30980FFF751
:104CAC0053BF704740482DE9F04FD0F800800846BC
:104CBC00044614F8015B08EB05067778204607F0EC
:104CCC000806F7B2002FF3D12D2D03D114F8015B98
:104CDC00012704E02B2D04BF244614F8015B002BA4
:104CEC005BD0102B07D1302D05D12578782D4DD1E7
:104CFC00657810230234002F0CBF6FF000404FF08A
:104D0C000040B0FBF3F9002603FB190A304608EB10
:104D1C00050C9CF801C00CF0040B5FFA8BFBBBF18B
:104D2C00000F01D0303D0BE01CF0030C1BD0BCF18C
:104D3C00010F14BF4FF0570C4FF0370CCCEB05059F
:104D4C009D4210DAB6F1FF3F0AD0484506D801D192
:104D5C00554503DC03FB0050012601E04FF0FF3604
:104D6C0014F8015BD3E7731C08D1002F14BF4FF06C
:104D7C0000406FF000402AB9BDE8F08F07B1404207
:104D8C007AB106B1611E1160BDE8F08F582DAFD01D
:104D9C003025002BAFD10823ADE7302DA5D00A2349
:104DAC00A9E7BDE8F08F00BF30C0072030B505463D
:104DBC000C461346002029462246BDE83040FFF73A
:104DCC0071BF00000E4B10B51A68044650600D48B8
:104DDC0001688C4207D20C4A10681B68191DBDE88B
:104DEC00104000F0A8BA094A10681B68191D00F0A1
:104DFC00A2FA074801688C4238BF046010BD00BF9E
:104E0C00244C00103C4C0010404C0010844B001003
:104E1C0014C007202DE9F84F8346482088461746D2
:104E2C009A460A9EDDF82C900C9D00F0C3FB0446BC
:104E3C00002800F099801DB9B80000F0BBFB0546B6
:104E4C0025631DB9204600F07BFB8DE0BA00284697
:104E5C00A52106F09FFE236B013F03EB8700102278
:104E6C00414620F0070704F1340006F0C3FE042E7F
:104E7C0034BF35460425002104F1040884F843109E
:104E8C004046E562656400F046FA04F1180000F053
:104E9C0042FAC5F10502A2612461646238465946A2
:104EAC00524600F07BFA2060B9F1000F01D0C9F82E
:104EBC00004000F09FFA2E480368591C2D4B0160EE
:104ECC001D6815BB1C600368012B26D12A481427CA
:104EDC0007FB0500013500F013FA052DF6D1274F1D
:104EEC00274D384600F00CFA284600F009FA254800
:104EFC0000F006FA244800F003FA244800F000FA07
:104F0C002349244A0F60156007E0234A106820B932
:104F1C001968CA6AB24298BF1C60E36A1F4C204AE7
:104F2C0020681168834288BF23604C1C14600124E4
:104F3C0004FA03F01B4A1168014311600E4A142055
:104F4C0000FB0320414600F0E9F900F061FA124B36
:104F5C00196831B107480268D36AB34201D200F034
:104F6C0039FA2046BDE8F88F4FF0FF30BDE8F88FD6
:104F7C00644C0010244C0010B84B00104C4C00102A
:104F8C00A44B0010284C0010904B0010704B0010DC
:104F9C00844B0010404C0010884B0010684C0010E3
:104FAC00484C0010444C001030B5002485B00094DF
:104FBC000194029403940B480B494FF480722346DE
:104FCC00FFF728FF012805460AD100F00BFA074B22
:104FDC0007481D60046005B0BDE8304000F05CBAC5
:104FEC0005B030BDD9510000C1C10000884B001084
:104FFC003C4C0010024B1A68501C1860704700BFE4
:10500C001C4C001010B500F0F5F9034B1C6800F0B7
:10501C00FFF9204610BD00BF3C4C001038B5314B99
:10502C00186800284FD1304801684A1C0260036898
:10503C00ABB92E4B2E4A19681068186011602D4AB6
:10504C001168481C10601A682B48116811B94FF090
:10505C00FF3303E01B68DA68D1684B6803602248B1
:10506C00254902680B689A4233D3204802681168BC
:10507C0021B921484FF0FF3101602AE004681A4A37
:10508C00E368DC6811686068814202D21A4B1860D0
:10509C001FE0251D284600F066F9A36A1BB104F138
:1050AC00180000F060F9E36A012101FA03F1134AD8
:1050BC00106801431160124A142000FB032029469A
:1050CC0000F02CF9D1E70F490A68531C0B60FFF76D
:1050DC000DFD0C4A13681BB9BDE83840FFF706BD3F
:1050EC0038BD00BF1C4C00103C4C0010844B001011
:1050FC00404C0010204C001014C00720444C0010F1
:10510C00B84B00106C4B001070B500F073F9274BC6
:10511C001A68501E18601D680DB1002441E0244926
:10512C000C68002CF9D0234B1A6802B3DE68F468C3
:10513C00261D04F1180000F016F9304600F013F9A2
:10514C00E36A012101FA03F11B4A10680143116063
:10515C001A4A142000FB0320314600F0DFF8184BEC
:10516C00E46A1968C86A844228BF0125DBE7154840
:10517C00016841B1134C22683AB1FFF74FFF236825
:10518C005A1E2260F6E7012D06D10F490020086057
:10519C00012400F01FF904E00B4C2368012BBCD157
:1051AC00F3E700F035F9204670BD00BF1C4C001031
:1051BC00644C0010284C0010444C0010B84B0010EC
:1051CC00244C00106C4B0010604C001070B5154C4A
:1051DC002368F3B1144DFFF70DFF2E68FFF794FF12
:1051EC00002EF4D000F006F9EA68D568281D00F00E
:1051FC00BAF80E4B1868411E19602668721E2260A0
:10520C0000F006F9286B00F09BF9284600F098F99D
:10521C00DDE707480168012901D900F0DBF8FFF749
:10522C0071FCD4E78C4B0010904B0010644C0010B8
:10523C00B84B001038B50C460546FFF7DBFE184A94
:10524C002B681168E418994202D29C4208D201E002
:10525C009C4207D31068844294BF0020012002E0D6
:10526C00002000E001202C6090B10E4D2B68181D21
:10527C0000F079F848B90C4B012019682A68D26AF9
:10528C0000FA02F221EA020119602046FFF79AFDAA
:10529C00FFF73AFF18B9BDE8384000F09BB838BDAD
:1052AC003C4C0010244C0010444C00100F4B186860
:1052BC0010B101220E4B16E00E490A68B2FA82F3C5
:1052CC000D4AD8B21421C0F11F0301FB032043681F
:1052DC0000F108015A68094B8A42426004BF5268C7
:1052EC0042604068C2681A60704700BF1C4C0010D6
:1052FC00604C0010444C0010B84B0010244C0010B3
:10530C0000F108034FF0FF32002182604360C3605C
:10531C0003610160704700230361704743685A685A
:10532C008B604A605A6891605960416008610168FD
:10533C004B1C036070470A6810B5531C01D10369FC
:10534C0007E000F108035C682468944201D85B68AC
:10535C00F9E75A68086191604A6059608B6001688E
:10536C004B1C036010BD436882689A60826853606E
:10537C0003695968814208BF5A60002202611868AB
:10538C00411E19601868704703480068006880F374
:10539C00088862B600DF00BF08ED00E04FF08073B4
:1053AC0000E90A00002340F80C3C40F8202C40385F
:1053BC0070470000064B19680868B0E8F00F80F3DE
:1053CC0009884FF0000080F311884EF00D0E7047E5
:1053DC00244C0010024B4FF080521A60704700BFF3
:1053EC0004ED00E0EFF311804FF0BF0181F3118861
:1053FC007047002008B5FFF7F5FF024B1A68501CE8
:10540C00186008BD18C0072080F311887047000091
:10541C00034B18680138186008B9FFF7F5BF7047DF
:10542C0018C00720EFF309800C4B1A6820E9F00F25
:10543C0010602DE908404FF0BF0080F31188FFF792
:10544C0035FF4FF0000080F31188BDE80840196863
:10545C000868B0E8F00F80F309887047244C0010FE
:10546C0008B5064B4FF080521A60FFF7BBFFFFF7F1
:10547C00D5FD0020BDE80840FFF7C6BF04ED00E0F5
:10548C00034B044A07201A6043F8040C704700BF12
:10549C0014E000E0BFD40100094B10B51A6842F4C7
:1054AC007F001860196841F07F441C60FFF7E8FF2B
:1054BC00044B00241C60FFF767FF204610BD00BFA3
:1054CC0020ED00E018C007200C2130B54843084AF5
:1054DC001318DC889D8801FB0424A5809D88DC883A
:1054EC0001FB0521CC801B8859044B0C135230BD99
:1054FC00A0C007202DE9F0410C2505FB00F70F4C4F
:10550C008046E619308805FB0043B3F900100029EA
:10551C0012DAFFF7D9FF308805FB004213885904D3
:10552C00480C05FB0042A2F80280338805FB0345BA
:10553C0029884804420CE253BDE8F081A0C0072042
:10554C00F8B50746002832D0194C0C253F1BFFF745
:10555C0051FDB7FBF5F086B237466F433046FFF787
:10556C00C9FFE31959886943625E002A0BDA1A886D
:10557C006FEA42406FEA5042625259881B8805FB21
:10558C00034461800FE0A088002281B205FB014535
:10559C00EE8098809A71DA71A6801B886FEA43407E
:1055AC006FEA5041E153BDE8F840FFF7ADBDF8BDDF
:1055BC00A0C00720F8B50446002800F08380FFF750
:1055CC0019FD082C07D9A4F109010C23B1FBF3F048
:1055DC00821C91B200E001213B4C47F6FF76A28879
:1055EC0000201446384B0C2505FB023EBEF8047017
:1055FC006FB1BEF800506804C2EB504398B28842B9
:10560C0003D3B0423CBF144606463A46EAE747F697
:10561C00FF77BE4208BF144605FB0432178818BF3B
:10562C0030467A04A446570CE2B1884203D1204696
:10563C00FFF74AFF3EE0401A81B2601805FB00F20A
:10564C0099189F524C8084B205FB0CF01A5A5104E5
:10565C004A0C05FB02356FEA44416FEA51426C80FB
:10566C001A5227E06018B0F5557F07DB2246174821
:10567C0000F042FEFFF748FD3846F8BD2CB9012575
:10568C005C705C711D701D712C460C2000FB04F5C8
:10569C000D4B61185A19D68800FB06370E46B98097
:1056AC004143176858185F50516841609268826096
:1056BC005E534480FFF728FD034B0C2000FB0434A1
:1056CC00201DF8BDF8BD00BFA0C00720EBC2000034
:1056DC00FEE70000684620F007018D4601B5002367
:1056EC000E4A0F499818884204D20E4958589850BF
:1056FC000433F5E70C480D4A904203D2002240F8DF
:10570C00042BF8E70A4B0B48834203D2002143F8E1
:10571C00041BF8E7FFF776F9FEE700BF00C007208F
:10572C00A0C0072020D800000000001098590010DD
:10573C00A0C00720A0E9072070470000F8B50021A1
:10574C000124214B0A4620461C7002F0F1F8214638
:10575C002046002202F0ECF822462046002102F0FE
:10576C00E7F820462146224602F0E2F817480023CB
:10577C000478A3420CDA1648164A1749C65CD55C65
:10578C00CF5C7D403543C554C85CD0540133F0E741
:10579C0012490A6802B19047114B187898B1114917
:1057AC000A7882B10948531E00780B70002383429B
:1057BC0009DA0849064ACC5CD55C6C40CC54002113
:1057CC00D1540133F3E7F8BD724C0010714C00104A
:1057DC002D5600105D5600104D5600106C4C0010EC
:1057EC00704C0010734C001010B500282ED1194BC2
:1057FC001949102218600A70034618480024C45432
:10580C0017491848FF22CA54C254174AD4540133BA
:10581C00102BF2D115481649047001200C70024669
:10582C00214602F085F801200246014602F080F87C
:10583C000221012001F022FF06220120032102F0A7
:10584C00DBF80C4B01221A70204610BD4FF0FF30D4
:10585C0010BD00BF6C4C0010714C00103D56001078
:10586C005D5600104D5600102D560010734C001054
:10587C00704C0010724C0010014B1878704700BF30
:10588C00714C0010024B03481A78027000207047CC
:10589C00704C0010734C001037B5174D2B7823B398
:1058AC0016490A7822B3164B002418600C70224655
:1058BC002146012002F03CF801200146224602F06C
:1058CC0037F801202146024602F032F80120014649
:1058DC00024602F02DF80B482B7800900A49012063
:1058EC000A4A02F09FF9204604E04FF0FF3001E035
:1058FC006FF001003EBD00BF714C0010724C0010E7
:10590C006C4C0010495700003D5600104D560010CD
:10591C0050B90346064AFF21D15406490020C85409
:10592C000133102BF6D170474FF0FF30704700BF9A
:10593C005D5600102D56001070B504460D46FFF74D
:10594C009BFF84420BD201F04BFE064B1E5D1A5D91
:10595C002E4022EA05051D5501F056FE00E00026FA
:10596C00304670BD2D5600102DE9F8430746FFF761
:10597C0083FF064620B31FB30024B4421DDA204631
:10598C00FF21FFF7D9FF804608B90134F5E74FEA4C
:10599C00C409002548FA05F3DB070AD50A48015D5E
:1059AC0005EB090041FA05F101F00101B847FFF7D9
:1059BC0069FF0135082DEDD1E7E70020BDE8F8833C
:1059CC004FF0FF30BDE8F8835D56001038B9034640
:1059DC00044A0020D0540133102BF9D170474FF0FA
:1059EC00FF3070473D56001060BB184B184913F838
:1059FC0020206FF3070203F8202011F8303043F019
:105A0C000F026FF3041201F8302001EBC0014B7848
:105A1C008A786FF307034B70CB786FF307028A70A9
:105A2C0003F0F0026FF307120B79CA704A79013058
:105A3C006FF307036FF3030240280B714A71D4D143
:105A4C00002070474FF0FF30704700BF70560010B9
:105A5C00705700102DE9F74F0027DFF854924FEAEA
:105A6C00870B19F827300BEB0908002B00F012817B
:105A7C008C4DFE007419A07808B1411EA17098F8E5
:105A8C00022092B398F8013002F1FF3A5A09032030
:105A9C0002F0060300FA03F016F805C0C1B2604626
:105AAC006CF38300705580485FFA8AFA10F80A008C
:105ABC0001421AD0504601920093FFF73DFF019A24
:105ACC00009B90B17949D20711F80A0040FA03F310
:105ADC0003F00301CBB204D54A0002F0020040EA05
:105AEC005303A95D63F301017155705DC0F381022D
:105AFC0000F003039A4200F0CD8000F00F01012961
:105B0C001BF8093002D113F0100F0DE0072902D158
:105B1C0013F0200F08E00E2902D113F0400F03E020
:105B2C00082955D113F0800F00F0B48000F010025A
:105B3C00D0B218B9A178E02900F2AC80FF2B08D1C3
:105B4C00725DE37802F00F0003F00F01884200F061
:105B5C00A180725D42F0100373552079A1780A1A66
:105B6C00142A01DD1430A07098F8013013F00300F2
:105B7C0012D0022820D1C3F38203A078C3F107010D
:105B8C00084194F9012008BF0120121A6FF0450357
:105B9C009A42B8BF1A4611E06179C3F3820201F050
:105BAC000F00D343C11802D56078421E627063792E
:105BBC0061F30303637102E061784A1E6270A1789D
:105BCC00FF202171A070725DE37862F3030360E043
:105BDC00022902D113F0010F0DE00B2902D113F0B1
:105BEC00020F08E00D2902D113F0040F03E0042981
:105BFC0050D113F0080F4DD000F01000C2B212B10A
:105C0C00A178E02946D8FF2B06D1735DE07803F02C
:105C1C000F02B2EB101F3DD0A95D6FF3041171554B
:105C2C002379A078C21A142A01DD1433A37098F8D2
:105C3C00011011F0030310D0022B1FD1A078C1F377
:105C4C008201C1F10703184194F9012008BF01201A
:105C5C001218462AA8BF462212E06379C1F38201CA
:105C6C004A1C03F00F0083180F2B02DD6078411CD7
:105C7C006170627963F30302627102E06078421C26
:105C8C006270A378FF202371A070715DE37861F3DB
:105C9C000713E3700137402F7FF4DFAE0020BDE81F
:105CAC00FE8F00BF705700102D5600105D5600106F
:105CBC007056001070B50646C0B1002401F090FC7F
:105CCC000C4B03EBC40045784DB12A466FF3070229
:105CDC00427001F099FC204669B2B04701E001F036
:105CEC0093FC0134402CE9D1002070BD4FF0FF3003
:105CFC0070BD00BF70570010134A144B11685068E8
:105D0C001289196058601A814FF47F510878422823
:105D1C0018D143F6C172117843F6C270197002782B
:105D2C0043F6C3715A70087843F6C47298701178B0
:105D3C00064AFF2908BF4FF48071998043F6C5735A
:105D4C001878D0800020704712C3000072590010E0
:105D5C00024B93F90000C00F704700BF725900103E
:105D6C00014B187000207047804C001010B50B4B85
:105D7C000B4C18800B4AA388118013B1DAB2A379AB
:105D8C0001E0082306224243074C4B432280074A7A
:105D9C001380BDE8104004F011BD00BF7C59001009
:105DAC00744C001082590010845900107059001066
:105DBC00024B034A1880118004F096BC84590010E1
:105DCC00705900100023C15C034A99540133042B11
:105DDC00F9D10020704700BF7E5900108278074B24
:105DEC00111D421801781A604278C07899800121FF
:105DFC001881DA8099720020704700BF744C001033
:105E0C0004F0CEBB13B50446F0B9FFF775FF10488C
:105E1C00104B016801A89C800191FFF7D3FF4CF255
:105E2C00503002F0CFFC204604F022FA00280DDBA3
:105E3C00FFF7E6FF21462046FFF798FF2046214654
:105E4C00FFF7B6FF204601E04FF0FF301CBD00BF4E
:105E5C000DC30000744C001030B5154B85B093F990
:105E6C0000100546002919DA124B4FF0FF309A88C2
:105E7C00E2B101AC93E8070084E80700DA881B89DB
:105E8C00D108594305FB0100ADF80A200190ADF88B
:105E9C000C3094E8070004F0BDFC01E004F0EEF8CF
:105EAC00002803DB044B1A88511C198005B030BD47
:105EBC0072590010744C00107C59001038B5451EF6
:105ECC00002415F8010F18B1FFF7C6FF0443F8E7DB
:105EDC00204638BD38B50B4B0024214620461C709B
:105EEC00FFF744FF05460848FFF7E8FF012105438B
:105EFC002046FFF73BFF05430448FFF7DFFF28432D
:105F0C0038BD00BF804C001081BF0000A2BF000054
:105F1C000FB400B593B014AA52F8041B02A8019256
:105F2C0003F0F9FA02A8FFF7C9FF13B05DF804EB10
:105F3C0004B0704704F068BC04F069BC38B5054681
:105F4C00002847D1254A2649102313700B70254C85
:105F5C00254B264A264920601860264C264B10609B
:105F6C0008601860206002F00DFEC40F284600F097
:105F7C00B9FD0028B8BF44F00204002000F049FF2E
:105F8C000028B8BF44F00404002000F037FF1B4A7F
:105F9C0000281B4BB8BF44F008040020107019787F
:105FAC00184A60F307011970107043F6D07003782B
:105FBC00422B05D143F6D1710878010658BF1070F9
:105FCC00114B002211491A8000220023C1E9002341
:105FDC00604238BD4FF0FF3038BD00BF1DC00720F8
:105FEC001EC007208C4C0010844C0010B04C0010CC
:105FFC00B44C0010A44C0010904C0010944C0010A9
:10600C00984C0010954C0010964C0010A84C0010A9
:10601C0010F0F00F70B505460C4604D101280CBFEA
:10602C001F4B204B1D78204B05F00F061A68002AD9
:10603C0018D105F0F00020281CD008D810282BD13E
:10604C0066F307142046BDE8704002F003BE30280A
:10605C0019D0502820D166F307142046BDE87040B3
:10606C0000F0D1BE66F3071428462146904700285D
:10607C00DFD070BD66F3071405F00F002146BDE8B4
:10608C00704000F0D9BD66F3071405F00F002146EF
:10609C00BDE8704000F0C2BE4FF0FF3070BD00BFD5
:1060AC001EC007201DC00720844C00102DE9F041B4
:1060BC0080460E4617460024BC4235D23B1B022BB1
:1060CC000DD0032B19D0012B19D1325D052161F3B1
:1060DC00030562F30F2501346FF317450AE0305DB9
:1060EC003119062363F303054A7860F30F2562F335
:1060FC00174502346FF31F650FE0072000E0042002
:10610C0060F30305335D3019417863F30F25827812
:10611C0061F3174562F31F65033440462946FFF7C8
:10612C0077FF0028C8DA00E00020BDE8F08100000D
:10613C0030B5F023A1B08DF80030134B7E22322500
:10614C008DF803201A7800248DF804500F258DF853
:10615C0001408DF802408DF805208DF8065002ABF9
:10616C000D5D5A1E35B101341A4603F8015C01333A
:10617C00642CF5D1F72102F8011B6946521AFFF77E
:10618C0095FF21B030BD00BF954C001000B5F02339
:10619C0089B08DF8003000238DF801308DF8023075
:1061AC007E238DF8033032238DF80430084B8DF8A4
:1061BC0006101B78F7218DF807208DF8081009229E
:1061CC0069468DF80530FFF771FF09B000BD00BFBF
:1061DC00954C00102DE9F041042300240E4663F386
:1061EC0003046FF00F0161F30F246FF317446FF387
:1061FC001F64214605469046FFF70AFF0E4B0746E3
:10620C007E201978322260F30F2462F3174461F375
:10621C001F6421462846FFF7FBFE07430D2060F361
:10622C000F2466F3174468F31F6428462146FFF7D2
:10623C00EFFE3843BDE8F081954C00102DE9F84392
:10624C0081468846174652B30D460026C8EB050317
:10625C00BB4225D22978042060F3030431B16B785A
:10626C0001F07F0262F30F241BB90DE061F30F24E0
:10627C000AE0A97803F07F0060F3174431B101F014
:10628C007F0262F31F6403E06FF317446FF31F6424
:10629C0048462146FFF7BCFE03350643D6E71646B3
:1062AC003046BDE8F88308B50021052363F30301EC
:1062BC006FF0080262F30F2189B2FFF7A9FE08BD47
:1062CC00F8B5054605F08EFC0A4F06464021387895
:1062DC002A78FFF77FFF012E044605D93878691C10
:1062EC00721EFFF7ABFF0443024B1878FFF7DBFF7E
:1062FC002043F8BD1EC007200FB430B5A3B0269DB7
:10630C00284605F06FFC642801D90E4813E002AC56
:10631C0027AA29462046019203F0FDF8204605F0F5
:10632C0061FC0023834205D0E25C02F07F01E15462
:10633C000133F7E72046FFF7C3FF23B0BDE8304039
:10634C0004B07047D4C3000010B50E4B04461A7845
:10635C0002F00801C8B248B10B490878A04205D137
:10636C006FF307021A70094B00221A7008490A6869
:10637C000AB12046904721460648FFF7BDFF002092
:10638C0010BD00BF984C0010944C0010884C0010AD
:10639C00B44C001027C4000010B502F09DFC04465C
:1063AC0000F0C6FB044300F037FD044300F029FD68
:1063BC00044B4FF6FF711A8820438A4201D00132F8
:1063CC001A8010BD964C001008B5034B1A680AB120
:1063DC00904708BD104608BD8C4C0010114BF7B50A
:1063EC001C680746E4B1C1F307640F4DC1F30720E5
:1063FC00C1F307428DF8064001F00F0100246E5CDA
:10640C008DF804008DF805202546B54208DA054BB9
:10641C0001AA515D1B683846984701350443F4E7DF
:10642C002046FEBD8C4C0010C4C30000012803D0D4
:10643C00034B1870002070474FF0FF30704700BFBF
:10644C001EC0072030B50B4611465A4A8BB0157842
:10645C0004460D2D57D001D83DB19AE00E2D00F019
:10646C00A5800F2D40F0958087E0534A1BB1012B7E
:10647C0003D111709AE0137098E01178052928D097
:10648C0010D802291FD003D8012938D14B491BE061
:10649C0003291CD0042932D100F066FF484902467A
:1064AC00684623E0082926D006D8062919D00729E2
:1064BC0025D100F070FF16E009291ED07F291ED1CE
:1064CC0000F0C6FE72E03F49FFF732FE6EE03E4937
:1064DC00FAE7684600F062FF0028204609DA3B49DB
:1064EC00F2E700F055FF3A490246684603F004F81B
:1064FC0020466946E8E73749E6E73749E4E72046AE
:10650C000E210D2242E0354D13B1012B15D102E0C5
:10651C00FF2129704AE02B78FF2B01D1297045E02F
:10652C001BB1012B42D12E4A00E02E4A1368002BDE
:10653C003CD02D480078984738E02A78A2B90F2132
:10654C00FFF724FE2978002930D1264A106868BB51
:10655C00264D20462D78FFF769FF2548FFF7B0FE42
:10656C002846FFF763FF21E0012A02D11C4803688B
:10657C00E3B920460E21102208E01E4A0BB1012B74
:10658C0001D1536012E0526882B92946FFF7FEFD33
:10659C000CE00E210A462046FFF7F8FD1548054988
:1065AC00037800226FF3070303700A7000200BB00E
:1065BC0030BD00BF884C0010A04C001069C4000016
:1065CC00BCC1000070C4000080C4000088C400007E
:1065DC0021BE000081BF0000A2BF00001CC007202C
:1065EC00904C0010A44C0010944C00101EC00720BE
:1065FC008AC40000984C0010F72910B50A465AD8E6
:10660C002E4B197801F0080303F0FF041BB12C4B3F
:10661C001B7883424CD1A0F11103062B48D9284B8F
:10662C00187004BB2548037803F00703042B03D828
:10663C002448C05C904221D101F00701052903D107
:10664C0021480178914219D15A1C1C4B02F00700C9
:10665C001978052860F3020119702CD9CAB242F0DE
:10666C000800187027E0130611D5F72A06D101F09F
:10667C001001CBB213B10221FFF7E4FE0F4B134A0A
:10668C00197800206FF307011970107010BD01F01C
:10669C001004E4B244B9094B197841F01001197097
:1066AC000A4B21461A7000E00121FFF7CBFE02E0F5
:1066BC004FF0FF3010BD002010BD00BF984C0010F3
