:020000040800F2
:10000000005000208D010008890100080000000058
:10001000890100088901000889010008000000002A
:10002000000000000000000000000000890100083E
:10003000890100080000000089010008890100080A
:100040008901000889010008890100088901000868
:100050008901000889010008890100088901000858
:100060008901000889010008890100088901000848
:100070008901000889010008890100088901000838
:100080008901000889010008890100088901000828
:100090008901000889010008890100088901000818
:1000A0008901000889010008890100088901000808
:1000B00089010008890100088901000889010008F8
:1000C00089010008890100088901000889010008E8
:1000D00089010008890100088901000889010008D8
:1000E00089010008890100088901000889010008C8
:1000F00089010008890100088901000889010008B8
:1001000089010008890100088901000889010008A7
:100110008901000889010008890100088901000897
:100120008901000889010008890100088901000887
:100130008901000889010008890100088901000877
:100140008901000889010008890100088916000852
:100150008901000889010008890100088901000857
:100160008901000889010008890100088901000847
:100170008901000889010008890100088901000837
:100180008901000889010008FEE70000684620F0A8
:1001900007018D4601B500230A4A0B499818884289
:1001A00004D20A49585898500433F5E7084B094AD5
:1001B000934203D2002043F8040BF8E700F00CF858
:1001C000FEE700BF000000203800002000390008D2
:1001D00038000020481C00202DE9F743002000F0E3
:1001E00061FF002001F008F9012001F09DF8684648
:1001F00001F075FE002401238DF805408DF80430D0
:100200008DF80640B5490A196058958802AE0583F5
:100210006946083446F8085D01F014FE182CF1D147
:100220000027AF4CE31938599A8802A9028341F894
:10023000082D0837694601F005FE302FF1D1002660
:10024000A84DAF197059BC8802AB44836946083683
:1002500043F8084D01F0F6FD182EF1D1A24D082605
:10026000284669460096802401F0ECFD2E839F4DC0
:10027000DFF87C8208264FF020094FF40057A8F8D9
:100280001A9001206F836E8301F0D8F8A8F81890B7
:1002900001202F832E8301F0D1F8013CE7D12046C5
:1002A0008F4A131881589D88083030284D83F7D124
:1002B000012001F0C3F80027894EF019BC5982884B
:1002C0000837302F2283F7D1012001F0B7F800253D
:1002D00001218DF804508DF80710804B5F1902AC96
:1002E000BE88E85844F8086D6946083501F0AAFD53
:1002F000182DF2D100257A48421902A9938828586E
:1003000041F8083D0835694601F09CFD302DF2D1D9
:100310000027744EF41902A8A588694640F8085DC4
:10032000B859083701F08EFD182FF2D1704F6420B4
:1003300001F022F83A6902F0010501F0B4F9C6B201
:1003400016B93B69D9070BD53DB18020012101F0D9
:1003500023FE8020002101F01FFE002001F0AAF9F9
:10036000002000F02FFB002000F024F9B6B960490E
:100370000C69E20770D45F480778422F6CD15E4A5F
:100380001678002E68D001F0D1FC0120002100F089
:10039000DFFF5A4BDF78082F46D103E0102000F032
:1003A000DDFA59E06FF00700012101F0E9FD6FF07F
:1003B0008000012101F0F0FD4FF0FF30012101F03C
:1003C000F7FD4FF0FF30012101F0FEFD4FF0FF304F
:1003D000002101F0D5FD4FF0FF30002101F0DCFDE0
:1003E0004FF0FF30002101F0E3FD4FF0FF3000211E
:1003F00001F0EAFD45B18020012101F0CDFD802012
:10040000002101F0C9FD08E001F04DF928B13C4898
:10041000D0F8E4550DB102F0C5FA3A4E346884F3D1
:10042000088836490A68904700F0CEFF012001464F
:1004300000F08EFF00F0D2FF40F2F31398421F4607
:10044000F8D900F0C1FF0120002100F081FF00F089
:10045000C5FFB842FBD9E7E700F0B6FF00F0BEFFEA
:100460003227B0FBF7F364210446B3FBF1F001FB44
:10047000103242F21073B4FBF3F1560841F28830A7
:1004800003FB11428242B4FBF7F307FB134188BF21
:10049000C6EB07060120B14294BF002101210A27C3
:1004A00000F056FFB4FBF7F607FB16440CB900F05A
:1004B000A9FD002000F03AFD00F090FF44F61F6116
:1004C0008842CBD900F080F80028C7D1002D3FF436
:1004D0005AAF074A1069C307C0D454E73036000842
:1004E0004836000818360008001002400004024098
:1004F00000000240D23F0008D33F0008044000083B
:10050000EC15002000400008124B1A78032A10B5A1
:100510000BD811490C6800F07F004FEAC41444EA7C
:10052000001008600FD104220EE0072A0FD80B49F3
:100530000C6800F07F004FEAC41444EA0010086021
:1005400001D1082200E001321A70002010BD4FF0E6
:10055000FF3010BDFC0400203800002044000020C3
:1005600070B5134B88B016461A7804460D468DF8C0
:1005700000209978DA7858781B798DF802108DF878
:1005800003208DF801008DF8043000F083FD8DF814
:100590000500F7208DF808006946204609228DF8ED
:1005A00006508DF8076000F087FA08B070BD00BFF4
:1005B0007837000810B9034B187070474FF0FF30C0
:1005C000704700BFFD040020014B1878704700BF42
:1005D000FD0400202DE9F04198460C4615460646DC
:1005E00000F04CFD00F0F0FEB8F1010F04D0B8F1BE
:1005F000020F40F0A38189E0B14B14B1012C0AD164
:1006000004E01C70AF4BB04A1C6092E019780729D7
:1006100000F2918197E01978082903D030460E2125
:100620000122E5E0A948AA4C02784378817822703B
:10063000C2780079A34FA44D6370A170E27020715D
:100640003F682D6800F026FD4FEA556E6071780E08
:100650000223E071C7F386417044A3712172C7F38E
:10066000C62341186372C7F3061253FA81F3C5F328
:100670008640A27252FA83F250FA82F1C5F3C62381
:1006800053FA81F22073C5F3061050FA82F16373B6
:100690000023A07384F80BE0C9B21A460F34184641
:1006A000A84221D010F807E04FF0080C01335200A7
:1006B000DBB242EADE12062B4FEA4E0ED2B25FFAEE
:1006C0008EFE0AD9C3F1070302FA03F2D2B251181F
:1006D000002304F8012BC9B21A460CF1FF3C1CF0B0
:1006E000FF0CE3D10130DBE71BB18B1804F8012BC1
:1006F000D9B24A42764902F07F00F723A21C20704B
:1007000063703046521A00F0D7F914E114B1012C8D
:1007100053D110E06A4B6B496B486E4A1C700C60F9
:1007200004606D4B6D496E4814706E4A1C700C600D
:1007300004601460FFE062480178072907D8654922
:1007400008782A180A702846FFF7DEFEF3E0082929
:100750002BD160480278AB18037060480368B3F58A
:10076000806F80F0E880584E5E4F5D4C3668386888
:10077000226807240132C5F380176D00072A47EA73
:100780004000EDB206D9524AD0540133B34228BFDB
:1007900009210022013CEDD1524C206050480260FA
:1007A0004E4A1360464B1970C5E0092902D14A4BE5
:1007B0001D70C0E00C220270BDE0434B47481F682B
:1007C0000168B942FFF42AAF3D4A13780C2B03D1DC
:1007D00030460E2142460BE03E4A3F4813780178EE
:1007E000584200F07F02914205D030460E2103228C
:1007F000FFF7B6FE9FE0334B3B4901240C701C68A9
:1008000044EA0700830740F08C80384A944202D8BB
:100810006FF0070087E000F0D9FC00F100614B1E8B
:100820009C426DD801F074FA00230C2159433048E2
:100830000A58944224D12F492F488C4201D10022DA
:1008400002600121006801FA03F1014203D02B4D3F
:100850004FF000082EE041EA000227490A60244ACE
:100860000C2000FB03230221586801F0B5FA082888
:10087000EDD04FF0FF3001F061FA6FF0030052E06D
:1008800001330C2BD1D1E2E76B7829781A0442EAC4
:10089000012315F8011CAA780B4343EA026101F019
:1008A0007DFA04350828E4D101F02AFA01F020FA93
:1008B00008F10408B84508EB0400E5D342E000BFA6
:1008C000FC04002038000020440000207837000895
:1008D0004C0000204000002048000020F8040020C8
:1008E000F404002000050020FD040020FF3F000864
:1008F00078360008004000083C0000204D00002031
:10090000B4F1005F84D300F069FC00F10050421E96
:1009100094423FF67DAF20460E493A4602F072FE01
:1009200010E06FF0080043420E213046DAB2FFF7C4
:1009300017FE00F067FB0020BDE8F0814FF0FF30AC
:10094000BDE8F0810449087842420F21304602F0A8
:100950007F02ECE74C0000204000002010B5114B56
:1009600088B01A7899788DF800200446DA7858789B
:100970001B798DF802108DF803208DF801008DF899
:10098000043000F087FBF7218DF8050001208DF879
:1009900006008DF8071020466946082200F08CF802
:1009A00008B010BD7837000808B52020FFF7D6FF43
:1009B0001020FFF7D3FF024B0020187008BD00BFC6
:1009C000FD04002010B5044600282CD1174A184910
:1009D000102313700B70174A174B184918601060DA
:1009E0000860174B174A184918601060086000F03B
:1009F00061FF164B164A1C70164B174914701C7079
:100A00000A78C00F422A04D114490A78110658BF47
:100A10001A70134B00211980124900220023C1E9EA
:100A20000023404210BD4FF0FF3010BD00000020F9
:100A300001000020040500200C05002030050020E6
:100A40003805002020050020100500201405002096
:100A50001805002015050020D03F0008D13F0008F0
:100A6000160500202805002010F0F00F38B50446C8
:100A70000D4604D101280CBF0C4B0D4B1C780D4BBF
:100A80001A6864F3071542B904F0F004102C0AD177
:100A90002846BDE8384000F07BBF204629469047F5
:100AA0000028F1D038BD4FF0FF3038BD01000020E4
:100AB00000000020040500202DE9F04180460E468C
:100AC00017460024BC4235D23B1B022B0DD0032B12
:100AD00019D0012B19D1325D052161F3030562F3B1
:100AE0000F2501346FF317450AE03119305D4A785C
:100AF000062363F3030560F30F2562F31745023401
:100B00006FF31F650FE0072000E0042060F303058A
:100B10003019335D4178827863F30F2561F317450F
:100B200062F31F65033440462946FFF79DFF002806
:100B3000C8DA00E00020BDE8F081000030B5A1B0C7
:100B4000F0238DF80030134B7E2232258DF80320E0
:100B50001A788DF8045000240F258DF801408DF887
:100B600002408DF805208DF8065002AB0D5D5A1E2F
:100B700035B101341A4603F8015C0133642CF5D118
:100B8000F72102F8011B6946521AFFF795FF21B0C1
:100B900030BD00BF1505002000B589B0F0238DF8E9
:100BA000003000238DF801308DF802307E238DF85F
:100BB000033032238DF80430084B8DF806101B7873
:100BC0008DF80720F7218DF80810092269468DF865
:100BD0000530FFF771FF09B000BD00BF150500200B
:100BE000F0B5454E8BB0337804460D461746FFF7F7
:100BF000F1FC00287CDA31780D295AD001D829B1CE
:100C000069E00E2974D00F2965D15AE03B4B1DB124
:100C1000012D03D11F706BE01D7069E01878052865
:100C200029D011D8022820D004D801283DD120464F
:100C3000334937E003281BD0042836D100F0C0FA2E
:100C400030490246684623E0082826D006D8062800
:100C500019D0072829D100F0C1FA16E009281FD0C1
:100C60007F2822D1FFF7A0FE42E02046264919E066
:100C70002046264916E0684600F0B4FA00282046CF
:100C800009DA23490EE000F0A1FA2249024668463B
:100C900001F004F82046694604E020461E4901E0C0
:100CA0001E492046FFF74AFF22E020460E210D2272
:100CB00004E0022D1CD120460E211022FFF76CFF0C
:100CC00016E0174A0DB1012D01D1556010E05268B0
:100CD00072B92046F2E70E210A462046FFF75CFF74
:100CE0000F49054B0A7800206FF307020A7018704D
:100CF00000200BB0F0BD00BF080500203405002027
:100D0000183700083A3700081F3700083037000846
:100D10003F370008413700084437000856370008BD
:100D200018050020F72910B50A465AD82E4B197815
:100D300001F0080303F0FF041BB12C4B1B78834226
:100D40004CD1A0F11103062B48D9284B187004BBD5
:100D50002548037803F00703042B03D82448C05C1C
:100D6000904221D101F00701052903D121480178E2
:100D7000914219D15A1C1C4B197802F0070060F3FC
:100D80000201052819702CD9CAB242F00800187067
:100D900027E0130611D5F72A06D101F01001CBB2D6
:100DA00013B10221FFF71CFF0F4B134A19780020E3
:100DB0006FF307011970107010BD01F01004E4B258
:100DC00044B9094B197841F0100119700A4B2146BA
:100DD0001A7000E00121FFF703FF02E04FF0FF303F
:100DE00010BD002010BD00BF180500201405002014
:100DF00078370008150500200805002001F00F03D2
:100E00002DE9F0470F46C1F30728C1F307494FEA20
:100E1000116A03F1080101F00F010629064602D804
:100E2000002A58D17AE0B8F1F00F05D003F10C0098
:100E300000F00F01032929D83A49D1E9004554EAC5
:100E4000050023D106F0F004302C4FF000000CD048
:100E5000502C13D0102C19D1334C208006F00F00E9
:100E6000012404FA00F0088010E02F4C208006F0E6
:100E70000F00012404FA00F0488007E02A4C20808B
:100E800006F00F00012404FA00F08880991E0D2955
:100E900044D8DFE801F01E1E071B242443434343CC
:100EA00043434307B8F1F70F13D83046414607F0E4
:100EB0000F07FFF737FF0F2F30D049463046FFF7B7
:100EC00031FF30465146FFF72DFF27E0B8F1F70F0D
:100ED00005D91AB3304627F0F00190471EE01A1FDB
:100EE00012F0FF041AD030464146FFF71BFF012CD9
:100EF0000CD030464946FFF715FF022C05D030468E
:100F00005146FFF70FFFD04600E0C846B8F1F70F93
:100F100004D1044800220023C0E900230020BDE8DA
:100F2000F08700BF280500201605002013B50446F1
:100F300001A800F045FD002807DB0199C1F303106B
:100F400010302246FFF75AFFF2E72849D1E9002383
:100F500052EA030047D0264B1888B0F57A7F42D971
:100F60000A8862B1002142FA01F313F0010003D1B3
:100F700001311029F7D101461031C8B21AE04B886F
:100F80005BB143FA02F010F0010103D10132102AE3
:100F9000F7D10A463032D0B20CE0888850B140FA1E
:100FA00003F111F0010203D10133102BF7D11346E5
:100FB0005033D8B20F4B1A7802F00801C9B249B1C8
:100FC0000D490978814205D16FF307021A700B4B66
:100FD00000221A700A490A6802B1904703480022A9
:100FE0000023C0E9002300201CBD00BF280500200D
:100FF0001605002018050020140500200805002013
:101000003805002010B500F007FD044600F048F850
:10101000054B1A884FF6FF718A4240EA040001D05E
:1010200001321A8010BD00BF16050020114BF7B524
:101030001C680746E4B1C1F30764C1F30720C1F39C
:1010400007420D4D8DF8064001F00F0100246E5C43
:101050008DF804008DF805202546B54208DA01AA6E
:10106000044B515D1B683846984701350443F4E74B
:101070002046FEBD0C05002008370008012803D0DB
:10108000034B1870002070474FF0FF30704700BFCF
:1010900001000020014B1878704700BF15050020A3
:1010A0000020704713B5044600287AD11F20012183
:1010B00000F036FF3C4B00949A6802F00C000828C0
:1010C00002D1012000905DE0196841F001021A6030
:1010D0009C60186820F08471344821F480321A60D2
:1010E0005860196821F480221A60DC600194186845
:1010F00040F4803119602C4B1A6802F400300090E3
:1011000001994A1C0192009818B90199B1F5A06F94
:10111000F1D11B6813F4003218BF0122009200982D
:1011200001282FD1204B2248196C41F080521A64BB
:10113000016841F48042026098689860996841F4BF
:1011400000429A6098681B4A40F4A05199605A6026
:10115000186840F0807119601868134A8101FBD546
:10116000154B40F205611960906820F00301916011
:10117000936843F0020090600B4A916801F00C0301
:10118000082BF9D10D48002100F0A2FD4FF440706A
:1011900000F094FD009A012A14BF4FF0FF300020A8
:1011A00001E04FF0FF301CBD003802401030002439
:1011B0000070004008544007003C02400000000856
:1011C000014B1868704700BF002004E0024B1888EC
:1011D00081B28802704700BF227AFF1F4FF440306F
:1011E0007047000000230B4A591089180A78D90764
:1011F00058BF120902F00F02092A94BF302137218B
:101200008A18C2540133182BEDD10021017608460B
:10121000704700BF107AFF1F074B1A681AB9EFF327
:101220001081064801604FF0010080F310881A68B1
:10123000511C196000207047400500203C0500202B
:10124000074A13683BB1581E106038B905490A684F
:1012500082F3108802E04FF0FF30704700207047A3
:10126000400500203C0500200F291CD80F4BDA68F0
:10127000D343C3F30222C2F1040301FA03F10901CB
:1012800000F16043CAB203F56141012381F80023F4
:1012900042B200F01F00510903FA00F2044840F87E
:1012A0002120002070474FF0FF30704700ED00E034
:1012B00000E100E073B5054668460E46144600F0AE
:1012C0000EFE02238DF805300096062C29D8DFE8A3
:1012D00004F02604090F13181D0003208DF80400E4
:1012E000002302E000238DF804308DF8073012E06F
:1012F00000228DF80420F8E700218DF80410012366
:10130000F3E701208DF80400002302E001238DF8AB
:1013100004308DF806302846694600F093FD002021
:1013200001E06FF001007CBDC30710B5044605D590
:1013300006484FF480510522FFF7BCFF34F00F033D
:1013400014BF6FF00100002010BD00BF000C024070
:10135000C20707D5074B11F0010F4FF4805214BF9D
:101360001A835A8330F00F0314BF6FF0010000207E
:10137000704700BF000C024030B5012185B0044623
:10138000102000F0E5FD54204443611E0D4CADF8E3
:1013900004104FF6FF730025204601A90293ADF813
:1013A0000C50ADF8065000F01BFE01210A46204605
:1013B00000F060FE2046012100F050FE284605B0F6
:1013C00030BD00BF001000400348012108B5416254
:1013D00000F064FE002008BD00100040054810B574
:1013E0000121446A00F04FFE00280CBF20464FF058
:1013F000FF3010BD001000401FB50446B8B90120F1
:10140000014600F0B1FDA7204FF6FF73ADF80400D0
:1014100001A909480293ADF80C40ADF8064000F070
:10142000DFFD0548012100F019FE204601E04FF0E4
:10143000FF3004B010BD00BF00000140044B596AEA
:1014400089B25A6A521A92B28242FAD9002070477F
:101450000000014012230B8000487047B437000899
:1014600004230B8000487047B0370008704770476E
:101470007047704770470020704700207047000099
:1014800065230B8000487047F337000810B50B4BFD
:101490008CB098781A888DF8060002A80C46ADF832
:1014A0000420FFF79FFE0028ACBF02A801A8044952
:1014B000224601F065F902480CB010BDE43700087F
:1014C000E41B002070B5164B86B00A4601AC03F150
:1014D000100618685968254603C50833B3422C46E0
:1014E000F7D11888002328800E495818017859B17F
:1014F00020395F298CBF002101210133202B06D028
:101500000029F1D101A805E0002BFBD001E0002962
:10151000F8D00448044901F033F9034806B070BD1F
:1015200044370008E03F0008E41B0020FFF7CABF73
:10153000FFF7C8BF1146FFF7C5BF00001FB5084C35
:101540000A462068616801AB03C3A068054C1860B7
:10155000214601A801F014F9204604B010BD00BFD7
:10156000E7370008E41B0020022908B503D108462C
:10157000002100F067FA002008BD012908B503D159
:101580000846002100F056FA002008BD10B50221DF
:10159000044601F046FD2046812101F042FD002075
:1015A00010BD002000F08CB9012000F089B90000C6
:1015B000022110B5402204460B4601F011FD8121A5
:1015C00040220223204601F00BFD0221034A044879
:1015D000402301F03FFD002010BD00BFAC150020EE
:1015E000EC15002073B50120244C014600F098FC56
:1015F00000204FF4D853022503268DF806008DF8FD
:1016000007006946204600938DF804508DF8056068
:1016100000F018FC204608210A2200F069FC204650
:1016200009210A2200F064FC20460B210A2200F066
:101630005FFC0A2220460C2100F05AFC4FF4806126
:1016400000918DF804502046012569468DF8075019
:101650008DF8056000F0F6FB0A210A46204600F0EE
:1016600047FC29464FF4804000F07EFC802029464C
:1016700000F062FC284600F035FB7CBD0000024013
:1016800043200821FFF7F0BD014801F06FBD00BF06
:10169000EC15002080B2FFF7D1BE4FF47A735843A7
:1016A00080B2FFF7CBBE4FF0A0431868C0F3C04034
:1016B00070470000022837B5054642D8FFF7F3FF10
:1016C0000446FFF76EFF45BB14F0FF0F25D01E4CFC
:1016D0002046FFF787FF1D481D491E4AC4F8E40550
:1016E000C4F8E81520460121C4F8EC2501F0AEF855
:1016F000204601F050F9204601F0C0F92046FFF7DE
:10170000BFFF01210323204684F8101184F8123111
:10171000FFF74EFFFFF748FF11E00D4B0D4A009316
:1017200001210A4B084800F0BBFD074801F016FDF7
:101730004CF25030FFF782FE034801F007FD002015
:1017400001E04FF0FF303EBDEC150020803700086F
:1017500058380008C837000870B5254CD4F8E4356F
:10176000002B43D0FFF758FD22480178002939D0DB
:10177000D4F8DC63B608B3B2002B33D01E4A10880D
:1017800081B21BB2C1F5007293422BDA00241B4DCB
:1017900055F82450C5F3031010302946FFF746FCD6
:1017A00090B9174B174A198889B242F82150198805
:1017B0004A1C91B2B1F5007F198028BF18800E48ED
:1017C00003885A1C91B201800134301B03B2002BF4
:1017D000DDDC0849064800220A7040230221074A3E
:1017E00001F038FCBDE87040FFF72ABD70BD00BFB6
:1017F000EC1500205015002046050020AC150020F7
:1018000052150020500D0020234BD3F8E40510B5ED
:10181000002840D0FFF700FD20490A78002A36D181
:101820001F4B188881B2002931D01E4A1078002839
:101830002DD019888AB2102A98BF1988174B94BFE7
:1018400089B210210120187015480288531A9AB2E3
:10185000028000220BB29A4213DA134B13481C8801
:10186000A4B250F82440124840F8224018880130B1
:1018700080B2B0F5007F188001D3002018800132BB
:10188000E8E705480A4A81219B0001F000FCBDE819
:101890001040FFF7D5BC10BDEC1500204C0D00200A
:1018A000561500205A150020581500204C05002020
:1018B0005C150020002814BF4FF0FF300020704757
:1018C0000D49002310B50B800C4C0D4923800B8073
:1018D0000C4C0D4923700B800C4C0D4923801A468B
:1018E0000B800C4C0C4B012110B121701A7001E0DF
:1018F00022701970002010BD4605002052150020EE
:1019000048050020501500205615002044050020F1
:10191000581500205A1500204C0D002038B5184CE1
:101920002378054613B94FF0FF3038BD15480188BC
:101930008AB2B2F5FF7F07D9FFF766FF2378002B45
:10194000F1D06FF0010038BDFFF766FC0E4B0F4978
:10195000188882B2501C41F8225082B21A8019882D
:1019600088B2B0F5007F01D300221A80054B198898
:10197000481C82B21A80FFF763FC002038BD00BF0C
:101980005A15002056150020440500204C05002063
:1019900010B504462046FFF7C1FF831C08D1074B52
:1019A0001A8842F20F718A4207D8501C1880F1E75A
:1019B000002802DB014B00221A8010BD54150020C4
:1019C000124B10B50446188881B2D9B1FFF724FC38
:1019D0000F4B10491A8890B251F8202022601C88C1
:1019E000601C81B2B1F5007F198001D300221A80FA
:1019F000064C2388581E81B22180FFF721FC2288E3
:101A000090B210BD4FF0FF3010BD00BF4605002062
:101A100048050020500D002008B5054801F01EF8CB
:101A200018B9FFF799FEFFF7EFFE002008BD00BFD1
:101A3000EC150020024B00221A70FFF7E5BE00BF34
:101A40004C0D0020024B01221A70FFF785BE00BF2B
:101A50005015002020B10368197001684A1C02600B
:101A600070472DE9F843141E8046894601DC202783
:101A70000FE0002219F8021009B10132FAE7A24280
:101A8000B4BFC2EB04040C4613F0020F0CBF2027B6
:101A90003027DB070CD42546002D05DD40463946AE
:101AA000FFF7D8FF013DF7E724EAE476A41B00E046
:101AB00000263546C6EB0903595D21B14046FFF7C4
:101AC000C9FF0135F6E72646002E05DD40463946BA
:101AD000FFF7C0FF013EF7E7002CACBF2819281C18
:101AE000BDE8F8832DE9FF470C9EDDF83480814680
:101AF0000C4651B930228DF804208DF8051032467D
:101B000001A94346FFF7ADFF35E033B10A2A04D1FE
:101B1000002902DA4C42012700E0002704AD00232F
:101B200005F8013DAA466CB1B4FBF2F302FB134485
:101B3000092C02DD0E993A396418303405F8014D4C
:101B40001C46EFE787B14EB118F0020F06D04846A9
:101B50002D21FFF77FFF013E012705E02D2005F134
:101B6000FF3A05F8010C00274846514632464346E5
:101B7000FFF777FF381804B0BDE8F087F0B589B0FB
:101B800006460D46059200242B7823B1252B79D1EA
:101B900068786A1C28B9002E7BD030680022027059
:101BA00077E025286DD02D2802D1AA1C012300E062
:101BB0000023174601323978302902D143F002035D
:101BC000F7E700223978A1F130005FFA80FC3D464A
:101BD0000137BCF1090F03D80A2505FB0202F1E722
:101BE000732909D1059F391D059139682A4F30465F
:101BF000002908BF394641E064290ED18DE80C0068
:101C0000059961230293081D096805900A22304650
:101C10000123FFF767FF241839E0782906D10599D9
:101C2000081D8DE80C000590612207E058290AD1B3
:101C30000599081D8DE80C0005904122029230465E
:101C4000096810220BE075290BD18DE80C0005996D
:101C500061230293081D096805900A22304600237B
:101C6000D7E7632913D10599081D0968059000205D
:101C70008DF81C108DF81D0007A93046FFF7F1FE06
:101C8000C9E7154630462978FFF7E4FE01340135EF
:101C90007AE7204609B0F0BD743800080EB40FB5DD
:101CA00005AA019052F8041B01A80392FFF766FFF2
:101CB00004B05DF804EB03B07047000040F0BF6073
:101CC000024B40F40031D960704700BF00ED00E0E6
:101CD00021F0604121F07F02014B10439860704772
:101CE00000ED00E0014B5861704700BF003C01402F
:101CF000024B1A6842F4006018607047003C0240D2
:101D0000024B1A6842F4805018607047003C024051
:101D1000044B1A69002A04DA034800F1883158603C
:101D200059607047003C024023016745024B1A6925
:101D300042F0004018617047003C0240014BD860FF
:101D4000704700BF003C02400B4BDA68D0030DD453
:101D5000D868C1060CD4D96811F0EF0F0AD1DB683E
:101D600013F0020F0CBF08200720704701207047B6
:101D70000520704706207047003C024007B5082345
:101D80008DF80730FFF7E0FF8DF807009DF807009A
:101D90000128F7D09DF807000EBD000070B505467C
:101DA0000E46FFF7EBFF082813D10A4C236923F4F2
:101DB00040702061216941F400722261236943F07F
:101DC000010020612E60FFF7D9FF216921F0010297
:101DD000226170BD003C024070B5064641B1012948
:101DE00008D0022914BF4FF440754FF4007503E08A
:101DF0000D4601E04FF48075FFF7C0FF08281ED1A3
:101E00000F4C236923F44070206121690D43256143
:101E1000226922F0F8032361206940F002010E4399
:101E20002661226942F480332361FFF7A7FF21690D
:101E300021F002022261236923F0F801216170BDC3
:101E4000003C0240F0B50E680022012303FA02F3C1
:101E500003EA06059D423ED107680C79530027FA34
:101E600003F707F00307A7420DD007684FF0030CF4
:101E70000CFA03FC27EA0C070760076804FA03FC66
:101E80004CEA07070760013C012C17D88768032438
:101E900004FA03F427EA040787604C79876804FA98
:101EA00003F43C438460446824EA05058C7945606A
:101EB000456804FA02F4A4B22C434460C5680324C4
:101EC00004FA03F425EA0405C560CD79C46805FA6F
:101ED00003F32343C3600132102AB6D1F0BD0021C1
:101EE0004FF6FF730360017141718171C1717047D9
:101EF00001F00703C908083130B59B0050F82150A4
:101F00000F2404FA03F425EA040440F8214050F8B1
:101F1000214002FA03F2144340F8214030BD000092
:101F2000044B1A6B09B1104301E022EA0000186368
:101F3000704700BF00380240044B5A6B09B1104390
:101F400001E022EA00005863704700BF00380240F9
:101F5000044B1A6C09B1104301E022EA0000186436
:101F6000704700BF00380240044B5A6C09B110435F
:101F700001E022EA00005864704700BF00380240C8
:101F8000044B1A6909B1104301E022EA000018610C
:101F9000704700BF00380240044B5A6909B1104332
:101FA00001E022EA00005861704700BF003802409B
:101FB000044B1A6A09B1104301E022EA00001862DA
:101FC000704700BF00380240044B5A6A09B1104301
:101FD00001E022EA00005862704700BF003802406A
:101FE0001C4A038890429BB212D002F58062904254
:101FF0000ED0B0F1804F0BD0A2F58032904207D0C6
:1020000002F58062904203D002F58062904203D1D3
:102010004A8823F0700313430F4A904208D002F518
:102020008062904204D023F440730A899BB2134328
:1020300003804B680A88C362064B0285984203D02E
:1020400003F58062904201D1897A0186012383825F
:10205000704700BF0000014000100040038819B124
:1020600099B241F0010303E023F001010A04130CCB
:102070000380704783899BB20AB1194301E023EAC8
:10208000010181817047038A828911EA030092B2BB
:1020900003D011420CBF002001207047C9438AB20F
:1020A00002827047D0F8E83510B5044618698047B9
:1020B000032184F81211002010BD08B590F81231E8
:1020C000042180F8133180F81211D0F8E805C268B5
:1020D0009047002008BD08B5D0F8E435D96901B1B2
:1020E0008847002008BD08B5D0F8E435196A88474C
:1020F000002008BD08B5D0F8E435596A88470020AB
:1021000008BD002110B5402204460B4600F068FFD0
:10211000802140220023204600F062FFD4F8E80529
:10212000012384F812314168A0788847002010BD4F
:1021300013B56946044600F023F99DF8001001F03C
:102140001F03012B0CD006D3022B0ED1204669466B
:1021500000F046F90EE02046694600F0BBF909E0C0
:102160002046694600F09EF904E0204601F0800117
:1021700000F0A8FF00201CBD70B50446002947D11F
:1021800090F81131022B37D1D0F83821D0F8243112
:102190009A4211D9D21AC0F83821C078012804D146
:1021A000D4F82811CB18C4F828312046D4F82811C7
:1021B00092B200F0B5F81FE0D0F83C51B5FBF3F651
:1021C00003FB16565EB99D4209D3D0F840219542D3
:1021D00005D2324600F0A4F8C4F840610CE0D4F80F
:1021E000E405C16829B194F81231032B01D12046CE
:1021F0008847204600F0B5F894F81621012A10D13E
:10220000094920690B680022436084F8162108E020
:10221000D0F8E4355B6923B190F81221032A00D18C
:102220009847002070BD00BFE01B002010B5044699
:1022300059BB90F81111032930D1D0F89023D0F870
:102240007C339A4214D9D21AC0F89023C07801285E
:1022500004D1D4F88013C818C4F880039A4228BF68
:102260001A462046D4F8801392B200F062F815E0C6
:10227000D0F8E4150B6923B190F81221032A00D19C
:102280009847204600F05EF808E0D0F8E4359B69F6
:1022900023B190F81221032A00D19847002010BDE5
:1022A0002DE9F041069F0446164698460D46FFF775
:1022B00099F920462946C4F8E485C4F8E875C4F8BD
:1022C000EC6500F042FED4F8E835186880472046F7
:1022D000BDE8F041FFF7D4B9D0F8E43510B50446B5
:1022E0001A689047D4F8E80581688847002010BD37
:1022F00008B5D0F8E4355A689047002008BD38B5D5
:1023000004460D46C4F83C21C4F838211346022285
:1023100080F8112100212A4600F0B9FE002038BDC6
:1023200010B50C4613460021224600F0B0FE0020F6
:1023300010BD10B50C4613460021224600F08AFE5F
:10234000002010BD0021042310B50A46044680F881
:1023500011310B4600F09BFE204600F0D8FD002016
:1023600010BD0021052310B50A46044680F811313E
:102370000B4600F06FFE204600F0C9FD002010BDA6
:1023800090F8CC350B7090F8CD254A7090F8CE358A
:1023900090F8CF2503EB02224A8090F8D03590F8D0
:1023A000D12503EB02228A8090F8D23590F8D3250C
:1023B00003EB022293B2CB800121C0F8403180F8B8
:1023C0001111704710B58021044600F07BFE2046B5
:1023D000002100F077FE2046BDE8104000F097BDD8
:1023E00070B54E788A88012E04460D46D3B211D0BE
:1023F00029D3032E51D190F81221022A2AD0032A80
:1024000049D14988A9B9A3B1802B12D0194600F04F
:1024100059FE0EE090F81221022A1BD0032A3AD16D
:102420004988002939D153B1802B08D0194600F0D2
:1024300067FED4F8E405294683682046984720467D
:10244000FFF780FF29E090F81251022D02D0032DF2
:1024500021D106E00BB3802B1FD0194600F032FECD
:102460001BE012F0800F4FF0280006D002F07F0230
:1024700000FB024191F81E3103E000FB034393F897
:102480007633074803B10123036005492046022241
:10249000FFF735FF01E0FFF795FF002070BD00BF9B
:1024A000A415002038B590F81231032B04460D46D0
:1024B0000CD10A79012A09D8D0F8E4359A689047F6
:1024C000E88828B92046FFF73DFF01E0FFF77AFFD3
:1024D000002038BD70B54B78052BA2B004460D46E0
:1024E00000F0838008D8012B00F01581C0F0DA805D
:1024F000032B40F03381E6E0082B00F0C58003D8C1
:10250000062B40F02B8106E0092B00F08E80552B26
:1025100040F024810FE14888010A4B1E062B00F28F
:102520001D81DFE813F007001A0027001B011B01C3
:102530001B011B01D4F8EC15A0780A680DF1060107
:1025400090470146E888402803D094F81231012BC7
:102550003BD10822ADF8062037E0D4F8E4050DF1B0
:102560000601826AA0789047022343700146C4F8AE
:10257000F0052AE0C1B2A07805291FD8DFE801F0F4
:1025800003070B0F1317D4F8EC25536812E0D4F8A7
:10259000EC158B680EE0D4F8EC35DB680AE0D4F873
:1025A000EC25136906E0D4F8EC154B6902E0D4F889
:1025B000EC2593690DF10601984705E0D4F8E43560
:1025C0000DF10602DB6A98470146BDF806000028B7
:1025D00000F0C880EA88002A00F0C480824228BF48
:1025E0000246ADF806202046B5E08A88002A40F071
:1025F000B580C988002940F0B1806E8890F812211A
:1026000006F07F03032A1E4600F0A88080F81431EC
:10261000194600F093FD2046FFF794FE0EB102200C
:1026200000E0012084F812019CE08B784F4A012BD6
:10263000137000F2938090F81221022A03D0032A2B
:1026400040F08E8008E0002B61D00121032380F848
:10265000101180F8123114E043B9022180F81211F0
:1026600080F810311946FFF743FE50E090F8101142
:1026700001294CD0FFF73CFE3C480178204684F805
:102680001011FFF729FE42E0CA88012A66D190F8AE
:102690001231022B04D0032B62D100F588715AE06D
:1026A000334958E090F81221931E012B58D8314835
:1026B000D4F81821002101600AB1022303602046EA
:1026C0002C49022247E04B88012B2DD0022B49D107
:1026D0008A8812F0FF0F45D10069110A4A1E43682B
:1026E000042A0FD8DFE802F0030507090B000120D8
:1026F00006E0022004E0032002E0042000E00520C0
:1027000060F306131C490B60012384F81631204640
:10271000FFF718FE26E090F81221931E012B1FD818
:102720004A88012A1ED10023D4F8E425C4F81831C0
:1027300093689847EBE70978C0290FD16B886BB98C
:10274000EE88802E0AD10D49324602A800F05AFFC9
:10275000204602A93246FFF7D2FD03E02046294673
:10276000FFF730FE002022B070BD00BFA015002092
:10277000A81500209C150020E01B00207B380008D5
:1027800030B5C0B10023C55CDCB20133002DFAD1F5
:10279000631C5B00138003220B704A700138022314
:1027A00010F8012F3AB15C1CCA54E2B20233002483
:1027B0008C54DBB2F4E730BD37B50023104C0193E5
:1027C00005460320FEF766FFE8680269013C0192B6
:1027D00013D001990029F4DA019B43F00102019220
:1027E0000199074A01610369013A019302D00199F5
:1027F000C907F8D40320FEF74DFF00203EBD00BFFF
:10280000410D030030B5C4786CB900EB820003338E
:10281000D0F8D0509B1022469A4204D051F82200A2
:1028200001322860F8E7002030BD10B50332D0F83F
:10283000D0409210002393424FEA830004D02068D6
:1028400041F823000133F6E7081810BDF0B5002366
:10285000012240240129C370827084800CD102239C
:10286000082604224FF4A0740372C17206704270ED
:10287000C4804FF0A04309E041B90C23C17203703A
:1028800006214FF4A065204B4170C58003F500611F
:1028900045780161C3600246194600240432AC4207
:1028A00001F1200608D201F5106701F530611165CC
:1028B000576101343146F1E703F5806403F588611F
:1028C00044610478C0F8CC10002203F5A061A24254
:1028D00006D200EB82050132C5F890102031F6E7F0
:1028E00003F580510022A24207D200EB820501329B
:1028F000C5F8D01001F58051F5E703F56063C0F825
:102900000C310020F0BD00BF0000044038B5037A50
:102910000025012B0446C3681FD1986B617A65F3CB
:10292000104009B140F480109863DA686FF38612A2
:102930006FF396526FF351426FF3D342DA60204641
:10294000FFF73AFFE378012B19D1052161F3440524
:10295000E06845F02005856011E0DA6842F040014A
:10296000D960FFF729FF607AE36800280CBF4FF4B5
:1029700034124FF474129A631420FEF78EFEE2783C
:10298000012A06D1E368996821F03E0040F02A024E
:102990009A60002038BDC3689A6842F001009860D0
:1029A00000207047C3689A6822F0010098600020F8
:1029B0007047000007B500230193019A42F02003FD
:1029C0000193019A094B61F38A120192C26801983E
:1029D00010611169013B019102D001988006F8D481
:1029E0000320FEF757FE00200EBD00BF410D03007F
:1029F00007B500230193019941F010020192C068CC
:102A0000019B074A03610169013A019102D0019BD0
:102A1000D906F8D40320FEF73DFE00200EBD00BF0E
:102A2000410D0300C26808B5D36801296FF35D73D7
:102A30006FF39E7302D143F0005302E009B943F0F3
:102A400080433220D360FEF728FE002008BDC36813
:102A5000586900F0010181F001007047C3685869AE
:102A600000F001007047C3685A69986910407047C8
:102A700003691A6861F301021A60704710B5C368F0
:102A800000226FF080414FF0FF349A6159615C6021
:102A900059610A499961C07890420CBF10211146D2
:102AA00041F4872040F00811986941F4401120EA70
:102AB000010001439961104610BD00BF000800806D
:102AC00038B5D0F80C31016900221A6015460A6841
:102AD00065F3CC220A60C37A012B04461BD1032183
:102AE000FFF7C6FFE068C02380214FF4800263F344
:102AF0000F05416261F31F4561F30F024FF4A071AE
:102B00008262C0F8045161F30F056FF31F45C0F8EE
:102B10000851C0F80C5110212046FFF74BFF20460A
:102B2000FFF766FF206900234FF0FF320361436126
:102B30008261C36161788B4214D204EB830201335A
:102B400090690168C1F3076202F08001CAB2002AED
:102B500014BF4FF09041002101600022FF2102616B
:102B60008160E7E700236078834214D204EB83009E
:102B70000133426D1168C1F3076000F08001C8B2F3
:102B8000002814BF4FF09041002111600020FF2168
:102B900010619160E7E723691A6942F48071196155
:102BA000E078012804D1054A402161F359421A63B3
:102BB0002046FFF763FF002038BD00BF030101007E
:102BC00003699868C0F341014B1E022B02D8024AE8
:102BD000D05C704703207047FB38000803698169A7
:102BE00010B59C680A68C4F34100022802D06FF354
:102BF0000A0202E0032060F30A020A60596841F405
:102C000080725A60002010BD30B54D780B780022DC
:102C1000012D00EB830405D105FA03F5A46965F3E2
:102C20000F0205E0012505FA03F3646D63F31F420B
:102C30002368C3F3072505F08005EDB26DB98D68F3
:102C400065F30A03CD78C98865F3934361F399531B
:102C500043F0805343F4004121600069C3691A4383
:102C6000C261002030BD30B54D780B780024012DB5
:102C7000224600EB830105D105FA03F3896963F36A
:102C80000F0205E0012505FA03F3496D63F31F42C6
:102C900000696FF3CF340C60C16921EA0202C2619E
:102CA000002030BD70B54E780A78012E0B4600EB3F
:102CB000820148D18D695C6929682A6964F312022E
:102CC00014B966F3DC420BE09E68A419013CB4FB26
:102CD000F6F6DC7866F3DC42012C08BF64F35E7222
:102CE0002A61C278012A06D11A7800EB82041A6997
:102CF000A46962610CE0DA78012A09D05A693AB114
:102D000002691C78556B012606FA04F42C435463BF
:102D1000DA78012A07D102699268D20554BF41F0DE
:102D2000005141F080511A7800EB820241F00441D9
:102D300092691160D978012937D1D9681A789B8AAC
:102D4000FFF760FD31E04D6D5E692A689C68296976
:102D50002EB964F31201012464F3DC410AE0361950
:102D6000013EB6FBF4F666F3DC41B605B60D7443DE
:102D700064F312012961C178012905D11C7800EBA7
:102D800084014C6D19696161D978012906D159799D
:102D900011B142F0005201E042F080521B7800EB8A
:102DA000830042F00441426D1160002070BD73B594
:102DB0004D78012D3DD183694A691E681C690094D4
:102DC000E4B242B962F306049DF802208DF8004097
:102DD00065F3C4020EE08D68AA428ABF4D6162F3BA
:102DE000060465F306049DF802208DF800400124D6
:102DF00064F3C4028DF80220009A1A61C278012A95
:102E000005D10C7800EB840294690A69626146F08E
:102E100004461E60C378002B34D14A69002A31D0A1
:102E200003690A78586B012101FA02F202435A63DE
:102E300028E00B784E6900EB8302536D8A681D68A9
:102E40001C690094E4B206B14A6162F306049DF87D
:102E500002208DF80040012464F3C4028DF80220A2
:102E6000009A1A61C378012B05D10A7800EB82031E
:102E70005A6D0B695361097800EB810045F00445F8
:102E8000426D156000207CBD4B780978012B00EB6A
:102E900081000DD180690368C3F3076202F08001ED
:102EA000CAB20AB143F0804343F40011016004E068
:102EB000436D1A6842F400111960002070474B7886
:102EC000012B0B78C97800EB83000CBF8269426D3F
:102ED0001368881E6FF35553012898BF43F0805341
:102EE00013600020704703699A69D8691040000C8C
:102EF000704700EB810102694B6D99685069084089
:102F0000704703699869D969084080B2704782B0F8
:102F100000230093C021012200238DF8031062F3E7
:102F2000C40318218DF802308DF80010436D009A0B
:102F30001A61C178012906D100F2CC5058611A6893
:102F40004FF080221A6002B0704710B50446FFF7B8
:102F50007DFC012384F81231002384F81431627857
:102F6000934213D2282202FB034101F58E72012005
:102F700081F81D0181F81C31A1F822314020002187
:102F8000D1709060D16051610133E8E7002360782F
:102F9000834213D2282101FB034000F55D7200211A
:102FA00080F87433A0F87A3380F8751380F87713BB
:102FB00040209060D16051610133E8E72046FFF77F
:102FC000F1FC2046FFF7A2FC00212046FFF72AFD76
:102FD0002046FFF775FD2046BDE81040FFF7DBBC3B
:102FE00070B5CDB201F07F044FF0280606FB040453
:102FF00015F0800F14BF04F58E7404F55D7401F0B4
:103000007F01ED0921706570A260E37005B1E18078
:10301000022B01D1002323712146FFF7F5FD00208B
:1030200070BD10B5CAB201F07F034FF0280404FB55
:10303000030312F0800F14BF03F58E7303F55D7365
:1030400001F07F01D20919705A701946FFF70BFE83
:10305000002010BD38B501F07F04282505FB0405CC
:1030600005F55D7185F874434B610023CA608B617F
:103070004B70C378012B05F55C7508BF0A6114B964
:10308000FFF795FE01E0FFF70DFE002038BD70B59B
:1030900001F07F04282505FB040505F58E71012646
:1030A000CA600A61002285F81C414E7005F58C75D6
:1030B0008A614B6114B9FFF77AFE01E0FFF7F2FD78
:1030C000002070BDCAB212F0800F10B54FF0280377
:1030D00006D001F07F0403FB040303F58E7303E0C5
:1030E00003FB010404F55D73D209012401F07F01A3
:1030F00019709C705A701946FFF7C6FE002010BD6B
:10310000CAB212F0800F10B54FF0280306D001F0BC
:103110007F0403FB040303F58E7303E003FB010448
:1031200004F55D730024D20901F07F0119709C70D1
:103130005A701946FFF7C3FE204610BD02690023EE
:1031400061F30A1311680B431360704703695A68EF
:1031500003206FF341025A60FEF79FBA03695A6871
:1031600042F0020058600320FEF797BA2DE9F04FB5
:1031700085B00446FFF76BFC08B900203AE2204610
:10318000FFF771FC07460028F7D0C0F3074A0AF0A2
:103190000800C0B2002856D02046FFF7A4FEA34680
:1031A000804626464FF00009B8F1000F4AD018F0CB
:1031B000010F3FD05FFA89F3194620460093FFF7CD
:1031C00098FE10F0010F0546009B20D0706D012580
:1031D0008560E178A94207D10269DBF87C13C2F36C
:1031E00012000A1ACBF88C237148016820460A683D
:1031F00019469047E378012B09D1B9F1000F06D1A8
:1032000094F81101052802D12046FFF780FE05F051
:103210000201CAB212B1736D02259D6005F008006B
:10322000C1B239B1624A15682046AB689847706DE3
:103230000821816009F101094FEA580804360BF1B1
:10324000280BB1E701200AF0040A5FFA8AF3002B89
:1032500000F0B1802046FFF754FE264681464FF02D
:103260000008B9F1000F00F0A58019F0010F00F07F
:1032700099805FFA88FA236904EB8A0019695D6B0B
:10328000826925FA0AF59068EA01D5B20D43054036
:10329000EA071BD5586B464A012505FA08F120EAD2
:1032A00001005863B36910689D6051464368204629
:1032B0009847E178A94209D1B8F1000F06D194F8F6
:1032C0001121042A02D12046FFF721FE05F0080053
:1032D000C3B213B1B16908258D6005F01002D0B2F8
:1032E00010B1B36910259D6005F04001CAB212B15A
:1032F000B0694025856005F00203D9B211B1B26909
:103300000225956025F07F0010F0FF0F4AD028239A
:1033100003FB084101F58C75019504356869AB69BB
:10332000AA68C11AB069914238BF0A4602F1030C7B
:1033300082694FEA9C0C93B2634530D9A9696A69E6
:1033400091422CD25AB3A868C1EB020B834528BF27
:1033500083460BF1030E4FEA9E0CE968CDF800C0DE
:1033600052461FFA8BF32046FFF74CFAEB68AA6926
:10337000DDF800C003EB0B010BEB0200E960A86174
:103380006969B36988429A69D5D301982569027938
:103390006B6B012101FA02F023EA00036B63B5694C
:1033A0008022AA6008F101084FEA5909043658E75B
:1033B000040000200120FDB205F00201CAB212B1E2
:1033C000E36802215961C7F3076202F08003D9B2B2
:1033D000C9B1A07A40B1D4F80C31D4F80C216FF304
:1033E00041036FF3000313602169844A486820F0A9
:1033F00001034B60116820468B699847E0684FF0E5
:10340000004242610120C7F3072808F00801CBB24F
:103410006BB37A4994F812210B6800208DF80F00E5
:103420008DF80F2020465A6990472069E36882682A
:103430004FF400615961A07AC0B1D30716D594F852
:103440001521012A12D19DF80F30032B0ED1D4F88B
:103450000C11086840F001020A600B6843F0030099
:10346000086067490A6942F006030B61012005F014
:103470000801CAB242B1614803682046D96888474A
:10348000E06808224261012005F01005EDB2002D30
:1034900035D0E668B36923F01001B161366A28229D
:1034A00006F00F00C6F3434302FB0045022B05F56F
:1034B0005D750DD0062B1CD104F2CC51204608229C
:1034C000FFF7B3F9A969C6F30A168819A86110E0D5
:1034D00047F6F072324062B1C6F30A16E968324626
:1034E0002046FFF7A2F9EB68A86999198619E960E7
:1034F000AE61E3689A6942F010019961012008F019
:103500001003DAB2002A34D026697068002520F052
:103510000101716020462946FFF74CFA23462A46EE
:1035200066780433B24206D25E69FF21B160186D3D
:1035300001328160F4E70126206966F30F050B2153
:103540004FF0FF3266F31F458261C5614161016141
:1035500003686FF30A1303602046FFF7D8FC27497E
:10356000E0680B684FF4805242611A692046904728
:10357000304608F020085FFA88F1E9B12046FFF7ED
:103580002DFBE5682046ED68FFF71AFB032806D1FE
:1035900000214FF40070A170A080092204E00120F6
:1035A0004023A070A3800522E36862F38D254FF4C9
:1035B0000052DD6001205A61C7F3074707F0100190
:1035C000CBB24BB10D4802682046D1698847E36809
:1035D0004FF480105861012007F02007FFB24FB16F
:1035E000064A116820460B6A9847E0684FF40012BB
:1035F0004261012005B0BDE8F08F00BF040000204B
:1036000000ED00E010B50023934203D0CC5CC4541D
:103610000133F9E710BD0000000002408000000007
:10362000000402400080000000040240200000006E
:1036300000000240200000000004024000200000C2
:1036400000040240080000000004024004000000E2
:10365000000C0240000800000004024000100000BE
:10366000000C024000040000000002400080000046
:103670000004024000010000FFFFFFFF0000000007
:1036800000000000004000080800000000000000EA
:1036900000800008100000000000000000C00008CA
:1036A00018000000000000000000010820000000D9
:1036B00000000000000002082800000000000000D8
:1036C00000000408300000000000000000000608B0
:1036D0003800000000000000000008084000000062
:1036E0000000000000000A08480000000000000080
:1036F00000000C08500000000000000000000E0850
:103700005800000000000000000002030301020353
:1037100003030303020203014D494F5333320053A5
:10372000544D33324634444953434F564552590061
:1037300053544D3332463478780025303878003F82
:10374000002564004D494F53333220426F6F746C33
:103750006F6164657200286329203230313420544F
:103760002E204B6C6F7365002025303258002020CE
:103770002000253038582000F000007E3200000084
:10378000B11500088D15000877140008000000002E
:103790007B1400087B150008691500080000000074
:1037A000000000000000000081140008351500082A
:1037B000040309041201000200000040C016FE03C9
:1037C00010100102030100005514000861140008E4
:1037D0003D150008C51400088D14000831150008B7
:1037E0002D1500083432006D696469626F782E6FA0
:1037F00072670009026500020104803209040000BA
:10380000000101000209240100010900010109046D
:103810000100020103000207240100014100062407
:10382000020101000624020202000924030103012F
:10383000020100092403020401010100090502023A
:10384000400000000005250101010905810240003A
:1038500000000005250101036D1400086F14000825
:10386000A9150008731400087514000871140008E5
:10387000A3150008286E756C6C2900D10FED54CF8C
:10388000C5FBB89752389138910E7D0FED389301F2
:10389000910E9100C11F020E91F7041040006E10AE
:1038A0006EE76A0000000000000000000000000059
:1038B0000000000000000000000400000000000004
:1038C000000000000000002F55461F00D848403778
:1038D0006AF76A00300000C7062E734A2C137BE992
:1038E0007F32002A280D9BFE0B21EF422A2F73B551
:1038F000B8DA76E679BF0FEB793E0B0201020000E1
:1039000010100000080000202D2200087921000876
:1039100031210008D720000803210008BB2000083F
:10392000A5200008E7200008F5200008000000009E
:103930000000000000000000FFFFFFFFFFFFFFFF8F
:10394000FFFFFFFFFFFFFFFFFFFFFFFFFFFFFFFF87
:10395000FFFFFFFFFFFFFFFFFFFFFFFFFFFFFFFF77
:10396000FFFFFFFFFFFFFFFFFFFFFFFFFFFFFFFF67
:10397000FFFFFFFFFFFFFFFFFFFFFFFFFFFFFFFF57
:104000000000022075BD010871BD010851AB010817
:1040100071BD010871BD010871BD010800000000FB
:10402000000000000000000000000000E1B80108EE
:1040300071BD01080000000051B90108A1B90108D3
:1040400071BD010871BD010871BD010871BD010894
:1040500071BD010871BD010871BD010871BD010884
:1040600071BD010871BD010871BD010871BD010874
:1040700071BD010845E8010825E8010871BD010886
:1040800071BD010871BD010871BD010871BD010854
:1040900071BD010871BD010871BD010871BD010844
:1040A00071BD010871BD010871BD010871BD010834
:1040B00071BD0108C18F020871BD0108B500020879
:1040C000C10002089D000208A900020871BD010894
:1040D00071BD0108FDFD0108CDFC01083DFD010891
:1040E00071BD010871BD010871BD010871BD0108F4
:1040F00071BD010871BD010871BD010871BD0108E4
:1041000071BD010871BD010871BD010871BD0108D3
:1041100071BD01084DFE010871BD010871BD0108A6
:1041200071BD010871BD010805E8010871BD0108F4
:1041300071BD010871BD010871BD010871BD0108A3
:1041400071BD010871BD010871BD010891EF010841
:1041500071BD010871BD010871BD0108ADFD010807
:1041600071BD010871BD010871BD010871BD010873
:1041700071BD010871BD010871BD010871BD010863
:0841800071BD010871BD0108C9
:020000040801F1
:1000000008B51BF011F94FF0FF300EF073FC002023
:1000100016F0F2FD17F00CFC17F004FD05480CF08B
:1000200073FA1BF051FA03F033F8BDE8084004F00E
:100030005DBB00BF2CB8020810B5194B187818BB6F
:1000400016F0FCFD032812D0002807DB64244FF4CF
:100050007A700EF05BFE013CF9D1F1E70CF076FA14
:10006000002001460CF018FA0E480CF0CDFA4FF4BF
:100070007A744FF47A700EF049FE013CF9D109F020
:1000800057FB074901220A70082001460EF05EFC6A
:1000900004F07AFB08200021BDE810400EF056BCA9
:1000A000680000206CB8020813B520481BF0A4FAC1
:1000B00009F030FC04F0B8FD04F040FB1C4B1A883A
:1000C000501C81B2642902D0198002B010BD0024F6
:1000D0001C8018F043FE684618F06AFE204618F0AF
:1000E0005DFE0A23B0FBF3F2D1B2204604F0AEFA73
:1000F000012018F053FEC0F34701012004F0A6FAD6
:10010000BDF80210BDF80600BDF804204018BDF887
:100110000010092358435318B0FBF3F2D1B2022068
:1001200002B0BDE8104004F091BA00BF3D410108A3
:100130006A000020034602480A4619460CF0D2BC69
:1001400095B8020804F050B81BF0F0B91BF01EBAC5
:100150007047704713B50846C0F3072303F0F00358
:10016000802BC1F3032103D0902B01D0B02B16D1EB
:10017000154A12F83120D1070FD5540804F00F02A8
:1001800021090B2A4FF0000486BFA2F10B03DBB25A
:10019000234600941AF09EFA14E0802B06D000F05B
:1001A000FF2121F47062B2F5104F04D102B0BDE816
:1001B000104009F021BD902B04D102B0BDE81040E1
:1001C00009F086BC02B010BDC016002010B5224C4C
:1001D0002078012200090021134604F0ADF82278AE
:1001E000C2F3810002F0030101221346083104F03A
:1001F000A3F80CF0ABF9002001460CF04DF9237880
:100200001648190903F00F02013101320CF026FAE9
:100210001348037813F00F0103D0072901D00B29ED
:1002200006D9002001210CF037F90E480CF0ECF94A
:10023000012120200CF030F90B480CF0E5F90B4AB5
:100240000B4B10780B4900280CBF08461846BDE838
:1002500010400CF0D9B900BF7E120020ABB80208E4
:100260006C000020CBB80208E7B802087400002038
:10027000FCC4020810C20208014B01221A70704728
:100280007400002038B5104C104B20701048032229
:100290001A700160002500240022214613462846DA
:1002A00004F04AF8214601220023284604F044F8CD
:1002B000611CCCB20C2CEFD10135EDB2042DEAD18A
:1002C000BDE83840FFF782BF6C000020F411002029
:1002D0007000002051B1052808D9054B1A78D2F1D9
:1002E000010038BF00201870FFF770BF704700BFD3
:1002F000740000202DE9F04F8BB0002900F0A68299
:10030000112817D1A24C207800210B4600090122A8
:1003100004F012F8237803F00301C3F381000831DD
:100320000122002304F008F89A499B4A0020087033
:1003300012688AE2192802D0122840F08782974A70
:1003400017783E0907F00F077A1ED1B2002305295E
:10035000049129D8F4214FF0010371432420904DDA
:1003600003FA02F800FB0212AC18A37C5A0702D170
:10037000C3F3011363B1F42101FB06556878C0F3A0
:10038000C0032BB17A1D012303FA02F444EA0808E2
:10039000032F28D1824DF42101FB065042799209A6
:1003A00021D048F400581EE0A7F10800022806D822
:1003B00007F110024FF0010404FA02F813E00B2FCA
:1003C0000ED1774DF42404FB065191F8EF8008F02C
:1003D0000300032814BF4FF000684FF0E05802E01C
:1003E0006C4A137032E26A4D6E4C287814F8301063
:1003F0006FF3000104F8301004EBC002A14651680D
:1004000019B1019309F0FAFC019B242001931AF021
:1004100021FF04462878644909EBC0050B7863483E
:100420006C6000253C22AB4208BF28466277206200
:10043000C4F800806560A560E56004F110005C49C7
:100440001BF0C1F9049A052A00F2118118F0D2FFBD
:10045000791E05910322DDF814C0606091FBF2F370
:1004600002FB13C1019A0691032F94BF4FF0520E65
:100470004FF0530E8146CDF80CE0A2B12A4652232C
:1004800063F307022221464B61F30F22F42101FBA3
:1004900006314B7863F31742294622F07F4218F069
:1004A000F1FF012500E01546C8F3072000F0200207
:1004B000D1B2002947D03A4BF42000FB06335A79D9
:1004C0009109022928D1681C4FF0520E0022079092
:1004D0006EF3070298780193242161F30F2260F3F1
:1004E00017422946484622F07F42CDF808E018F02E
:1004F000C9FF0199DDF808C0C878079900226CF39C
:100500000702252363F30F2260F3174222F07F4294
:100510004846023518F0B6FF5221002261F3070267
:1005200027201F4960F30F22F42000FB06106B1CEC
:100530004179019361F317424846294622F07F42F0
:1005400018F0A0FF019D3BB25A01F42102EB830099
:1005500016FB01F3C21808924FF0000C5FFA8CF002
:1005600001280FD0069A134BDDF820E0000130304F
:100570001043C1B203EB0E0000EB0C02079109928D
:10058000002319E008490B78002B3BD1EAE700BFB4
:100590007E120020F4110020700000206C0000206A
:1005A00058900120C0160020740000200C0C0C2074
:1005B000ECB80208349001200399DDF824E003F040
:1005C000020203F0010061F3070B5100079A41EAB0
:1005D000C0000EEBC301104360F30F2BC87C0193E6
:1005E00060F3174B6FF31F6B591948465A46CDF805
:1005F00008C018F047FF019BDDF808C00133042B49
:10060000DAD104350CF1010CBCF1070FA6D1039926
:10061000DDF818B000224BF0B00061F307024FF094
:10062000F403059903FB06FE60F30F22894B242097
:1006300000FB01EC0CEB030B29469BF8090060F36F
:10064000174222F07F42484618F01CFF0399DDF85C
:1006500018E09BF80A00002261F307024EF0B40391
:1006600063F30F2260F31742691C484618E00B2F12
:100670001DD118F0BFFE5021774B6060002261F35E
:100680000702F42101FB063165F30F2291F8EF30E8
:1006900003F0070161F01F03814663F31742294607
:1006A00022F07F4218F0EEFE484619F03FFBC8F3F7
:1006B000072505F02002D5B2002D63D018F09AFE70
:1006C000654BA060F42101FB06364FF05209002271
:1006D000B17A737A6FF0520769F3070267F30F225A
:1006E00061F3174263F31F620021054618F0CAFE4A
:1006F0000022317BF37A6FF0510069F3070260F357
:100700000F2261F3174263F31F622846012118F09C
:10071000B9FE0022B17B737B6FF0530069F30702CF
:1007200060F30F2261F3174263F31F622846022130
:1007300018F0A8FE002296F8581096F857306FF07F
:10074000590069F3070260F30F2261F3174263F364
:100750001F622846032118F095FE0022282069F325
:10076000070260F30F226FF00D0161F31742284674
:10077000042122F07F4206F1080718F083FE50366C
:1007800028463FE00120414601F042FA0499A0606A
:100790000529814638D8314B1878A8B30321032F97
:1007A00094BF4FF0520B4FF0530B013F97FBF1F208
:1007B000F42001FB127316FB00F62421264A01FBEC
:1007C0000767BF1805F002014A0005F0010043F079
:1007D000400142EAC00007EBC50208436BF3070A79
:1007E00060F30F2A107D019360F3174A6FF31F6ABD
:1007F000294648465246013518F044FE042D019B17
:10080000E0D1484619F092FA4146022001F000FA80
:10081000E0602046124C002109F0A0FA2378002164
:10082000180901220B4603F087FD227802F003012C
:10083000C2F3810008310122002303F07DFD094B42
:1008400009491A6800200870012090470BB0BDE8E4
:10085000F08F00BF609001205890012074000020AC
:100860007E12002070000020F411002038B5174CD3
:10087000054620780021000901220B4603F05CFDAB
:10088000227802F00301C2F3810008310122002323
:1008900003F052FD15F00F0305D1207825F00F016C
:1008A00000F00F030BE0072B0CDD207805F00301AF
:1008B00020F00F02AD0841EA020305F00C0143EA03
:1008C00001052570BDE83840FFF780BC7E1200208E
:1008D00070B50D46044600260136F6B2002204F03B
:1008E00001032846314603F027FD6408062EF3D1A4
:1008F0000026701CC6B2691CC8B2002204F00103B5
:10090000314603F019FD6408062EF2D104F001030C
:1009100028460721002203F00FFD64084DB904F0BA
:1009200001062420314603F067FC2520314603F000
:1009300063FC0021C4F3400328460A4603F0FCFC94
:10094000E40A08260022314604F00103284603F099
:10095000F3FC721CD6B264080C2EF3D135B92E20EC
:1009600004F00101BDE8704003F046BC70BD70B5F5
:10097000C4B2502C0E46C0F30723C0F3074506D17E
:10098000C5F341150A35012101FA05F142E004F0F1
:10099000FE01522953D1032004F0010444432F2BBC
:1009A0001146E4B221D81F2B5ED9002C5CD1282B34
:1009B0000DD105F007030540854255D0834201D98A
:1009C000591ECBB2D81C012101FA00F122E0A3F19B
:1009D0002400032802D842F0200145E02A3B012BE5
:1009E00033D942F00402D1B23EE09F2B14D803F079
:1009F0000300032838D02418E01C012202FA00F476
:100A000003F00400C3F3C00343EA50000A3021435B
:100A100002FA00F2114310E003F15800C0B20628B8
:100A2000D9D9B62B20D803F00302032A1CD0A3186F
:100A3000D81C012404FA00F2114389B214E084F0B6
:100A400080000F2804D842F0020141F400710BE04D
:100A5000A4F16103022B02D9703C0F2C02D842F0A2
:100A6000020101E042F001013046BDE8704003F0B0
:100A70001FBD2DE9F14FD1F1010BC7B238BF4FF0C7
:100A8000000BC0F3074A502FC0F307265FFA8AF520
:100A90004FEA106988465C4654D10020C5F34116E0
:100AA00002465B4606F1080103F046FC05F0100320
:100AB000D8B230B1EB430D204FEA4B0103F00F02E7
:100AC0003BE0032E2CD115F003060CBF5946002144
:100AD0004FF02B0003F090FB2C20012E0CBF594649
:100AE000002103F089FB2D20022E0CBF5946002166
:100AF00003F082FBC5F380052E20032E0CBF594660
:100B0000002103F079FB3020002D0CBF5946002155
:100B100003F072FB2F20002D14BF59460021A0E0E6
:100B200009F03F0205F00F0545EA0211C1F57F7398
:100B3000DA1C0C205946C2F3031201B0BDE8F04F95
:100B400003F080BB07F0FE03522B40F0BC81032072
:100B500007F0010747432F2EFFB200F2A2801F2E9D
:100B600040F22282002F40F01F82213E0B2E00F225
:100B70001B82DFE816F02D003B001902530019021A
:100B8000190257000C0019027B0084008A0005F04E
:100B90000300032805F0070200F00682032A01D9AA
:100BA000561EF2B2511C0020C9B20246234603F081
:100BB000C3FB2D09562615F0010F14BF2146002155
:100BC0003046013603F018FB6D085A2EF3D1EBE1E5
:100BD00015F0100F4FF0270014BF5946002103F005
:100BE0000BFB15F0200F4FF02A0009E010206100E8
:100BF00005F0070203F026FB15F0080F4FF029005F
:100C000014BF2146002103F0F7FA002001460246F6
:100C1000234601B0BDE8F04F03F08EBB0B2061000E
:100C20002A098AE7AE090CBF594600214FF023007C
:100C300003F0E2FA16F0010F14BF594600214FF0FD
:100C4000240003F0D9FA2520022E0CBF59460021BA
:100C500003F0D2FA15F0010F4FF0260014BF214621
:100C6000002101B0BDE8F04F03F0C6BA0CB1680036
:100C700000E0584601B0BDE8F04F03F0A7BB4FFAC3
:100C80008AF35A200BEAE371BDE715F0080F14BF91
:100C90005846002003F09AFB15F0200F4FF0280073
:100CA000AEE79F2E00F2928006F00301032900F0C8
:100CB0007B81C6F3C00006F004084A1C40EA5808CD
:100CC0000020B9185B46024603F036FB06F0F0063A
:100CD00008F13900594603F08FFA602E38D018D841
:100CE000402E22D0502E26D0302E40F05D8105F0CF
:100CF0000F020420C5F30215610003F0A3FA032DCF
:100D000084BFC5F10705EAB2594698BFEA1C052021
:100D100013E7802E28D0902E35D0702E40F04481DD
:100D200009206100C5F3430207E7EB434046610039
:100D3000C3F3C30201E706204FEA4B01C5F34302A8
:100D400003F080FA1D203F2D8CBF5946002188E713
:100D500007206100C5F3430203F074FA4FFA8AF1E9
:100D600022200BEAE1717CE76400E4B205F00F0297
:100D70000A2021462D0903F065FAC5F10F0208206B
:100D80002146D2B2D9E615F0010F05F00F0614BFC7
:100D9000594600214FF02100750803F02DFA15F097
:100DA000010F14BF594600214FF020006D0803F0D9
:100DB00023FA15F0010F4FF01F0014BF5946002110
:100DC00003F01AFA6D084FF01E0047E706F15801CC
:100DD000CAB2062A1ED8AD2E06D0AE2E06D0AC2E34
:100DE00040F0E280022602E0002600E0012600201A
:100DF00003210246234603F09FFA06F139002146FB
:100E000003F0FAF9B8F1000F1BD07C20202103F089
:100E100075FB8FE0B62E00F2C78006F00303032BAC
:100E200000F0C280591C0020791802465B4606F08B
:100E3000FC0603F081FAA02E00F0B680A42E10D19B
:100E4000E0E7C5F3C2017C20303103F057FB05F029
:100E50000703782049EA032101B0BDE8F04F03F011
:100E60007BBBB02E11D105F0070000EB0812D0B209
:100E700003F084FA11206100C5F3C20203F0E2F925
:100E800015F0380F4FF05300E8E6B42E40F08C8098
:100E90006600F6B20E2005F00702314603F0D2F9E3
:100EA0000F20C5F30112314603F0CCF915F0400FC5
:100EB0004FF0550014BF5946002103F09DF9ED098C
:100EC0004FF05400CAE687F080000F2818D82A2E69
:100ED0006AD10CB1680000E0584603F077FA192097
:100EE000214603F089F97420B8F1000F03D003F014
:100EF00097FB7C2010E0690003F02EFB7C200DE0C6
:100F0000A7F170010F290CD81920594603F074F984
:100F10007C20B8F1000F01D0202135E007F00F014F
:100F200011E0612F14D11920594603F065F9B8F189
:100F3000000F05D0782001B0BDE8F04F03F070BB82
:100F4000782045EA092101B0BDE8F04F03F04ABB23
:100F5000A7F16202012A1CD81920594603F04CF966
:100F6000B8F1000FE6D17820622F14BF3521362169
:100F700003F0C4FA7920302103F0C0FA7A2020214E
:100F800003F0BCFA7B20482101B0BDE8F04F03F02C
:100F9000B5BA4FEAC80808F1080303F0F80001B039
:100FA000BDE8F04F03F0EAB901B0BDE8F08F0000F2
:100FB0007FB50646F2B20846C6F30725C6F30741D9
:100FC000360E502ACCB234D104F01001C4F34112D1
:100FD000C9B2D3B261B1032B6FEA040303D1A549AF
:100FE00003F00F02BAE1A449013203F00F030FE04E
:100FF000032B12D104F00305A04AA14B52F825207F
:10100000A04DA14904F00404E4B2002C18BF2B4603
:1010100004B0BDE870400FF093B906F03F0304F050
:101020000F0444EA0311C1F57F730132974903337A
:10103000EEE702F0FE03522B40F06E81032302F034
:1010400001025A432F2DD2B268D81F2D40F2918150
:10105000002A40F08E81213D0B2D00F28A81DFE8CD
:1010600015F037003B008801410047008801490026
:101070000C00880151005400570004F00303032BB7
:1010800004F0070200F07581032A01D9551EEAB267
:1010900004F0100304F0200504F04004EDB2E4B2C3
:1010A00049B20029ACBF2D214F21DBB2002D0CBF6E
:1010B0002D254F25002C0CBF2D244F240291009587
:1010C000019473490132002B0CBF2D234F2320E1E3
:1010D0007049C4F300121EE06F49C4F3C00204F06B
:1010E000070395E706F003026C4942EA840235E102
:1010F0006B49A1E06B4B6C49A20953F8222004F024
:10110000010385E76949224628E16949E20925E1A9
:101110006849C4F3C002C4F3401379E79F2D65D832
:1011200005F00301032900F02481C5F3C003521820
:1011300005F0040105F0F005602D43EA51032ED0BF
:1011400014D8402D1ED0502D22D0302D40F01181CA
:10115000C4F3021101320133032988BFC1F1040134
:1011600004F00F0401910094534900E1802D22D036
:10117000902D29D0702D40F0FC8004F01F040094C5
:101180004E4915E0E44304F07F0400944C490FE01D
:1011900004F01F01A409009101944A4905E004F0FC
:1011A0001F010091E4094849019401320133DEE056
:1011B000013201335AE004F00F012409C4F10F0495
:1011C000009101944149F0E7C4F3C0010091C4F3D8
:1011D00080010191C4F3400104F0010402910394E1
:1011E0003B49013201330FF0ABF8C2E005F158037F
:1011F000DBB2062B12D8AD2D06D0AE2D06D0AC2D0D
:1012000040F0B780022202E0002200E0012204F058
:10121000070346EA032600962E491AE0B62D00F28F
:10122000A88005F00303032B00F0A38005F0FC0564
:10123000A02D1A4405D1284904B0BDE870401AF029
:10124000C2BAA42D09D104F0070146EA01262349B8
:1012500000960132C4F3C20308E0B02D42D1C4F3BA
:10126000C2031F490093013204F007030FF068F82E
:101270007FE000BF24B902082EB90208F8B80208BE
:101280001EB9020818B902083AB902084EB9020894
:101290005BB902086FB9020885B902089AB9020859
:1012A000A6B9020808B90208BAB90208D0B90208FA
:1012B000DCB90208EAB9020804BA020873BA0208E3
:1012C00020BA020833BA020851BA02088ABA0208E0
:1012D000ADBA0208D7BA0208F2BA020809BB02087E
:1012E00020BB0208B42D44D104F0400349B20029C8
:1012F000ACBF2D215221DBB2002B0CBF2D234C2380
:10130000C4F3011502911C4901930095013204F0C8
:1013100007030FF015F82CE0A2F18003D9B20F29D2
:1013200004D82A2D25D11549224671E6A2F1700371
:101330000F2B02D812496F3A10E0612A03D11149EC
:1013400044EA06220AE0622A03D10F4940F2DF2272
:1013500004E0632A07D10D4940F2723204B0BDE8BF
:1013600070400EF0EDBF8DE8500009492B460EF09D
:10137000E7FF04B070BD00BF3FBB020865BB0208B9
:101380007FBB02088DBB02089ABB0208A9BB0208FA
:10139000B8BB02082DE9F8430446E7B2502F0846CF
:1013A0009DF824609DF820109DF828C0254664D142
:1013B000C4F30747F9B2FF2EC1F3411C04D00CF16E
:1013C0000808464540F04A8301F01006F6B296B18F
:1013D000102840F0998301F00F018A1A03D40F2AD4
:1013E000A8BF0F2200E0002227F00F0042EA00070A
:1013F00067F3174529E2BCF1030F1DD1502B10D123
:101400004E1C06F0030127F003070F4367F317454F
:1014100021B1CB1E5A4252EB030600E00126742094
:1014200006E3512B40F0708381F0040060F3174510
:10143000C1F380017420FBE20F2840F06583C4F300
:10144000056001F00F0343EA00118A1805D440F249
:10145000FF36B242B8BF1646FFE706F00F0027F08E
:101460000F07074367F31745C5F30763C6F30B116F
:1014700023F03F0241EA0200B3E007F0FE08B8F1B2
:10148000520F40F0E3824FF0030807F0010708FB1A
:1014900007F75FFA87F8C4F307272F2F00F21081B0
:1014A0001F2F40F23183B8F1000F40F02D83213F10
:1014B0000B2F00F22983DFE817F03A0055002703CD
:1014C000770097002703A4000C002703CE00DD005F
:1014D000F100FF2E10D0C4F3074000F0070200F027
:1014E0000300032800F0BA82032A01D9013AD2B2DC
:1014F000501C864240F0B282342B40F00583C4F386
:10150000074787EA0116F7B267F31745042647FA3B
:1015100006F313F0010F06F17001C8B20CBF2D21C4
:101520004F21013602F0EAFF082EF0D1ECE2013E35
:10153000F6B2FD2E40F29282482B09D1C4F3074146
:1015400081F0100262F317457420C2F30011A1E08C
:101550004B2B40F0D982C4F3074181F0200363F3A1
:101560001745A9E0013EF6B2FD2E40F277824A2BE4
:1015700009D1C4F3074282F0080060F31745C2F3B3
:101580008001742086E0132840F0BE82C4F3074334
:1015900003F007018E1803D4072EA8BF072600E02A
:1015A000002623F0070228E1FF2E02D0032E40F090
:1015B00055820C2840F0A882C4F30741C4F30160AF
:1015C00040EA81039E1805D440F2FF329642A8BF3C
:1015D000164600E00026C6F38D0161F3174506F0BC
:1015E000030060F31F655DE2FF2E02D0032E40F082
:1015F0003582C0480BF076FA77203F2102F07EFF5B
:1016000082E2FF2E02D0032E40F02882462B08D122
:10161000C4F307404030C3B263F3174574209909FF
:101620000AE0472B0AD1C4F3074282F0010161F3BB
:101630001745742001F0010102F08EFFC4F3074644
:10164000D6F10106C5F3074238BF0026002A08BFBD
:1016500086F0010659E2FF2E02D0072E40F0FE81EF
:10166000002800F05182C4F30740861840F1FE8143
:10167000002600E2FF2E02D0072E40F0EF81352B2E
:1016800040F04282C4F3074383F0800262F31745BF
:101690007420D10902F060FF012636E2721ED6B234
:1016A000FD2E40F2DB81492B40F02E82C4F3074629
:1016B00086F0200161F317457420C1F34011E9E77A
:1016C0009F2F00F2F08007F00409C7F3C001FF2E3E
:1016D00041EA59010ED0614540F0C08107F0030C8A
:1016E000BCF1030F00F0BA81C4440CF1010C664553
:1016F00040F0B48107F0F007602F60D007D8402F8A
:1017000041D0502F57D0302F40F0FE8108E0802F7D
:1017100078D0902F00F09C80702F40F0F5815CE035
:10172000052871D0062840F0EF81C4F30740C0F3CC
:101730000213052B03D1002A13DD561E14E023B932
:10174000002A10DAC2F104060EE0072B02D1002AAB
:1017500007DA83E1032B03D1002A00F37F8102E043
:1017600001D99E1A00E09E18F2B2032A00F00F0180
:1017700041EA021688BFC2F1040266F317458CBF26
:1017800096B216468EE14E1CB04240F0BD81C4F3C5
:10179000074000F07F018A1A03D47F2AA8BF7F2266
:1017A00000E0002220F07F0342EA030666F31745BB
:1017B000C2F17F0676E1072812D03C2B3CE10828D5
:1017C0000ED0412B40F0A081C4F3074686F0800381
:1017D00063F317457420D90966E10A2840F0948123
:1017E000C4F3074000F01F018E1803D41F2EA8BFBA
:1017F0001F2600E0002620F01F0246EA020363F3E2
:1018000017454FE10B280DD1C4F3074303F00F0137
:101810008E1803D40F2EA8BF0F2600E0002623F059
:101820000F02EAE7092840F06F81C4F30743D2EBC7
:10183000131203D40F2AA8BF0F2200E0002203F0E6
:101840000F0646EA021060F31745C2F10F0629E1C0
:101850003D2B04D1C4F3074686F0080113E03E2B6C
:1018600004D1C4F3074383F004010CE03F2B04D1FF
:10187000C4F3074282F0020105E0402B05D1C4F316
:10188000074080F0010161F31745C5F30740C4F339
:101890000741884202D97420012105E180F034819A
:1018A0007420002100E107F158095FFA89F9B9F1C4
:1018B000060F21D8FF2E02D0032E40F0CF8007F173
:1018C0005401CBB2022B00F2C980BCF1FF0F2FD024
:1018D000AD2F04D1BCF1000F40F0C08028E0AE2F46
:1018E00002D1BCF1010F21E0AC2F40F0B780BCF178
:1018F000020F1BE0ADB90208B62F00F20581FF2EE2
:101900000BD007F00309B9F1030F00F0A780C8441A
:1019100008F10108464540F0A18007F0FC07A42F1C
:1019200026D1BCF1FF0F03D0BCF1030F40F096802D
:101930000D2830D00E2840F0E780C4F30743260E70
:1019400003F0070046EA00218E1805D440F6FF7226
:101950009642A8BF164600E00026C6F3072023F0F3
:10196000070340EA030161F3174566F31F6599E039
:10197000B02F20D1332B0BD1C4F3074020F0070642
:1019800001F0070242EA060363F3174574208BE077
:10199000142840F0B980C4F30740C0F3C206B6185B
:1019A00005D5002620F0380242EAC60327E7072EB5
:1019B000A8BF0726F6E7B42F40F0A680112818D15B
:1019C000C4F3074101F00700861804D4072EB4BF02
:1019D0003246072200E0002212F0FF0F14BF00265B
:1019E000012621F00703002808BF86F001061343F3
:1019F0001AE012281FD1C4F30740C0F3011399184D
:101A000004D40329B4BF0A46032200E0002212F0E6
:101A1000FF0F14BF0026012620F03000002B08BF66
:101A200086F0010640EA021363F31745742011B2F1
:101A300002F092FD69E0322B66D1C4F307404030DA
:101A4000C3B263F31745742099092DE087F0800332
:101A50000F2B13D8C4F307212A2902D02046BDE852
:101A6000F88378B9C4F307439E1803D4FF2EA8BFA8
:101A7000FF2600E0064666F3174513E0A7F1700164
:101A80000F2914D80D283FD107F00F07BF1804D431
:101A90000F2FB4BF3E460F2600E0002646F080021E
:101AA00062F30705742031B202F056FD2CE0612F7D
:101AB0002AD1260C0E2801D0042801D1B6180FE037
:101AC000032802D106EB02160AE0022802D106EB37
:101AD000022605E0012801D00D2801D106EB0236CF
:101AE000002E06DB4FF6FF729642B4BF3346134614
:101AF00000E00023C3F3072063F3174560F31F657D
:101B000099B2742002F06EFD0026A5420ED0094B5A
:101B1000094A186811684368994201D108F0DCF855
:101B200026B106480AF0DEFF05F006FE2846BDE8AD
:101B3000F88300BF8012002084120020F6BB020848
:101B40002DE9F04F0E468BB09146D0F820809DF8DD
:101B50005820F07D9DF8541007929B469DF8503018
:101B60000691C20705939DF85C70F4680BD4274A70
:101B7000C0F38103F42101FB03204579AB090CBFBD
:101B80000025012500E0002525B9A9F10D03012B51
:101B900098BFFF27A500D8F80010069A51F805A0B5
:101BA0000798009201900297504649465A46059B75
:101BB000FFF7F0FB504509901ED0D8F8003058517F
:101BC0009DF82400502801D100200AE000F0FE0119
:101BD000522901D1503804E080F080020F2A0FD83A
:101BE00002208DF8240009A9304616F07EFF0998DE
:101BF000002118F005FC03E0043D1CB1013CCAE7DC
:101C0000012000E020460BB0BDE8F08F5890012085
:101C10002DE9F04F022887B005460E4600F24782B4
:101C20008DE8081017F0E6FB012D04469DE808102A
:101C300000F01181022D00F0EE81C6F3072707F0B6
:101C40004005EDB20396EDB15225002265F307027F
:101C5000212161F30F226FF31742002122F07F420E
:101C600017F010FC002365F307032C2060F30F230B
:101C70006FF3174323F07F422046012117F002FC47
:101C8000009B022516F4403F17D05221002261F339
:101C900007022220C6F3824160F30F2241F00800C0
:101CA00060F317422946204622F07F42009305F157
:101CB000010817F0E7FB009B454607F02007FAB242
:101CC00012B35227002267F30702272161F30F2284
:101CD000402060F317422946204622F07F420093BD
:101CE00017F0D0FB002367F30703242767F30F23C4
:101CF0006FF3174305F1010823F07F422046414668
:101D000017F0C0FB009B02350027039AD20779D554
:101D10000320B7FBF0F100FB1172D0B20290AC4689
:101D20004FF000095FFA89F102980491033140EA0B
:101D30000112D1B205914FF00008C04819F80020F7
:101D40000498012808EB0C015FFA88FE03D1BEF16C
:101D5000030F08BF0822022F94BF5220532060F3C4
:101D6000070308F00200400008F0010E40EACE0E22
:101D700005984EEA000E6EF30F2362F317436FF3DC
:101D80001F631A46204608F101088DE8081017F075
:101D900079FBB8F1040F9DE80810CED109F10109D3
:101DA000B9F1070F0CF1040CBCD1029B022F94BFB8
:101DB0004FF052084FF0530863F04F0168F3070BE0
:101DC00061F30F2B6FF3174B6FF31F6B05F11C01C2
:101DD00020465A4617F056FB029A68F3070A62F04B
:101DE0004B006FF03F0360F30F2A63F3174A05F1CE
:101DF0001D096FF31F6A20464946524617F042FB01
:101E0000009B1E3503990137FFB24A08062F039243
:101E10007FF47BAF360E06F00800C3B2002B00F053
:101E2000428106F0100650210022F6B261F307024B
:101E300026B16FF30F226FF01801E5E06FF01B0081
:101E400066F30F2260F3174266F31F6220462946AD
:101E500017F018FB27E10027B2463D461AF0010FA4
:101E600079D0022F43D1C6F3072101F02003D8B265
:101E700000283CD0724B00211A680093482019F0CA
:101E80000DF94FF0520B02466BF307026FF052014F
:101E900061F30F222046294617F0F4FA009A002138
:101EA0001268432019F0FAF802466BF307026FF04C
:101EB000510005F1020C60F30F22691C2046CDF899
:101EC00004C017F0DFFA009B00211A68402019F0C7
:101ED000E5F802466BF30702DDF804B06FF053013A
:101EE00061F30F2220465946033517F0CBFA544AC6
:101EF00000213C20126819F0D1F80323B7FBF3F15D
:101F00000246022F94BF5220532060F3070203FBC6
:101F100011705C3860F30F222946204617F0B2FAA0
:101F20005222282305F1010B62F307090235022F23
:101F300063F30F2904D9781C60F00F02D1B201E0DD
:101F400047F0F00161F317496FF31F6920465946C6
:101F50004A4617F097FA0137FFB2062F4FEA5A0A9E
:101F60007FF47CAF4FEA1669002719F0010F37D0D4
:101F7000344B00211A683C2019F0BEF84FEA471B89
:101F8000502102466BF07F03C0F30740184361F312
:101F900007026FF30F22C1B261F3174220462946B0
:101FA00017F070FAFAB2022A05F1010A05D1C6F358
:101FB000076303F01000C1B289B9502262F3070829
:101FC0006BF06F0B6FF30F286BF317486FF31F68FD
